Archive member included to satisfy reference by file (symbol)

/home/mparamidani/CIAA/gcc-arm-none-eabi-7-2018-q2-update/bin/../lib/gcc/arm-none-eabi/7.3.1/thumb/v7e-m/fpv4-sp/hard/libgcc.a(_arm_addsubdf3.o)
                              examples_c/sapi/bluetooth/hm10_uart_bridge/out/libs/sapi/sapi_v0.5.2/external_peripherals/src/sapi_imu_mpu9250.o (__aeabi_dadd)
/home/mparamidani/CIAA/gcc-arm-none-eabi-7-2018-q2-update/bin/../lib/gcc/arm-none-eabi/7.3.1/thumb/v7e-m/fpv4-sp/hard/libgcc.a(_arm_muldivdf3.o)
                              examples_c/sapi/bluetooth/hm10_uart_bridge/out/libs/sapi/sapi_v0.5.2/soc/core/src/sapi_cyclesCounter.o (__aeabi_ddiv)
/home/mparamidani/CIAA/gcc-arm-none-eabi-7-2018-q2-update/bin/../lib/gcc/arm-none-eabi/7.3.1/thumb/v7e-m/fpv4-sp/hard/libgcc.a(_arm_truncdfsf2.o)
                              examples_c/sapi/bluetooth/hm10_uart_bridge/out/libs/sapi/sapi_v0.5.2/soc/core/src/sapi_cyclesCounter.o (__aeabi_d2f)
/home/mparamidani/CIAA/gcc-arm-none-eabi-7-2018-q2-update/bin/../lib/gcc/arm-none-eabi/7.3.1/thumb/v7e-m/fpv4-sp/hard/libgcc.a(_aeabi_ldivmod.o)
                              examples_c/sapi/bluetooth/hm10_uart_bridge/out/libs/sapi/sapi_v0.5.2/abstract_modules/src/sapi_convert.o (__aeabi_ldivmod)
/home/mparamidani/CIAA/gcc-arm-none-eabi-7-2018-q2-update/bin/../lib/gcc/arm-none-eabi/7.3.1/thumb/v7e-m/fpv4-sp/hard/libgcc.a(_aeabi_uldivmod.o)
                              examples_c/sapi/bluetooth/hm10_uart_bridge/out/libs/lpc_open/lpc_chip_43xx/src/i2s_18xx_43xx.o (__aeabi_uldivmod)
/home/mparamidani/CIAA/gcc-arm-none-eabi-7-2018-q2-update/bin/../lib/gcc/arm-none-eabi/7.3.1/thumb/v7e-m/fpv4-sp/hard/libgcc.a(_udivmoddi4.o)
                              /home/mparamidani/CIAA/gcc-arm-none-eabi-7-2018-q2-update/bin/../lib/gcc/arm-none-eabi/7.3.1/thumb/v7e-m/fpv4-sp/hard/libgcc.a(_aeabi_ldivmod.o) (__udivmoddi4)
/home/mparamidani/CIAA/gcc-arm-none-eabi-7-2018-q2-update/bin/../lib/gcc/arm-none-eabi/7.3.1/thumb/v7e-m/fpv4-sp/hard/libgcc.a(_dvmd_tls.o)
                              /home/mparamidani/CIAA/gcc-arm-none-eabi-7-2018-q2-update/bin/../lib/gcc/arm-none-eabi/7.3.1/thumb/v7e-m/fpv4-sp/hard/libgcc.a(_aeabi_ldivmod.o) (__aeabi_ldiv0)
/home/mparamidani/CIAA/gcc-arm-none-eabi-7-2018-q2-update/bin/../lib/gcc/arm-none-eabi/7.3.1/../../../../arm-none-eabi/lib/thumb/v7e-m/fpv4-sp/hard/libc_nano.a(lib_a-init.o)
                              examples_c/sapi/bluetooth/hm10_uart_bridge/out/libs/cmsis_core//src/armv7m_startup.o (__libc_init_array)
/home/mparamidani/CIAA/gcc-arm-none-eabi-7-2018-q2-update/bin/../lib/gcc/arm-none-eabi/7.3.1/../../../../arm-none-eabi/lib/thumb/v7e-m/fpv4-sp/hard/libc_nano.a(lib_a-memcpy-stub.o)
                              examples_c/sapi/bluetooth/hm10_uart_bridge/out/libs/lpc_open/lpc_chip_43xx/src/ring_buffer.o (memcpy)
/home/mparamidani/CIAA/gcc-arm-none-eabi-7-2018-q2-update/bin/../lib/gcc/arm-none-eabi/7.3.1/../../../../arm-none-eabi/lib/thumb/v7e-m/fpv4-sp/hard/libc_nano.a(lib_a-memset.o)
                              examples_c/sapi/bluetooth/hm10_uart_bridge/out/libs/lpc_open/lpc_chip_43xx/src/clock_18xx_43xx.o (memset)
/home/mparamidani/CIAA/gcc-arm-none-eabi-7-2018-q2-update/bin/../lib/gcc/arm-none-eabi/7.3.1/../../../../arm-none-eabi/lib/thumb/v7e-m/fpv4-sp/hard/libc_nano.a(lib_a-puts.o)
                              examples_c/sapi/bluetooth/hm10_uart_bridge/out/libs/sapi/sapi_v0.5.2/soc/peripherals/usb/device/src/sapi_usb_device.o (puts)
/home/mparamidani/CIAA/gcc-arm-none-eabi-7-2018-q2-update/bin/../lib/gcc/arm-none-eabi/7.3.1/../../../../arm-none-eabi/lib/thumb/v7e-m/fpv4-sp/hard/libc_nano.a(lib_a-strcpy.o)
                              examples_c/sapi/bluetooth/hm10_uart_bridge/out/libs/sapi/sapi_v0.5.2/external_peripherals/src/sapi_esp8266.o (strcpy)
/home/mparamidani/CIAA/gcc-arm-none-eabi-7-2018-q2-update/bin/../lib/gcc/arm-none-eabi/7.3.1/../../../../arm-none-eabi/lib/thumb/v7e-m/fpv4-sp/hard/libc_nano.a(lib_a-strlen.o)
                              examples_c/sapi/bluetooth/hm10_uart_bridge/out/libs/sapi/sapi_v0.5.2/external_peripherals/src/sapi_esp8266.o (strlen)
/home/mparamidani/CIAA/gcc-arm-none-eabi-7-2018-q2-update/bin/../lib/gcc/arm-none-eabi/7.3.1/../../../../arm-none-eabi/lib/thumb/v7e-m/fpv4-sp/hard/libc_nano.a(lib_a-wbuf.o)
                              /home/mparamidani/CIAA/gcc-arm-none-eabi-7-2018-q2-update/bin/../lib/gcc/arm-none-eabi/7.3.1/../../../../arm-none-eabi/lib/thumb/v7e-m/fpv4-sp/hard/libc_nano.a(lib_a-puts.o) (__swbuf_r)
/home/mparamidani/CIAA/gcc-arm-none-eabi-7-2018-q2-update/bin/../lib/gcc/arm-none-eabi/7.3.1/../../../../arm-none-eabi/lib/thumb/v7e-m/fpv4-sp/hard/libc_nano.a(lib_a-wsetup.o)
                              /home/mparamidani/CIAA/gcc-arm-none-eabi-7-2018-q2-update/bin/../lib/gcc/arm-none-eabi/7.3.1/../../../../arm-none-eabi/lib/thumb/v7e-m/fpv4-sp/hard/libc_nano.a(lib_a-puts.o) (__swsetup_r)
/home/mparamidani/CIAA/gcc-arm-none-eabi-7-2018-q2-update/bin/../lib/gcc/arm-none-eabi/7.3.1/../../../../arm-none-eabi/lib/thumb/v7e-m/fpv4-sp/hard/libc_nano.a(lib_a-fflush.o)
                              /home/mparamidani/CIAA/gcc-arm-none-eabi-7-2018-q2-update/bin/../lib/gcc/arm-none-eabi/7.3.1/../../../../arm-none-eabi/lib/thumb/v7e-m/fpv4-sp/hard/libc_nano.a(lib_a-wbuf.o) (_fflush_r)
/home/mparamidani/CIAA/gcc-arm-none-eabi-7-2018-q2-update/bin/../lib/gcc/arm-none-eabi/7.3.1/../../../../arm-none-eabi/lib/thumb/v7e-m/fpv4-sp/hard/libc_nano.a(lib_a-findfp.o)
                              /home/mparamidani/CIAA/gcc-arm-none-eabi-7-2018-q2-update/bin/../lib/gcc/arm-none-eabi/7.3.1/../../../../arm-none-eabi/lib/thumb/v7e-m/fpv4-sp/hard/libc_nano.a(lib_a-puts.o) (__sinit)
/home/mparamidani/CIAA/gcc-arm-none-eabi-7-2018-q2-update/bin/../lib/gcc/arm-none-eabi/7.3.1/../../../../arm-none-eabi/lib/thumb/v7e-m/fpv4-sp/hard/libc_nano.a(lib_a-fwalk.o)
                              /home/mparamidani/CIAA/gcc-arm-none-eabi-7-2018-q2-update/bin/../lib/gcc/arm-none-eabi/7.3.1/../../../../arm-none-eabi/lib/thumb/v7e-m/fpv4-sp/hard/libc_nano.a(lib_a-findfp.o) (_fwalk)
/home/mparamidani/CIAA/gcc-arm-none-eabi-7-2018-q2-update/bin/../lib/gcc/arm-none-eabi/7.3.1/../../../../arm-none-eabi/lib/thumb/v7e-m/fpv4-sp/hard/libc_nano.a(lib_a-impure.o)
                              /home/mparamidani/CIAA/gcc-arm-none-eabi-7-2018-q2-update/bin/../lib/gcc/arm-none-eabi/7.3.1/../../../../arm-none-eabi/lib/thumb/v7e-m/fpv4-sp/hard/libc_nano.a(lib_a-fflush.o) (_global_impure_ptr)
/home/mparamidani/CIAA/gcc-arm-none-eabi-7-2018-q2-update/bin/../lib/gcc/arm-none-eabi/7.3.1/../../../../arm-none-eabi/lib/thumb/v7e-m/fpv4-sp/hard/libc_nano.a(lib_a-makebuf.o)
                              /home/mparamidani/CIAA/gcc-arm-none-eabi-7-2018-q2-update/bin/../lib/gcc/arm-none-eabi/7.3.1/../../../../arm-none-eabi/lib/thumb/v7e-m/fpv4-sp/hard/libc_nano.a(lib_a-wsetup.o) (__smakebuf_r)
/home/mparamidani/CIAA/gcc-arm-none-eabi-7-2018-q2-update/bin/../lib/gcc/arm-none-eabi/7.3.1/../../../../arm-none-eabi/lib/thumb/v7e-m/fpv4-sp/hard/libc_nano.a(lib_a-nano-freer.o)
                              /home/mparamidani/CIAA/gcc-arm-none-eabi-7-2018-q2-update/bin/../lib/gcc/arm-none-eabi/7.3.1/../../../../arm-none-eabi/lib/thumb/v7e-m/fpv4-sp/hard/libc_nano.a(lib_a-wsetup.o) (_free_r)
/home/mparamidani/CIAA/gcc-arm-none-eabi-7-2018-q2-update/bin/../lib/gcc/arm-none-eabi/7.3.1/../../../../arm-none-eabi/lib/thumb/v7e-m/fpv4-sp/hard/libc_nano.a(lib_a-nano-mallocr.o)
                              /home/mparamidani/CIAA/gcc-arm-none-eabi-7-2018-q2-update/bin/../lib/gcc/arm-none-eabi/7.3.1/../../../../arm-none-eabi/lib/thumb/v7e-m/fpv4-sp/hard/libc_nano.a(lib_a-findfp.o) (_malloc_r)
/home/mparamidani/CIAA/gcc-arm-none-eabi-7-2018-q2-update/bin/../lib/gcc/arm-none-eabi/7.3.1/../../../../arm-none-eabi/lib/thumb/v7e-m/fpv4-sp/hard/libc_nano.a(lib_a-stdio.o)
                              /home/mparamidani/CIAA/gcc-arm-none-eabi-7-2018-q2-update/bin/../lib/gcc/arm-none-eabi/7.3.1/../../../../arm-none-eabi/lib/thumb/v7e-m/fpv4-sp/hard/libc_nano.a(lib_a-findfp.o) (__sread)
/home/mparamidani/CIAA/gcc-arm-none-eabi-7-2018-q2-update/bin/../lib/gcc/arm-none-eabi/7.3.1/../../../../arm-none-eabi/lib/thumb/v7e-m/fpv4-sp/hard/libc_nano.a(lib_a-mlock.o)
                              /home/mparamidani/CIAA/gcc-arm-none-eabi-7-2018-q2-update/bin/../lib/gcc/arm-none-eabi/7.3.1/../../../../arm-none-eabi/lib/thumb/v7e-m/fpv4-sp/hard/libc_nano.a(lib_a-nano-freer.o) (__malloc_lock)

Allocating common symbols
Common symbol       size              file

dht11_timeout       0x4               examples_c/sapi/bluetooth/hm10_uart_bridge/out/libs/sapi/sapi_v0.5.2/external_peripherals/src/sapi_dht11.o
dht11_timeout_max   0x4               examples_c/sapi/bluetooth/hm10_uart_bridge/out/libs/sapi/sapi_v0.5.2/external_peripherals/src/sapi_dht11.o
SystemCoreClock     0x4               examples_c/sapi/bluetooth/hm10_uart_bridge/out/libs/lpc_open/lpc_chip_43xx/src/chip_18xx_43xx.o
g_pUsbApi           0x4               examples_c/sapi/bluetooth/hm10_uart_bridge/out/libs/sapi/sapi_v0.5.2/soc/peripherals/usb/device/src/sapi_usb_device.o
tickRateMS          0x8               examples_c/sapi/bluetooth/hm10_uart_bridge/out/libs/sapi/sapi_v0.5.2/soc/peripherals/src/sapi_tick.o

Discarded input sections

 .group         0x0000000000000000        0xc examples_c/sapi/bluetooth/hm10_uart_bridge/out/examples_c/sapi/bluetooth/hm10_uart_bridge/src/hm10_uart_bridge.o
 .group         0x0000000000000000        0xc examples_c/sapi/bluetooth/hm10_uart_bridge/out/examples_c/sapi/bluetooth/hm10_uart_bridge/src/hm10_uart_bridge.o
 .group         0x0000000000000000        0xc examples_c/sapi/bluetooth/hm10_uart_bridge/out/examples_c/sapi/bluetooth/hm10_uart_bridge/src/hm10_uart_bridge.o
 .group         0x0000000000000000        0xc examples_c/sapi/bluetooth/hm10_uart_bridge/out/examples_c/sapi/bluetooth/hm10_uart_bridge/src/hm10_uart_bridge.o
 .group         0x0000000000000000        0xc examples_c/sapi/bluetooth/hm10_uart_bridge/out/examples_c/sapi/bluetooth/hm10_uart_bridge/src/hm10_uart_bridge.o
 .group         0x0000000000000000        0xc examples_c/sapi/bluetooth/hm10_uart_bridge/out/examples_c/sapi/bluetooth/hm10_uart_bridge/src/hm10_uart_bridge.o
 .group         0x0000000000000000        0xc examples_c/sapi/bluetooth/hm10_uart_bridge/out/examples_c/sapi/bluetooth/hm10_uart_bridge/src/hm10_uart_bridge.o
 .group         0x0000000000000000        0xc examples_c/sapi/bluetooth/hm10_uart_bridge/out/examples_c/sapi/bluetooth/hm10_uart_bridge/src/hm10_uart_bridge.o
 .group         0x0000000000000000        0xc examples_c/sapi/bluetooth/hm10_uart_bridge/out/examples_c/sapi/bluetooth/hm10_uart_bridge/src/hm10_uart_bridge.o
 .group         0x0000000000000000        0xc examples_c/sapi/bluetooth/hm10_uart_bridge/out/examples_c/sapi/bluetooth/hm10_uart_bridge/src/hm10_uart_bridge.o
 .group         0x0000000000000000        0xc examples_c/sapi/bluetooth/hm10_uart_bridge/out/examples_c/sapi/bluetooth/hm10_uart_bridge/src/hm10_uart_bridge.o
 .group         0x0000000000000000        0xc examples_c/sapi/bluetooth/hm10_uart_bridge/out/examples_c/sapi/bluetooth/hm10_uart_bridge/src/hm10_uart_bridge.o
 .group         0x0000000000000000        0xc examples_c/sapi/bluetooth/hm10_uart_bridge/out/examples_c/sapi/bluetooth/hm10_uart_bridge/src/hm10_uart_bridge.o
 .group         0x0000000000000000        0xc examples_c/sapi/bluetooth/hm10_uart_bridge/out/examples_c/sapi/bluetooth/hm10_uart_bridge/src/hm10_uart_bridge.o
 .group         0x0000000000000000        0xc examples_c/sapi/bluetooth/hm10_uart_bridge/out/examples_c/sapi/bluetooth/hm10_uart_bridge/src/hm10_uart_bridge.o
 .group         0x0000000000000000        0xc examples_c/sapi/bluetooth/hm10_uart_bridge/out/examples_c/sapi/bluetooth/hm10_uart_bridge/src/hm10_uart_bridge.o
 .group         0x0000000000000000        0xc examples_c/sapi/bluetooth/hm10_uart_bridge/out/examples_c/sapi/bluetooth/hm10_uart_bridge/src/hm10_uart_bridge.o
 .group         0x0000000000000000        0xc examples_c/sapi/bluetooth/hm10_uart_bridge/out/examples_c/sapi/bluetooth/hm10_uart_bridge/src/hm10_uart_bridge.o
Memory Configuration

Name             Origin             Length             Attributes
MFlashA512       0x000000001a000000 0x0000000000080000 xr
MFlashB512       0x000000001b000000 0x0000000000080000 xr
RamLoc32         0x0000000010000000 0x0000000000008000 xrw
RamLoc40         0x0000000010080000 0x000000000000a000 xrw
RamAHB32         0x0000000020000000 0x0000000000008000 xrw
RamAHB16         0x0000000020008000 0x0000000000004000 xrw
RamAHB_ETB16     0x000000002000c000 0x0000000000004000 xrw
*default*        0x0000000000000000 0xffffffffffffffff

Linker script and memory map

START GROUP
LOAD examples_c/sapi/bluetooth/hm10_uart_bridge/out/examples_c/sapi/bluetooth/hm10_uart_bridge/src/hm10_uart_bridge.o
LOAD examples_c/sapi/bluetooth/hm10_uart_bridge/out/libs/cmsis_core//src/armv7m_startup.o
LOAD examples_c/sapi/bluetooth/hm10_uart_bridge/out/libs/sys_newlib//src/system.o
LOAD examples_c/sapi/bluetooth/hm10_uart_bridge/out/libs/lpc_open/boards/edu_ciaa_nxp/src/board.o
LOAD examples_c/sapi/bluetooth/hm10_uart_bridge/out/libs/lpc_open/boards/edu_ciaa_nxp/src/board_sysinit.o
LOAD examples_c/sapi/bluetooth/hm10_uart_bridge/out/libs/lpc_open/lpc_chip_43xx/src/ccan_18xx_43xx.o
LOAD examples_c/sapi/bluetooth/hm10_uart_bridge/out/libs/lpc_open/lpc_chip_43xx/src/gpiogroup_18xx_43xx.o
LOAD examples_c/sapi/bluetooth/hm10_uart_bridge/out/libs/lpc_open/lpc_chip_43xx/src/ritimer_18xx_43xx.o
LOAD examples_c/sapi/bluetooth/hm10_uart_bridge/out/libs/lpc_open/lpc_chip_43xx/src/i2s_18xx_43xx.o
LOAD examples_c/sapi/bluetooth/hm10_uart_bridge/out/libs/lpc_open/lpc_chip_43xx/src/lcd_18xx_43xx.o
LOAD examples_c/sapi/bluetooth/hm10_uart_bridge/out/libs/lpc_open/lpc_chip_43xx/src/uart_18xx_43xx.o
LOAD examples_c/sapi/bluetooth/hm10_uart_bridge/out/libs/lpc_open/lpc_chip_43xx/src/adc_18xx_43xx.o
LOAD examples_c/sapi/bluetooth/hm10_uart_bridge/out/libs/lpc_open/lpc_chip_43xx/src/clock_18xx_43xx.o
LOAD examples_c/sapi/bluetooth/hm10_uart_bridge/out/libs/lpc_open/lpc_chip_43xx/src/chip_18xx_43xx.o
LOAD examples_c/sapi/bluetooth/hm10_uart_bridge/out/libs/lpc_open/lpc_chip_43xx/src/pmc_18xx_43xx.o
LOAD examples_c/sapi/bluetooth/hm10_uart_bridge/out/libs/lpc_open/lpc_chip_43xx/src/otp_18xx_43xx.o
LOAD examples_c/sapi/bluetooth/hm10_uart_bridge/out/libs/lpc_open/lpc_chip_43xx/src/aes_18xx_43xx.o
LOAD examples_c/sapi/bluetooth/hm10_uart_bridge/out/libs/lpc_open/lpc_chip_43xx/src/sysinit_18xx_43xx.o
LOAD examples_c/sapi/bluetooth/hm10_uart_bridge/out/libs/lpc_open/lpc_chip_43xx/src/atimer_18xx_43xx.o
LOAD examples_c/sapi/bluetooth/hm10_uart_bridge/out/libs/lpc_open/lpc_chip_43xx/src/stopwatch_18xx_43xx.o
LOAD examples_c/sapi/bluetooth/hm10_uart_bridge/out/libs/lpc_open/lpc_chip_43xx/src/sdif_18xx_43xx.o
LOAD examples_c/sapi/bluetooth/hm10_uart_bridge/out/libs/lpc_open/lpc_chip_43xx/src/timer_18xx_43xx.o
LOAD examples_c/sapi/bluetooth/hm10_uart_bridge/out/libs/lpc_open/lpc_chip_43xx/src/iap_18xx_43xx.o
LOAD examples_c/sapi/bluetooth/hm10_uart_bridge/out/libs/lpc_open/lpc_chip_43xx/src/wwdt_18xx_43xx.o
LOAD examples_c/sapi/bluetooth/hm10_uart_bridge/out/libs/lpc_open/lpc_chip_43xx/src/ring_buffer.o
LOAD examples_c/sapi/bluetooth/hm10_uart_bridge/out/libs/lpc_open/lpc_chip_43xx/src/i2cm_18xx_43xx.o
LOAD examples_c/sapi/bluetooth/hm10_uart_bridge/out/libs/lpc_open/lpc_chip_43xx/src/pinint_18xx_43xx.o
LOAD examples_c/sapi/bluetooth/hm10_uart_bridge/out/libs/lpc_open/lpc_chip_43xx/src/dac_18xx_43xx.o
LOAD examples_c/sapi/bluetooth/hm10_uart_bridge/out/libs/lpc_open/lpc_chip_43xx/src/eeprom_18xx_43xx.o
LOAD examples_c/sapi/bluetooth/hm10_uart_bridge/out/libs/lpc_open/lpc_chip_43xx/src/rtc_18xx_43xx.o
LOAD examples_c/sapi/bluetooth/hm10_uart_bridge/out/libs/lpc_open/lpc_chip_43xx/src/sct_18xx_43xx.o
LOAD examples_c/sapi/bluetooth/hm10_uart_bridge/out/libs/lpc_open/lpc_chip_43xx/src/emc_18xx_43xx.o
LOAD examples_c/sapi/bluetooth/hm10_uart_bridge/out/libs/lpc_open/lpc_chip_43xx/src/sdmmc_18xx_43xx.o
LOAD examples_c/sapi/bluetooth/hm10_uart_bridge/out/libs/lpc_open/lpc_chip_43xx/src/spi_18xx_43xx.o
LOAD examples_c/sapi/bluetooth/hm10_uart_bridge/out/libs/lpc_open/lpc_chip_43xx/src/gpio_18xx_43xx.o
LOAD examples_c/sapi/bluetooth/hm10_uart_bridge/out/libs/lpc_open/lpc_chip_43xx/src/i2c_18xx_43xx.o
LOAD examples_c/sapi/bluetooth/hm10_uart_bridge/out/libs/lpc_open/lpc_chip_43xx/src/gpdma_18xx_43xx.o
LOAD examples_c/sapi/bluetooth/hm10_uart_bridge/out/libs/lpc_open/lpc_chip_43xx/src/evrt_18xx_43xx.o
LOAD examples_c/sapi/bluetooth/hm10_uart_bridge/out/libs/lpc_open/lpc_chip_43xx/src/sct_pwm_18xx_43xx.o
LOAD examples_c/sapi/bluetooth/hm10_uart_bridge/out/libs/lpc_open/lpc_chip_43xx/src/sdio_18xx_43xx.o
LOAD examples_c/sapi/bluetooth/hm10_uart_bridge/out/libs/lpc_open/lpc_chip_43xx/src/enet_18xx_43xx.o
LOAD examples_c/sapi/bluetooth/hm10_uart_bridge/out/libs/lpc_open/lpc_chip_43xx/src/ssp_18xx_43xx.o
LOAD examples_c/sapi/bluetooth/hm10_uart_bridge/out/libs/lpc_open/lpc_startup/src/crp.o
LOAD examples_c/sapi/bluetooth/hm10_uart_bridge/out/libs/lpc_open/lpc_startup/src/sysinit.o
LOAD examples_c/sapi/bluetooth/hm10_uart_bridge/out/libs/lpc_open/lpc_startup/src/vendor_interrupt.o
LOAD examples_c/sapi/bluetooth/hm10_uart_bridge/out/libs/sapi/sapi_v0.5.2/base/src/sapi_datatypes.o
LOAD examples_c/sapi/bluetooth/hm10_uart_bridge/out/libs/sapi/sapi_v0.5.2/soc/core/src/sapi_cyclesCounter.o
LOAD examples_c/sapi/bluetooth/hm10_uart_bridge/out/libs/sapi/sapi_v0.5.2/soc/core/src/sapi_sleep.o
LOAD examples_c/sapi/bluetooth/hm10_uart_bridge/out/libs/sapi/sapi_v0.5.2/soc/peripherals/src/sapi_dac.o
LOAD examples_c/sapi/bluetooth/hm10_uart_bridge/out/libs/sapi/sapi_v0.5.2/soc/peripherals/src/sapi_uart.o
LOAD examples_c/sapi/bluetooth/hm10_uart_bridge/out/libs/sapi/sapi_v0.5.2/soc/peripherals/src/sapi_spi.o
LOAD examples_c/sapi/bluetooth/hm10_uart_bridge/out/libs/sapi/sapi_v0.5.2/soc/peripherals/src/sapi_pwm.o
LOAD examples_c/sapi/bluetooth/hm10_uart_bridge/out/libs/sapi/sapi_v0.5.2/soc/peripherals/src/sapi_rtc.o
LOAD examples_c/sapi/bluetooth/hm10_uart_bridge/out/libs/sapi/sapi_v0.5.2/soc/peripherals/src/sapi_tick.o
LOAD examples_c/sapi/bluetooth/hm10_uart_bridge/out/libs/sapi/sapi_v0.5.2/soc/peripherals/src/sapi_sct.o
LOAD examples_c/sapi/bluetooth/hm10_uart_bridge/out/libs/sapi/sapi_v0.5.2/soc/peripherals/src/sapi_i2c.o
LOAD examples_c/sapi/bluetooth/hm10_uart_bridge/out/libs/sapi/sapi_v0.5.2/soc/peripherals/src/sapi_timer.o
LOAD examples_c/sapi/bluetooth/hm10_uart_bridge/out/libs/sapi/sapi_v0.5.2/soc/peripherals/src/sapi_adc.o
LOAD examples_c/sapi/bluetooth/hm10_uart_bridge/out/libs/sapi/sapi_v0.5.2/soc/peripherals/src/sapi_gpio.o
LOAD examples_c/sapi/bluetooth/hm10_uart_bridge/out/libs/sapi/sapi_v0.5.2/soc/peripherals/usb/device/src/sapi_usb_device.o
LOAD examples_c/sapi/bluetooth/hm10_uart_bridge/out/libs/sapi/sapi_v0.5.2/soc/peripherals/usb/device/src/usbd_keyboard.o
LOAD examples_c/sapi/bluetooth/hm10_uart_bridge/out/libs/sapi/sapi_v0.5.2/soc/peripherals/usb/device/src/cdc_uart.o
LOAD examples_c/sapi/bluetooth/hm10_uart_bridge/out/libs/sapi/sapi_v0.5.2/board/src/sapi_board.o
LOAD examples_c/sapi/bluetooth/hm10_uart_bridge/out/libs/sapi/sapi_v0.5.2/abstract_modules/src/sapi_delay.o
LOAD examples_c/sapi/bluetooth/hm10_uart_bridge/out/libs/sapi/sapi_v0.5.2/abstract_modules/src/sapi_circularBuffer.o
LOAD examples_c/sapi/bluetooth/hm10_uart_bridge/out/libs/sapi/sapi_v0.5.2/abstract_modules/src/sapi_print.o
LOAD examples_c/sapi/bluetooth/hm10_uart_bridge/out/libs/sapi/sapi_v0.5.2/abstract_modules/src/sapi_convert.o
LOAD examples_c/sapi/bluetooth/hm10_uart_bridge/out/libs/sapi/sapi_v0.5.2/abstract_modules/src/sapi_stdio.o
LOAD examples_c/sapi/bluetooth/hm10_uart_bridge/out/libs/sapi/sapi_v0.5.2/external_peripherals/src/sapi_7_segment_display.o
LOAD examples_c/sapi/bluetooth/hm10_uart_bridge/out/libs/sapi/sapi_v0.5.2/external_peripherals/src/sapi_keypad.o
LOAD examples_c/sapi/bluetooth/hm10_uart_bridge/out/libs/sapi/sapi_v0.5.2/external_peripherals/src/sapi_dht11.o
LOAD examples_c/sapi/bluetooth/hm10_uart_bridge/out/libs/sapi/sapi_v0.5.2/external_peripherals/src/sapi_magnetometer_qmc5883l.o
LOAD examples_c/sapi/bluetooth/hm10_uart_bridge/out/libs/sapi/sapi_v0.5.2/external_peripherals/src/sapi_lcd.o
LOAD examples_c/sapi/bluetooth/hm10_uart_bridge/out/libs/sapi/sapi_v0.5.2/external_peripherals/src/sapi_servo.o
LOAD examples_c/sapi/bluetooth/hm10_uart_bridge/out/libs/sapi/sapi_v0.5.2/external_peripherals/src/sapi_imu_mpu9250.o
LOAD examples_c/sapi/bluetooth/hm10_uart_bridge/out/libs/sapi/sapi_v0.5.2/external_peripherals/src/sapi_esp8266.o
LOAD examples_c/sapi/bluetooth/hm10_uart_bridge/out/libs/sapi/sapi_v0.5.2/external_peripherals/src/sapi_ultrasonic_hcsr04.o
LOAD examples_c/sapi/bluetooth/hm10_uart_bridge/out/libs/sapi/sapi_v0.5.2/external_peripherals/src/sapi_rgb.o
LOAD examples_c/sapi/bluetooth/hm10_uart_bridge/out/libs/sapi/sapi_v0.5.2/external_peripherals/src/sapi_magnetometer_hmc5883l.o
END GROUP
LOAD examples_c/sapi/bluetooth/hm10_uart_bridge/out/libs/cmsis_dsp//lib//libarm_cortexM4lf_math.a
LOAD /home/mparamidani/CIAA/gcc-arm-none-eabi-7-2018-q2-update/bin/../lib/gcc/arm-none-eabi/7.3.1/../../../../arm-none-eabi/lib/thumb/v7e-m/fpv4-sp/hard/libstdc++_nano.a
LOAD /home/mparamidani/CIAA/gcc-arm-none-eabi-7-2018-q2-update/bin/../lib/gcc/arm-none-eabi/7.3.1/../../../../arm-none-eabi/lib/thumb/v7e-m/fpv4-sp/hard/libm.a
START GROUP
LOAD /home/mparamidani/CIAA/gcc-arm-none-eabi-7-2018-q2-update/bin/../lib/gcc/arm-none-eabi/7.3.1/thumb/v7e-m/fpv4-sp/hard/libgcc.a
LOAD /home/mparamidani/CIAA/gcc-arm-none-eabi-7-2018-q2-update/bin/../lib/gcc/arm-none-eabi/7.3.1/../../../../arm-none-eabi/lib/thumb/v7e-m/fpv4-sp/hard/libc_nano.a
END GROUP
START GROUP
LOAD /home/mparamidani/CIAA/gcc-arm-none-eabi-7-2018-q2-update/bin/../lib/gcc/arm-none-eabi/7.3.1/thumb/v7e-m/fpv4-sp/hard/libgcc.a
LOAD /home/mparamidani/CIAA/gcc-arm-none-eabi-7-2018-q2-update/bin/../lib/gcc/arm-none-eabi/7.3.1/../../../../arm-none-eabi/lib/thumb/v7e-m/fpv4-sp/hard/libc_nano.a
END GROUP
                0x000000001a080000                __top_MFlashA512 = 0x1a080000
                0x000000001b080000                __top_MFlashB512 = 0x1b080000
                0x0000000010008000                __top_RamLoc32 = 0x10008000
                0x000000001008a000                __top_RamLoc40 = 0x1008a000
                0x0000000020008000                __top_RamAHB32 = 0x20008000
                0x000000002000c000                __top_RamAHB16 = 0x2000c000
                0x0000000020010000                __top_RamAHB_ETB16 = 0x20010000
START GROUP
LOAD /home/mparamidani/CIAA/gcc-arm-none-eabi-7-2018-q2-update/bin/../lib/gcc/arm-none-eabi/7.3.1/thumb/v7e-m/fpv4-sp/hard/libgcc.a
LOAD /home/mparamidani/CIAA/gcc-arm-none-eabi-7-2018-q2-update/bin/../lib/gcc/arm-none-eabi/7.3.1/../../../../arm-none-eabi/lib/thumb/v7e-m/fpv4-sp/hard/libc.a
LOAD /home/mparamidani/CIAA/gcc-arm-none-eabi-7-2018-q2-update/bin/../lib/gcc/arm-none-eabi/7.3.1/../../../../arm-none-eabi/lib/thumb/v7e-m/fpv4-sp/hard/libm.a
END GROUP

.text_Flash2    0x000000001b000000        0x0
 FILL mask 0xff
 *(.text_Flash2*)
 *(.text_MFlashB512*)
 *(.text.$Flash2*)
 *(.text.$MFlashB512*)
 *(.rodata.$Flash2*)
 *(.rodata.$MFlashB512*)

.text           0x000000001a000000     0x20d0
 FILL mask 0xff
                0x000000001a000000                __vectors_start__ = ABSOLUTE (.)
 *(.isr_vector)
 .isr_vector    0x000000001a000000       0x40 examples_c/sapi/bluetooth/hm10_uart_bridge/out/libs/cmsis_core//src/armv7m_startup.o
                0x000000001a000000                g_pfnVectors
 *(.isr_vendor_vector)
 .isr_vendor_vector
                0x000000001a000040       0xd4 examples_c/sapi/bluetooth/hm10_uart_bridge/out/libs/lpc_open/lpc_startup/src/vendor_interrupt.o
                0x000000001a000040                g_pfnVendorVectors
                0x000000001a000114                . = ALIGN (0x4)
                0x000000001a000114                __section_table_start = .
                0x000000001a000114                __data_section_table = .
                0x000000001a000114        0x4 LONG 0x1a0020dc LOADADDR (.data)
                0x000000001a000118        0x4 LONG 0x10000000 ADDR (.data)
                0x000000001a00011c        0x4 LONG 0x84 SIZEOF (.data)
                0x000000001a000120        0x4 LONG 0x1a0020dc LOADADDR (.data_RAM2)
                0x000000001a000124        0x4 LONG 0x10080000 ADDR (.data_RAM2)
                0x000000001a000128        0x4 LONG 0x0 SIZEOF (.data_RAM2)
                0x000000001a00012c        0x4 LONG 0x1a0020dc LOADADDR (.data_RAM3)
                0x000000001a000130        0x4 LONG 0x20000000 ADDR (.data_RAM3)
                0x000000001a000134        0x4 LONG 0x0 SIZEOF (.data_RAM3)
                0x000000001a000138        0x4 LONG 0x1a0020dc LOADADDR (.data_RAM4)
                0x000000001a00013c        0x4 LONG 0x20008000 ADDR (.data_RAM4)
                0x000000001a000140        0x4 LONG 0x0 SIZEOF (.data_RAM4)
                0x000000001a000144        0x4 LONG 0x1a0020dc LOADADDR (.data_RAM5)
                0x000000001a000148        0x4 LONG 0x2000c000 ADDR (.data_RAM5)
                0x000000001a00014c        0x4 LONG 0x0 SIZEOF (.data_RAM5)
                0x000000001a000150                __data_section_table_end = .
                0x000000001a000150                __bss_section_table = .
                0x000000001a000150        0x4 LONG 0x10000088 ADDR (.bss)
                0x000000001a000154        0x4 LONG 0x34 SIZEOF (.bss)
                0x000000001a000158        0x4 LONG 0x10080000 ADDR (.bss_RAM2)
                0x000000001a00015c        0x4 LONG 0x0 SIZEOF (.bss_RAM2)
                0x000000001a000160        0x4 LONG 0x20000000 ADDR (.bss_RAM3)
                0x000000001a000164        0x4 LONG 0x0 SIZEOF (.bss_RAM3)
                0x000000001a000168        0x4 LONG 0x20008000 ADDR (.bss_RAM4)
                0x000000001a00016c        0x4 LONG 0x0 SIZEOF (.bss_RAM4)
                0x000000001a000170        0x4 LONG 0x2000c000 ADDR (.bss_RAM5)
                0x000000001a000174        0x4 LONG 0x0 SIZEOF (.bss_RAM5)
                0x000000001a000178                __bss_section_table_end = .
                0x000000001a000178                __section_table_end = .
 *(.after_vectors*)
 .after_vectors
                0x000000001a000178       0x42 examples_c/sapi/bluetooth/hm10_uart_bridge/out/libs/cmsis_core//src/armv7m_startup.o
                0x000000001a000178                NMI_Handler
                0x000000001a00017a                HardFault_Handler
                0x000000001a00017c                MemManage_Handler
                0x000000001a00017e                BusFault_Handler
                0x000000001a000180                UsageFault_Handler
                0x000000001a000182                SVC_Handler
                0x000000001a000184                DebugMon_Handler
                0x000000001a000186                PendSV_Handler
                0x000000001a00018a                data_init
                0x000000001a0001a8                bss_init
 .after_vectors
                0x000000001a0001ba        0x2 examples_c/sapi/bluetooth/hm10_uart_bridge/out/libs/lpc_open/lpc_startup/src/vendor_interrupt.o
                0x000000001a0001ba                TIMER2_IRQHandler
                0x000000001a0001ba                RIT_IRQHandler
                0x000000001a0001ba                ADCHS_IRQHandler
                0x000000001a0001ba                FLASH_EEPROM_IRQHandler
                0x000000001a0001ba                I2C0_IRQHandler
                0x000000001a0001ba                SDIO_IRQHandler
                0x000000001a0001ba                ATIMER_IRQHandler
                0x000000001a0001ba                I2C1_IRQHandler
                0x000000001a0001ba                UART1_IRQHandler
                0x000000001a0001ba                GPIO5_IRQHandler
                0x000000001a0001ba                CAN1_IRQHandler
                0x000000001a0001ba                USB1_IRQHandler
                0x000000001a0001ba                I2S0_IRQHandler
                0x000000001a0001ba                TIMER3_IRQHandler
                0x000000001a0001ba                UART0_IRQHandler
                0x000000001a0001ba                SGPIO_IRQHandler
                0x000000001a0001ba                ADC0_IRQHandler
                0x000000001a0001ba                GPIO6_IRQHandler
                0x000000001a0001ba                IntDefaultHandler
                0x000000001a0001ba                SSP0_IRQHandler
                0x000000001a0001ba                ADC1_IRQHandler
                0x000000001a0001ba                RTC_IRQHandler
                0x000000001a0001ba                TIMER0_IRQHandler
                0x000000001a0001ba                SPI_IRQHandler
                0x000000001a0001ba                LCD_IRQHandler
                0x000000001a0001ba                TIMER1_IRQHandler
                0x000000001a0001ba                UART2_IRQHandler
                0x000000001a0001ba                I2S1_IRQHandler
                0x000000001a0001ba                SSP1_IRQHandler
                0x000000001a0001ba                GPIO3_IRQHandler
                0x000000001a0001ba                SCT_IRQHandler
                0x000000001a0001ba                WDT_IRQHandler
                0x000000001a0001ba                GPIO7_IRQHandler
                0x000000001a0001ba                SPIFI_IRQHandler
                0x000000001a0001ba                QEI_IRQHandler
                0x000000001a0001ba                ETH_IRQHandler
                0x000000001a0001ba                CAN0_IRQHandler
                0x000000001a0001ba                GINT0_IRQHandler
                0x000000001a0001ba                DAC_IRQHandler
                0x000000001a0001ba                M0SUB_IRQHandler
                0x000000001a0001ba                DMA_IRQHandler
                0x000000001a0001ba                EVRT_IRQHandler
                0x000000001a0001ba                UART3_IRQHandler
                0x000000001a0001ba                MCPWM_IRQHandler
                0x000000001a0001ba                M0APP_IRQHandler
                0x000000001a0001ba                GINT1_IRQHandler
                0x000000001a0001ba                GPIO4_IRQHandler
                0x00000000000002fc                . = 0x2fc
 *fill*         0x000000001a0001bc      0x140 ff
                0x000000001a0002fc                PROVIDE (__CRP_WORD_START__ = .)
 *(.crp)
 .crp           0x000000001a0002fc        0x4 examples_c/sapi/bluetooth/hm10_uart_bridge/out/libs/lpc_open/lpc_startup/src/crp.o
                0x000000001a0002fc                CRP_WORD
                0x000000001a000300                PROVIDE (__CRP_WORD_END__ = .)
                0x0000000000000001                ASSERT (! ((__CRP_WORD_START__ == __CRP_WORD_END__)), Linker CRP Enabled, but no CRP_WORD provided within application)
 *(.text*)
 .text.hm10bleTest
                0x000000001a000300       0x30 examples_c/sapi/bluetooth/hm10_uart_bridge/out/examples_c/sapi/bluetooth/hm10_uart_bridge/src/hm10_uart_bridge.o
                0x000000001a000300                hm10bleTest
 .text.hm10blePrintATCommands
                0x000000001a000330       0x1c examples_c/sapi/bluetooth/hm10_uart_bridge/out/examples_c/sapi/bluetooth/hm10_uart_bridge/src/hm10_uart_bridge.o
                0x000000001a000330                hm10blePrintATCommands
 .text.main     0x000000001a00034c      0x110 examples_c/sapi/bluetooth/hm10_uart_bridge/out/examples_c/sapi/bluetooth/hm10_uart_bridge/src/hm10_uart_bridge.o
                0x000000001a00034c                main
 .text.initialise_monitor_handles
                0x000000001a00045c        0x2 examples_c/sapi/bluetooth/hm10_uart_bridge/out/libs/cmsis_core//src/armv7m_startup.o
                0x000000001a00045c                initialise_monitor_handles
 *fill*         0x000000001a00045e        0x2 ff
 .text.Reset_Handler
                0x000000001a000460       0x88 examples_c/sapi/bluetooth/hm10_uart_bridge/out/libs/cmsis_core//src/armv7m_startup.o
                0x000000001a000460                Reset_Handler
 .text._fini    0x000000001a0004e8        0x2 examples_c/sapi/bluetooth/hm10_uart_bridge/out/libs/cmsis_core//src/armv7m_startup.o
                0x000000001a0004e8                _fini
 .text._init    0x000000001a0004ea        0x2 examples_c/sapi/bluetooth/hm10_uart_bridge/out/libs/cmsis_core//src/armv7m_startup.o
                0x000000001a0004ea                _init
 .text.Board_LED_Init
                0x000000001a0004ec       0x44 examples_c/sapi/bluetooth/hm10_uart_bridge/out/libs/lpc_open/boards/edu_ciaa_nxp/src/board.o
 .text.Board_TEC_Init
                0x000000001a000530       0x40 examples_c/sapi/bluetooth/hm10_uart_bridge/out/libs/lpc_open/boards/edu_ciaa_nxp/src/board.o
 .text.Board_GPIO_Init
                0x000000001a000570       0x40 examples_c/sapi/bluetooth/hm10_uart_bridge/out/libs/lpc_open/boards/edu_ciaa_nxp/src/board.o
 .text.Board_ADC_Init
                0x000000001a0005b0       0x30 examples_c/sapi/bluetooth/hm10_uart_bridge/out/libs/lpc_open/boards/edu_ciaa_nxp/src/board.o
 .text.Board_SPI_Init
                0x000000001a0005e0       0x38 examples_c/sapi/bluetooth/hm10_uart_bridge/out/libs/lpc_open/boards/edu_ciaa_nxp/src/board.o
 .text.Board_I2C_Init
                0x000000001a000618       0x24 examples_c/sapi/bluetooth/hm10_uart_bridge/out/libs/lpc_open/boards/edu_ciaa_nxp/src/board.o
 .text.Board_Debug_Init
                0x000000001a00063c       0x24 examples_c/sapi/bluetooth/hm10_uart_bridge/out/libs/lpc_open/boards/edu_ciaa_nxp/src/board.o
                0x000000001a00063c                Board_Debug_Init
 .text.Board_Init
                0x000000001a000660       0x2c examples_c/sapi/bluetooth/hm10_uart_bridge/out/libs/lpc_open/boards/edu_ciaa_nxp/src/board.o
                0x000000001a000660                Board_Init
 .text.__stdio_init
                0x000000001a00068c        0x8 examples_c/sapi/bluetooth/hm10_uart_bridge/out/libs/lpc_open/boards/edu_ciaa_nxp/src/board.o
                0x000000001a00068c                __stdio_init
 .text.Board_SetupMuxing
                0x000000001a000694       0x38 examples_c/sapi/bluetooth/hm10_uart_bridge/out/libs/lpc_open/boards/edu_ciaa_nxp/src/board_sysinit.o
                0x000000001a000694                Board_SetupMuxing
 .text.Board_SetupClocking
                0x000000001a0006cc       0x6c examples_c/sapi/bluetooth/hm10_uart_bridge/out/libs/lpc_open/boards/edu_ciaa_nxp/src/board_sysinit.o
                0x000000001a0006cc                Board_SetupClocking
 .text.Board_SystemInit
                0x000000001a000738        0xc examples_c/sapi/bluetooth/hm10_uart_bridge/out/libs/lpc_open/boards/edu_ciaa_nxp/src/board_sysinit.o
                0x000000001a000738                Board_SystemInit
 .text.Chip_UART_GetIndex
                0x000000001a000744       0x2c examples_c/sapi/bluetooth/hm10_uart_bridge/out/libs/lpc_open/lpc_chip_43xx/src/uart_18xx_43xx.o
 .text.Chip_UART_Init
                0x000000001a000770       0x54 examples_c/sapi/bluetooth/hm10_uart_bridge/out/libs/lpc_open/lpc_chip_43xx/src/uart_18xx_43xx.o
                0x000000001a000770                Chip_UART_Init
 .text.Chip_UART_SetBaud
                0x000000001a0007c4       0x40 examples_c/sapi/bluetooth/hm10_uart_bridge/out/libs/lpc_open/lpc_chip_43xx/src/uart_18xx_43xx.o
                0x000000001a0007c4                Chip_UART_SetBaud
 .text.Chip_UART_SetBaudFDR
                0x000000001a000804       0xe8 examples_c/sapi/bluetooth/hm10_uart_bridge/out/libs/lpc_open/lpc_chip_43xx/src/uart_18xx_43xx.o
                0x000000001a000804                Chip_UART_SetBaudFDR
 .text.Chip_ADC_GetClockIndex
                0x000000001a0008ec       0x14 examples_c/sapi/bluetooth/hm10_uart_bridge/out/libs/lpc_open/lpc_chip_43xx/src/adc_18xx_43xx.o
 .text.getClkDiv
                0x000000001a000900       0x32 examples_c/sapi/bluetooth/hm10_uart_bridge/out/libs/lpc_open/lpc_chip_43xx/src/adc_18xx_43xx.o
 *fill*         0x000000001a000932        0x2 ff
 .text.Chip_ADC_Init
                0x000000001a000934       0x40 examples_c/sapi/bluetooth/hm10_uart_bridge/out/libs/lpc_open/lpc_chip_43xx/src/adc_18xx_43xx.o
                0x000000001a000934                Chip_ADC_Init
 .text.Chip_ADC_SetSampleRate
                0x000000001a000974       0x32 examples_c/sapi/bluetooth/hm10_uart_bridge/out/libs/lpc_open/lpc_chip_43xx/src/adc_18xx_43xx.o
                0x000000001a000974                Chip_ADC_SetSampleRate
 .text.Chip_ADC_SetResolution
                0x000000001a0009a6        0xc examples_c/sapi/bluetooth/hm10_uart_bridge/out/libs/lpc_open/lpc_chip_43xx/src/adc_18xx_43xx.o
                0x000000001a0009a6                Chip_ADC_SetResolution
 *fill*         0x000000001a0009b2        0x2 ff
 .text.pll_calc_divs
                0x000000001a0009b4       0xa4 examples_c/sapi/bluetooth/hm10_uart_bridge/out/libs/lpc_open/lpc_chip_43xx/src/clock_18xx_43xx.o
 .text.pll_get_frac
                0x000000001a000a58      0x10c examples_c/sapi/bluetooth/hm10_uart_bridge/out/libs/lpc_open/lpc_chip_43xx/src/clock_18xx_43xx.o
 .text.Chip_Clock_FindBaseClock
                0x000000001a000b64       0x4c examples_c/sapi/bluetooth/hm10_uart_bridge/out/libs/lpc_open/lpc_chip_43xx/src/clock_18xx_43xx.o
 .text.Chip_Clock_EnableCrystal
                0x000000001a000bb0       0x4c examples_c/sapi/bluetooth/hm10_uart_bridge/out/libs/lpc_open/lpc_chip_43xx/src/clock_18xx_43xx.o
                0x000000001a000bb0                Chip_Clock_EnableCrystal
 .text.Chip_Clock_GetDividerSource
                0x000000001a000bfc       0x1c examples_c/sapi/bluetooth/hm10_uart_bridge/out/libs/lpc_open/lpc_chip_43xx/src/clock_18xx_43xx.o
                0x000000001a000bfc                Chip_Clock_GetDividerSource
 .text.Chip_Clock_GetDividerDivisor
                0x000000001a000c18       0x1c examples_c/sapi/bluetooth/hm10_uart_bridge/out/libs/lpc_open/lpc_chip_43xx/src/clock_18xx_43xx.o
                0x000000001a000c18                Chip_Clock_GetDividerDivisor
 .text.Chip_Clock_GetClockInputHz
                0x000000001a000c34       0xb8 examples_c/sapi/bluetooth/hm10_uart_bridge/out/libs/lpc_open/lpc_chip_43xx/src/clock_18xx_43xx.o
                0x000000001a000c34                Chip_Clock_GetClockInputHz
 .text.Chip_Clock_CalcMainPLLValue
                0x000000001a000cec       0x80 examples_c/sapi/bluetooth/hm10_uart_bridge/out/libs/lpc_open/lpc_chip_43xx/src/clock_18xx_43xx.o
                0x000000001a000cec                Chip_Clock_CalcMainPLLValue
 .text.Chip_Clock_GetMainPLLHz
                0x000000001a000d6c       0x6c examples_c/sapi/bluetooth/hm10_uart_bridge/out/libs/lpc_open/lpc_chip_43xx/src/clock_18xx_43xx.o
                0x000000001a000d6c                Chip_Clock_GetMainPLLHz
 .text.Chip_Clock_GetDivRate
                0x000000001a000dd8       0x22 examples_c/sapi/bluetooth/hm10_uart_bridge/out/libs/lpc_open/lpc_chip_43xx/src/clock_18xx_43xx.o
 *fill*         0x000000001a000dfa        0x2 ff
 .text.Chip_Clock_SetBaseClock
                0x000000001a000dfc       0x58 examples_c/sapi/bluetooth/hm10_uart_bridge/out/libs/lpc_open/lpc_chip_43xx/src/clock_18xx_43xx.o
                0x000000001a000dfc                Chip_Clock_SetBaseClock
 .text.Chip_Clock_GetBaseClock
                0x000000001a000e54       0x26 examples_c/sapi/bluetooth/hm10_uart_bridge/out/libs/lpc_open/lpc_chip_43xx/src/clock_18xx_43xx.o
                0x000000001a000e54                Chip_Clock_GetBaseClock
 .text.Chip_Clock_GetBaseClocktHz
                0x000000001a000e7a        0xc examples_c/sapi/bluetooth/hm10_uart_bridge/out/libs/lpc_open/lpc_chip_43xx/src/clock_18xx_43xx.o
                0x000000001a000e7a                Chip_Clock_GetBaseClocktHz
 *fill*         0x000000001a000e86        0x2 ff
 .text.Chip_Clock_EnableOpts
                0x000000001a000e88       0x3c examples_c/sapi/bluetooth/hm10_uart_bridge/out/libs/lpc_open/lpc_chip_43xx/src/clock_18xx_43xx.o
                0x000000001a000e88                Chip_Clock_EnableOpts
 .text.Chip_Clock_Enable
                0x000000001a000ec4       0x34 examples_c/sapi/bluetooth/hm10_uart_bridge/out/libs/lpc_open/lpc_chip_43xx/src/clock_18xx_43xx.o
                0x000000001a000ec4                Chip_Clock_Enable
 .text.Chip_Clock_GetRate
                0x000000001a000ef8       0x4c examples_c/sapi/bluetooth/hm10_uart_bridge/out/libs/lpc_open/lpc_chip_43xx/src/clock_18xx_43xx.o
                0x000000001a000ef8                Chip_Clock_GetRate
 .text.SystemCoreClockUpdate
                0x000000001a000f44       0x14 examples_c/sapi/bluetooth/hm10_uart_bridge/out/libs/lpc_open/lpc_chip_43xx/src/chip_18xx_43xx.o
                0x000000001a000f44                SystemCoreClockUpdate
 .text.Chip_SetupCoreClock
                0x000000001a000f58      0x154 examples_c/sapi/bluetooth/hm10_uart_bridge/out/libs/lpc_open/lpc_chip_43xx/src/sysinit_18xx_43xx.o
                0x000000001a000f58                Chip_SetupCoreClock
 .text.Chip_GPIO_Init
                0x000000001a0010ac        0x2 examples_c/sapi/bluetooth/hm10_uart_bridge/out/libs/lpc_open/lpc_chip_43xx/src/gpio_18xx_43xx.o
                0x000000001a0010ac                Chip_GPIO_Init
 *fill*         0x000000001a0010ae        0x2 ff
 .text.Chip_I2C_EventHandler
                0x000000001a0010b0       0x20 examples_c/sapi/bluetooth/hm10_uart_bridge/out/libs/lpc_open/lpc_chip_43xx/src/i2c_18xx_43xx.o
                0x000000001a0010b0                Chip_I2C_EventHandler
 .text.Chip_I2C_Init
                0x000000001a0010d0       0x24 examples_c/sapi/bluetooth/hm10_uart_bridge/out/libs/lpc_open/lpc_chip_43xx/src/i2c_18xx_43xx.o
                0x000000001a0010d0                Chip_I2C_Init
 .text.Chip_I2C_SetClockRate
                0x000000001a0010f4       0x38 examples_c/sapi/bluetooth/hm10_uart_bridge/out/libs/lpc_open/lpc_chip_43xx/src/i2c_18xx_43xx.o
                0x000000001a0010f4                Chip_I2C_SetClockRate
 .text.Chip_SSP_GetClockIndex
                0x000000001a00112c       0x14 examples_c/sapi/bluetooth/hm10_uart_bridge/out/libs/lpc_open/lpc_chip_43xx/src/ssp_18xx_43xx.o
 .text.Chip_SSP_GetPeriphClockIndex
                0x000000001a001140       0x18 examples_c/sapi/bluetooth/hm10_uart_bridge/out/libs/lpc_open/lpc_chip_43xx/src/ssp_18xx_43xx.o
 .text.Chip_SSP_SetClockRate
                0x000000001a001158       0x12 examples_c/sapi/bluetooth/hm10_uart_bridge/out/libs/lpc_open/lpc_chip_43xx/src/ssp_18xx_43xx.o
                0x000000001a001158                Chip_SSP_SetClockRate
 .text.Chip_SSP_SetBitRate
                0x000000001a00116a       0x3e examples_c/sapi/bluetooth/hm10_uart_bridge/out/libs/lpc_open/lpc_chip_43xx/src/ssp_18xx_43xx.o
                0x000000001a00116a                Chip_SSP_SetBitRate
 .text.Chip_SSP_Init
                0x000000001a0011a8       0x38 examples_c/sapi/bluetooth/hm10_uart_bridge/out/libs/lpc_open/lpc_chip_43xx/src/ssp_18xx_43xx.o
                0x000000001a0011a8                Chip_SSP_Init
 .text.SystemInit
                0x000000001a0011e0       0x38 examples_c/sapi/bluetooth/hm10_uart_bridge/out/libs/lpc_open/lpc_startup/src/sysinit.o
                0x000000001a0011e0                SystemInit
 .text.cyclesCounterInit
                0x000000001a001218       0x1c examples_c/sapi/bluetooth/hm10_uart_bridge/out/libs/sapi/sapi_v0.5.2/soc/core/src/sapi_cyclesCounter.o
                0x000000001a001218                cyclesCounterInit
 .text.uartRxReady
                0x000000001a001234       0x18 examples_c/sapi/bluetooth/hm10_uart_bridge/out/libs/sapi/sapi_v0.5.2/soc/peripherals/src/sapi_uart.o
                0x000000001a001234                uartRxReady
 .text.uartTxReady
                0x000000001a00124c       0x18 examples_c/sapi/bluetooth/hm10_uart_bridge/out/libs/sapi/sapi_v0.5.2/soc/peripherals/src/sapi_uart.o
                0x000000001a00124c                uartTxReady
 .text.uartRxRead
                0x000000001a001264       0x14 examples_c/sapi/bluetooth/hm10_uart_bridge/out/libs/sapi/sapi_v0.5.2/soc/peripherals/src/sapi_uart.o
                0x000000001a001264                uartRxRead
 .text.uartTxWrite
                0x000000001a001278       0x14 examples_c/sapi/bluetooth/hm10_uart_bridge/out/libs/sapi/sapi_v0.5.2/soc/peripherals/src/sapi_uart.o
                0x000000001a001278                uartTxWrite
 .text.uartInit
                0x000000001a00128c       0x7c examples_c/sapi/bluetooth/hm10_uart_bridge/out/libs/sapi/sapi_v0.5.2/soc/peripherals/src/sapi_uart.o
                0x000000001a00128c                uartInit
 .text.uartReadByte
                0x000000001a001308       0x1e examples_c/sapi/bluetooth/hm10_uart_bridge/out/libs/sapi/sapi_v0.5.2/soc/peripherals/src/sapi_uart.o
                0x000000001a001308                uartReadByte
 .text.waitForReceiveStringOrTimeout
                0x000000001a001326       0x80 examples_c/sapi/bluetooth/hm10_uart_bridge/out/libs/sapi/sapi_v0.5.2/soc/peripherals/src/sapi_uart.o
                0x000000001a001326                waitForReceiveStringOrTimeout
 .text.waitForReceiveStringOrTimeoutBlocking
                0x000000001a0013a6       0x3a examples_c/sapi/bluetooth/hm10_uart_bridge/out/libs/sapi/sapi_v0.5.2/soc/peripherals/src/sapi_uart.o
                0x000000001a0013a6                waitForReceiveStringOrTimeoutBlocking
 .text.uartWriteByte
                0x000000001a0013e0       0x1a examples_c/sapi/bluetooth/hm10_uart_bridge/out/libs/sapi/sapi_v0.5.2/soc/peripherals/src/sapi_uart.o
                0x000000001a0013e0                uartWriteByte
 .text.uartWriteString
                0x000000001a0013fa       0x18 examples_c/sapi/bluetooth/hm10_uart_bridge/out/libs/sapi/sapi_v0.5.2/soc/peripherals/src/sapi_uart.o
                0x000000001a0013fa                uartWriteString
 *fill*         0x000000001a001412        0x2 ff
 .text.tickRead
                0x000000001a001414        0xc examples_c/sapi/bluetooth/hm10_uart_bridge/out/libs/sapi/sapi_v0.5.2/soc/peripherals/src/sapi_tick.o
                0x000000001a001414                tickRead
 .text.tickPowerSet
                0x000000001a001420       0x18 examples_c/sapi/bluetooth/hm10_uart_bridge/out/libs/sapi/sapi_v0.5.2/soc/peripherals/src/sapi_tick.o
                0x000000001a001420                tickPowerSet
 .text.tickInit
                0x000000001a001438       0x7c examples_c/sapi/bluetooth/hm10_uart_bridge/out/libs/sapi/sapi_v0.5.2/soc/peripherals/src/sapi_tick.o
                0x000000001a001438                tickInit
 .text.SysTick_Handler
                0x000000001a0014b4       0x34 examples_c/sapi/bluetooth/hm10_uart_bridge/out/libs/sapi/sapi_v0.5.2/soc/peripherals/src/sapi_tick.o
                0x000000001a0014b4                SysTick_Handler
 .text.gpioObtainPinInit
                0x000000001a0014e8       0x34 examples_c/sapi/bluetooth/hm10_uart_bridge/out/libs/sapi/sapi_v0.5.2/soc/peripherals/src/sapi_gpio.o
 .text.gpioInit
                0x000000001a00151c      0x194 examples_c/sapi/bluetooth/hm10_uart_bridge/out/libs/sapi/sapi_v0.5.2/soc/peripherals/src/sapi_gpio.o
                0x000000001a00151c                gpioInit
 .text.gpioWrite
                0x000000001a0016b0       0x56 examples_c/sapi/bluetooth/hm10_uart_bridge/out/libs/sapi/sapi_v0.5.2/soc/peripherals/src/sapi_gpio.o
                0x000000001a0016b0                gpioWrite
 .text.gpioRead
                0x000000001a001706       0x54 examples_c/sapi/bluetooth/hm10_uart_bridge/out/libs/sapi/sapi_v0.5.2/soc/peripherals/src/sapi_gpio.o
                0x000000001a001706                gpioRead
 *fill*         0x000000001a00175a        0x2 ff
 .text.USB0_IRQHandler
                0x000000001a00175c       0x1c examples_c/sapi/bluetooth/hm10_uart_bridge/out/libs/sapi/sapi_v0.5.2/soc/peripherals/usb/device/src/sapi_usb_device.o
                0x000000001a00175c                USB0_IRQHandler
 .text.boardInit
                0x000000001a001778       0xf4 examples_c/sapi/bluetooth/hm10_uart_bridge/out/libs/sapi/sapi_v0.5.2/board/src/sapi_board.o
                0x000000001a001778                boardInit
 .text.delay    0x000000001a00186c       0x38 examples_c/sapi/bluetooth/hm10_uart_bridge/out/libs/sapi/sapi_v0.5.2/abstract_modules/src/sapi_delay.o
                0x000000001a00186c                delay
 .text.delayInit
                0x000000001a0018a4       0x20 examples_c/sapi/bluetooth/hm10_uart_bridge/out/libs/sapi/sapi_v0.5.2/abstract_modules/src/sapi_delay.o
                0x000000001a0018a4                delayInit
 .text.delayRead
                0x000000001a0018c4       0x42 examples_c/sapi/bluetooth/hm10_uart_bridge/out/libs/sapi/sapi_v0.5.2/abstract_modules/src/sapi_delay.o
                0x000000001a0018c4                delayRead
 *fill*         0x000000001a001906        0x2 ff
 .text.clearInterrupt
                0x000000001a001908       0x10 examples_c/sapi/bluetooth/hm10_uart_bridge/out/libs/sapi/sapi_v0.5.2/external_peripherals/src/sapi_ultrasonic_hcsr04.o
 .text.serveInterrupt
                0x000000001a001918       0x5c examples_c/sapi/bluetooth/hm10_uart_bridge/out/libs/sapi/sapi_v0.5.2/external_peripherals/src/sapi_ultrasonic_hcsr04.o
 .text.GPIO0_IRQHandler
                0x000000001a001974        0xa examples_c/sapi/bluetooth/hm10_uart_bridge/out/libs/sapi/sapi_v0.5.2/external_peripherals/src/sapi_ultrasonic_hcsr04.o
                0x000000001a001974                GPIO0_IRQHandler
 .text.GPIO1_IRQHandler
                0x000000001a00197e        0xa examples_c/sapi/bluetooth/hm10_uart_bridge/out/libs/sapi/sapi_v0.5.2/external_peripherals/src/sapi_ultrasonic_hcsr04.o
                0x000000001a00197e                GPIO1_IRQHandler
 .text.GPIO2_IRQHandler
                0x000000001a001988        0xa examples_c/sapi/bluetooth/hm10_uart_bridge/out/libs/sapi/sapi_v0.5.2/external_peripherals/src/sapi_ultrasonic_hcsr04.o
                0x000000001a001988                GPIO2_IRQHandler
 *fill*         0x000000001a001992        0x2 ff
 .text          0x000000001a001994       0x30 /home/mparamidani/CIAA/gcc-arm-none-eabi-7-2018-q2-update/bin/../lib/gcc/arm-none-eabi/7.3.1/thumb/v7e-m/fpv4-sp/hard/libgcc.a(_aeabi_uldivmod.o)
                0x000000001a001994                __aeabi_uldivmod
 .text          0x000000001a0019c4      0x2cc /home/mparamidani/CIAA/gcc-arm-none-eabi-7-2018-q2-update/bin/../lib/gcc/arm-none-eabi/7.3.1/thumb/v7e-m/fpv4-sp/hard/libgcc.a(_udivmoddi4.o)
                0x000000001a0019c4                __udivmoddi4
 .text          0x000000001a001c90        0x4 /home/mparamidani/CIAA/gcc-arm-none-eabi-7-2018-q2-update/bin/../lib/gcc/arm-none-eabi/7.3.1/thumb/v7e-m/fpv4-sp/hard/libgcc.a(_dvmd_tls.o)
                0x000000001a001c90                __aeabi_ldiv0
                0x000000001a001c90                __aeabi_idiv0
 .text.__libc_init_array
                0x000000001a001c94       0x48 /home/mparamidani/CIAA/gcc-arm-none-eabi-7-2018-q2-update/bin/../lib/gcc/arm-none-eabi/7.3.1/../../../../arm-none-eabi/lib/thumb/v7e-m/fpv4-sp/hard/libc_nano.a(lib_a-init.o)
                0x000000001a001c94                __libc_init_array
 .text.memset   0x000000001a001cdc       0x10 /home/mparamidani/CIAA/gcc-arm-none-eabi-7-2018-q2-update/bin/../lib/gcc/arm-none-eabi/7.3.1/../../../../arm-none-eabi/lib/thumb/v7e-m/fpv4-sp/hard/libc_nano.a(lib_a-memset.o)
                0x000000001a001cdc                memset
 *(.rodata .rodata.* .constdata .constdata.*)
 .rodata.hm10blePrintATCommands.str1.4
                0x000000001a001cec        0xa examples_c/sapi/bluetooth/hm10_uart_bridge/out/examples_c/sapi/bluetooth/hm10_uart_bridge/src/hm10_uart_bridge.o
 *fill*         0x000000001a001cf6        0x2 ff
 .rodata.hm10bleTest.str1.4
                0x000000001a001cf8        0xd examples_c/sapi/bluetooth/hm10_uart_bridge/out/examples_c/sapi/bluetooth/hm10_uart_bridge/src/hm10_uart_bridge.o
 *fill*         0x000000001a001d05        0x3 ff
 .rodata.main.str1.4
                0x000000001a001d08       0xca examples_c/sapi/bluetooth/hm10_uart_bridge/out/examples_c/sapi/bluetooth/hm10_uart_bridge/src/hm10_uart_bridge.o
 *fill*         0x000000001a001dd2        0x2 ff
 .rodata.ExtRateIn
                0x000000001a001dd4        0x4 examples_c/sapi/bluetooth/hm10_uart_bridge/out/libs/lpc_open/boards/edu_ciaa_nxp/src/board.o
                0x000000001a001dd4                ExtRateIn
 .rodata.GpioButtons
                0x000000001a001dd8        0x8 examples_c/sapi/bluetooth/hm10_uart_bridge/out/libs/lpc_open/boards/edu_ciaa_nxp/src/board.o
 .rodata.GpioLeds
                0x000000001a001de0        0xc examples_c/sapi/bluetooth/hm10_uart_bridge/out/libs/lpc_open/boards/edu_ciaa_nxp/src/board.o
 .rodata.GpioPorts
                0x000000001a001dec       0x12 examples_c/sapi/bluetooth/hm10_uart_bridge/out/libs/lpc_open/boards/edu_ciaa_nxp/src/board.o
 *fill*         0x000000001a001dfe        0x2 ff
 .rodata.OscRateIn
                0x000000001a001e00        0x4 examples_c/sapi/bluetooth/hm10_uart_bridge/out/libs/lpc_open/boards/edu_ciaa_nxp/src/board.o
                0x000000001a001e00                OscRateIn
 .rodata.InitClkStates
                0x000000001a001e04        0x4 examples_c/sapi/bluetooth/hm10_uart_bridge/out/libs/lpc_open/boards/edu_ciaa_nxp/src/board_sysinit.o
 .rodata.pinmuxing
                0x000000001a001e08       0x74 examples_c/sapi/bluetooth/hm10_uart_bridge/out/libs/lpc_open/boards/edu_ciaa_nxp/src/board_sysinit.o
 .rodata.UART_BClock
                0x000000001a001e7c        0x8 examples_c/sapi/bluetooth/hm10_uart_bridge/out/libs/lpc_open/lpc_chip_43xx/src/uart_18xx_43xx.o
 .rodata.UART_PClock
                0x000000001a001e84        0x8 examples_c/sapi/bluetooth/hm10_uart_bridge/out/libs/lpc_open/lpc_chip_43xx/src/uart_18xx_43xx.o
 .rodata        0x000000001a001e8c        0x4 examples_c/sapi/bluetooth/hm10_uart_bridge/out/libs/lpc_open/lpc_chip_43xx/src/clock_18xx_43xx.o
 .rodata.Chip_Clock_SetDivider.str1.4
                0x000000001a001e90        0x8 examples_c/sapi/bluetooth/hm10_uart_bridge/out/libs/lpc_open/lpc_chip_43xx/src/clock_18xx_43xx.o
                                          0x6 (size before relaxing)
 .rodata.periph_to_base
                0x000000001a001e98       0x6c examples_c/sapi/bluetooth/hm10_uart_bridge/out/libs/lpc_open/lpc_chip_43xx/src/clock_18xx_43xx.o
 .rodata.InitClkStates
                0x000000001a001f04       0x48 examples_c/sapi/bluetooth/hm10_uart_bridge/out/libs/lpc_open/lpc_chip_43xx/src/sysinit_18xx_43xx.o
 .rodata.lpcUarts
                0x000000001a001f4c       0x48 examples_c/sapi/bluetooth/hm10_uart_bridge/out/libs/sapi/sapi_v0.5.2/soc/peripherals/src/sapi_uart.o
 .rodata.gpioPinsInit
                0x000000001a001f94      0x136 examples_c/sapi/bluetooth/hm10_uart_bridge/out/libs/sapi/sapi_v0.5.2/soc/peripherals/src/sapi_gpio.o
                0x000000001a001f94                gpioPinsInit
 *fill*         0x000000001a0020ca        0x2 ff
 .rodata.ultrasonicSensorsIrqMap
                0x000000001a0020cc        0x3 examples_c/sapi/bluetooth/hm10_uart_bridge/out/libs/sapi/sapi_v0.5.2/external_peripherals/src/sapi_ultrasonic_hcsr04.o
                0x000000001a0020d0                . = ALIGN (0x4)
 *fill*         0x000000001a0020cf        0x1 ff

.glue_7         0x000000001a0020d0        0x0
 .glue_7        0x000000001a0020d0        0x0 linker stubs

.glue_7t        0x000000001a0020d0        0x0
 .glue_7t       0x000000001a0020d0        0x0 linker stubs

.vfp11_veneer   0x000000001a0020d0        0x0
 .vfp11_veneer  0x000000001a0020d0        0x0 linker stubs

.v4_bx          0x000000001a0020d0        0x0
 .v4_bx         0x000000001a0020d0        0x0 linker stubs

.iplt           0x000000001a0020d0        0x0
 .iplt          0x000000001a0020d0        0x0 examples_c/sapi/bluetooth/hm10_uart_bridge/out/examples_c/sapi/bluetooth/hm10_uart_bridge/src/hm10_uart_bridge.o
                0x000000001a0020d0                . = ALIGN (0x4)

.preinit_array  0x000000001a0020d0        0x0
                0x000000001a0020d0                PROVIDE (__preinit_array_start = .)
 *(.preinit_array*)
                0x000000001a0020d0                PROVIDE (__preinit_array_end = .)

.init_array     0x000000001a0020d0        0x4
                0x000000001a0020d0                PROVIDE (__init_array_start = .)
 *(SORT_BY_NAME(.init_array.*))
 *(.init_array*)
 .init_array    0x000000001a0020d0        0x4 examples_c/sapi/bluetooth/hm10_uart_bridge/out/libs/sys_newlib//src/system.o
                0x000000001a0020d4                PROVIDE (__init_array_end = .)
                0x000000001a0020d4                . = ALIGN (0x4)

.ARM.extab
 *(.ARM.extab* .gnu.linkonce.armextab.*)
                0x000000001a0020d4                __exidx_start = .

.ARM.exidx      0x000000001a0020d4        0x8
 *(.ARM.exidx* .gnu.linkonce.armexidx.*)
 .ARM.exidx     0x000000001a0020d4        0x8 /home/mparamidani/CIAA/gcc-arm-none-eabi-7-2018-q2-update/bin/../lib/gcc/arm-none-eabi/7.3.1/thumb/v7e-m/fpv4-sp/hard/libgcc.a(_udivmoddi4.o)
                0x000000001a0020dc                __exidx_end = .
                0x000000001a0020dc                _etext = .

.rel.dyn        0x000000001a0020dc        0x0
 .rel.iplt      0x000000001a0020dc        0x0 examples_c/sapi/bluetooth/hm10_uart_bridge/out/examples_c/sapi/bluetooth/hm10_uart_bridge/src/hm10_uart_bridge.o

.data_RAM2      0x0000000010080000        0x0 load address 0x000000001a0020dc
 FILL mask 0xff
 *(.ramfunc.$RAM2)
 *(.ramfunc.$RamLoc40)
 *(.data.$RAM2*)
 *(.data.$RamLoc40*)
                0x0000000010080000                . = ALIGN (0x4)

.data_RAM3      0x0000000020000000        0x0 load address 0x000000001a0020dc
 FILL mask 0xff
 *(.ramfunc.$RAM3)
 *(.ramfunc.$RamAHB32)
 *(.data.$RAM3*)
 *(.data.$RamAHB32*)
                0x0000000020000000                . = ALIGN (0x4)

.data_RAM4      0x0000000020008000        0x0 load address 0x000000001a0020dc
 FILL mask 0xff
 *(.ramfunc.$RAM4)
 *(.ramfunc.$RamAHB16)
 *(.data.$RAM4*)
 *(.data.$RamAHB16*)
                0x0000000020008000                . = ALIGN (0x4)

.data_RAM5      0x000000002000c000        0x0 load address 0x000000001a0020dc
 FILL mask 0xff
 *(.ramfunc.$RAM5)
 *(.ramfunc.$RamAHB_ETB16)
 *(.data.$RAM5*)
 *(.data.$RamAHB_ETB16*)
                0x000000002000c000                . = ALIGN (0x4)

.uninit_RESERVED
                0x0000000010000000        0x0
 *(.bss.$RESERVED*)
                0x0000000010000000                . = ALIGN (0x4)
                0x0000000010000000                _end_uninit_RESERVED = .

.data           0x0000000010000000       0x84 load address 0x000000001a0020dc
 FILL mask 0xff
                0x0000000010000000                _data = .
 *(vtable)
 *(.ramfunc*)
 *(.data*)
 .data.i2c      0x0000000010000000       0x38 examples_c/sapi/bluetooth/hm10_uart_bridge/out/libs/lpc_open/lpc_chip_43xx/src/i2c_18xx_43xx.o
 .data.ClockSpeed
                0x0000000010000038        0x4 examples_c/sapi/bluetooth/hm10_uart_bridge/out/libs/sapi/sapi_v0.5.2/soc/core/src/sapi_cyclesCounter.o
 .data.ultrasonicSensors
                0x000000001000003c       0x48 examples_c/sapi/bluetooth/hm10_uart_bridge/out/libs/sapi/sapi_v0.5.2/external_peripherals/src/sapi_ultrasonic_hcsr04.o
                0x0000000010000084                . = ALIGN (0x4)
                0x0000000010000084                _edata = .

.igot.plt       0x0000000010000084        0x0 load address 0x000000001a002160
 .igot.plt      0x0000000010000084        0x0 examples_c/sapi/bluetooth/hm10_uart_bridge/out/examples_c/sapi/bluetooth/hm10_uart_bridge/src/hm10_uart_bridge.o

.bss_RAM2       0x0000000010080000        0x0
 *(.bss.$RAM2*)
 *(.bss.$RamLoc40*)
                0x0000000010080000                . = ALIGN (0x4)

.bss_RAM3       0x0000000020000000        0x0
 *(.bss.$RAM3*)
 *(.bss.$RamAHB32*)
                0x0000000020000000                . = ALIGN (0x4)

.bss_RAM4       0x0000000020008000        0x0
 *(.bss.$RAM4*)
 *(.bss.$RamAHB16*)
                0x0000000020008000                . = ALIGN (0x4)

.bss_RAM5       0x000000002000c000        0x0
 *(.bss.$RAM5*)
 *(.bss.$RamAHB_ETB16*)
                0x000000002000c000                . = ALIGN (0x4)

.bss            0x0000000010000088       0x34
                0x0000000010000088                _bss = .
 *(.bss*)
 .bss.audio_usb_pll_freq
                0x0000000010000088        0x8 examples_c/sapi/bluetooth/hm10_uart_bridge/out/libs/lpc_open/lpc_chip_43xx/src/clock_18xx_43xx.o
 .bss.callBackFuncParams
                0x0000000010000090        0x4 examples_c/sapi/bluetooth/hm10_uart_bridge/out/libs/sapi/sapi_v0.5.2/soc/peripherals/src/sapi_tick.o
 *fill*         0x0000000010000094        0x4 
 .bss.tickCounter
                0x0000000010000098        0x8 examples_c/sapi/bluetooth/hm10_uart_bridge/out/libs/sapi/sapi_v0.5.2/soc/peripherals/src/sapi_tick.o
 .bss.tickHookFunction
                0x00000000100000a0        0x4 examples_c/sapi/bluetooth/hm10_uart_bridge/out/libs/sapi/sapi_v0.5.2/soc/peripherals/src/sapi_tick.o
 .bss.g_hUsb    0x00000000100000a4        0x4 examples_c/sapi/bluetooth/hm10_uart_bridge/out/libs/sapi/sapi_v0.5.2/soc/peripherals/usb/device/src/sapi_usb_device.o
 *(COMMON)
 COMMON         0x00000000100000a8        0x4 examples_c/sapi/bluetooth/hm10_uart_bridge/out/libs/lpc_open/lpc_chip_43xx/src/chip_18xx_43xx.o
                0x00000000100000a8                SystemCoreClock
 *fill*         0x00000000100000ac        0x4 
 COMMON         0x00000000100000b0        0x8 examples_c/sapi/bluetooth/hm10_uart_bridge/out/libs/sapi/sapi_v0.5.2/soc/peripherals/src/sapi_tick.o
                0x00000000100000b0                tickRateMS
 COMMON         0x00000000100000b8        0x4 examples_c/sapi/bluetooth/hm10_uart_bridge/out/libs/sapi/sapi_v0.5.2/soc/peripherals/usb/device/src/sapi_usb_device.o
                0x00000000100000b8                g_pUsbApi
                0x00000000100000bc                . = ALIGN (0x4)
                0x00000000100000bc                _ebss = .
                [!provide]                        PROVIDE (end = .)

.noinit_RAM2    0x0000000010080000        0x0
 *(.noinit.$RAM2*)
 *(.noinit.$RamLoc40*)
                0x0000000010080000                . = ALIGN (0x4)

.noinit_RAM3    0x0000000020000000        0x0
 *(.noinit.$RAM3*)
 *(.noinit.$RamAHB32*)
                0x0000000020000000                . = ALIGN (0x4)

.noinit_RAM4    0x0000000020008000        0x0
 *(.noinit.$RAM4*)
 *(.noinit.$RamAHB16*)
                0x0000000020008000                . = ALIGN (0x4)

.noinit_RAM5    0x000000002000c000        0x0
 *(.noinit.$RAM5*)
 *(.noinit.$RamAHB_ETB16*)
                0x000000002000c000                . = ALIGN (0x4)

.noinit         0x00000000100000bc        0x0
                0x00000000100000bc                _noinit = .
 *(.noinit*)
                0x00000000100000bc                . = ALIGN (0x4)
                0x00000000100000bc                _end_noinit = .
                0x00000000100000bc                PROVIDE (_pvHeapStart = .)
                0x0000000010008000                PROVIDE (_vStackTop = (__top_RamLoc32 - 0x0))
                0xffffffff53ff742e                PROVIDE (__valid_user_code_checksum = (0x0 - ((((((_vStackTop + (Reset_Handler + 0x1)) + (NMI_Handler + 0x1)) + (HardFault_Handler + 0x1)) + (DEFINED (MemManage_Handler)?MemManage_Handler:0x0 + 0x1)) + (DEFINED (BusFault_Handler)?BusFault_Handler:0x0 + 0x1)) + (DEFINED (UsageFault_Handler)?UsageFault_Handler:0x0 + 0x1))))
OUTPUT(examples_c/sapi/bluetooth/hm10_uart_bridge/out/hm10_uart_bridge.elf elf32-littlearm)

.debug_info     0x0000000000000000    0x1b9c6
 .debug_info    0x0000000000000000     0x234f examples_c/sapi/bluetooth/hm10_uart_bridge/out/examples_c/sapi/bluetooth/hm10_uart_bridge/src/hm10_uart_bridge.o
 .debug_info    0x000000000000234f      0x301 examples_c/sapi/bluetooth/hm10_uart_bridge/out/libs/cmsis_core//src/armv7m_startup.o
 .debug_info    0x0000000000002650      0xf43 examples_c/sapi/bluetooth/hm10_uart_bridge/out/libs/sys_newlib//src/system.o
 .debug_info    0x0000000000003593     0x2130 examples_c/sapi/bluetooth/hm10_uart_bridge/out/libs/lpc_open/boards/edu_ciaa_nxp/src/board.o
 .debug_info    0x00000000000056c3     0x14c3 examples_c/sapi/bluetooth/hm10_uart_bridge/out/libs/lpc_open/boards/edu_ciaa_nxp/src/board_sysinit.o
 .debug_info    0x0000000000006b86     0x164f examples_c/sapi/bluetooth/hm10_uart_bridge/out/libs/lpc_open/lpc_chip_43xx/src/uart_18xx_43xx.o
 .debug_info    0x00000000000081d5      0xaef examples_c/sapi/bluetooth/hm10_uart_bridge/out/libs/lpc_open/lpc_chip_43xx/src/adc_18xx_43xx.o
 .debug_info    0x0000000000008cc4     0x18ed examples_c/sapi/bluetooth/hm10_uart_bridge/out/libs/lpc_open/lpc_chip_43xx/src/clock_18xx_43xx.o
 .debug_info    0x000000000000a5b1      0xc3d examples_c/sapi/bluetooth/hm10_uart_bridge/out/libs/lpc_open/lpc_chip_43xx/src/chip_18xx_43xx.o
 .debug_info    0x000000000000b1ee      0xab0 examples_c/sapi/bluetooth/hm10_uart_bridge/out/libs/lpc_open/lpc_chip_43xx/src/sysinit_18xx_43xx.o
 .debug_info    0x000000000000bc9e      0x219 examples_c/sapi/bluetooth/hm10_uart_bridge/out/libs/lpc_open/lpc_chip_43xx/src/gpio_18xx_43xx.o
 .debug_info    0x000000000000beb7     0x1366 examples_c/sapi/bluetooth/hm10_uart_bridge/out/libs/lpc_open/lpc_chip_43xx/src/i2c_18xx_43xx.o
 .debug_info    0x000000000000d21d     0x1606 examples_c/sapi/bluetooth/hm10_uart_bridge/out/libs/lpc_open/lpc_chip_43xx/src/ssp_18xx_43xx.o
 .debug_info    0x000000000000e823       0x3f examples_c/sapi/bluetooth/hm10_uart_bridge/out/libs/lpc_open/lpc_startup/src/crp.o
 .debug_info    0x000000000000e862      0xbbd examples_c/sapi/bluetooth/hm10_uart_bridge/out/libs/lpc_open/lpc_startup/src/sysinit.o
 .debug_info    0x000000000000f41f       0x74 examples_c/sapi/bluetooth/hm10_uart_bridge/out/libs/lpc_open/lpc_startup/src/vendor_interrupt.o
 .debug_info    0x000000000000f493      0xeaf examples_c/sapi/bluetooth/hm10_uart_bridge/out/libs/sapi/sapi_v0.5.2/soc/core/src/sapi_cyclesCounter.o
 .debug_info    0x0000000000010342     0x1d45 examples_c/sapi/bluetooth/hm10_uart_bridge/out/libs/sapi/sapi_v0.5.2/soc/peripherals/src/sapi_uart.o
 .debug_info    0x0000000000012087     0x14a2 examples_c/sapi/bluetooth/hm10_uart_bridge/out/libs/sapi/sapi_v0.5.2/soc/peripherals/src/sapi_tick.o
 .debug_info    0x0000000000013529     0x1a90 examples_c/sapi/bluetooth/hm10_uart_bridge/out/libs/sapi/sapi_v0.5.2/soc/peripherals/src/sapi_gpio.o
 .debug_info    0x0000000000014fb9     0x330e examples_c/sapi/bluetooth/hm10_uart_bridge/out/libs/sapi/sapi_v0.5.2/soc/peripherals/usb/device/src/sapi_usb_device.o
 .debug_info    0x00000000000182c7      0xdb2 examples_c/sapi/bluetooth/hm10_uart_bridge/out/libs/sapi/sapi_v0.5.2/board/src/sapi_board.o
 .debug_info    0x0000000000019079      0xb14 examples_c/sapi/bluetooth/hm10_uart_bridge/out/libs/sapi/sapi_v0.5.2/abstract_modules/src/sapi_delay.o
 .debug_info    0x0000000000019b8d     0x1e39 examples_c/sapi/bluetooth/hm10_uart_bridge/out/libs/sapi/sapi_v0.5.2/external_peripherals/src/sapi_ultrasonic_hcsr04.o

.debug_abbrev   0x0000000000000000     0x3e5a
 .debug_abbrev  0x0000000000000000      0x2ad examples_c/sapi/bluetooth/hm10_uart_bridge/out/examples_c/sapi/bluetooth/hm10_uart_bridge/src/hm10_uart_bridge.o
 .debug_abbrev  0x00000000000002ad      0x10d examples_c/sapi/bluetooth/hm10_uart_bridge/out/libs/cmsis_core//src/armv7m_startup.o
 .debug_abbrev  0x00000000000003ba      0x2b7 examples_c/sapi/bluetooth/hm10_uart_bridge/out/libs/sys_newlib//src/system.o
 .debug_abbrev  0x0000000000000671      0x47e examples_c/sapi/bluetooth/hm10_uart_bridge/out/libs/lpc_open/boards/edu_ciaa_nxp/src/board.o
 .debug_abbrev  0x0000000000000aef      0x2f8 examples_c/sapi/bluetooth/hm10_uart_bridge/out/libs/lpc_open/boards/edu_ciaa_nxp/src/board_sysinit.o
 .debug_abbrev  0x0000000000000de7      0x3b7 examples_c/sapi/bluetooth/hm10_uart_bridge/out/libs/lpc_open/lpc_chip_43xx/src/uart_18xx_43xx.o
 .debug_abbrev  0x000000000000119e      0x1f9 examples_c/sapi/bluetooth/hm10_uart_bridge/out/libs/lpc_open/lpc_chip_43xx/src/adc_18xx_43xx.o
 .debug_abbrev  0x0000000000001397      0x379 examples_c/sapi/bluetooth/hm10_uart_bridge/out/libs/lpc_open/lpc_chip_43xx/src/clock_18xx_43xx.o
 .debug_abbrev  0x0000000000001710      0x1c3 examples_c/sapi/bluetooth/hm10_uart_bridge/out/libs/lpc_open/lpc_chip_43xx/src/chip_18xx_43xx.o
 .debug_abbrev  0x00000000000018d3      0x203 examples_c/sapi/bluetooth/hm10_uart_bridge/out/libs/lpc_open/lpc_chip_43xx/src/sysinit_18xx_43xx.o
 .debug_abbrev  0x0000000000001ad6      0x100 examples_c/sapi/bluetooth/hm10_uart_bridge/out/libs/lpc_open/lpc_chip_43xx/src/gpio_18xx_43xx.o
 .debug_abbrev  0x0000000000001bd6      0x344 examples_c/sapi/bluetooth/hm10_uart_bridge/out/libs/lpc_open/lpc_chip_43xx/src/i2c_18xx_43xx.o
 .debug_abbrev  0x0000000000001f1a      0x352 examples_c/sapi/bluetooth/hm10_uart_bridge/out/libs/lpc_open/lpc_chip_43xx/src/ssp_18xx_43xx.o
 .debug_abbrev  0x000000000000226c       0x36 examples_c/sapi/bluetooth/hm10_uart_bridge/out/libs/lpc_open/lpc_startup/src/crp.o
 .debug_abbrev  0x00000000000022a2      0x221 examples_c/sapi/bluetooth/hm10_uart_bridge/out/libs/lpc_open/lpc_startup/src/sysinit.o
 .debug_abbrev  0x00000000000024c3       0x74 examples_c/sapi/bluetooth/hm10_uart_bridge/out/libs/lpc_open/lpc_startup/src/vendor_interrupt.o
 .debug_abbrev  0x0000000000002537      0x232 examples_c/sapi/bluetooth/hm10_uart_bridge/out/libs/sapi/sapi_v0.5.2/soc/core/src/sapi_cyclesCounter.o
 .debug_abbrev  0x0000000000002769      0x3e2 examples_c/sapi/bluetooth/hm10_uart_bridge/out/libs/sapi/sapi_v0.5.2/soc/peripherals/src/sapi_uart.o
 .debug_abbrev  0x0000000000002b4b      0x368 examples_c/sapi/bluetooth/hm10_uart_bridge/out/libs/sapi/sapi_v0.5.2/soc/peripherals/src/sapi_tick.o
 .debug_abbrev  0x0000000000002eb3      0x389 examples_c/sapi/bluetooth/hm10_uart_bridge/out/libs/sapi/sapi_v0.5.2/soc/peripherals/src/sapi_gpio.o
 .debug_abbrev  0x000000000000323c      0x3d9 examples_c/sapi/bluetooth/hm10_uart_bridge/out/libs/sapi/sapi_v0.5.2/soc/peripherals/usb/device/src/sapi_usb_device.o
 .debug_abbrev  0x0000000000003615      0x216 examples_c/sapi/bluetooth/hm10_uart_bridge/out/libs/sapi/sapi_v0.5.2/board/src/sapi_board.o
 .debug_abbrev  0x000000000000382b      0x241 examples_c/sapi/bluetooth/hm10_uart_bridge/out/libs/sapi/sapi_v0.5.2/abstract_modules/src/sapi_delay.o
 .debug_abbrev  0x0000000000003a6c      0x3ee examples_c/sapi/bluetooth/hm10_uart_bridge/out/libs/sapi/sapi_v0.5.2/external_peripherals/src/sapi_ultrasonic_hcsr04.o

.debug_loc      0x0000000000000000     0x6bdc
 .debug_loc     0x0000000000000000       0x4d examples_c/sapi/bluetooth/hm10_uart_bridge/out/examples_c/sapi/bluetooth/hm10_uart_bridge/src/hm10_uart_bridge.o
 .debug_loc     0x000000000000004d      0x206 examples_c/sapi/bluetooth/hm10_uart_bridge/out/libs/cmsis_core//src/armv7m_startup.o
 .debug_loc     0x0000000000000253      0x586 examples_c/sapi/bluetooth/hm10_uart_bridge/out/libs/sys_newlib//src/system.o
 .debug_loc     0x00000000000007d9      0x5b0 examples_c/sapi/bluetooth/hm10_uart_bridge/out/libs/lpc_open/boards/edu_ciaa_nxp/src/board.o
 .debug_loc     0x0000000000000d89       0xf5 examples_c/sapi/bluetooth/hm10_uart_bridge/out/libs/lpc_open/boards/edu_ciaa_nxp/src/board_sysinit.o
 .debug_loc     0x0000000000000e7e      0xd25 examples_c/sapi/bluetooth/hm10_uart_bridge/out/libs/lpc_open/lpc_chip_43xx/src/uart_18xx_43xx.o
 .debug_loc     0x0000000000001ba3      0x67e examples_c/sapi/bluetooth/hm10_uart_bridge/out/libs/lpc_open/lpc_chip_43xx/src/adc_18xx_43xx.o
 .debug_loc     0x0000000000002221     0x123c examples_c/sapi/bluetooth/hm10_uart_bridge/out/libs/lpc_open/lpc_chip_43xx/src/clock_18xx_43xx.o
 .debug_loc     0x000000000000345d      0x1b5 examples_c/sapi/bluetooth/hm10_uart_bridge/out/libs/lpc_open/lpc_chip_43xx/src/sysinit_18xx_43xx.o
 .debug_loc     0x0000000000003612      0xc9a examples_c/sapi/bluetooth/hm10_uart_bridge/out/libs/lpc_open/lpc_chip_43xx/src/i2c_18xx_43xx.o
 .debug_loc     0x00000000000042ac      0xd56 examples_c/sapi/bluetooth/hm10_uart_bridge/out/libs/lpc_open/lpc_chip_43xx/src/ssp_18xx_43xx.o
 .debug_loc     0x0000000000005002       0x13 examples_c/sapi/bluetooth/hm10_uart_bridge/out/libs/lpc_open/lpc_startup/src/sysinit.o
 .debug_loc     0x0000000000005015       0xed examples_c/sapi/bluetooth/hm10_uart_bridge/out/libs/sapi/sapi_v0.5.2/soc/core/src/sapi_cyclesCounter.o
 .debug_loc     0x0000000000005102      0x7c8 examples_c/sapi/bluetooth/hm10_uart_bridge/out/libs/sapi/sapi_v0.5.2/soc/peripherals/src/sapi_uart.o
 .debug_loc     0x00000000000058ca      0x173 examples_c/sapi/bluetooth/hm10_uart_bridge/out/libs/sapi/sapi_v0.5.2/soc/peripherals/src/sapi_tick.o
 .debug_loc     0x0000000000005a3d      0x7e4 examples_c/sapi/bluetooth/hm10_uart_bridge/out/libs/sapi/sapi_v0.5.2/soc/peripherals/src/sapi_gpio.o
 .debug_loc     0x0000000000006221      0x34f examples_c/sapi/bluetooth/hm10_uart_bridge/out/libs/sapi/sapi_v0.5.2/soc/peripherals/usb/device/src/sapi_usb_device.o
 .debug_loc     0x0000000000006570      0x1af examples_c/sapi/bluetooth/hm10_uart_bridge/out/libs/sapi/sapi_v0.5.2/abstract_modules/src/sapi_delay.o
 .debug_loc     0x000000000000671f      0x4bd examples_c/sapi/bluetooth/hm10_uart_bridge/out/libs/sapi/sapi_v0.5.2/external_peripherals/src/sapi_ultrasonic_hcsr04.o

.debug_aranges  0x0000000000000000      0x9c0
 .debug_aranges
                0x0000000000000000       0x30 examples_c/sapi/bluetooth/hm10_uart_bridge/out/examples_c/sapi/bluetooth/hm10_uart_bridge/src/hm10_uart_bridge.o
 .debug_aranges
                0x0000000000000030       0x90 examples_c/sapi/bluetooth/hm10_uart_bridge/out/libs/cmsis_core//src/armv7m_startup.o
 .debug_aranges
                0x00000000000000c0       0xe0 examples_c/sapi/bluetooth/hm10_uart_bridge/out/libs/sys_newlib//src/system.o
 .debug_aranges
                0x00000000000001a0       0xc0 examples_c/sapi/bluetooth/hm10_uart_bridge/out/libs/lpc_open/boards/edu_ciaa_nxp/src/board.o
 .debug_aranges
                0x0000000000000260       0x30 examples_c/sapi/bluetooth/hm10_uart_bridge/out/libs/lpc_open/boards/edu_ciaa_nxp/src/board_sysinit.o
 .debug_aranges
                0x0000000000000290       0xa8 examples_c/sapi/bluetooth/hm10_uart_bridge/out/libs/lpc_open/lpc_chip_43xx/src/uart_18xx_43xx.o
 .debug_aranges
                0x0000000000000338       0x90 examples_c/sapi/bluetooth/hm10_uart_bridge/out/libs/lpc_open/lpc_chip_43xx/src/adc_18xx_43xx.o
 .debug_aranges
                0x00000000000003c8      0x128 examples_c/sapi/bluetooth/hm10_uart_bridge/out/libs/lpc_open/lpc_chip_43xx/src/clock_18xx_43xx.o
 .debug_aranges
                0x00000000000004f0       0x38 examples_c/sapi/bluetooth/hm10_uart_bridge/out/libs/lpc_open/lpc_chip_43xx/src/chip_18xx_43xx.o
 .debug_aranges
                0x0000000000000528       0x38 examples_c/sapi/bluetooth/hm10_uart_bridge/out/libs/lpc_open/lpc_chip_43xx/src/sysinit_18xx_43xx.o
 .debug_aranges
                0x0000000000000560       0x28 examples_c/sapi/bluetooth/hm10_uart_bridge/out/libs/lpc_open/lpc_chip_43xx/src/gpio_18xx_43xx.o
 .debug_aranges
                0x0000000000000588       0xd8 examples_c/sapi/bluetooth/hm10_uart_bridge/out/libs/lpc_open/lpc_chip_43xx/src/i2c_18xx_43xx.o
 .debug_aranges
                0x0000000000000660       0xa0 examples_c/sapi/bluetooth/hm10_uart_bridge/out/libs/lpc_open/lpc_chip_43xx/src/ssp_18xx_43xx.o
 .debug_aranges
                0x0000000000000700       0x18 examples_c/sapi/bluetooth/hm10_uart_bridge/out/libs/lpc_open/lpc_startup/src/crp.o
 .debug_aranges
                0x0000000000000718       0x20 examples_c/sapi/bluetooth/hm10_uart_bridge/out/libs/lpc_open/lpc_startup/src/sysinit.o
 .debug_aranges
                0x0000000000000738       0x20 examples_c/sapi/bluetooth/hm10_uart_bridge/out/libs/lpc_open/lpc_startup/src/vendor_interrupt.o
 .debug_aranges
                0x0000000000000758       0x38 examples_c/sapi/bluetooth/hm10_uart_bridge/out/libs/sapi/sapi_v0.5.2/soc/core/src/sapi_cyclesCounter.o
 .debug_aranges
                0x0000000000000790       0x80 examples_c/sapi/bluetooth/hm10_uart_bridge/out/libs/sapi/sapi_v0.5.2/soc/peripherals/src/sapi_uart.o
 .debug_aranges
                0x0000000000000810       0x48 examples_c/sapi/bluetooth/hm10_uart_bridge/out/libs/sapi/sapi_v0.5.2/soc/peripherals/src/sapi_tick.o
 .debug_aranges
                0x0000000000000858       0x40 examples_c/sapi/bluetooth/hm10_uart_bridge/out/libs/sapi/sapi_v0.5.2/soc/peripherals/src/sapi_gpio.o
 .debug_aranges
                0x0000000000000898       0x50 examples_c/sapi/bluetooth/hm10_uart_bridge/out/libs/sapi/sapi_v0.5.2/soc/peripherals/usb/device/src/sapi_usb_device.o
 .debug_aranges
                0x00000000000008e8       0x20 examples_c/sapi/bluetooth/hm10_uart_bridge/out/libs/sapi/sapi_v0.5.2/board/src/sapi_board.o
 .debug_aranges
                0x0000000000000908       0x48 examples_c/sapi/bluetooth/hm10_uart_bridge/out/libs/sapi/sapi_v0.5.2/abstract_modules/src/sapi_delay.o
 .debug_aranges
                0x0000000000000950       0x70 examples_c/sapi/bluetooth/hm10_uart_bridge/out/libs/sapi/sapi_v0.5.2/external_peripherals/src/sapi_ultrasonic_hcsr04.o

.debug_ranges   0x0000000000000000      0x970
 .debug_ranges  0x0000000000000000       0x20 examples_c/sapi/bluetooth/hm10_uart_bridge/out/examples_c/sapi/bluetooth/hm10_uart_bridge/src/hm10_uart_bridge.o
 .debug_ranges  0x0000000000000020       0x80 examples_c/sapi/bluetooth/hm10_uart_bridge/out/libs/cmsis_core//src/armv7m_startup.o
 .debug_ranges  0x00000000000000a0       0xd0 examples_c/sapi/bluetooth/hm10_uart_bridge/out/libs/sys_newlib//src/system.o
 .debug_ranges  0x0000000000000170       0xf8 examples_c/sapi/bluetooth/hm10_uart_bridge/out/libs/lpc_open/boards/edu_ciaa_nxp/src/board.o
 .debug_ranges  0x0000000000000268       0x50 examples_c/sapi/bluetooth/hm10_uart_bridge/out/libs/lpc_open/boards/edu_ciaa_nxp/src/board_sysinit.o
 .debug_ranges  0x00000000000002b8       0xb0 examples_c/sapi/bluetooth/hm10_uart_bridge/out/libs/lpc_open/lpc_chip_43xx/src/uart_18xx_43xx.o
 .debug_ranges  0x0000000000000368       0x80 examples_c/sapi/bluetooth/hm10_uart_bridge/out/libs/lpc_open/lpc_chip_43xx/src/adc_18xx_43xx.o
 .debug_ranges  0x00000000000003e8      0x190 examples_c/sapi/bluetooth/hm10_uart_bridge/out/libs/lpc_open/lpc_chip_43xx/src/clock_18xx_43xx.o
 .debug_ranges  0x0000000000000578       0x28 examples_c/sapi/bluetooth/hm10_uart_bridge/out/libs/lpc_open/lpc_chip_43xx/src/chip_18xx_43xx.o
 .debug_ranges  0x00000000000005a0       0x28 examples_c/sapi/bluetooth/hm10_uart_bridge/out/libs/lpc_open/lpc_chip_43xx/src/sysinit_18xx_43xx.o
 .debug_ranges  0x00000000000005c8       0x18 examples_c/sapi/bluetooth/hm10_uart_bridge/out/libs/lpc_open/lpc_chip_43xx/src/gpio_18xx_43xx.o
 .debug_ranges  0x00000000000005e0       0xc8 examples_c/sapi/bluetooth/hm10_uart_bridge/out/libs/lpc_open/lpc_chip_43xx/src/i2c_18xx_43xx.o
 .debug_ranges  0x00000000000006a8       0xc0 examples_c/sapi/bluetooth/hm10_uart_bridge/out/libs/lpc_open/lpc_chip_43xx/src/ssp_18xx_43xx.o
 .debug_ranges  0x0000000000000768       0x10 examples_c/sapi/bluetooth/hm10_uart_bridge/out/libs/lpc_open/lpc_startup/src/sysinit.o
 .debug_ranges  0x0000000000000778       0x10 examples_c/sapi/bluetooth/hm10_uart_bridge/out/libs/lpc_open/lpc_startup/src/vendor_interrupt.o
 .debug_ranges  0x0000000000000788       0x28 examples_c/sapi/bluetooth/hm10_uart_bridge/out/libs/sapi/sapi_v0.5.2/soc/core/src/sapi_cyclesCounter.o
 .debug_ranges  0x00000000000007b0       0x70 examples_c/sapi/bluetooth/hm10_uart_bridge/out/libs/sapi/sapi_v0.5.2/soc/peripherals/src/sapi_uart.o
 .debug_ranges  0x0000000000000820       0x38 examples_c/sapi/bluetooth/hm10_uart_bridge/out/libs/sapi/sapi_v0.5.2/soc/peripherals/src/sapi_tick.o
 .debug_ranges  0x0000000000000858       0x30 examples_c/sapi/bluetooth/hm10_uart_bridge/out/libs/sapi/sapi_v0.5.2/soc/peripherals/src/sapi_gpio.o
 .debug_ranges  0x0000000000000888       0x40 examples_c/sapi/bluetooth/hm10_uart_bridge/out/libs/sapi/sapi_v0.5.2/soc/peripherals/usb/device/src/sapi_usb_device.o
 .debug_ranges  0x00000000000008c8       0x10 examples_c/sapi/bluetooth/hm10_uart_bridge/out/libs/sapi/sapi_v0.5.2/board/src/sapi_board.o
 .debug_ranges  0x00000000000008d8       0x38 examples_c/sapi/bluetooth/hm10_uart_bridge/out/libs/sapi/sapi_v0.5.2/abstract_modules/src/sapi_delay.o
 .debug_ranges  0x0000000000000910       0x60 examples_c/sapi/bluetooth/hm10_uart_bridge/out/libs/sapi/sapi_v0.5.2/external_peripherals/src/sapi_ultrasonic_hcsr04.o

.debug_macro    0x0000000000000000     0xc51f
 .debug_macro   0x0000000000000000      0x68c examples_c/sapi/bluetooth/hm10_uart_bridge/out/examples_c/sapi/bluetooth/hm10_uart_bridge/src/hm10_uart_bridge.o
 .debug_macro   0x000000000000068c      0xa6c examples_c/sapi/bluetooth/hm10_uart_bridge/out/examples_c/sapi/bluetooth/hm10_uart_bridge/src/hm10_uart_bridge.o
 .debug_macro   0x00000000000010f8       0x22 examples_c/sapi/bluetooth/hm10_uart_bridge/out/examples_c/sapi/bluetooth/hm10_uart_bridge/src/hm10_uart_bridge.o
 .debug_macro   0x000000000000111a       0x56 examples_c/sapi/bluetooth/hm10_uart_bridge/out/examples_c/sapi/bluetooth/hm10_uart_bridge/src/hm10_uart_bridge.o
 .debug_macro   0x0000000000001170       0x51 examples_c/sapi/bluetooth/hm10_uart_bridge/out/examples_c/sapi/bluetooth/hm10_uart_bridge/src/hm10_uart_bridge.o
 .debug_macro   0x00000000000011c1       0xef examples_c/sapi/bluetooth/hm10_uart_bridge/out/examples_c/sapi/bluetooth/hm10_uart_bridge/src/hm10_uart_bridge.o
 .debug_macro   0x00000000000012b0       0x6a examples_c/sapi/bluetooth/hm10_uart_bridge/out/examples_c/sapi/bluetooth/hm10_uart_bridge/src/hm10_uart_bridge.o
 .debug_macro   0x000000000000131a      0x1df examples_c/sapi/bluetooth/hm10_uart_bridge/out/examples_c/sapi/bluetooth/hm10_uart_bridge/src/hm10_uart_bridge.o
 .debug_macro   0x00000000000014f9       0x10 examples_c/sapi/bluetooth/hm10_uart_bridge/out/examples_c/sapi/bluetooth/hm10_uart_bridge/src/hm10_uart_bridge.o
 .debug_macro   0x0000000000001509       0x22 examples_c/sapi/bluetooth/hm10_uart_bridge/out/examples_c/sapi/bluetooth/hm10_uart_bridge/src/hm10_uart_bridge.o
 .debug_macro   0x000000000000152b       0x73 examples_c/sapi/bluetooth/hm10_uart_bridge/out/examples_c/sapi/bluetooth/hm10_uart_bridge/src/hm10_uart_bridge.o
 .debug_macro   0x000000000000159e       0x22 examples_c/sapi/bluetooth/hm10_uart_bridge/out/examples_c/sapi/bluetooth/hm10_uart_bridge/src/hm10_uart_bridge.o
 .debug_macro   0x00000000000015c0       0x1c examples_c/sapi/bluetooth/hm10_uart_bridge/out/examples_c/sapi/bluetooth/hm10_uart_bridge/src/hm10_uart_bridge.o
 .debug_macro   0x00000000000015dc       0x22 examples_c/sapi/bluetooth/hm10_uart_bridge/out/examples_c/sapi/bluetooth/hm10_uart_bridge/src/hm10_uart_bridge.o
 .debug_macro   0x00000000000015fe       0xdf examples_c/sapi/bluetooth/hm10_uart_bridge/out/examples_c/sapi/bluetooth/hm10_uart_bridge/src/hm10_uart_bridge.o
 .debug_macro   0x00000000000016dd     0x102d examples_c/sapi/bluetooth/hm10_uart_bridge/out/examples_c/sapi/bluetooth/hm10_uart_bridge/src/hm10_uart_bridge.o
 .debug_macro   0x000000000000270a      0x11f examples_c/sapi/bluetooth/hm10_uart_bridge/out/examples_c/sapi/bluetooth/hm10_uart_bridge/src/hm10_uart_bridge.o
 .debug_macro   0x0000000000002829      0x2c3 examples_c/sapi/bluetooth/hm10_uart_bridge/out/examples_c/sapi/bluetooth/hm10_uart_bridge/src/hm10_uart_bridge.o
 .debug_macro   0x0000000000002aec      0x112 examples_c/sapi/bluetooth/hm10_uart_bridge/out/examples_c/sapi/bluetooth/hm10_uart_bridge/src/hm10_uart_bridge.o
 .debug_macro   0x0000000000002bfe       0x11 examples_c/sapi/bluetooth/hm10_uart_bridge/out/examples_c/sapi/bluetooth/hm10_uart_bridge/src/hm10_uart_bridge.o
 .debug_macro   0x0000000000002c0f       0x2a examples_c/sapi/bluetooth/hm10_uart_bridge/out/examples_c/sapi/bluetooth/hm10_uart_bridge/src/hm10_uart_bridge.o
 .debug_macro   0x0000000000002c39       0x16 examples_c/sapi/bluetooth/hm10_uart_bridge/out/examples_c/sapi/bluetooth/hm10_uart_bridge/src/hm10_uart_bridge.o
 .debug_macro   0x0000000000002c4f      0x2e6 examples_c/sapi/bluetooth/hm10_uart_bridge/out/examples_c/sapi/bluetooth/hm10_uart_bridge/src/hm10_uart_bridge.o
 .debug_macro   0x0000000000002f35       0x82 examples_c/sapi/bluetooth/hm10_uart_bridge/out/examples_c/sapi/bluetooth/hm10_uart_bridge/src/hm10_uart_bridge.o
 .debug_macro   0x0000000000002fb7      0x13d examples_c/sapi/bluetooth/hm10_uart_bridge/out/examples_c/sapi/bluetooth/hm10_uart_bridge/src/hm10_uart_bridge.o
 .debug_macro   0x00000000000030f4      0x198 examples_c/sapi/bluetooth/hm10_uart_bridge/out/examples_c/sapi/bluetooth/hm10_uart_bridge/src/hm10_uart_bridge.o
 .debug_macro   0x000000000000328c       0x34 examples_c/sapi/bluetooth/hm10_uart_bridge/out/examples_c/sapi/bluetooth/hm10_uart_bridge/src/hm10_uart_bridge.o
 .debug_macro   0x00000000000032c0       0x58 examples_c/sapi/bluetooth/hm10_uart_bridge/out/examples_c/sapi/bluetooth/hm10_uart_bridge/src/hm10_uart_bridge.o
 .debug_macro   0x0000000000003318      0x236 examples_c/sapi/bluetooth/hm10_uart_bridge/out/examples_c/sapi/bluetooth/hm10_uart_bridge/src/hm10_uart_bridge.o
 .debug_macro   0x000000000000354e      0x572 examples_c/sapi/bluetooth/hm10_uart_bridge/out/examples_c/sapi/bluetooth/hm10_uart_bridge/src/hm10_uart_bridge.o
 .debug_macro   0x0000000000003ac0       0x16 examples_c/sapi/bluetooth/hm10_uart_bridge/out/examples_c/sapi/bluetooth/hm10_uart_bridge/src/hm10_uart_bridge.o
 .debug_macro   0x0000000000003ad6      0x18a examples_c/sapi/bluetooth/hm10_uart_bridge/out/examples_c/sapi/bluetooth/hm10_uart_bridge/src/hm10_uart_bridge.o
 .debug_macro   0x0000000000003c60       0x88 examples_c/sapi/bluetooth/hm10_uart_bridge/out/examples_c/sapi/bluetooth/hm10_uart_bridge/src/hm10_uart_bridge.o
 .debug_macro   0x0000000000003ce8      0x1b9 examples_c/sapi/bluetooth/hm10_uart_bridge/out/examples_c/sapi/bluetooth/hm10_uart_bridge/src/hm10_uart_bridge.o
 .debug_macro   0x0000000000003ea1      0x1da examples_c/sapi/bluetooth/hm10_uart_bridge/out/examples_c/sapi/bluetooth/hm10_uart_bridge/src/hm10_uart_bridge.o
 .debug_macro   0x000000000000407b       0x40 examples_c/sapi/bluetooth/hm10_uart_bridge/out/examples_c/sapi/bluetooth/hm10_uart_bridge/src/hm10_uart_bridge.o
 .debug_macro   0x00000000000040bb       0x1c examples_c/sapi/bluetooth/hm10_uart_bridge/out/examples_c/sapi/bluetooth/hm10_uart_bridge/src/hm10_uart_bridge.o
 .debug_macro   0x00000000000040d7       0x2e examples_c/sapi/bluetooth/hm10_uart_bridge/out/examples_c/sapi/bluetooth/hm10_uart_bridge/src/hm10_uart_bridge.o
 .debug_macro   0x0000000000004105       0x2e examples_c/sapi/bluetooth/hm10_uart_bridge/out/examples_c/sapi/bluetooth/hm10_uart_bridge/src/hm10_uart_bridge.o
 .debug_macro   0x0000000000004133       0x22 examples_c/sapi/bluetooth/hm10_uart_bridge/out/examples_c/sapi/bluetooth/hm10_uart_bridge/src/hm10_uart_bridge.o
 .debug_macro   0x0000000000004155      0x201 examples_c/sapi/bluetooth/hm10_uart_bridge/out/examples_c/sapi/bluetooth/hm10_uart_bridge/src/hm10_uart_bridge.o
 .debug_macro   0x0000000000004356       0xe0 examples_c/sapi/bluetooth/hm10_uart_bridge/out/examples_c/sapi/bluetooth/hm10_uart_bridge/src/hm10_uart_bridge.o
 .debug_macro   0x0000000000004436      0x34c examples_c/sapi/bluetooth/hm10_uart_bridge/out/examples_c/sapi/bluetooth/hm10_uart_bridge/src/hm10_uart_bridge.o
 .debug_macro   0x0000000000004782       0xdc examples_c/sapi/bluetooth/hm10_uart_bridge/out/examples_c/sapi/bluetooth/hm10_uart_bridge/src/hm10_uart_bridge.o
 .debug_macro   0x000000000000485e       0xc4 examples_c/sapi/bluetooth/hm10_uart_bridge/out/examples_c/sapi/bluetooth/hm10_uart_bridge/src/hm10_uart_bridge.o
 .debug_macro   0x0000000000004922       0x8f examples_c/sapi/bluetooth/hm10_uart_bridge/out/examples_c/sapi/bluetooth/hm10_uart_bridge/src/hm10_uart_bridge.o
 .debug_macro   0x00000000000049b1       0x94 examples_c/sapi/bluetooth/hm10_uart_bridge/out/examples_c/sapi/bluetooth/hm10_uart_bridge/src/hm10_uart_bridge.o
 .debug_macro   0x0000000000004a45       0xb8 examples_c/sapi/bluetooth/hm10_uart_bridge/out/examples_c/sapi/bluetooth/hm10_uart_bridge/src/hm10_uart_bridge.o
 .debug_macro   0x0000000000004afd       0x4c examples_c/sapi/bluetooth/hm10_uart_bridge/out/examples_c/sapi/bluetooth/hm10_uart_bridge/src/hm10_uart_bridge.o
 .debug_macro   0x0000000000004b49       0x16 examples_c/sapi/bluetooth/hm10_uart_bridge/out/examples_c/sapi/bluetooth/hm10_uart_bridge/src/hm10_uart_bridge.o
 .debug_macro   0x0000000000004b5f      0x328 examples_c/sapi/bluetooth/hm10_uart_bridge/out/examples_c/sapi/bluetooth/hm10_uart_bridge/src/hm10_uart_bridge.o
 .debug_macro   0x0000000000004e87       0x3a examples_c/sapi/bluetooth/hm10_uart_bridge/out/examples_c/sapi/bluetooth/hm10_uart_bridge/src/hm10_uart_bridge.o
 .debug_macro   0x0000000000004ec1       0xd0 examples_c/sapi/bluetooth/hm10_uart_bridge/out/examples_c/sapi/bluetooth/hm10_uart_bridge/src/hm10_uart_bridge.o
 .debug_macro   0x0000000000004f91       0x18 examples_c/sapi/bluetooth/hm10_uart_bridge/out/examples_c/sapi/bluetooth/hm10_uart_bridge/src/hm10_uart_bridge.o
 .debug_macro   0x0000000000004fa9       0x22 examples_c/sapi/bluetooth/hm10_uart_bridge/out/examples_c/sapi/bluetooth/hm10_uart_bridge/src/hm10_uart_bridge.o
 .debug_macro   0x0000000000004fcb       0x40 examples_c/sapi/bluetooth/hm10_uart_bridge/out/examples_c/sapi/bluetooth/hm10_uart_bridge/src/hm10_uart_bridge.o
 .debug_macro   0x000000000000500b       0x5e examples_c/sapi/bluetooth/hm10_uart_bridge/out/examples_c/sapi/bluetooth/hm10_uart_bridge/src/hm10_uart_bridge.o
 .debug_macro   0x0000000000005069       0x18 examples_c/sapi/bluetooth/hm10_uart_bridge/out/examples_c/sapi/bluetooth/hm10_uart_bridge/src/hm10_uart_bridge.o
 .debug_macro   0x0000000000005081       0x35 examples_c/sapi/bluetooth/hm10_uart_bridge/out/examples_c/sapi/bluetooth/hm10_uart_bridge/src/hm10_uart_bridge.o
 .debug_macro   0x00000000000050b6       0x34 examples_c/sapi/bluetooth/hm10_uart_bridge/out/examples_c/sapi/bluetooth/hm10_uart_bridge/src/hm10_uart_bridge.o
 .debug_macro   0x00000000000050ea       0x16 examples_c/sapi/bluetooth/hm10_uart_bridge/out/examples_c/sapi/bluetooth/hm10_uart_bridge/src/hm10_uart_bridge.o
 .debug_macro   0x0000000000005100       0x97 examples_c/sapi/bluetooth/hm10_uart_bridge/out/examples_c/sapi/bluetooth/hm10_uart_bridge/src/hm10_uart_bridge.o
 .debug_macro   0x0000000000005197      0x34d examples_c/sapi/bluetooth/hm10_uart_bridge/out/examples_c/sapi/bluetooth/hm10_uart_bridge/src/hm10_uart_bridge.o
 .debug_macro   0x00000000000054e4       0xf6 examples_c/sapi/bluetooth/hm10_uart_bridge/out/examples_c/sapi/bluetooth/hm10_uart_bridge/src/hm10_uart_bridge.o
 .debug_macro   0x00000000000055da       0x10 examples_c/sapi/bluetooth/hm10_uart_bridge/out/examples_c/sapi/bluetooth/hm10_uart_bridge/src/hm10_uart_bridge.o
 .debug_macro   0x00000000000055ea       0x58 examples_c/sapi/bluetooth/hm10_uart_bridge/out/examples_c/sapi/bluetooth/hm10_uart_bridge/src/hm10_uart_bridge.o
 .debug_macro   0x0000000000005642       0x1f examples_c/sapi/bluetooth/hm10_uart_bridge/out/examples_c/sapi/bluetooth/hm10_uart_bridge/src/hm10_uart_bridge.o
 .debug_macro   0x0000000000005661       0x43 examples_c/sapi/bluetooth/hm10_uart_bridge/out/examples_c/sapi/bluetooth/hm10_uart_bridge/src/hm10_uart_bridge.o
 .debug_macro   0x00000000000056a4       0x20 examples_c/sapi/bluetooth/hm10_uart_bridge/out/examples_c/sapi/bluetooth/hm10_uart_bridge/src/hm10_uart_bridge.o
 .debug_macro   0x00000000000056c4      0x18e examples_c/sapi/bluetooth/hm10_uart_bridge/out/examples_c/sapi/bluetooth/hm10_uart_bridge/src/hm10_uart_bridge.o
 .debug_macro   0x0000000000005852       0x10 examples_c/sapi/bluetooth/hm10_uart_bridge/out/examples_c/sapi/bluetooth/hm10_uart_bridge/src/hm10_uart_bridge.o
 .debug_macro   0x0000000000005862       0xb6 examples_c/sapi/bluetooth/hm10_uart_bridge/out/examples_c/sapi/bluetooth/hm10_uart_bridge/src/hm10_uart_bridge.o
 .debug_macro   0x0000000000005918       0x16 examples_c/sapi/bluetooth/hm10_uart_bridge/out/examples_c/sapi/bluetooth/hm10_uart_bridge/src/hm10_uart_bridge.o
 .debug_macro   0x000000000000592e      0x129 examples_c/sapi/bluetooth/hm10_uart_bridge/out/examples_c/sapi/bluetooth/hm10_uart_bridge/src/hm10_uart_bridge.o
 .debug_macro   0x0000000000005a57       0x20 examples_c/sapi/bluetooth/hm10_uart_bridge/out/examples_c/sapi/bluetooth/hm10_uart_bridge/src/hm10_uart_bridge.o
 .debug_macro   0x0000000000005a77       0xee examples_c/sapi/bluetooth/hm10_uart_bridge/out/examples_c/sapi/bluetooth/hm10_uart_bridge/src/hm10_uart_bridge.o
 .debug_macro   0x0000000000005b65       0x52 examples_c/sapi/bluetooth/hm10_uart_bridge/out/examples_c/sapi/bluetooth/hm10_uart_bridge/src/hm10_uart_bridge.o
 .debug_macro   0x0000000000005bb7       0x10 examples_c/sapi/bluetooth/hm10_uart_bridge/out/examples_c/sapi/bluetooth/hm10_uart_bridge/src/hm10_uart_bridge.o
 .debug_macro   0x0000000000005bc7       0x10 examples_c/sapi/bluetooth/hm10_uart_bridge/out/examples_c/sapi/bluetooth/hm10_uart_bridge/src/hm10_uart_bridge.o
 .debug_macro   0x0000000000005bd7       0x10 examples_c/sapi/bluetooth/hm10_uart_bridge/out/examples_c/sapi/bluetooth/hm10_uart_bridge/src/hm10_uart_bridge.o
 .debug_macro   0x0000000000005be7       0x2e examples_c/sapi/bluetooth/hm10_uart_bridge/out/examples_c/sapi/bluetooth/hm10_uart_bridge/src/hm10_uart_bridge.o
 .debug_macro   0x0000000000005c15       0x1c examples_c/sapi/bluetooth/hm10_uart_bridge/out/examples_c/sapi/bluetooth/hm10_uart_bridge/src/hm10_uart_bridge.o
 .debug_macro   0x0000000000005c31       0x10 examples_c/sapi/bluetooth/hm10_uart_bridge/out/examples_c/sapi/bluetooth/hm10_uart_bridge/src/hm10_uart_bridge.o
 .debug_macro   0x0000000000005c41       0x10 examples_c/sapi/bluetooth/hm10_uart_bridge/out/examples_c/sapi/bluetooth/hm10_uart_bridge/src/hm10_uart_bridge.o
 .debug_macro   0x0000000000005c51       0x40 examples_c/sapi/bluetooth/hm10_uart_bridge/out/examples_c/sapi/bluetooth/hm10_uart_bridge/src/hm10_uart_bridge.o
 .debug_macro   0x0000000000005c91       0x10 examples_c/sapi/bluetooth/hm10_uart_bridge/out/examples_c/sapi/bluetooth/hm10_uart_bridge/src/hm10_uart_bridge.o
 .debug_macro   0x0000000000005ca1       0x10 examples_c/sapi/bluetooth/hm10_uart_bridge/out/examples_c/sapi/bluetooth/hm10_uart_bridge/src/hm10_uart_bridge.o
 .debug_macro   0x0000000000005cb1       0x2e examples_c/sapi/bluetooth/hm10_uart_bridge/out/examples_c/sapi/bluetooth/hm10_uart_bridge/src/hm10_uart_bridge.o
 .debug_macro   0x0000000000005cdf      0x26c examples_c/sapi/bluetooth/hm10_uart_bridge/out/examples_c/sapi/bluetooth/hm10_uart_bridge/src/hm10_uart_bridge.o
 .debug_macro   0x0000000000005f4b       0x5e examples_c/sapi/bluetooth/hm10_uart_bridge/out/examples_c/sapi/bluetooth/hm10_uart_bridge/src/hm10_uart_bridge.o
 .debug_macro   0x0000000000005fa9       0x12 examples_c/sapi/bluetooth/hm10_uart_bridge/out/examples_c/sapi/bluetooth/hm10_uart_bridge/src/hm10_uart_bridge.o
 .debug_macro   0x0000000000005fbb       0xfa examples_c/sapi/bluetooth/hm10_uart_bridge/out/examples_c/sapi/bluetooth/hm10_uart_bridge/src/hm10_uart_bridge.o
 .debug_macro   0x00000000000060b5       0xee examples_c/sapi/bluetooth/hm10_uart_bridge/out/examples_c/sapi/bluetooth/hm10_uart_bridge/src/hm10_uart_bridge.o
 .debug_macro   0x00000000000061a3      0x69a examples_c/sapi/bluetooth/hm10_uart_bridge/out/examples_c/sapi/bluetooth/hm10_uart_bridge/src/hm10_uart_bridge.o
 .debug_macro   0x000000000000683d      0x272 examples_c/sapi/bluetooth/hm10_uart_bridge/out/examples_c/sapi/bluetooth/hm10_uart_bridge/src/hm10_uart_bridge.o
 .debug_macro   0x0000000000006aaf       0x10 examples_c/sapi/bluetooth/hm10_uart_bridge/out/examples_c/sapi/bluetooth/hm10_uart_bridge/src/hm10_uart_bridge.o
 .debug_macro   0x0000000000006abf       0x16 examples_c/sapi/bluetooth/hm10_uart_bridge/out/examples_c/sapi/bluetooth/hm10_uart_bridge/src/hm10_uart_bridge.o
 .debug_macro   0x0000000000006ad5       0x40 examples_c/sapi/bluetooth/hm10_uart_bridge/out/examples_c/sapi/bluetooth/hm10_uart_bridge/src/hm10_uart_bridge.o
 .debug_macro   0x0000000000006b15       0x70 examples_c/sapi/bluetooth/hm10_uart_bridge/out/examples_c/sapi/bluetooth/hm10_uart_bridge/src/hm10_uart_bridge.o
 .debug_macro   0x0000000000006b85       0x70 examples_c/sapi/bluetooth/hm10_uart_bridge/out/examples_c/sapi/bluetooth/hm10_uart_bridge/src/hm10_uart_bridge.o
 .debug_macro   0x0000000000006bf5       0x10 examples_c/sapi/bluetooth/hm10_uart_bridge/out/examples_c/sapi/bluetooth/hm10_uart_bridge/src/hm10_uart_bridge.o
 .debug_macro   0x0000000000006c05       0x22 examples_c/sapi/bluetooth/hm10_uart_bridge/out/examples_c/sapi/bluetooth/hm10_uart_bridge/src/hm10_uart_bridge.o
 .debug_macro   0x0000000000006c27       0x16 examples_c/sapi/bluetooth/hm10_uart_bridge/out/examples_c/sapi/bluetooth/hm10_uart_bridge/src/hm10_uart_bridge.o
 .debug_macro   0x0000000000006c3d       0x10 examples_c/sapi/bluetooth/hm10_uart_bridge/out/examples_c/sapi/bluetooth/hm10_uart_bridge/src/hm10_uart_bridge.o
 .debug_macro   0x0000000000006c4d       0x10 examples_c/sapi/bluetooth/hm10_uart_bridge/out/examples_c/sapi/bluetooth/hm10_uart_bridge/src/hm10_uart_bridge.o
 .debug_macro   0x0000000000006c5d       0x88 examples_c/sapi/bluetooth/hm10_uart_bridge/out/examples_c/sapi/bluetooth/hm10_uart_bridge/src/hm10_uart_bridge.o
 .debug_macro   0x0000000000006ce5       0x10 examples_c/sapi/bluetooth/hm10_uart_bridge/out/examples_c/sapi/bluetooth/hm10_uart_bridge/src/hm10_uart_bridge.o
 .debug_macro   0x0000000000006cf5       0x16 examples_c/sapi/bluetooth/hm10_uart_bridge/out/examples_c/sapi/bluetooth/hm10_uart_bridge/src/hm10_uart_bridge.o
 .debug_macro   0x0000000000006d0b       0x10 examples_c/sapi/bluetooth/hm10_uart_bridge/out/examples_c/sapi/bluetooth/hm10_uart_bridge/src/hm10_uart_bridge.o
 .debug_macro   0x0000000000006d1b       0x7c examples_c/sapi/bluetooth/hm10_uart_bridge/out/examples_c/sapi/bluetooth/hm10_uart_bridge/src/hm10_uart_bridge.o
 .debug_macro   0x0000000000006d97       0x64 examples_c/sapi/bluetooth/hm10_uart_bridge/out/examples_c/sapi/bluetooth/hm10_uart_bridge/src/hm10_uart_bridge.o
 .debug_macro   0x0000000000006dfb      0x1ec examples_c/sapi/bluetooth/hm10_uart_bridge/out/examples_c/sapi/bluetooth/hm10_uart_bridge/src/hm10_uart_bridge.o
 .debug_macro   0x0000000000006fe7       0x10 examples_c/sapi/bluetooth/hm10_uart_bridge/out/examples_c/sapi/bluetooth/hm10_uart_bridge/src/hm10_uart_bridge.o
 .debug_macro   0x0000000000006ff7       0x16 examples_c/sapi/bluetooth/hm10_uart_bridge/out/examples_c/sapi/bluetooth/hm10_uart_bridge/src/hm10_uart_bridge.o
 .debug_macro   0x000000000000700d       0x35 examples_c/sapi/bluetooth/hm10_uart_bridge/out/examples_c/sapi/bluetooth/hm10_uart_bridge/src/hm10_uart_bridge.o
 .debug_macro   0x0000000000007042       0x1d examples_c/sapi/bluetooth/hm10_uart_bridge/out/libs/cmsis_core//src/armv7m_startup.o
 .debug_macro   0x000000000000705f      0x168 examples_c/sapi/bluetooth/hm10_uart_bridge/out/libs/sys_newlib//src/system.o
 .debug_macro   0x00000000000071c7       0x58 examples_c/sapi/bluetooth/hm10_uart_bridge/out/libs/sys_newlib//src/system.o
 .debug_macro   0x000000000000721f       0x5c examples_c/sapi/bluetooth/hm10_uart_bridge/out/libs/sys_newlib//src/system.o
 .debug_macro   0x000000000000727b      0x16d examples_c/sapi/bluetooth/hm10_uart_bridge/out/libs/sys_newlib//src/system.o
 .debug_macro   0x00000000000073e8       0x57 examples_c/sapi/bluetooth/hm10_uart_bridge/out/libs/sys_newlib//src/system.o
 .debug_macro   0x000000000000743f       0x10 examples_c/sapi/bluetooth/hm10_uart_bridge/out/libs/sys_newlib//src/system.o
 .debug_macro   0x000000000000744f       0x10 examples_c/sapi/bluetooth/hm10_uart_bridge/out/libs/sys_newlib//src/system.o
 .debug_macro   0x000000000000745f      0x241 examples_c/sapi/bluetooth/hm10_uart_bridge/out/libs/sys_newlib//src/system.o
 .debug_macro   0x00000000000076a0      0x353 examples_c/sapi/bluetooth/hm10_uart_bridge/out/libs/sys_newlib//src/system.o
 .debug_macro   0x00000000000079f3      0x105 examples_c/sapi/bluetooth/hm10_uart_bridge/out/libs/sys_newlib//src/system.o
 .debug_macro   0x0000000000007af8       0x16 examples_c/sapi/bluetooth/hm10_uart_bridge/out/libs/sys_newlib//src/system.o
 .debug_macro   0x0000000000007b0e      0x43d examples_c/sapi/bluetooth/hm10_uart_bridge/out/libs/lpc_open/boards/edu_ciaa_nxp/src/board.o
 .debug_macro   0x0000000000007f4b      0x42b examples_c/sapi/bluetooth/hm10_uart_bridge/out/libs/lpc_open/boards/edu_ciaa_nxp/src/board_sysinit.o
 .debug_macro   0x0000000000008376      0x315 examples_c/sapi/bluetooth/hm10_uart_bridge/out/libs/lpc_open/lpc_chip_43xx/src/uart_18xx_43xx.o
 .debug_macro   0x000000000000868b      0x315 examples_c/sapi/bluetooth/hm10_uart_bridge/out/libs/lpc_open/lpc_chip_43xx/src/adc_18xx_43xx.o
 .debug_macro   0x00000000000089a0      0x31b examples_c/sapi/bluetooth/hm10_uart_bridge/out/libs/lpc_open/lpc_chip_43xx/src/clock_18xx_43xx.o
 .debug_macro   0x0000000000008cbb      0x315 examples_c/sapi/bluetooth/hm10_uart_bridge/out/libs/lpc_open/lpc_chip_43xx/src/chip_18xx_43xx.o
 .debug_macro   0x0000000000008fd0      0x315 examples_c/sapi/bluetooth/hm10_uart_bridge/out/libs/lpc_open/lpc_chip_43xx/src/sysinit_18xx_43xx.o
 .debug_macro   0x00000000000092e5      0x315 examples_c/sapi/bluetooth/hm10_uart_bridge/out/libs/lpc_open/lpc_chip_43xx/src/gpio_18xx_43xx.o
 .debug_macro   0x00000000000095fa      0x327 examples_c/sapi/bluetooth/hm10_uart_bridge/out/libs/lpc_open/lpc_chip_43xx/src/i2c_18xx_43xx.o
 .debug_macro   0x0000000000009921      0x315 examples_c/sapi/bluetooth/hm10_uart_bridge/out/libs/lpc_open/lpc_chip_43xx/src/ssp_18xx_43xx.o
 .debug_macro   0x0000000000009c36       0x17 examples_c/sapi/bluetooth/hm10_uart_bridge/out/libs/lpc_open/lpc_startup/src/crp.o
 .debug_macro   0x0000000000009c4d      0x42b examples_c/sapi/bluetooth/hm10_uart_bridge/out/libs/lpc_open/lpc_startup/src/sysinit.o
 .debug_macro   0x000000000000a078       0x1d examples_c/sapi/bluetooth/hm10_uart_bridge/out/libs/lpc_open/lpc_startup/src/vendor_interrupt.o
 .debug_macro   0x000000000000a095      0x449 examples_c/sapi/bluetooth/hm10_uart_bridge/out/libs/sapi/sapi_v0.5.2/soc/core/src/sapi_cyclesCounter.o
 .debug_macro   0x000000000000a4de       0x28 examples_c/sapi/bluetooth/hm10_uart_bridge/out/libs/sapi/sapi_v0.5.2/soc/core/src/sapi_cyclesCounter.o
 .debug_macro   0x000000000000a506      0x482 examples_c/sapi/bluetooth/hm10_uart_bridge/out/libs/sapi/sapi_v0.5.2/soc/peripherals/src/sapi_uart.o
 .debug_macro   0x000000000000a988       0x16 examples_c/sapi/bluetooth/hm10_uart_bridge/out/libs/sapi/sapi_v0.5.2/soc/peripherals/src/sapi_uart.o
 .debug_macro   0x000000000000a99e      0x450 examples_c/sapi/bluetooth/hm10_uart_bridge/out/libs/sapi/sapi_v0.5.2/soc/peripherals/src/sapi_tick.o
 .debug_macro   0x000000000000adee      0x452 examples_c/sapi/bluetooth/hm10_uart_bridge/out/libs/sapi/sapi_v0.5.2/soc/peripherals/src/sapi_gpio.o
 .debug_macro   0x000000000000b240       0x28 examples_c/sapi/bluetooth/hm10_uart_bridge/out/libs/sapi/sapi_v0.5.2/soc/peripherals/src/sapi_gpio.o
 .debug_macro   0x000000000000b268      0x546 examples_c/sapi/bluetooth/hm10_uart_bridge/out/libs/sapi/sapi_v0.5.2/soc/peripherals/usb/device/src/sapi_usb_device.o
 .debug_macro   0x000000000000b7ae      0x474 examples_c/sapi/bluetooth/hm10_uart_bridge/out/libs/sapi/sapi_v0.5.2/board/src/sapi_board.o
 .debug_macro   0x000000000000bc22      0x45b examples_c/sapi/bluetooth/hm10_uart_bridge/out/libs/sapi/sapi_v0.5.2/abstract_modules/src/sapi_delay.o
 .debug_macro   0x000000000000c07d      0x4a2 examples_c/sapi/bluetooth/hm10_uart_bridge/out/libs/sapi/sapi_v0.5.2/external_peripherals/src/sapi_ultrasonic_hcsr04.o

.debug_line     0x0000000000000000     0xc74b
 .debug_line    0x0000000000000000      0xd30 examples_c/sapi/bluetooth/hm10_uart_bridge/out/examples_c/sapi/bluetooth/hm10_uart_bridge/src/hm10_uart_bridge.o
 .debug_line    0x0000000000000d30       0xfa examples_c/sapi/bluetooth/hm10_uart_bridge/out/libs/cmsis_core//src/armv7m_startup.o
 .debug_line    0x0000000000000e2a      0x4be examples_c/sapi/bluetooth/hm10_uart_bridge/out/libs/sys_newlib//src/system.o
 .debug_line    0x00000000000012e8      0xa83 examples_c/sapi/bluetooth/hm10_uart_bridge/out/libs/lpc_open/boards/edu_ciaa_nxp/src/board.o
 .debug_line    0x0000000000001d6b      0x886 examples_c/sapi/bluetooth/hm10_uart_bridge/out/libs/lpc_open/boards/edu_ciaa_nxp/src/board_sysinit.o
 .debug_line    0x00000000000025f1      0x9f5 examples_c/sapi/bluetooth/hm10_uart_bridge/out/libs/lpc_open/lpc_chip_43xx/src/uart_18xx_43xx.o
 .debug_line    0x0000000000002fe6      0x83c examples_c/sapi/bluetooth/hm10_uart_bridge/out/libs/lpc_open/lpc_chip_43xx/src/adc_18xx_43xx.o
 .debug_line    0x0000000000003822      0xb4d examples_c/sapi/bluetooth/hm10_uart_bridge/out/libs/lpc_open/lpc_chip_43xx/src/clock_18xx_43xx.o
 .debug_line    0x000000000000436f      0x757 examples_c/sapi/bluetooth/hm10_uart_bridge/out/libs/lpc_open/lpc_chip_43xx/src/chip_18xx_43xx.o
 .debug_line    0x0000000000004ac6      0x7b4 examples_c/sapi/bluetooth/hm10_uart_bridge/out/libs/lpc_open/lpc_chip_43xx/src/sysinit_18xx_43xx.o
 .debug_line    0x000000000000527a      0x715 examples_c/sapi/bluetooth/hm10_uart_bridge/out/libs/lpc_open/lpc_chip_43xx/src/gpio_18xx_43xx.o
 .debug_line    0x000000000000598f      0x9fa examples_c/sapi/bluetooth/hm10_uart_bridge/out/libs/lpc_open/lpc_chip_43xx/src/i2c_18xx_43xx.o
 .debug_line    0x0000000000006389      0xb9f examples_c/sapi/bluetooth/hm10_uart_bridge/out/libs/lpc_open/lpc_chip_43xx/src/ssp_18xx_43xx.o
 .debug_line    0x0000000000006f28       0x44 examples_c/sapi/bluetooth/hm10_uart_bridge/out/libs/lpc_open/lpc_startup/src/crp.o
 .debug_line    0x0000000000006f6c      0x823 examples_c/sapi/bluetooth/hm10_uart_bridge/out/libs/lpc_open/lpc_startup/src/sysinit.o
 .debug_line    0x000000000000778f       0x61 examples_c/sapi/bluetooth/hm10_uart_bridge/out/libs/lpc_open/lpc_startup/src/vendor_interrupt.o
 .debug_line    0x00000000000077f0      0x8cd examples_c/sapi/bluetooth/hm10_uart_bridge/out/libs/sapi/sapi_v0.5.2/soc/core/src/sapi_cyclesCounter.o
 .debug_line    0x00000000000080bd      0xafe examples_c/sapi/bluetooth/hm10_uart_bridge/out/libs/sapi/sapi_v0.5.2/soc/peripherals/src/sapi_uart.o
 .debug_line    0x0000000000008bbb      0x919 examples_c/sapi/bluetooth/hm10_uart_bridge/out/libs/sapi/sapi_v0.5.2/soc/peripherals/src/sapi_tick.o
 .debug_line    0x00000000000094d4      0x9c0 examples_c/sapi/bluetooth/hm10_uart_bridge/out/libs/sapi/sapi_v0.5.2/soc/peripherals/src/sapi_gpio.o
 .debug_line    0x0000000000009e94      0xb67 examples_c/sapi/bluetooth/hm10_uart_bridge/out/libs/sapi/sapi_v0.5.2/soc/peripherals/usb/device/src/sapi_usb_device.o
 .debug_line    0x000000000000a9fb      0x935 examples_c/sapi/bluetooth/hm10_uart_bridge/out/libs/sapi/sapi_v0.5.2/board/src/sapi_board.o
 .debug_line    0x000000000000b330      0x98c examples_c/sapi/bluetooth/hm10_uart_bridge/out/libs/sapi/sapi_v0.5.2/abstract_modules/src/sapi_delay.o
 .debug_line    0x000000000000bcbc      0xa8f examples_c/sapi/bluetooth/hm10_uart_bridge/out/libs/sapi/sapi_v0.5.2/external_peripherals/src/sapi_ultrasonic_hcsr04.o

.debug_str      0x0000000000000000    0x26a4c
 .debug_str     0x0000000000000000    0x219b7 examples_c/sapi/bluetooth/hm10_uart_bridge/out/examples_c/sapi/bluetooth/hm10_uart_bridge/src/hm10_uart_bridge.o
                                      0x21db7 (size before relaxing)
 .debug_str     0x00000000000219b7      0x212 examples_c/sapi/bluetooth/hm10_uart_bridge/out/libs/cmsis_core//src/armv7m_startup.o
                                       0x2f3c (size before relaxing)
 .debug_str     0x0000000000021bc9      0x894 examples_c/sapi/bluetooth/hm10_uart_bridge/out/libs/sys_newlib//src/system.o
                                       0x6b9f (size before relaxing)
 .debug_str     0x000000000002245d     0x13b3 examples_c/sapi/bluetooth/hm10_uart_bridge/out/libs/lpc_open/boards/edu_ciaa_nxp/src/board.o
                                      0x1b5fc (size before relaxing)
 .debug_str     0x0000000000023810      0x352 examples_c/sapi/bluetooth/hm10_uart_bridge/out/libs/lpc_open/boards/edu_ciaa_nxp/src/board_sysinit.o
                                      0x1af8d (size before relaxing)
 .debug_str     0x0000000000023b62      0x3cf examples_c/sapi/bluetooth/hm10_uart_bridge/out/libs/lpc_open/lpc_chip_43xx/src/uart_18xx_43xx.o
                                      0x17683 (size before relaxing)
 .debug_str     0x0000000000023f31      0x14a examples_c/sapi/bluetooth/hm10_uart_bridge/out/libs/lpc_open/lpc_chip_43xx/src/adc_18xx_43xx.o
                                      0x1701e (size before relaxing)
 .debug_str     0x000000000002407b      0x5d1 examples_c/sapi/bluetooth/hm10_uart_bridge/out/libs/lpc_open/lpc_chip_43xx/src/clock_18xx_43xx.o
                                      0x17a46 (size before relaxing)
 .debug_str     0x000000000002464c       0x8c examples_c/sapi/bluetooth/hm10_uart_bridge/out/libs/lpc_open/lpc_chip_43xx/src/chip_18xx_43xx.o
                                      0x17573 (size before relaxing)
 .debug_str     0x00000000000246d8       0xbc examples_c/sapi/bluetooth/hm10_uart_bridge/out/libs/lpc_open/lpc_chip_43xx/src/sysinit_18xx_43xx.o
                                      0x174d4 (size before relaxing)
 .debug_str     0x0000000000024794       0x42 examples_c/sapi/bluetooth/hm10_uart_bridge/out/libs/lpc_open/lpc_chip_43xx/src/gpio_18xx_43xx.o
                                      0x167d5 (size before relaxing)
 .debug_str     0x00000000000247d6      0x584 examples_c/sapi/bluetooth/hm10_uart_bridge/out/libs/lpc_open/lpc_chip_43xx/src/i2c_18xx_43xx.o
                                      0x177b5 (size before relaxing)
 .debug_str     0x0000000000024d5a      0x3e8 examples_c/sapi/bluetooth/hm10_uart_bridge/out/libs/lpc_open/lpc_chip_43xx/src/ssp_18xx_43xx.o
                                      0x17214 (size before relaxing)
 .debug_str     0x0000000000025142       0x43 examples_c/sapi/bluetooth/hm10_uart_bridge/out/libs/lpc_open/lpc_startup/src/crp.o
                                       0x2d3c (size before relaxing)
 .debug_str     0x0000000000025185       0xb9 examples_c/sapi/bluetooth/hm10_uart_bridge/out/libs/lpc_open/lpc_startup/src/sysinit.o
                                      0x1a25f (size before relaxing)
 .debug_str     0x000000000002523e       0x56 examples_c/sapi/bluetooth/hm10_uart_bridge/out/libs/lpc_open/lpc_startup/src/vendor_interrupt.o
                                       0x2d97 (size before relaxing)
 .debug_str     0x0000000000025294       0xc6 examples_c/sapi/bluetooth/hm10_uart_bridge/out/libs/sapi/sapi_v0.5.2/soc/core/src/sapi_cyclesCounter.o
                                      0x1aee6 (size before relaxing)
 .debug_str     0x000000000002535a      0x658 examples_c/sapi/bluetooth/hm10_uart_bridge/out/libs/sapi/sapi_v0.5.2/soc/peripherals/src/sapi_uart.o
                                      0x1b873 (size before relaxing)
 .debug_str     0x00000000000259b2      0x17d examples_c/sapi/bluetooth/hm10_uart_bridge/out/libs/sapi/sapi_v0.5.2/soc/peripherals/src/sapi_tick.o
                                      0x1b2cb (size before relaxing)
 .debug_str     0x0000000000025b2f      0x187 examples_c/sapi/bluetooth/hm10_uart_bridge/out/libs/sapi/sapi_v0.5.2/soc/peripherals/src/sapi_gpio.o
                                      0x1b1e1 (size before relaxing)
 .debug_str     0x0000000000025cb6      0x765 examples_c/sapi/bluetooth/hm10_uart_bridge/out/libs/sapi/sapi_v0.5.2/soc/peripherals/usb/device/src/sapi_usb_device.o
                                      0x21035 (size before relaxing)
 .debug_str     0x000000000002641b       0x2d examples_c/sapi/bluetooth/hm10_uart_bridge/out/libs/sapi/sapi_v0.5.2/board/src/sapi_board.o
                                      0x1a703 (size before relaxing)
 .debug_str     0x0000000000026448       0x85 examples_c/sapi/bluetooth/hm10_uart_bridge/out/libs/sapi/sapi_v0.5.2/abstract_modules/src/sapi_delay.o
                                      0x1a564 (size before relaxing)
 .debug_str     0x00000000000264cd      0x57f examples_c/sapi/bluetooth/hm10_uart_bridge/out/libs/sapi/sapi_v0.5.2/external_peripherals/src/sapi_ultrasonic_hcsr04.o
                                      0x1b9ff (size before relaxing)

.comment        0x0000000000000000       0x7f
 .comment       0x0000000000000000       0x7f examples_c/sapi/bluetooth/hm10_uart_bridge/out/examples_c/sapi/bluetooth/hm10_uart_bridge/src/hm10_uart_bridge.o
                                         0x80 (size before relaxing)
 .comment       0x000000000000007f       0x80 examples_c/sapi/bluetooth/hm10_uart_bridge/out/libs/cmsis_core//src/armv7m_startup.o
 .comment       0x000000000000007f       0x80 examples_c/sapi/bluetooth/hm10_uart_bridge/out/libs/sys_newlib//src/system.o
 .comment       0x000000000000007f       0x80 examples_c/sapi/bluetooth/hm10_uart_bridge/out/libs/lpc_open/boards/edu_ciaa_nxp/src/board.o
 .comment       0x000000000000007f       0x80 examples_c/sapi/bluetooth/hm10_uart_bridge/out/libs/lpc_open/boards/edu_ciaa_nxp/src/board_sysinit.o
 .comment       0x000000000000007f       0x80 examples_c/sapi/bluetooth/hm10_uart_bridge/out/libs/lpc_open/lpc_chip_43xx/src/uart_18xx_43xx.o
 .comment       0x000000000000007f       0x80 examples_c/sapi/bluetooth/hm10_uart_bridge/out/libs/lpc_open/lpc_chip_43xx/src/adc_18xx_43xx.o
 .comment       0x000000000000007f       0x80 examples_c/sapi/bluetooth/hm10_uart_bridge/out/libs/lpc_open/lpc_chip_43xx/src/clock_18xx_43xx.o
 .comment       0x000000000000007f       0x80 examples_c/sapi/bluetooth/hm10_uart_bridge/out/libs/lpc_open/lpc_chip_43xx/src/chip_18xx_43xx.o
 .comment       0x000000000000007f       0x80 examples_c/sapi/bluetooth/hm10_uart_bridge/out/libs/lpc_open/lpc_chip_43xx/src/sysinit_18xx_43xx.o
 .comment       0x000000000000007f       0x80 examples_c/sapi/bluetooth/hm10_uart_bridge/out/libs/lpc_open/lpc_chip_43xx/src/gpio_18xx_43xx.o
 .comment       0x000000000000007f       0x80 examples_c/sapi/bluetooth/hm10_uart_bridge/out/libs/lpc_open/lpc_chip_43xx/src/i2c_18xx_43xx.o
 .comment       0x000000000000007f       0x80 examples_c/sapi/bluetooth/hm10_uart_bridge/out/libs/lpc_open/lpc_chip_43xx/src/ssp_18xx_43xx.o
 .comment       0x000000000000007f       0x80 examples_c/sapi/bluetooth/hm10_uart_bridge/out/libs/lpc_open/lpc_startup/src/crp.o
 .comment       0x000000000000007f       0x80 examples_c/sapi/bluetooth/hm10_uart_bridge/out/libs/lpc_open/lpc_startup/src/sysinit.o
 .comment       0x000000000000007f       0x80 examples_c/sapi/bluetooth/hm10_uart_bridge/out/libs/lpc_open/lpc_startup/src/vendor_interrupt.o
 .comment       0x000000000000007f       0x80 examples_c/sapi/bluetooth/hm10_uart_bridge/out/libs/sapi/sapi_v0.5.2/soc/core/src/sapi_cyclesCounter.o
 .comment       0x000000000000007f       0x80 examples_c/sapi/bluetooth/hm10_uart_bridge/out/libs/sapi/sapi_v0.5.2/soc/peripherals/src/sapi_uart.o
 .comment       0x000000000000007f       0x80 examples_c/sapi/bluetooth/hm10_uart_bridge/out/libs/sapi/sapi_v0.5.2/soc/peripherals/src/sapi_tick.o
 .comment       0x000000000000007f       0x80 examples_c/sapi/bluetooth/hm10_uart_bridge/out/libs/sapi/sapi_v0.5.2/soc/peripherals/src/sapi_gpio.o
 .comment       0x000000000000007f       0x80 examples_c/sapi/bluetooth/hm10_uart_bridge/out/libs/sapi/sapi_v0.5.2/soc/peripherals/usb/device/src/sapi_usb_device.o
 .comment       0x000000000000007f       0x80 examples_c/sapi/bluetooth/hm10_uart_bridge/out/libs/sapi/sapi_v0.5.2/board/src/sapi_board.o
 .comment       0x000000000000007f       0x80 examples_c/sapi/bluetooth/hm10_uart_bridge/out/libs/sapi/sapi_v0.5.2/abstract_modules/src/sapi_delay.o
 .comment       0x000000000000007f       0x80 examples_c/sapi/bluetooth/hm10_uart_bridge/out/libs/sapi/sapi_v0.5.2/external_peripherals/src/sapi_ultrasonic_hcsr04.o

.ARM.attributes
                0x0000000000000000       0x37
 .ARM.attributes
                0x0000000000000000       0x39 examples_c/sapi/bluetooth/hm10_uart_bridge/out/examples_c/sapi/bluetooth/hm10_uart_bridge/src/hm10_uart_bridge.o
 .ARM.attributes
                0x0000000000000039       0x39 examples_c/sapi/bluetooth/hm10_uart_bridge/out/libs/cmsis_core//src/armv7m_startup.o
 .ARM.attributes
                0x0000000000000072       0x39 examples_c/sapi/bluetooth/hm10_uart_bridge/out/libs/sys_newlib//src/system.o
 .ARM.attributes
                0x00000000000000ab       0x39 examples_c/sapi/bluetooth/hm10_uart_bridge/out/libs/lpc_open/boards/edu_ciaa_nxp/src/board.o
 .ARM.attributes
                0x00000000000000e4       0x39 examples_c/sapi/bluetooth/hm10_uart_bridge/out/libs/lpc_open/boards/edu_ciaa_nxp/src/board_sysinit.o
 .ARM.attributes
                0x000000000000011d       0x39 examples_c/sapi/bluetooth/hm10_uart_bridge/out/libs/lpc_open/lpc_chip_43xx/src/uart_18xx_43xx.o
 .ARM.attributes
                0x0000000000000156       0x39 examples_c/sapi/bluetooth/hm10_uart_bridge/out/libs/lpc_open/lpc_chip_43xx/src/adc_18xx_43xx.o
 .ARM.attributes
                0x000000000000018f       0x39 examples_c/sapi/bluetooth/hm10_uart_bridge/out/libs/lpc_open/lpc_chip_43xx/src/clock_18xx_43xx.o
 .ARM.attributes
                0x00000000000001c8       0x39 examples_c/sapi/bluetooth/hm10_uart_bridge/out/libs/lpc_open/lpc_chip_43xx/src/chip_18xx_43xx.o
 .ARM.attributes
                0x0000000000000201       0x39 examples_c/sapi/bluetooth/hm10_uart_bridge/out/libs/lpc_open/lpc_chip_43xx/src/sysinit_18xx_43xx.o
 .ARM.attributes
                0x000000000000023a       0x39 examples_c/sapi/bluetooth/hm10_uart_bridge/out/libs/lpc_open/lpc_chip_43xx/src/gpio_18xx_43xx.o
 .ARM.attributes
                0x0000000000000273       0x39 examples_c/sapi/bluetooth/hm10_uart_bridge/out/libs/lpc_open/lpc_chip_43xx/src/i2c_18xx_43xx.o
 .ARM.attributes
                0x00000000000002ac       0x39 examples_c/sapi/bluetooth/hm10_uart_bridge/out/libs/lpc_open/lpc_chip_43xx/src/ssp_18xx_43xx.o
 .ARM.attributes
                0x00000000000002e5       0x39 examples_c/sapi/bluetooth/hm10_uart_bridge/out/libs/lpc_open/lpc_startup/src/crp.o
 .ARM.attributes
                0x000000000000031e       0x39 examples_c/sapi/bluetooth/hm10_uart_bridge/out/libs/lpc_open/lpc_startup/src/sysinit.o
 .ARM.attributes
                0x0000000000000357       0x39 examples_c/sapi/bluetooth/hm10_uart_bridge/out/libs/lpc_open/lpc_startup/src/vendor_interrupt.o
 .ARM.attributes
                0x0000000000000390       0x39 examples_c/sapi/bluetooth/hm10_uart_bridge/out/libs/sapi/sapi_v0.5.2/soc/core/src/sapi_cyclesCounter.o
 .ARM.attributes
                0x00000000000003c9       0x39 examples_c/sapi/bluetooth/hm10_uart_bridge/out/libs/sapi/sapi_v0.5.2/soc/peripherals/src/sapi_uart.o
 .ARM.attributes
                0x0000000000000402       0x39 examples_c/sapi/bluetooth/hm10_uart_bridge/out/libs/sapi/sapi_v0.5.2/soc/peripherals/src/sapi_tick.o
 .ARM.attributes
                0x000000000000043b       0x39 examples_c/sapi/bluetooth/hm10_uart_bridge/out/libs/sapi/sapi_v0.5.2/soc/peripherals/src/sapi_gpio.o
 .ARM.attributes
                0x0000000000000474       0x39 examples_c/sapi/bluetooth/hm10_uart_bridge/out/libs/sapi/sapi_v0.5.2/soc/peripherals/usb/device/src/sapi_usb_device.o
 .ARM.attributes
                0x00000000000004ad       0x39 examples_c/sapi/bluetooth/hm10_uart_bridge/out/libs/sapi/sapi_v0.5.2/board/src/sapi_board.o
 .ARM.attributes
                0x00000000000004e6       0x39 examples_c/sapi/bluetooth/hm10_uart_bridge/out/libs/sapi/sapi_v0.5.2/abstract_modules/src/sapi_delay.o
 .ARM.attributes
                0x000000000000051f       0x39 examples_c/sapi/bluetooth/hm10_uart_bridge/out/libs/sapi/sapi_v0.5.2/external_peripherals/src/sapi_ultrasonic_hcsr04.o
 .ARM.attributes
                0x0000000000000558       0x22 /home/mparamidani/CIAA/gcc-arm-none-eabi-7-2018-q2-update/bin/../lib/gcc/arm-none-eabi/7.3.1/thumb/v7e-m/fpv4-sp/hard/libgcc.a(_aeabi_uldivmod.o)
 .ARM.attributes
                0x000000000000057a       0x34 /home/mparamidani/CIAA/gcc-arm-none-eabi-7-2018-q2-update/bin/../lib/gcc/arm-none-eabi/7.3.1/thumb/v7e-m/fpv4-sp/hard/libgcc.a(_udivmoddi4.o)
 .ARM.attributes
                0x00000000000005ae       0x22 /home/mparamidani/CIAA/gcc-arm-none-eabi-7-2018-q2-update/bin/../lib/gcc/arm-none-eabi/7.3.1/thumb/v7e-m/fpv4-sp/hard/libgcc.a(_dvmd_tls.o)
 .ARM.attributes
                0x00000000000005d0       0x34 /home/mparamidani/CIAA/gcc-arm-none-eabi-7-2018-q2-update/bin/../lib/gcc/arm-none-eabi/7.3.1/../../../../arm-none-eabi/lib/thumb/v7e-m/fpv4-sp/hard/libc_nano.a(lib_a-init.o)
 .ARM.attributes
                0x0000000000000604       0x34 /home/mparamidani/CIAA/gcc-arm-none-eabi-7-2018-q2-update/bin/../lib/gcc/arm-none-eabi/7.3.1/../../../../arm-none-eabi/lib/thumb/v7e-m/fpv4-sp/hard/libc_nano.a(lib_a-memset.o)

.debug_frame    0x0000000000000000     0x1810
 .debug_frame   0x0000000000000000       0x60 examples_c/sapi/bluetooth/hm10_uart_bridge/out/examples_c/sapi/bluetooth/hm10_uart_bridge/src/hm10_uart_bridge.o
 .debug_frame   0x0000000000000060      0x114 examples_c/sapi/bluetooth/hm10_uart_bridge/out/libs/cmsis_core//src/armv7m_startup.o
 .debug_frame   0x0000000000000174      0x1d8 examples_c/sapi/bluetooth/hm10_uart_bridge/out/libs/sys_newlib//src/system.o
 .debug_frame   0x000000000000034c      0x204 examples_c/sapi/bluetooth/hm10_uart_bridge/out/libs/lpc_open/boards/edu_ciaa_nxp/src/board.o
 .debug_frame   0x0000000000000550       0x5c examples_c/sapi/bluetooth/hm10_uart_bridge/out/libs/lpc_open/boards/edu_ciaa_nxp/src/board_sysinit.o
 .debug_frame   0x00000000000005ac      0x1f4 examples_c/sapi/bluetooth/hm10_uart_bridge/out/libs/lpc_open/lpc_chip_43xx/src/uart_18xx_43xx.o
 .debug_frame   0x00000000000007a0      0x160 examples_c/sapi/bluetooth/hm10_uart_bridge/out/libs/lpc_open/lpc_chip_43xx/src/adc_18xx_43xx.o
 .debug_frame   0x0000000000000900      0x318 examples_c/sapi/bluetooth/hm10_uart_bridge/out/libs/lpc_open/lpc_chip_43xx/src/clock_18xx_43xx.o
 .debug_frame   0x0000000000000c18       0x70 examples_c/sapi/bluetooth/hm10_uart_bridge/out/libs/lpc_open/lpc_chip_43xx/src/chip_18xx_43xx.o
 .debug_frame   0x0000000000000c88       0x7c examples_c/sapi/bluetooth/hm10_uart_bridge/out/libs/lpc_open/lpc_chip_43xx/src/sysinit_18xx_43xx.o
 .debug_frame   0x0000000000000d04       0x30 examples_c/sapi/bluetooth/hm10_uart_bridge/out/libs/lpc_open/lpc_chip_43xx/src/gpio_18xx_43xx.o
 .debug_frame   0x0000000000000d34      0x270 examples_c/sapi/bluetooth/hm10_uart_bridge/out/libs/lpc_open/lpc_chip_43xx/src/i2c_18xx_43xx.o
 .debug_frame   0x0000000000000fa4      0x198 examples_c/sapi/bluetooth/hm10_uart_bridge/out/libs/lpc_open/lpc_chip_43xx/src/ssp_18xx_43xx.o
 .debug_frame   0x000000000000113c       0x28 examples_c/sapi/bluetooth/hm10_uart_bridge/out/libs/lpc_open/lpc_startup/src/sysinit.o
 .debug_frame   0x0000000000001164       0x20 examples_c/sapi/bluetooth/hm10_uart_bridge/out/libs/lpc_open/lpc_startup/src/vendor_interrupt.o
 .debug_frame   0x0000000000001184       0x74 examples_c/sapi/bluetooth/hm10_uart_bridge/out/libs/sapi/sapi_v0.5.2/soc/core/src/sapi_cyclesCounter.o
 .debug_frame   0x00000000000011f8      0x170 examples_c/sapi/bluetooth/hm10_uart_bridge/out/libs/sapi/sapi_v0.5.2/soc/peripherals/src/sapi_uart.o
 .debug_frame   0x0000000000001368       0x84 examples_c/sapi/bluetooth/hm10_uart_bridge/out/libs/sapi/sapi_v0.5.2/soc/peripherals/src/sapi_tick.o
 .debug_frame   0x00000000000013ec       0xa4 examples_c/sapi/bluetooth/hm10_uart_bridge/out/libs/sapi/sapi_v0.5.2/soc/peripherals/src/sapi_gpio.o
 .debug_frame   0x0000000000001490       0xb8 examples_c/sapi/bluetooth/hm10_uart_bridge/out/libs/sapi/sapi_v0.5.2/soc/peripherals/usb/device/src/sapi_usb_device.o
 .debug_frame   0x0000000000001548       0x28 examples_c/sapi/bluetooth/hm10_uart_bridge/out/libs/sapi/sapi_v0.5.2/board/src/sapi_board.o
 .debug_frame   0x0000000000001570       0xc8 examples_c/sapi/bluetooth/hm10_uart_bridge/out/libs/sapi/sapi_v0.5.2/abstract_modules/src/sapi_delay.o
 .debug_frame   0x0000000000001638      0x12c examples_c/sapi/bluetooth/hm10_uart_bridge/out/libs/sapi/sapi_v0.5.2/external_peripherals/src/sapi_ultrasonic_hcsr04.o
 .debug_frame   0x0000000000001764       0x2c /home/mparamidani/CIAA/gcc-arm-none-eabi-7-2018-q2-update/bin/../lib/gcc/arm-none-eabi/7.3.1/thumb/v7e-m/fpv4-sp/hard/libgcc.a(_aeabi_uldivmod.o)
 .debug_frame   0x0000000000001790       0x34 /home/mparamidani/CIAA/gcc-arm-none-eabi-7-2018-q2-update/bin/../lib/gcc/arm-none-eabi/7.3.1/thumb/v7e-m/fpv4-sp/hard/libgcc.a(_udivmoddi4.o)
 .debug_frame   0x00000000000017c4       0x2c /home/mparamidani/CIAA/gcc-arm-none-eabi-7-2018-q2-update/bin/../lib/gcc/arm-none-eabi/7.3.1/../../../../arm-none-eabi/lib/thumb/v7e-m/fpv4-sp/hard/libc_nano.a(lib_a-init.o)
 .debug_frame   0x00000000000017f0       0x20 /home/mparamidani/CIAA/gcc-arm-none-eabi-7-2018-q2-update/bin/../lib/gcc/arm-none-eabi/7.3.1/../../../../arm-none-eabi/lib/thumb/v7e-m/fpv4-sp/hard/libc_nano.a(lib_a-memset.o)

Cross Reference Table

Symbol                                            File
ADC0_IRQHandler                                   examples_c/sapi/bluetooth/hm10_uart_bridge/out/libs/lpc_open/lpc_startup/src/vendor_interrupt.o
ADC1_IRQHandler                                   examples_c/sapi/bluetooth/hm10_uart_bridge/out/libs/lpc_open/lpc_startup/src/vendor_interrupt.o
ADCHS_IRQHandler                                  examples_c/sapi/bluetooth/hm10_uart_bridge/out/libs/lpc_open/lpc_startup/src/vendor_interrupt.o
ATIMER_IRQHandler                                 examples_c/sapi/bluetooth/hm10_uart_bridge/out/libs/lpc_open/lpc_startup/src/vendor_interrupt.o
Board_ADC_ReadBegin                               examples_c/sapi/bluetooth/hm10_uart_bridge/out/libs/lpc_open/boards/edu_ciaa_nxp/src/board.o
Board_ADC_ReadEnd                                 examples_c/sapi/bluetooth/hm10_uart_bridge/out/libs/lpc_open/boards/edu_ciaa_nxp/src/board.o
Board_ADC_ReadWait                                examples_c/sapi/bluetooth/hm10_uart_bridge/out/libs/lpc_open/boards/edu_ciaa_nxp/src/board.o
Board_Debug_Init                                  examples_c/sapi/bluetooth/hm10_uart_bridge/out/libs/lpc_open/boards/edu_ciaa_nxp/src/board.o
Board_Init                                        examples_c/sapi/bluetooth/hm10_uart_bridge/out/libs/lpc_open/boards/edu_ciaa_nxp/src/board.o
                                                  examples_c/sapi/bluetooth/hm10_uart_bridge/out/libs/lpc_open/lpc_startup/src/sysinit.o
Board_LED_Set                                     examples_c/sapi/bluetooth/hm10_uart_bridge/out/libs/lpc_open/boards/edu_ciaa_nxp/src/board.o
Board_LED_Test                                    examples_c/sapi/bluetooth/hm10_uart_bridge/out/libs/lpc_open/boards/edu_ciaa_nxp/src/board.o
Board_LED_Toggle                                  examples_c/sapi/bluetooth/hm10_uart_bridge/out/libs/lpc_open/boards/edu_ciaa_nxp/src/board.o
Board_SetupClocking                               examples_c/sapi/bluetooth/hm10_uart_bridge/out/libs/lpc_open/boards/edu_ciaa_nxp/src/board_sysinit.o
Board_SetupMuxing                                 examples_c/sapi/bluetooth/hm10_uart_bridge/out/libs/lpc_open/boards/edu_ciaa_nxp/src/board_sysinit.o
Board_SystemInit                                  examples_c/sapi/bluetooth/hm10_uart_bridge/out/libs/lpc_open/boards/edu_ciaa_nxp/src/board_sysinit.o
                                                  examples_c/sapi/bluetooth/hm10_uart_bridge/out/libs/lpc_open/lpc_startup/src/sysinit.o
Board_TEC_GetStatus                               examples_c/sapi/bluetooth/hm10_uart_bridge/out/libs/lpc_open/boards/edu_ciaa_nxp/src/board.o
Board_UARTGetChar                                 examples_c/sapi/bluetooth/hm10_uart_bridge/out/libs/lpc_open/boards/edu_ciaa_nxp/src/board.o
Board_UARTPutChar                                 examples_c/sapi/bluetooth/hm10_uart_bridge/out/libs/lpc_open/boards/edu_ciaa_nxp/src/board.o
Board_UARTPutSTR                                  examples_c/sapi/bluetooth/hm10_uart_bridge/out/libs/lpc_open/boards/edu_ciaa_nxp/src/board.o
BusFault_Handler                                  examples_c/sapi/bluetooth/hm10_uart_bridge/out/libs/cmsis_core//src/armv7m_startup.o
CAN0_IRQHandler                                   examples_c/sapi/bluetooth/hm10_uart_bridge/out/libs/lpc_open/lpc_startup/src/vendor_interrupt.o
CAN1_IRQHandler                                   examples_c/sapi/bluetooth/hm10_uart_bridge/out/libs/lpc_open/lpc_startup/src/vendor_interrupt.o
CRP_WORD                                          examples_c/sapi/bluetooth/hm10_uart_bridge/out/libs/lpc_open/lpc_startup/src/crp.o
Chip_ADC_DeInit                                   examples_c/sapi/bluetooth/hm10_uart_bridge/out/libs/lpc_open/lpc_chip_43xx/src/adc_18xx_43xx.o
                                                  examples_c/sapi/bluetooth/hm10_uart_bridge/out/libs/sapi/sapi_v0.5.2/soc/peripherals/src/sapi_adc.o
Chip_ADC_EnableChannel                            examples_c/sapi/bluetooth/hm10_uart_bridge/out/libs/lpc_open/lpc_chip_43xx/src/adc_18xx_43xx.o
                                                  examples_c/sapi/bluetooth/hm10_uart_bridge/out/libs/sapi/sapi_v0.5.2/soc/peripherals/src/sapi_adc.o
                                                  examples_c/sapi/bluetooth/hm10_uart_bridge/out/libs/lpc_open/boards/edu_ciaa_nxp/src/board.o
Chip_ADC_Init                                     examples_c/sapi/bluetooth/hm10_uart_bridge/out/libs/lpc_open/lpc_chip_43xx/src/adc_18xx_43xx.o
                                                  examples_c/sapi/bluetooth/hm10_uart_bridge/out/libs/sapi/sapi_v0.5.2/soc/peripherals/src/sapi_adc.o
                                                  examples_c/sapi/bluetooth/hm10_uart_bridge/out/libs/lpc_open/boards/edu_ciaa_nxp/src/board.o
Chip_ADC_Int_SetChannelCmd                        examples_c/sapi/bluetooth/hm10_uart_bridge/out/libs/lpc_open/lpc_chip_43xx/src/adc_18xx_43xx.o
                                                  examples_c/sapi/bluetooth/hm10_uart_bridge/out/libs/sapi/sapi_v0.5.2/soc/peripherals/src/sapi_adc.o
Chip_ADC_ReadByte                                 examples_c/sapi/bluetooth/hm10_uart_bridge/out/libs/lpc_open/lpc_chip_43xx/src/adc_18xx_43xx.o
Chip_ADC_ReadStatus                               examples_c/sapi/bluetooth/hm10_uart_bridge/out/libs/lpc_open/lpc_chip_43xx/src/adc_18xx_43xx.o
                                                  examples_c/sapi/bluetooth/hm10_uart_bridge/out/libs/sapi/sapi_v0.5.2/soc/peripherals/src/sapi_adc.o
                                                  examples_c/sapi/bluetooth/hm10_uart_bridge/out/libs/lpc_open/boards/edu_ciaa_nxp/src/board.o
Chip_ADC_ReadValue                                examples_c/sapi/bluetooth/hm10_uart_bridge/out/libs/lpc_open/lpc_chip_43xx/src/adc_18xx_43xx.o
                                                  examples_c/sapi/bluetooth/hm10_uart_bridge/out/libs/sapi/sapi_v0.5.2/soc/peripherals/src/sapi_adc.o
                                                  examples_c/sapi/bluetooth/hm10_uart_bridge/out/libs/lpc_open/boards/edu_ciaa_nxp/src/board.o
Chip_ADC_SetBurstCmd                              examples_c/sapi/bluetooth/hm10_uart_bridge/out/libs/lpc_open/lpc_chip_43xx/src/adc_18xx_43xx.o
                                                  examples_c/sapi/bluetooth/hm10_uart_bridge/out/libs/sapi/sapi_v0.5.2/soc/peripherals/src/sapi_adc.o
                                                  examples_c/sapi/bluetooth/hm10_uart_bridge/out/libs/lpc_open/boards/edu_ciaa_nxp/src/board.o
Chip_ADC_SetResolution                            examples_c/sapi/bluetooth/hm10_uart_bridge/out/libs/lpc_open/lpc_chip_43xx/src/adc_18xx_43xx.o
                                                  examples_c/sapi/bluetooth/hm10_uart_bridge/out/libs/lpc_open/boards/edu_ciaa_nxp/src/board.o
Chip_ADC_SetSampleRate                            examples_c/sapi/bluetooth/hm10_uart_bridge/out/libs/lpc_open/lpc_chip_43xx/src/adc_18xx_43xx.o
                                                  examples_c/sapi/bluetooth/hm10_uart_bridge/out/libs/sapi/sapi_v0.5.2/soc/peripherals/src/sapi_adc.o
                                                  examples_c/sapi/bluetooth/hm10_uart_bridge/out/libs/lpc_open/boards/edu_ciaa_nxp/src/board.o
Chip_ADC_SetStartMode                             examples_c/sapi/bluetooth/hm10_uart_bridge/out/libs/lpc_open/lpc_chip_43xx/src/adc_18xx_43xx.o
                                                  examples_c/sapi/bluetooth/hm10_uart_bridge/out/libs/sapi/sapi_v0.5.2/soc/peripherals/src/sapi_adc.o
                                                  examples_c/sapi/bluetooth/hm10_uart_bridge/out/libs/lpc_open/boards/edu_ciaa_nxp/src/board.o
Chip_AES_Config_DMA                               examples_c/sapi/bluetooth/hm10_uart_bridge/out/libs/lpc_open/lpc_chip_43xx/src/aes_18xx_43xx.o
Chip_AES_GetStatusDMA                             examples_c/sapi/bluetooth/hm10_uart_bridge/out/libs/lpc_open/lpc_chip_43xx/src/aes_18xx_43xx.o
Chip_AES_Init                                     examples_c/sapi/bluetooth/hm10_uart_bridge/out/libs/lpc_open/lpc_chip_43xx/src/aes_18xx_43xx.o
Chip_AES_LoadIV_IC                                examples_c/sapi/bluetooth/hm10_uart_bridge/out/libs/lpc_open/lpc_chip_43xx/src/aes_18xx_43xx.o
Chip_AES_LoadIV_SW                                examples_c/sapi/bluetooth/hm10_uart_bridge/out/libs/lpc_open/lpc_chip_43xx/src/aes_18xx_43xx.o
Chip_AES_LoadKey                                  examples_c/sapi/bluetooth/hm10_uart_bridge/out/libs/lpc_open/lpc_chip_43xx/src/aes_18xx_43xx.o
Chip_AES_LoadKeyRNG                               examples_c/sapi/bluetooth/hm10_uart_bridge/out/libs/lpc_open/lpc_chip_43xx/src/aes_18xx_43xx.o
Chip_AES_LoadKeySW                                examples_c/sapi/bluetooth/hm10_uart_bridge/out/libs/lpc_open/lpc_chip_43xx/src/aes_18xx_43xx.o
Chip_AES_Operate                                  examples_c/sapi/bluetooth/hm10_uart_bridge/out/libs/lpc_open/lpc_chip_43xx/src/aes_18xx_43xx.o
Chip_AES_OperateDMA                               examples_c/sapi/bluetooth/hm10_uart_bridge/out/libs/lpc_open/lpc_chip_43xx/src/aes_18xx_43xx.o
Chip_AES_ProgramKey                               examples_c/sapi/bluetooth/hm10_uart_bridge/out/libs/lpc_open/lpc_chip_43xx/src/aes_18xx_43xx.o
Chip_AES_SetMode                                  examples_c/sapi/bluetooth/hm10_uart_bridge/out/libs/lpc_open/lpc_chip_43xx/src/aes_18xx_43xx.o
Chip_ATIMER_DeInit                                examples_c/sapi/bluetooth/hm10_uart_bridge/out/libs/lpc_open/lpc_chip_43xx/src/atimer_18xx_43xx.o
Chip_ATIMER_Init                                  examples_c/sapi/bluetooth/hm10_uart_bridge/out/libs/lpc_open/lpc_chip_43xx/src/atimer_18xx_43xx.o
Chip_CCAN_AddReceiveID                            examples_c/sapi/bluetooth/hm10_uart_bridge/out/libs/lpc_open/lpc_chip_43xx/src/ccan_18xx_43xx.o
Chip_CCAN_ClearStatus                             examples_c/sapi/bluetooth/hm10_uart_bridge/out/libs/lpc_open/lpc_chip_43xx/src/ccan_18xx_43xx.o
Chip_CCAN_DeInit                                  examples_c/sapi/bluetooth/hm10_uart_bridge/out/libs/lpc_open/lpc_chip_43xx/src/ccan_18xx_43xx.o
Chip_CCAN_DeleteReceiveID                         examples_c/sapi/bluetooth/hm10_uart_bridge/out/libs/lpc_open/lpc_chip_43xx/src/ccan_18xx_43xx.o
Chip_CCAN_GetMsgObject                            examples_c/sapi/bluetooth/hm10_uart_bridge/out/libs/lpc_open/lpc_chip_43xx/src/ccan_18xx_43xx.o
Chip_CCAN_Init                                    examples_c/sapi/bluetooth/hm10_uart_bridge/out/libs/lpc_open/lpc_chip_43xx/src/ccan_18xx_43xx.o
Chip_CCAN_Send                                    examples_c/sapi/bluetooth/hm10_uart_bridge/out/libs/lpc_open/lpc_chip_43xx/src/ccan_18xx_43xx.o
Chip_CCAN_SetBitRate                              examples_c/sapi/bluetooth/hm10_uart_bridge/out/libs/lpc_open/lpc_chip_43xx/src/ccan_18xx_43xx.o
Chip_CCAN_SetMsgObject                            examples_c/sapi/bluetooth/hm10_uart_bridge/out/libs/lpc_open/lpc_chip_43xx/src/ccan_18xx_43xx.o
Chip_CCAN_SetValidMsg                             examples_c/sapi/bluetooth/hm10_uart_bridge/out/libs/lpc_open/lpc_chip_43xx/src/ccan_18xx_43xx.o
Chip_CCAN_TransferMsgObject                       examples_c/sapi/bluetooth/hm10_uart_bridge/out/libs/lpc_open/lpc_chip_43xx/src/ccan_18xx_43xx.o
Chip_Clock_CalcMainPLLValue                       examples_c/sapi/bluetooth/hm10_uart_bridge/out/libs/lpc_open/lpc_chip_43xx/src/clock_18xx_43xx.o
                                                  examples_c/sapi/bluetooth/hm10_uart_bridge/out/libs/lpc_open/lpc_chip_43xx/src/sysinit_18xx_43xx.o
Chip_Clock_ClearPowerDown                         examples_c/sapi/bluetooth/hm10_uart_bridge/out/libs/lpc_open/lpc_chip_43xx/src/clock_18xx_43xx.o
Chip_Clock_Disable                                examples_c/sapi/bluetooth/hm10_uart_bridge/out/libs/lpc_open/lpc_chip_43xx/src/clock_18xx_43xx.o
                                                  examples_c/sapi/bluetooth/hm10_uart_bridge/out/libs/lpc_open/lpc_chip_43xx/src/ssp_18xx_43xx.o
                                                  examples_c/sapi/bluetooth/hm10_uart_bridge/out/libs/lpc_open/lpc_chip_43xx/src/enet_18xx_43xx.o
                                                  examples_c/sapi/bluetooth/hm10_uart_bridge/out/libs/lpc_open/lpc_chip_43xx/src/gpdma_18xx_43xx.o
                                                  examples_c/sapi/bluetooth/hm10_uart_bridge/out/libs/lpc_open/lpc_chip_43xx/src/i2c_18xx_43xx.o
                                                  examples_c/sapi/bluetooth/hm10_uart_bridge/out/libs/lpc_open/lpc_chip_43xx/src/spi_18xx_43xx.o
                                                  examples_c/sapi/bluetooth/hm10_uart_bridge/out/libs/lpc_open/lpc_chip_43xx/src/sct_18xx_43xx.o
                                                  examples_c/sapi/bluetooth/hm10_uart_bridge/out/libs/lpc_open/lpc_chip_43xx/src/dac_18xx_43xx.o
                                                  examples_c/sapi/bluetooth/hm10_uart_bridge/out/libs/lpc_open/lpc_chip_43xx/src/i2cm_18xx_43xx.o
                                                  examples_c/sapi/bluetooth/hm10_uart_bridge/out/libs/lpc_open/lpc_chip_43xx/src/timer_18xx_43xx.o
                                                  examples_c/sapi/bluetooth/hm10_uart_bridge/out/libs/lpc_open/lpc_chip_43xx/src/sdif_18xx_43xx.o
                                                  examples_c/sapi/bluetooth/hm10_uart_bridge/out/libs/lpc_open/lpc_chip_43xx/src/adc_18xx_43xx.o
                                                  examples_c/sapi/bluetooth/hm10_uart_bridge/out/libs/lpc_open/lpc_chip_43xx/src/uart_18xx_43xx.o
                                                  examples_c/sapi/bluetooth/hm10_uart_bridge/out/libs/lpc_open/lpc_chip_43xx/src/lcd_18xx_43xx.o
                                                  examples_c/sapi/bluetooth/hm10_uart_bridge/out/libs/lpc_open/lpc_chip_43xx/src/i2s_18xx_43xx.o
                                                  examples_c/sapi/bluetooth/hm10_uart_bridge/out/libs/lpc_open/lpc_chip_43xx/src/ritimer_18xx_43xx.o
                                                  examples_c/sapi/bluetooth/hm10_uart_bridge/out/libs/lpc_open/lpc_chip_43xx/src/ccan_18xx_43xx.o
Chip_Clock_DisableBaseClock                       examples_c/sapi/bluetooth/hm10_uart_bridge/out/libs/lpc_open/lpc_chip_43xx/src/clock_18xx_43xx.o
Chip_Clock_DisableCrystal                         examples_c/sapi/bluetooth/hm10_uart_bridge/out/libs/lpc_open/lpc_chip_43xx/src/clock_18xx_43xx.o
Chip_Clock_DisablePLL                             examples_c/sapi/bluetooth/hm10_uart_bridge/out/libs/lpc_open/lpc_chip_43xx/src/clock_18xx_43xx.o
Chip_Clock_Enable                                 examples_c/sapi/bluetooth/hm10_uart_bridge/out/libs/lpc_open/lpc_chip_43xx/src/clock_18xx_43xx.o
                                                  examples_c/sapi/bluetooth/hm10_uart_bridge/out/libs/lpc_open/lpc_chip_43xx/src/ssp_18xx_43xx.o
                                                  examples_c/sapi/bluetooth/hm10_uart_bridge/out/libs/lpc_open/lpc_chip_43xx/src/i2c_18xx_43xx.o
                                                  examples_c/sapi/bluetooth/hm10_uart_bridge/out/libs/lpc_open/lpc_chip_43xx/src/spi_18xx_43xx.o
                                                  examples_c/sapi/bluetooth/hm10_uart_bridge/out/libs/lpc_open/lpc_chip_43xx/src/i2cm_18xx_43xx.o
                                                  examples_c/sapi/bluetooth/hm10_uart_bridge/out/libs/lpc_open/lpc_chip_43xx/src/timer_18xx_43xx.o
                                                  examples_c/sapi/bluetooth/hm10_uart_bridge/out/libs/lpc_open/lpc_chip_43xx/src/i2s_18xx_43xx.o
Chip_Clock_EnableBaseClock                        examples_c/sapi/bluetooth/hm10_uart_bridge/out/libs/lpc_open/lpc_chip_43xx/src/clock_18xx_43xx.o
                                                  examples_c/sapi/bluetooth/hm10_uart_bridge/out/libs/lpc_open/lpc_chip_43xx/src/chip_18xx_43xx.o
Chip_Clock_EnableCrystal                          examples_c/sapi/bluetooth/hm10_uart_bridge/out/libs/lpc_open/lpc_chip_43xx/src/clock_18xx_43xx.o
                                                  examples_c/sapi/bluetooth/hm10_uart_bridge/out/libs/lpc_open/lpc_chip_43xx/src/sysinit_18xx_43xx.o
Chip_Clock_EnableOpts                             examples_c/sapi/bluetooth/hm10_uart_bridge/out/libs/lpc_open/lpc_chip_43xx/src/clock_18xx_43xx.o
                                                  examples_c/sapi/bluetooth/hm10_uart_bridge/out/libs/sapi/sapi_v0.5.2/soc/peripherals/src/sapi_dac.o
                                                  examples_c/sapi/bluetooth/hm10_uart_bridge/out/libs/lpc_open/lpc_chip_43xx/src/enet_18xx_43xx.o
                                                  examples_c/sapi/bluetooth/hm10_uart_bridge/out/libs/lpc_open/lpc_chip_43xx/src/gpdma_18xx_43xx.o
                                                  examples_c/sapi/bluetooth/hm10_uart_bridge/out/libs/lpc_open/lpc_chip_43xx/src/sct_18xx_43xx.o
                                                  examples_c/sapi/bluetooth/hm10_uart_bridge/out/libs/lpc_open/lpc_chip_43xx/src/dac_18xx_43xx.o
                                                  examples_c/sapi/bluetooth/hm10_uart_bridge/out/libs/lpc_open/lpc_chip_43xx/src/sdif_18xx_43xx.o
                                                  examples_c/sapi/bluetooth/hm10_uart_bridge/out/libs/lpc_open/lpc_chip_43xx/src/chip_18xx_43xx.o
                                                  examples_c/sapi/bluetooth/hm10_uart_bridge/out/libs/lpc_open/lpc_chip_43xx/src/adc_18xx_43xx.o
                                                  examples_c/sapi/bluetooth/hm10_uart_bridge/out/libs/lpc_open/lpc_chip_43xx/src/uart_18xx_43xx.o
                                                  examples_c/sapi/bluetooth/hm10_uart_bridge/out/libs/lpc_open/lpc_chip_43xx/src/lcd_18xx_43xx.o
                                                  examples_c/sapi/bluetooth/hm10_uart_bridge/out/libs/lpc_open/lpc_chip_43xx/src/ritimer_18xx_43xx.o
                                                  examples_c/sapi/bluetooth/hm10_uart_bridge/out/libs/lpc_open/lpc_chip_43xx/src/ccan_18xx_43xx.o
Chip_Clock_EnablePLL                              examples_c/sapi/bluetooth/hm10_uart_bridge/out/libs/lpc_open/lpc_chip_43xx/src/clock_18xx_43xx.o
                                                  examples_c/sapi/bluetooth/hm10_uart_bridge/out/libs/lpc_open/lpc_chip_43xx/src/chip_18xx_43xx.o
Chip_Clock_GetBaseClock                           examples_c/sapi/bluetooth/hm10_uart_bridge/out/libs/lpc_open/lpc_chip_43xx/src/clock_18xx_43xx.o
Chip_Clock_GetBaseClockOpts                       examples_c/sapi/bluetooth/hm10_uart_bridge/out/libs/lpc_open/lpc_chip_43xx/src/clock_18xx_43xx.o
Chip_Clock_GetBaseClocktHz                        examples_c/sapi/bluetooth/hm10_uart_bridge/out/libs/lpc_open/lpc_chip_43xx/src/clock_18xx_43xx.o
                                                  examples_c/sapi/bluetooth/hm10_uart_bridge/out/libs/lpc_open/lpc_chip_43xx/src/sdio_18xx_43xx.o
                                                  examples_c/sapi/bluetooth/hm10_uart_bridge/out/libs/lpc_open/lpc_chip_43xx/src/sdmmc_18xx_43xx.o
Chip_Clock_GetClockInputHz                        examples_c/sapi/bluetooth/hm10_uart_bridge/out/libs/lpc_open/lpc_chip_43xx/src/clock_18xx_43xx.o
                                                  examples_c/sapi/bluetooth/hm10_uart_bridge/out/libs/lpc_open/lpc_chip_43xx/src/chip_18xx_43xx.o
Chip_Clock_GetDividerDivisor                      examples_c/sapi/bluetooth/hm10_uart_bridge/out/libs/lpc_open/lpc_chip_43xx/src/clock_18xx_43xx.o
Chip_Clock_GetDividerSource                       examples_c/sapi/bluetooth/hm10_uart_bridge/out/libs/lpc_open/lpc_chip_43xx/src/clock_18xx_43xx.o
Chip_Clock_GetEMCRate                             examples_c/sapi/bluetooth/hm10_uart_bridge/out/libs/lpc_open/lpc_chip_43xx/src/clock_18xx_43xx.o
                                                  examples_c/sapi/bluetooth/hm10_uart_bridge/out/libs/lpc_open/lpc_chip_43xx/src/emc_18xx_43xx.o
Chip_Clock_GetMainPLLHz                           examples_c/sapi/bluetooth/hm10_uart_bridge/out/libs/lpc_open/lpc_chip_43xx/src/clock_18xx_43xx.o
Chip_Clock_GetPLLStatus                           examples_c/sapi/bluetooth/hm10_uart_bridge/out/libs/lpc_open/lpc_chip_43xx/src/clock_18xx_43xx.o
                                                  examples_c/sapi/bluetooth/hm10_uart_bridge/out/libs/lpc_open/lpc_chip_43xx/src/chip_18xx_43xx.o
Chip_Clock_GetRate                                examples_c/sapi/bluetooth/hm10_uart_bridge/out/libs/lpc_open/lpc_chip_43xx/src/clock_18xx_43xx.o
                                                  examples_c/sapi/bluetooth/hm10_uart_bridge/out/libs/lpc_open/lpc_chip_43xx/src/ssp_18xx_43xx.o
                                                  examples_c/sapi/bluetooth/hm10_uart_bridge/out/libs/lpc_open/lpc_chip_43xx/src/sct_pwm_18xx_43xx.o
                                                  examples_c/sapi/bluetooth/hm10_uart_bridge/out/libs/lpc_open/lpc_chip_43xx/src/i2c_18xx_43xx.o
                                                  examples_c/sapi/bluetooth/hm10_uart_bridge/out/libs/lpc_open/lpc_chip_43xx/src/spi_18xx_43xx.o
                                                  examples_c/sapi/bluetooth/hm10_uart_bridge/out/libs/lpc_open/lpc_chip_43xx/src/eeprom_18xx_43xx.o
                                                  examples_c/sapi/bluetooth/hm10_uart_bridge/out/libs/lpc_open/lpc_chip_43xx/src/i2cm_18xx_43xx.o
                                                  examples_c/sapi/bluetooth/hm10_uart_bridge/out/libs/lpc_open/lpc_chip_43xx/src/stopwatch_18xx_43xx.o
                                                  examples_c/sapi/bluetooth/hm10_uart_bridge/out/libs/lpc_open/lpc_chip_43xx/src/chip_18xx_43xx.o
                                                  examples_c/sapi/bluetooth/hm10_uart_bridge/out/libs/lpc_open/lpc_chip_43xx/src/adc_18xx_43xx.o
                                                  examples_c/sapi/bluetooth/hm10_uart_bridge/out/libs/lpc_open/lpc_chip_43xx/src/uart_18xx_43xx.o
                                                  examples_c/sapi/bluetooth/hm10_uart_bridge/out/libs/lpc_open/lpc_chip_43xx/src/i2s_18xx_43xx.o
                                                  examples_c/sapi/bluetooth/hm10_uart_bridge/out/libs/lpc_open/lpc_chip_43xx/src/ritimer_18xx_43xx.o
                                                  examples_c/sapi/bluetooth/hm10_uart_bridge/out/libs/lpc_open/lpc_chip_43xx/src/ccan_18xx_43xx.o
Chip_Clock_IsBaseClockEnabled                     examples_c/sapi/bluetooth/hm10_uart_bridge/out/libs/lpc_open/lpc_chip_43xx/src/clock_18xx_43xx.o
Chip_Clock_RTCEnable                              examples_c/sapi/bluetooth/hm10_uart_bridge/out/libs/lpc_open/lpc_chip_43xx/src/clock_18xx_43xx.o
                                                  examples_c/sapi/bluetooth/hm10_uart_bridge/out/libs/lpc_open/lpc_chip_43xx/src/rtc_18xx_43xx.o
Chip_Clock_SetBaseClock                           examples_c/sapi/bluetooth/hm10_uart_bridge/out/libs/lpc_open/lpc_chip_43xx/src/clock_18xx_43xx.o
                                                  examples_c/sapi/bluetooth/hm10_uart_bridge/out/libs/lpc_open/lpc_chip_43xx/src/sysinit_18xx_43xx.o
                                                  examples_c/sapi/bluetooth/hm10_uart_bridge/out/libs/lpc_open/lpc_chip_43xx/src/chip_18xx_43xx.o
                                                  examples_c/sapi/bluetooth/hm10_uart_bridge/out/libs/lpc_open/boards/edu_ciaa_nxp/src/board_sysinit.o
Chip_Clock_SetDivider                             examples_c/sapi/bluetooth/hm10_uart_bridge/out/libs/lpc_open/lpc_chip_43xx/src/clock_18xx_43xx.o
                                                  examples_c/sapi/bluetooth/hm10_uart_bridge/out/libs/lpc_open/lpc_chip_43xx/src/chip_18xx_43xx.o
Chip_Clock_SetupMainPLLHz                         examples_c/sapi/bluetooth/hm10_uart_bridge/out/libs/lpc_open/lpc_chip_43xx/src/clock_18xx_43xx.o
Chip_Clock_SetupMainPLLMult                       examples_c/sapi/bluetooth/hm10_uart_bridge/out/libs/lpc_open/lpc_chip_43xx/src/clock_18xx_43xx.o
Chip_Clock_SetupPLL                               examples_c/sapi/bluetooth/hm10_uart_bridge/out/libs/lpc_open/lpc_chip_43xx/src/clock_18xx_43xx.o
                                                  examples_c/sapi/bluetooth/hm10_uart_bridge/out/libs/lpc_open/lpc_chip_43xx/src/chip_18xx_43xx.o
Chip_Clock_StartPowerDown                         examples_c/sapi/bluetooth/hm10_uart_bridge/out/libs/lpc_open/lpc_chip_43xx/src/clock_18xx_43xx.o
Chip_DAC_DeInit                                   examples_c/sapi/bluetooth/hm10_uart_bridge/out/libs/lpc_open/lpc_chip_43xx/src/dac_18xx_43xx.o
                                                  examples_c/sapi/bluetooth/hm10_uart_bridge/out/libs/sapi/sapi_v0.5.2/soc/peripherals/src/sapi_dac.o
Chip_DAC_Init                                     examples_c/sapi/bluetooth/hm10_uart_bridge/out/libs/lpc_open/lpc_chip_43xx/src/dac_18xx_43xx.o
Chip_DAC_SetBias                                  examples_c/sapi/bluetooth/hm10_uart_bridge/out/libs/lpc_open/lpc_chip_43xx/src/dac_18xx_43xx.o
                                                  examples_c/sapi/bluetooth/hm10_uart_bridge/out/libs/sapi/sapi_v0.5.2/soc/peripherals/src/sapi_dac.o
Chip_DAC_UpdateValue                              examples_c/sapi/bluetooth/hm10_uart_bridge/out/libs/lpc_open/lpc_chip_43xx/src/dac_18xx_43xx.o
                                                  examples_c/sapi/bluetooth/hm10_uart_bridge/out/libs/sapi/sapi_v0.5.2/soc/peripherals/src/sapi_dac.o
Chip_EEPROM_EraseProgramPage                      examples_c/sapi/bluetooth/hm10_uart_bridge/out/libs/lpc_open/lpc_chip_43xx/src/eeprom_18xx_43xx.o
Chip_EEPROM_Init                                  examples_c/sapi/bluetooth/hm10_uart_bridge/out/libs/lpc_open/lpc_chip_43xx/src/eeprom_18xx_43xx.o
Chip_EEPROM_WaitForIntStatus                      examples_c/sapi/bluetooth/hm10_uart_bridge/out/libs/lpc_open/lpc_chip_43xx/src/eeprom_18xx_43xx.o
Chip_EMC_Dynamic_Enable                           examples_c/sapi/bluetooth/hm10_uart_bridge/out/libs/lpc_open/lpc_chip_43xx/src/emc_18xx_43xx.o
Chip_EMC_Dynamic_Init                             examples_c/sapi/bluetooth/hm10_uart_bridge/out/libs/lpc_open/lpc_chip_43xx/src/emc_18xx_43xx.o
Chip_EMC_Enable                                   examples_c/sapi/bluetooth/hm10_uart_bridge/out/libs/lpc_open/lpc_chip_43xx/src/emc_18xx_43xx.o
Chip_EMC_Init                                     examples_c/sapi/bluetooth/hm10_uart_bridge/out/libs/lpc_open/lpc_chip_43xx/src/emc_18xx_43xx.o
Chip_EMC_LowPowerMode                             examples_c/sapi/bluetooth/hm10_uart_bridge/out/libs/lpc_open/lpc_chip_43xx/src/emc_18xx_43xx.o
Chip_EMC_Mirror                                   examples_c/sapi/bluetooth/hm10_uart_bridge/out/libs/lpc_open/lpc_chip_43xx/src/emc_18xx_43xx.o
Chip_EMC_Static_Init                              examples_c/sapi/bluetooth/hm10_uart_bridge/out/libs/lpc_open/lpc_chip_43xx/src/emc_18xx_43xx.o
Chip_ENET_DeInit                                  examples_c/sapi/bluetooth/hm10_uart_bridge/out/libs/lpc_open/lpc_chip_43xx/src/enet_18xx_43xx.o
Chip_ENET_Init                                    examples_c/sapi/bluetooth/hm10_uart_bridge/out/libs/lpc_open/lpc_chip_43xx/src/enet_18xx_43xx.o
Chip_ENET_SetDuplex                               examples_c/sapi/bluetooth/hm10_uart_bridge/out/libs/lpc_open/lpc_chip_43xx/src/enet_18xx_43xx.o
Chip_ENET_SetSpeed                                examples_c/sapi/bluetooth/hm10_uart_bridge/out/libs/lpc_open/lpc_chip_43xx/src/enet_18xx_43xx.o
Chip_ENET_SetupMII                                examples_c/sapi/bluetooth/hm10_uart_bridge/out/libs/lpc_open/lpc_chip_43xx/src/enet_18xx_43xx.o
Chip_ENET_StartMIIRead                            examples_c/sapi/bluetooth/hm10_uart_bridge/out/libs/lpc_open/lpc_chip_43xx/src/enet_18xx_43xx.o
Chip_ENET_StartMIIWrite                           examples_c/sapi/bluetooth/hm10_uart_bridge/out/libs/lpc_open/lpc_chip_43xx/src/enet_18xx_43xx.o
Chip_EVRT_ConfigIntSrcActiveType                  examples_c/sapi/bluetooth/hm10_uart_bridge/out/libs/lpc_open/lpc_chip_43xx/src/evrt_18xx_43xx.o
Chip_EVRT_Init                                    examples_c/sapi/bluetooth/hm10_uart_bridge/out/libs/lpc_open/lpc_chip_43xx/src/evrt_18xx_43xx.o
Chip_EVRT_IsSourceInterrupting                    examples_c/sapi/bluetooth/hm10_uart_bridge/out/libs/lpc_open/lpc_chip_43xx/src/evrt_18xx_43xx.o
Chip_EVRT_SetUpIntSrc                             examples_c/sapi/bluetooth/hm10_uart_bridge/out/libs/lpc_open/lpc_chip_43xx/src/evrt_18xx_43xx.o
Chip_GPDMA_ChannelCmd                             examples_c/sapi/bluetooth/hm10_uart_bridge/out/libs/lpc_open/lpc_chip_43xx/src/gpdma_18xx_43xx.o
Chip_GPDMA_ClearIntPending                        examples_c/sapi/bluetooth/hm10_uart_bridge/out/libs/lpc_open/lpc_chip_43xx/src/gpdma_18xx_43xx.o
Chip_GPDMA_DeInit                                 examples_c/sapi/bluetooth/hm10_uart_bridge/out/libs/lpc_open/lpc_chip_43xx/src/gpdma_18xx_43xx.o
Chip_GPDMA_GetFreeChannel                         examples_c/sapi/bluetooth/hm10_uart_bridge/out/libs/lpc_open/lpc_chip_43xx/src/gpdma_18xx_43xx.o
Chip_GPDMA_Init                                   examples_c/sapi/bluetooth/hm10_uart_bridge/out/libs/lpc_open/lpc_chip_43xx/src/gpdma_18xx_43xx.o
Chip_GPDMA_InitChannelCfg                         examples_c/sapi/bluetooth/hm10_uart_bridge/out/libs/lpc_open/lpc_chip_43xx/src/gpdma_18xx_43xx.o
Chip_GPDMA_IntGetStatus                           examples_c/sapi/bluetooth/hm10_uart_bridge/out/libs/lpc_open/lpc_chip_43xx/src/gpdma_18xx_43xx.o
Chip_GPDMA_Interrupt                              examples_c/sapi/bluetooth/hm10_uart_bridge/out/libs/lpc_open/lpc_chip_43xx/src/gpdma_18xx_43xx.o
Chip_GPDMA_PrepareDescriptor                      examples_c/sapi/bluetooth/hm10_uart_bridge/out/libs/lpc_open/lpc_chip_43xx/src/gpdma_18xx_43xx.o
Chip_GPDMA_SGTransfer                             examples_c/sapi/bluetooth/hm10_uart_bridge/out/libs/lpc_open/lpc_chip_43xx/src/gpdma_18xx_43xx.o
Chip_GPDMA_Stop                                   examples_c/sapi/bluetooth/hm10_uart_bridge/out/libs/lpc_open/lpc_chip_43xx/src/gpdma_18xx_43xx.o
Chip_GPDMA_Transfer                               examples_c/sapi/bluetooth/hm10_uart_bridge/out/libs/lpc_open/lpc_chip_43xx/src/gpdma_18xx_43xx.o
Chip_GPIO_DeInit                                  examples_c/sapi/bluetooth/hm10_uart_bridge/out/libs/lpc_open/lpc_chip_43xx/src/gpio_18xx_43xx.o
Chip_GPIO_Init                                    examples_c/sapi/bluetooth/hm10_uart_bridge/out/libs/lpc_open/lpc_chip_43xx/src/gpio_18xx_43xx.o
                                                  examples_c/sapi/bluetooth/hm10_uart_bridge/out/libs/sapi/sapi_v0.5.2/soc/peripherals/src/sapi_gpio.o
                                                  examples_c/sapi/bluetooth/hm10_uart_bridge/out/libs/lpc_open/boards/edu_ciaa_nxp/src/board.o
Chip_I2CM_DeInit                                  examples_c/sapi/bluetooth/hm10_uart_bridge/out/libs/lpc_open/lpc_chip_43xx/src/i2cm_18xx_43xx.o
Chip_I2CM_Init                                    examples_c/sapi/bluetooth/hm10_uart_bridge/out/libs/lpc_open/lpc_chip_43xx/src/i2cm_18xx_43xx.o
Chip_I2CM_Read                                    examples_c/sapi/bluetooth/hm10_uart_bridge/out/libs/lpc_open/lpc_chip_43xx/src/i2cm_18xx_43xx.o
Chip_I2CM_SetBusSpeed                             examples_c/sapi/bluetooth/hm10_uart_bridge/out/libs/lpc_open/lpc_chip_43xx/src/i2cm_18xx_43xx.o
Chip_I2CM_Write                                   examples_c/sapi/bluetooth/hm10_uart_bridge/out/libs/lpc_open/lpc_chip_43xx/src/i2cm_18xx_43xx.o
Chip_I2CM_Xfer                                    examples_c/sapi/bluetooth/hm10_uart_bridge/out/libs/lpc_open/lpc_chip_43xx/src/i2cm_18xx_43xx.o
Chip_I2CM_XferBlocking                            examples_c/sapi/bluetooth/hm10_uart_bridge/out/libs/lpc_open/lpc_chip_43xx/src/i2cm_18xx_43xx.o
                                                  examples_c/sapi/bluetooth/hm10_uart_bridge/out/libs/sapi/sapi_v0.5.2/soc/peripherals/src/sapi_i2c.o
Chip_I2CM_XferHandler                             examples_c/sapi/bluetooth/hm10_uart_bridge/out/libs/lpc_open/lpc_chip_43xx/src/i2cm_18xx_43xx.o
Chip_I2C_DeInit                                   examples_c/sapi/bluetooth/hm10_uart_bridge/out/libs/lpc_open/lpc_chip_43xx/src/i2c_18xx_43xx.o
Chip_I2C_Disable                                  examples_c/sapi/bluetooth/hm10_uart_bridge/out/libs/lpc_open/lpc_chip_43xx/src/i2c_18xx_43xx.o
Chip_I2C_EventHandler                             examples_c/sapi/bluetooth/hm10_uart_bridge/out/libs/lpc_open/lpc_chip_43xx/src/i2c_18xx_43xx.o
Chip_I2C_EventHandlerPolling                      examples_c/sapi/bluetooth/hm10_uart_bridge/out/libs/lpc_open/lpc_chip_43xx/src/i2c_18xx_43xx.o
                                                  examples_c/sapi/bluetooth/hm10_uart_bridge/out/libs/sapi/sapi_v0.5.2/soc/peripherals/src/sapi_i2c.o
Chip_I2C_GetClockRate                             examples_c/sapi/bluetooth/hm10_uart_bridge/out/libs/lpc_open/lpc_chip_43xx/src/i2c_18xx_43xx.o
Chip_I2C_GetMasterEventHandler                    examples_c/sapi/bluetooth/hm10_uart_bridge/out/libs/lpc_open/lpc_chip_43xx/src/i2c_18xx_43xx.o
Chip_I2C_Init                                     examples_c/sapi/bluetooth/hm10_uart_bridge/out/libs/lpc_open/lpc_chip_43xx/src/i2c_18xx_43xx.o
                                                  examples_c/sapi/bluetooth/hm10_uart_bridge/out/libs/sapi/sapi_v0.5.2/soc/peripherals/src/sapi_i2c.o
                                                  examples_c/sapi/bluetooth/hm10_uart_bridge/out/libs/lpc_open/boards/edu_ciaa_nxp/src/board.o
Chip_I2C_IsMasterActive                           examples_c/sapi/bluetooth/hm10_uart_bridge/out/libs/lpc_open/lpc_chip_43xx/src/i2c_18xx_43xx.o
Chip_I2C_IsStateChanged                           examples_c/sapi/bluetooth/hm10_uart_bridge/out/libs/lpc_open/lpc_chip_43xx/src/i2c_18xx_43xx.o
Chip_I2C_MasterCmdRead                            examples_c/sapi/bluetooth/hm10_uart_bridge/out/libs/lpc_open/lpc_chip_43xx/src/i2c_18xx_43xx.o
Chip_I2C_MasterRead                               examples_c/sapi/bluetooth/hm10_uart_bridge/out/libs/lpc_open/lpc_chip_43xx/src/i2c_18xx_43xx.o
Chip_I2C_MasterSend                               examples_c/sapi/bluetooth/hm10_uart_bridge/out/libs/lpc_open/lpc_chip_43xx/src/i2c_18xx_43xx.o
Chip_I2C_MasterStateHandler                       examples_c/sapi/bluetooth/hm10_uart_bridge/out/libs/lpc_open/lpc_chip_43xx/src/i2c_18xx_43xx.o
Chip_I2C_MasterTransfer                           examples_c/sapi/bluetooth/hm10_uart_bridge/out/libs/lpc_open/lpc_chip_43xx/src/i2c_18xx_43xx.o
Chip_I2C_SetClockRate                             examples_c/sapi/bluetooth/hm10_uart_bridge/out/libs/lpc_open/lpc_chip_43xx/src/i2c_18xx_43xx.o
                                                  examples_c/sapi/bluetooth/hm10_uart_bridge/out/libs/sapi/sapi_v0.5.2/soc/peripherals/src/sapi_i2c.o
                                                  examples_c/sapi/bluetooth/hm10_uart_bridge/out/libs/lpc_open/boards/edu_ciaa_nxp/src/board.o
Chip_I2C_SetMasterEventHandler                    examples_c/sapi/bluetooth/hm10_uart_bridge/out/libs/lpc_open/lpc_chip_43xx/src/i2c_18xx_43xx.o
                                                  examples_c/sapi/bluetooth/hm10_uart_bridge/out/libs/sapi/sapi_v0.5.2/soc/peripherals/src/sapi_i2c.o
Chip_I2C_SlaveSetup                               examples_c/sapi/bluetooth/hm10_uart_bridge/out/libs/lpc_open/lpc_chip_43xx/src/i2c_18xx_43xx.o
Chip_I2C_SlaveStateHandler                        examples_c/sapi/bluetooth/hm10_uart_bridge/out/libs/lpc_open/lpc_chip_43xx/src/i2c_18xx_43xx.o
Chip_I2S_DMA_RxCmd                                examples_c/sapi/bluetooth/hm10_uart_bridge/out/libs/lpc_open/lpc_chip_43xx/src/i2s_18xx_43xx.o
Chip_I2S_DMA_TxCmd                                examples_c/sapi/bluetooth/hm10_uart_bridge/out/libs/lpc_open/lpc_chip_43xx/src/i2s_18xx_43xx.o
Chip_I2S_DeInit                                   examples_c/sapi/bluetooth/hm10_uart_bridge/out/libs/lpc_open/lpc_chip_43xx/src/i2s_18xx_43xx.o
Chip_I2S_Init                                     examples_c/sapi/bluetooth/hm10_uart_bridge/out/libs/lpc_open/lpc_chip_43xx/src/i2s_18xx_43xx.o
Chip_I2S_Int_RxCmd                                examples_c/sapi/bluetooth/hm10_uart_bridge/out/libs/lpc_open/lpc_chip_43xx/src/i2s_18xx_43xx.o
Chip_I2S_Int_TxCmd                                examples_c/sapi/bluetooth/hm10_uart_bridge/out/libs/lpc_open/lpc_chip_43xx/src/i2s_18xx_43xx.o
Chip_I2S_RxConfig                                 examples_c/sapi/bluetooth/hm10_uart_bridge/out/libs/lpc_open/lpc_chip_43xx/src/i2s_18xx_43xx.o
Chip_I2S_TxConfig                                 examples_c/sapi/bluetooth/hm10_uart_bridge/out/libs/lpc_open/lpc_chip_43xx/src/i2s_18xx_43xx.o
Chip_IAP_BlankCheckSector                         examples_c/sapi/bluetooth/hm10_uart_bridge/out/libs/lpc_open/lpc_chip_43xx/src/iap_18xx_43xx.o
Chip_IAP_Compare                                  examples_c/sapi/bluetooth/hm10_uart_bridge/out/libs/lpc_open/lpc_chip_43xx/src/iap_18xx_43xx.o
Chip_IAP_CopyRamToFlash                           examples_c/sapi/bluetooth/hm10_uart_bridge/out/libs/lpc_open/lpc_chip_43xx/src/iap_18xx_43xx.o
Chip_IAP_ErasePage                                examples_c/sapi/bluetooth/hm10_uart_bridge/out/libs/lpc_open/lpc_chip_43xx/src/iap_18xx_43xx.o
Chip_IAP_EraseSector                              examples_c/sapi/bluetooth/hm10_uart_bridge/out/libs/lpc_open/lpc_chip_43xx/src/iap_18xx_43xx.o
Chip_IAP_Init                                     examples_c/sapi/bluetooth/hm10_uart_bridge/out/libs/lpc_open/lpc_chip_43xx/src/iap_18xx_43xx.o
Chip_IAP_PreSectorForReadWrite                    examples_c/sapi/bluetooth/hm10_uart_bridge/out/libs/lpc_open/lpc_chip_43xx/src/iap_18xx_43xx.o
Chip_IAP_ReadBootCode                             examples_c/sapi/bluetooth/hm10_uart_bridge/out/libs/lpc_open/lpc_chip_43xx/src/iap_18xx_43xx.o
Chip_IAP_ReadPID                                  examples_c/sapi/bluetooth/hm10_uart_bridge/out/libs/lpc_open/lpc_chip_43xx/src/iap_18xx_43xx.o
Chip_IAP_ReadUID                                  examples_c/sapi/bluetooth/hm10_uart_bridge/out/libs/lpc_open/lpc_chip_43xx/src/iap_18xx_43xx.o
Chip_IAP_ReinvokeISP                              examples_c/sapi/bluetooth/hm10_uart_bridge/out/libs/lpc_open/lpc_chip_43xx/src/iap_18xx_43xx.o
Chip_IAP_SetBootFlashBank                         examples_c/sapi/bluetooth/hm10_uart_bridge/out/libs/lpc_open/lpc_chip_43xx/src/iap_18xx_43xx.o
Chip_LCD_Cursor_Config                            examples_c/sapi/bluetooth/hm10_uart_bridge/out/libs/lpc_open/lpc_chip_43xx/src/lcd_18xx_43xx.o
Chip_LCD_Cursor_WriteImage                        examples_c/sapi/bluetooth/hm10_uart_bridge/out/libs/lpc_open/lpc_chip_43xx/src/lcd_18xx_43xx.o
Chip_LCD_DeInit                                   examples_c/sapi/bluetooth/hm10_uart_bridge/out/libs/lpc_open/lpc_chip_43xx/src/lcd_18xx_43xx.o
Chip_LCD_Init                                     examples_c/sapi/bluetooth/hm10_uart_bridge/out/libs/lpc_open/lpc_chip_43xx/src/lcd_18xx_43xx.o
Chip_LCD_LoadPalette                              examples_c/sapi/bluetooth/hm10_uart_bridge/out/libs/lpc_open/lpc_chip_43xx/src/lcd_18xx_43xx.o
Chip_OTP_GenRand                                  examples_c/sapi/bluetooth/hm10_uart_bridge/out/libs/lpc_open/lpc_chip_43xx/src/otp_18xx_43xx.o
Chip_OTP_Init                                     examples_c/sapi/bluetooth/hm10_uart_bridge/out/libs/lpc_open/lpc_chip_43xx/src/otp_18xx_43xx.o
Chip_OTP_ProgBootSrc                              examples_c/sapi/bluetooth/hm10_uart_bridge/out/libs/lpc_open/lpc_chip_43xx/src/otp_18xx_43xx.o
Chip_OTP_ProgGPWord                               examples_c/sapi/bluetooth/hm10_uart_bridge/out/libs/lpc_open/lpc_chip_43xx/src/otp_18xx_43xx.o
Chip_OTP_ProgJTAGDis                              examples_c/sapi/bluetooth/hm10_uart_bridge/out/libs/lpc_open/lpc_chip_43xx/src/otp_18xx_43xx.o
Chip_OTP_ProgKey                                  examples_c/sapi/bluetooth/hm10_uart_bridge/out/libs/lpc_open/lpc_chip_43xx/src/otp_18xx_43xx.o
Chip_OTP_ProgUSBID                                examples_c/sapi/bluetooth/hm10_uart_bridge/out/libs/lpc_open/lpc_chip_43xx/src/otp_18xx_43xx.o
Chip_PMC_Set_PwrState                             examples_c/sapi/bluetooth/hm10_uart_bridge/out/libs/lpc_open/lpc_chip_43xx/src/pmc_18xx_43xx.o
Chip_PMC_Sleep                                    examples_c/sapi/bluetooth/hm10_uart_bridge/out/libs/lpc_open/lpc_chip_43xx/src/pmc_18xx_43xx.o
Chip_RIT_DeInit                                   examples_c/sapi/bluetooth/hm10_uart_bridge/out/libs/lpc_open/lpc_chip_43xx/src/ritimer_18xx_43xx.o
Chip_RIT_GetIntStatus                             examples_c/sapi/bluetooth/hm10_uart_bridge/out/libs/lpc_open/lpc_chip_43xx/src/ritimer_18xx_43xx.o
Chip_RIT_Init                                     examples_c/sapi/bluetooth/hm10_uart_bridge/out/libs/lpc_open/lpc_chip_43xx/src/ritimer_18xx_43xx.o
Chip_RIT_SetTimerInterval                         examples_c/sapi/bluetooth/hm10_uart_bridge/out/libs/lpc_open/lpc_chip_43xx/src/ritimer_18xx_43xx.o
Chip_RTC_AlarmIntConfig                           examples_c/sapi/bluetooth/hm10_uart_bridge/out/libs/lpc_open/lpc_chip_43xx/src/rtc_18xx_43xx.o
Chip_RTC_CalibCounterCmd                          examples_c/sapi/bluetooth/hm10_uart_bridge/out/libs/lpc_open/lpc_chip_43xx/src/rtc_18xx_43xx.o
Chip_RTC_CntIncrIntConfig                         examples_c/sapi/bluetooth/hm10_uart_bridge/out/libs/lpc_open/lpc_chip_43xx/src/rtc_18xx_43xx.o
Chip_RTC_DeInit                                   examples_c/sapi/bluetooth/hm10_uart_bridge/out/libs/lpc_open/lpc_chip_43xx/src/rtc_18xx_43xx.o
Chip_RTC_EV_GetFirstTimeStamp                     examples_c/sapi/bluetooth/hm10_uart_bridge/out/libs/lpc_open/lpc_chip_43xx/src/rtc_18xx_43xx.o
Chip_RTC_EV_GetLastTimeStamp                      examples_c/sapi/bluetooth/hm10_uart_bridge/out/libs/lpc_open/lpc_chip_43xx/src/rtc_18xx_43xx.o
Chip_RTC_Enable                                   examples_c/sapi/bluetooth/hm10_uart_bridge/out/libs/lpc_open/lpc_chip_43xx/src/rtc_18xx_43xx.o
                                                  examples_c/sapi/bluetooth/hm10_uart_bridge/out/libs/sapi/sapi_v0.5.2/soc/peripherals/src/sapi_rtc.o
Chip_RTC_GetFullAlarmTime                         examples_c/sapi/bluetooth/hm10_uart_bridge/out/libs/lpc_open/lpc_chip_43xx/src/rtc_18xx_43xx.o
Chip_RTC_GetFullTime                              examples_c/sapi/bluetooth/hm10_uart_bridge/out/libs/lpc_open/lpc_chip_43xx/src/rtc_18xx_43xx.o
                                                  examples_c/sapi/bluetooth/hm10_uart_bridge/out/libs/sapi/sapi_v0.5.2/soc/peripherals/src/sapi_rtc.o
Chip_RTC_Init                                     examples_c/sapi/bluetooth/hm10_uart_bridge/out/libs/lpc_open/lpc_chip_43xx/src/rtc_18xx_43xx.o
                                                  examples_c/sapi/bluetooth/hm10_uart_bridge/out/libs/sapi/sapi_v0.5.2/soc/peripherals/src/sapi_rtc.o
Chip_RTC_ResetClockTickCounter                    examples_c/sapi/bluetooth/hm10_uart_bridge/out/libs/lpc_open/lpc_chip_43xx/src/rtc_18xx_43xx.o
Chip_RTC_SetFullAlarmTime                         examples_c/sapi/bluetooth/hm10_uart_bridge/out/libs/lpc_open/lpc_chip_43xx/src/rtc_18xx_43xx.o
Chip_RTC_SetFullTime                              examples_c/sapi/bluetooth/hm10_uart_bridge/out/libs/lpc_open/lpc_chip_43xx/src/rtc_18xx_43xx.o
                                                  examples_c/sapi/bluetooth/hm10_uart_bridge/out/libs/sapi/sapi_v0.5.2/soc/peripherals/src/sapi_rtc.o
Chip_SCTPWM_SetOutPin                             examples_c/sapi/bluetooth/hm10_uart_bridge/out/libs/lpc_open/lpc_chip_43xx/src/sct_pwm_18xx_43xx.o
                                                  examples_c/sapi/bluetooth/hm10_uart_bridge/out/libs/sapi/sapi_v0.5.2/soc/peripherals/src/sapi_sct.o
Chip_SCTPWM_SetRate                               examples_c/sapi/bluetooth/hm10_uart_bridge/out/libs/lpc_open/lpc_chip_43xx/src/sct_pwm_18xx_43xx.o
                                                  examples_c/sapi/bluetooth/hm10_uart_bridge/out/libs/sapi/sapi_v0.5.2/soc/peripherals/src/sapi_sct.o
Chip_SCT_DeInit                                   examples_c/sapi/bluetooth/hm10_uart_bridge/out/libs/lpc_open/lpc_chip_43xx/src/sct_18xx_43xx.o
Chip_SCT_Init                                     examples_c/sapi/bluetooth/hm10_uart_bridge/out/libs/lpc_open/lpc_chip_43xx/src/sct_18xx_43xx.o
                                                  examples_c/sapi/bluetooth/hm10_uart_bridge/out/libs/sapi/sapi_v0.5.2/soc/peripherals/src/sapi_sct.o
Chip_SCT_SetClrControl                            examples_c/sapi/bluetooth/hm10_uart_bridge/out/libs/lpc_open/lpc_chip_43xx/src/sct_18xx_43xx.o
Chip_SCT_SetConflictResolution                    examples_c/sapi/bluetooth/hm10_uart_bridge/out/libs/lpc_open/lpc_chip_43xx/src/sct_18xx_43xx.o
Chip_SDIF_DeInit                                  examples_c/sapi/bluetooth/hm10_uart_bridge/out/libs/lpc_open/lpc_chip_43xx/src/sdif_18xx_43xx.o
Chip_SDIF_DmaSetup                                examples_c/sapi/bluetooth/hm10_uart_bridge/out/libs/lpc_open/lpc_chip_43xx/src/sdif_18xx_43xx.o
                                                  examples_c/sapi/bluetooth/hm10_uart_bridge/out/libs/lpc_open/lpc_chip_43xx/src/sdio_18xx_43xx.o
                                                  examples_c/sapi/bluetooth/hm10_uart_bridge/out/libs/lpc_open/lpc_chip_43xx/src/sdmmc_18xx_43xx.o
Chip_SDIF_GetResponse                             examples_c/sapi/bluetooth/hm10_uart_bridge/out/libs/lpc_open/lpc_chip_43xx/src/sdif_18xx_43xx.o
                                                  examples_c/sapi/bluetooth/hm10_uart_bridge/out/libs/lpc_open/lpc_chip_43xx/src/sdio_18xx_43xx.o
                                                  examples_c/sapi/bluetooth/hm10_uart_bridge/out/libs/lpc_open/lpc_chip_43xx/src/sdmmc_18xx_43xx.o
Chip_SDIF_Init                                    examples_c/sapi/bluetooth/hm10_uart_bridge/out/libs/lpc_open/lpc_chip_43xx/src/sdif_18xx_43xx.o
Chip_SDIF_SendCmd                                 examples_c/sapi/bluetooth/hm10_uart_bridge/out/libs/lpc_open/lpc_chip_43xx/src/sdif_18xx_43xx.o
                                                  examples_c/sapi/bluetooth/hm10_uart_bridge/out/libs/lpc_open/lpc_chip_43xx/src/sdio_18xx_43xx.o
                                                  examples_c/sapi/bluetooth/hm10_uart_bridge/out/libs/lpc_open/lpc_chip_43xx/src/sdmmc_18xx_43xx.o
Chip_SDIF_SetClearIntFifo                         examples_c/sapi/bluetooth/hm10_uart_bridge/out/libs/lpc_open/lpc_chip_43xx/src/sdif_18xx_43xx.o
                                                  examples_c/sapi/bluetooth/hm10_uart_bridge/out/libs/lpc_open/lpc_chip_43xx/src/sdmmc_18xx_43xx.o
Chip_SDIF_SetClock                                examples_c/sapi/bluetooth/hm10_uart_bridge/out/libs/lpc_open/lpc_chip_43xx/src/sdif_18xx_43xx.o
                                                  examples_c/sapi/bluetooth/hm10_uart_bridge/out/libs/lpc_open/lpc_chip_43xx/src/sdio_18xx_43xx.o
                                                  examples_c/sapi/bluetooth/hm10_uart_bridge/out/libs/lpc_open/lpc_chip_43xx/src/sdmmc_18xx_43xx.o
Chip_SDMMC_Acquire                                examples_c/sapi/bluetooth/hm10_uart_bridge/out/libs/lpc_open/lpc_chip_43xx/src/sdmmc_18xx_43xx.o
Chip_SDMMC_GetDeviceBlocks                        examples_c/sapi/bluetooth/hm10_uart_bridge/out/libs/lpc_open/lpc_chip_43xx/src/sdmmc_18xx_43xx.o
Chip_SDMMC_GetDeviceSize                          examples_c/sapi/bluetooth/hm10_uart_bridge/out/libs/lpc_open/lpc_chip_43xx/src/sdmmc_18xx_43xx.o
Chip_SDMMC_GetState                               examples_c/sapi/bluetooth/hm10_uart_bridge/out/libs/lpc_open/lpc_chip_43xx/src/sdmmc_18xx_43xx.o
Chip_SDMMC_ReadBlocks                             examples_c/sapi/bluetooth/hm10_uart_bridge/out/libs/lpc_open/lpc_chip_43xx/src/sdmmc_18xx_43xx.o
Chip_SDMMC_WriteBlocks                            examples_c/sapi/bluetooth/hm10_uart_bridge/out/libs/lpc_open/lpc_chip_43xx/src/sdmmc_18xx_43xx.o
Chip_SPI_DeInit                                   examples_c/sapi/bluetooth/hm10_uart_bridge/out/libs/lpc_open/lpc_chip_43xx/src/spi_18xx_43xx.o
Chip_SPI_Init                                     examples_c/sapi/bluetooth/hm10_uart_bridge/out/libs/lpc_open/lpc_chip_43xx/src/spi_18xx_43xx.o
Chip_SPI_Int_FlushData                            examples_c/sapi/bluetooth/hm10_uart_bridge/out/libs/lpc_open/lpc_chip_43xx/src/spi_18xx_43xx.o
Chip_SPI_Int_RWFrames                             examples_c/sapi/bluetooth/hm10_uart_bridge/out/libs/lpc_open/lpc_chip_43xx/src/spi_18xx_43xx.o
Chip_SPI_Int_RWFrames16Bits                       examples_c/sapi/bluetooth/hm10_uart_bridge/out/libs/lpc_open/lpc_chip_43xx/src/spi_18xx_43xx.o
Chip_SPI_Int_RWFrames8Bits                        examples_c/sapi/bluetooth/hm10_uart_bridge/out/libs/lpc_open/lpc_chip_43xx/src/spi_18xx_43xx.o
Chip_SPI_RWFrames_Blocking                        examples_c/sapi/bluetooth/hm10_uart_bridge/out/libs/lpc_open/lpc_chip_43xx/src/spi_18xx_43xx.o
Chip_SPI_SetBitRate                               examples_c/sapi/bluetooth/hm10_uart_bridge/out/libs/lpc_open/lpc_chip_43xx/src/spi_18xx_43xx.o
Chip_SSP_DeInit                                   examples_c/sapi/bluetooth/hm10_uart_bridge/out/libs/lpc_open/lpc_chip_43xx/src/ssp_18xx_43xx.o
Chip_SSP_Init                                     examples_c/sapi/bluetooth/hm10_uart_bridge/out/libs/lpc_open/lpc_chip_43xx/src/ssp_18xx_43xx.o
                                                  examples_c/sapi/bluetooth/hm10_uart_bridge/out/libs/sapi/sapi_v0.5.2/soc/peripherals/src/sapi_spi.o
                                                  examples_c/sapi/bluetooth/hm10_uart_bridge/out/libs/lpc_open/boards/edu_ciaa_nxp/src/board.o
Chip_SSP_Int_FlushData                            examples_c/sapi/bluetooth/hm10_uart_bridge/out/libs/lpc_open/lpc_chip_43xx/src/ssp_18xx_43xx.o
Chip_SSP_Int_RWFrames16Bits                       examples_c/sapi/bluetooth/hm10_uart_bridge/out/libs/lpc_open/lpc_chip_43xx/src/ssp_18xx_43xx.o
Chip_SSP_Int_RWFrames8Bits                        examples_c/sapi/bluetooth/hm10_uart_bridge/out/libs/lpc_open/lpc_chip_43xx/src/ssp_18xx_43xx.o
Chip_SSP_RWFrames_Blocking                        examples_c/sapi/bluetooth/hm10_uart_bridge/out/libs/lpc_open/lpc_chip_43xx/src/ssp_18xx_43xx.o
                                                  examples_c/sapi/bluetooth/hm10_uart_bridge/out/libs/sapi/sapi_v0.5.2/soc/peripherals/src/sapi_spi.o
Chip_SSP_ReadFrames_Blocking                      examples_c/sapi/bluetooth/hm10_uart_bridge/out/libs/lpc_open/lpc_chip_43xx/src/ssp_18xx_43xx.o
Chip_SSP_SetBitRate                               examples_c/sapi/bluetooth/hm10_uart_bridge/out/libs/lpc_open/lpc_chip_43xx/src/ssp_18xx_43xx.o
                                                  examples_c/sapi/bluetooth/hm10_uart_bridge/out/libs/lpc_open/boards/edu_ciaa_nxp/src/board.o
Chip_SSP_SetClockRate                             examples_c/sapi/bluetooth/hm10_uart_bridge/out/libs/lpc_open/lpc_chip_43xx/src/ssp_18xx_43xx.o
Chip_SSP_SetMaster                                examples_c/sapi/bluetooth/hm10_uart_bridge/out/libs/lpc_open/lpc_chip_43xx/src/ssp_18xx_43xx.o
Chip_SSP_WriteFrames_Blocking                     examples_c/sapi/bluetooth/hm10_uart_bridge/out/libs/lpc_open/lpc_chip_43xx/src/ssp_18xx_43xx.o
Chip_SetupCoreClock                               examples_c/sapi/bluetooth/hm10_uart_bridge/out/libs/lpc_open/lpc_chip_43xx/src/sysinit_18xx_43xx.o
                                                  examples_c/sapi/bluetooth/hm10_uart_bridge/out/libs/lpc_open/boards/edu_ciaa_nxp/src/board_sysinit.o
Chip_SetupIrcClocking                             examples_c/sapi/bluetooth/hm10_uart_bridge/out/libs/lpc_open/lpc_chip_43xx/src/sysinit_18xx_43xx.o
Chip_SetupXtalClocking                            examples_c/sapi/bluetooth/hm10_uart_bridge/out/libs/lpc_open/lpc_chip_43xx/src/sysinit_18xx_43xx.o
Chip_SystemInit                                   examples_c/sapi/bluetooth/hm10_uart_bridge/out/libs/lpc_open/lpc_chip_43xx/src/sysinit_18xx_43xx.o
Chip_TIMER_DeInit                                 examples_c/sapi/bluetooth/hm10_uart_bridge/out/libs/lpc_open/lpc_chip_43xx/src/timer_18xx_43xx.o
                                                  examples_c/sapi/bluetooth/hm10_uart_bridge/out/libs/sapi/sapi_v0.5.2/soc/peripherals/src/sapi_timer.o
Chip_TIMER_ExtMatchControlSet                     examples_c/sapi/bluetooth/hm10_uart_bridge/out/libs/lpc_open/lpc_chip_43xx/src/timer_18xx_43xx.o
Chip_TIMER_Init                                   examples_c/sapi/bluetooth/hm10_uart_bridge/out/libs/lpc_open/lpc_chip_43xx/src/timer_18xx_43xx.o
                                                  examples_c/sapi/bluetooth/hm10_uart_bridge/out/libs/sapi/sapi_v0.5.2/soc/peripherals/src/sapi_timer.o
                                                  examples_c/sapi/bluetooth/hm10_uart_bridge/out/libs/lpc_open/lpc_chip_43xx/src/stopwatch_18xx_43xx.o
Chip_TIMER_Reset                                  examples_c/sapi/bluetooth/hm10_uart_bridge/out/libs/lpc_open/lpc_chip_43xx/src/timer_18xx_43xx.o
                                                  examples_c/sapi/bluetooth/hm10_uart_bridge/out/libs/sapi/sapi_v0.5.2/soc/peripherals/src/sapi_timer.o
Chip_UART_ABCmd                                   examples_c/sapi/bluetooth/hm10_uart_bridge/out/libs/lpc_open/lpc_chip_43xx/src/uart_18xx_43xx.o
Chip_UART_CheckBusy                               examples_c/sapi/bluetooth/hm10_uart_bridge/out/libs/lpc_open/lpc_chip_43xx/src/uart_18xx_43xx.o
Chip_UART_DeInit                                  examples_c/sapi/bluetooth/hm10_uart_bridge/out/libs/lpc_open/lpc_chip_43xx/src/uart_18xx_43xx.o
Chip_UART_GetABEOStatus                           examples_c/sapi/bluetooth/hm10_uart_bridge/out/libs/lpc_open/lpc_chip_43xx/src/uart_18xx_43xx.o
Chip_UART_IRQRBHandler                            examples_c/sapi/bluetooth/hm10_uart_bridge/out/libs/lpc_open/lpc_chip_43xx/src/uart_18xx_43xx.o
Chip_UART_Init                                    examples_c/sapi/bluetooth/hm10_uart_bridge/out/libs/lpc_open/lpc_chip_43xx/src/uart_18xx_43xx.o
                                                  examples_c/sapi/bluetooth/hm10_uart_bridge/out/libs/sapi/sapi_v0.5.2/soc/peripherals/src/sapi_uart.o
                                                  examples_c/sapi/bluetooth/hm10_uart_bridge/out/libs/lpc_open/boards/edu_ciaa_nxp/src/board.o
Chip_UART_RXIntHandlerRB                          examples_c/sapi/bluetooth/hm10_uart_bridge/out/libs/lpc_open/lpc_chip_43xx/src/uart_18xx_43xx.o
Chip_UART_Read                                    examples_c/sapi/bluetooth/hm10_uart_bridge/out/libs/lpc_open/lpc_chip_43xx/src/uart_18xx_43xx.o
Chip_UART_ReadBlocking                            examples_c/sapi/bluetooth/hm10_uart_bridge/out/libs/lpc_open/lpc_chip_43xx/src/uart_18xx_43xx.o
Chip_UART_ReadRB                                  examples_c/sapi/bluetooth/hm10_uart_bridge/out/libs/lpc_open/lpc_chip_43xx/src/uart_18xx_43xx.o
Chip_UART_Send                                    examples_c/sapi/bluetooth/hm10_uart_bridge/out/libs/lpc_open/lpc_chip_43xx/src/uart_18xx_43xx.o
                                                  examples_c/sapi/bluetooth/hm10_uart_bridge/out/libs/sapi/sapi_v0.5.2/soc/peripherals/usb/device/src/cdc_uart.o
Chip_UART_SendBlocking                            examples_c/sapi/bluetooth/hm10_uart_bridge/out/libs/lpc_open/lpc_chip_43xx/src/uart_18xx_43xx.o
Chip_UART_SendRB                                  examples_c/sapi/bluetooth/hm10_uart_bridge/out/libs/lpc_open/lpc_chip_43xx/src/uart_18xx_43xx.o
Chip_UART_SetBaud                                 examples_c/sapi/bluetooth/hm10_uart_bridge/out/libs/lpc_open/lpc_chip_43xx/src/uart_18xx_43xx.o
                                                  examples_c/sapi/bluetooth/hm10_uart_bridge/out/libs/sapi/sapi_v0.5.2/soc/peripherals/usb/device/src/cdc_uart.o
                                                  examples_c/sapi/bluetooth/hm10_uart_bridge/out/libs/sapi/sapi_v0.5.2/soc/peripherals/src/sapi_uart.o
Chip_UART_SetBaudFDR                              examples_c/sapi/bluetooth/hm10_uart_bridge/out/libs/lpc_open/lpc_chip_43xx/src/uart_18xx_43xx.o
                                                  examples_c/sapi/bluetooth/hm10_uart_bridge/out/libs/lpc_open/boards/edu_ciaa_nxp/src/board.o
Chip_UART_TXIntHandlerRB                          examples_c/sapi/bluetooth/hm10_uart_bridge/out/libs/lpc_open/lpc_chip_43xx/src/uart_18xx_43xx.o
Chip_USB0_Init                                    examples_c/sapi/bluetooth/hm10_uart_bridge/out/libs/lpc_open/lpc_chip_43xx/src/chip_18xx_43xx.o
                                                  examples_c/sapi/bluetooth/hm10_uart_bridge/out/libs/sapi/sapi_v0.5.2/soc/peripherals/usb/device/src/sapi_usb_device.o
Chip_USB1_Init                                    examples_c/sapi/bluetooth/hm10_uart_bridge/out/libs/lpc_open/lpc_chip_43xx/src/chip_18xx_43xx.o
Chip_WWDT_ClearStatusFlag                         examples_c/sapi/bluetooth/hm10_uart_bridge/out/libs/lpc_open/lpc_chip_43xx/src/wwdt_18xx_43xx.o
Chip_WWDT_DeInit                                  examples_c/sapi/bluetooth/hm10_uart_bridge/out/libs/lpc_open/lpc_chip_43xx/src/wwdt_18xx_43xx.o
Chip_WWDT_Init                                    examples_c/sapi/bluetooth/hm10_uart_bridge/out/libs/lpc_open/lpc_chip_43xx/src/wwdt_18xx_43xx.o
DAC_IRQHandler                                    examples_c/sapi/bluetooth/hm10_uart_bridge/out/libs/lpc_open/lpc_startup/src/vendor_interrupt.o
DMA_IRQHandler                                    examples_c/sapi/bluetooth/hm10_uart_bridge/out/libs/lpc_open/lpc_startup/src/vendor_interrupt.o
DebugMon_Handler                                  examples_c/sapi/bluetooth/hm10_uart_bridge/out/libs/cmsis_core//src/armv7m_startup.o
EP0_patch                                         examples_c/sapi/bluetooth/hm10_uart_bridge/out/libs/sapi/sapi_v0.5.2/soc/peripherals/usb/device/src/sapi_usb_device.o
ETH_IRQHandler                                    examples_c/sapi/bluetooth/hm10_uart_bridge/out/libs/lpc_open/lpc_startup/src/vendor_interrupt.o
EVRT_IRQHandler                                   examples_c/sapi/bluetooth/hm10_uart_bridge/out/libs/lpc_open/lpc_startup/src/vendor_interrupt.o
ExtRateIn                                         examples_c/sapi/bluetooth/hm10_uart_bridge/out/libs/lpc_open/boards/edu_ciaa_nxp/src/board.o
                                                  examples_c/sapi/bluetooth/hm10_uart_bridge/out/libs/lpc_open/lpc_chip_43xx/src/clock_18xx_43xx.o
FLASH_EEPROM_IRQHandler                           examples_c/sapi/bluetooth/hm10_uart_bridge/out/libs/lpc_open/lpc_startup/src/vendor_interrupt.o
GINT0_IRQHandler                                  examples_c/sapi/bluetooth/hm10_uart_bridge/out/libs/lpc_open/lpc_startup/src/vendor_interrupt.o
GINT1_IRQHandler                                  examples_c/sapi/bluetooth/hm10_uart_bridge/out/libs/lpc_open/lpc_startup/src/vendor_interrupt.o
GPIO0_IRQHandler                                  examples_c/sapi/bluetooth/hm10_uart_bridge/out/libs/sapi/sapi_v0.5.2/external_peripherals/src/sapi_ultrasonic_hcsr04.o
                                                  examples_c/sapi/bluetooth/hm10_uart_bridge/out/libs/lpc_open/lpc_startup/src/vendor_interrupt.o
GPIO1_IRQHandler                                  examples_c/sapi/bluetooth/hm10_uart_bridge/out/libs/sapi/sapi_v0.5.2/external_peripherals/src/sapi_ultrasonic_hcsr04.o
                                                  examples_c/sapi/bluetooth/hm10_uart_bridge/out/libs/lpc_open/lpc_startup/src/vendor_interrupt.o
GPIO2_IRQHandler                                  examples_c/sapi/bluetooth/hm10_uart_bridge/out/libs/sapi/sapi_v0.5.2/external_peripherals/src/sapi_ultrasonic_hcsr04.o
                                                  examples_c/sapi/bluetooth/hm10_uart_bridge/out/libs/lpc_open/lpc_startup/src/vendor_interrupt.o
GPIO3_IRQHandler                                  examples_c/sapi/bluetooth/hm10_uart_bridge/out/libs/lpc_open/lpc_startup/src/vendor_interrupt.o
GPIO4_IRQHandler                                  examples_c/sapi/bluetooth/hm10_uart_bridge/out/libs/lpc_open/lpc_startup/src/vendor_interrupt.o
GPIO5_IRQHandler                                  examples_c/sapi/bluetooth/hm10_uart_bridge/out/libs/lpc_open/lpc_startup/src/vendor_interrupt.o
GPIO6_IRQHandler                                  examples_c/sapi/bluetooth/hm10_uart_bridge/out/libs/lpc_open/lpc_startup/src/vendor_interrupt.o
GPIO7_IRQHandler                                  examples_c/sapi/bluetooth/hm10_uart_bridge/out/libs/lpc_open/lpc_startup/src/vendor_interrupt.o
HardFault_Handler                                 examples_c/sapi/bluetooth/hm10_uart_bridge/out/libs/cmsis_core//src/armv7m_startup.o
I2C0_IRQHandler                                   examples_c/sapi/bluetooth/hm10_uart_bridge/out/libs/lpc_open/lpc_startup/src/vendor_interrupt.o
I2C1_IRQHandler                                   examples_c/sapi/bluetooth/hm10_uart_bridge/out/libs/lpc_open/lpc_startup/src/vendor_interrupt.o
I2S0_IRQHandler                                   examples_c/sapi/bluetooth/hm10_uart_bridge/out/libs/lpc_open/lpc_startup/src/vendor_interrupt.o
I2S1_IRQHandler                                   examples_c/sapi/bluetooth/hm10_uart_bridge/out/libs/lpc_open/lpc_startup/src/vendor_interrupt.o
IntDefaultHandler                                 examples_c/sapi/bluetooth/hm10_uart_bridge/out/libs/lpc_open/lpc_startup/src/vendor_interrupt.o
Keyboard_ReportDescSize                           examples_c/sapi/bluetooth/hm10_uart_bridge/out/libs/sapi/sapi_v0.5.2/soc/peripherals/usb/device/src/usbd_keyboard.o
Keyboard_ReportDescriptor                         examples_c/sapi/bluetooth/hm10_uart_bridge/out/libs/sapi/sapi_v0.5.2/soc/peripherals/usb/device/src/usbd_keyboard.o
LCD_IRQHandler                                    examples_c/sapi/bluetooth/hm10_uart_bridge/out/libs/lpc_open/lpc_startup/src/vendor_interrupt.o
M0APP_IRQHandler                                  examples_c/sapi/bluetooth/hm10_uart_bridge/out/libs/lpc_open/lpc_startup/src/vendor_interrupt.o
M0SUB_IRQHandler                                  examples_c/sapi/bluetooth/hm10_uart_bridge/out/libs/lpc_open/lpc_startup/src/vendor_interrupt.o
MCPWM_IRQHandler                                  examples_c/sapi/bluetooth/hm10_uart_bridge/out/libs/lpc_open/lpc_startup/src/vendor_interrupt.o
MemManage_Handler                                 examples_c/sapi/bluetooth/hm10_uart_bridge/out/libs/cmsis_core//src/armv7m_startup.o
NMI_Handler                                       examples_c/sapi/bluetooth/hm10_uart_bridge/out/libs/cmsis_core//src/armv7m_startup.o
OscRateIn                                         examples_c/sapi/bluetooth/hm10_uart_bridge/out/libs/lpc_open/boards/edu_ciaa_nxp/src/board.o
                                                  examples_c/sapi/bluetooth/hm10_uart_bridge/out/libs/lpc_open/lpc_chip_43xx/src/clock_18xx_43xx.o
PendSV_Handler                                    examples_c/sapi/bluetooth/hm10_uart_bridge/out/libs/cmsis_core//src/armv7m_startup.o
QEI_IRQHandler                                    examples_c/sapi/bluetooth/hm10_uart_bridge/out/libs/lpc_open/lpc_startup/src/vendor_interrupt.o
RIT_IRQHandler                                    examples_c/sapi/bluetooth/hm10_uart_bridge/out/libs/lpc_open/lpc_startup/src/vendor_interrupt.o
RTC_IRQHandler                                    examples_c/sapi/bluetooth/hm10_uart_bridge/out/libs/lpc_open/lpc_startup/src/vendor_interrupt.o
Reset_Handler                                     examples_c/sapi/bluetooth/hm10_uart_bridge/out/libs/cmsis_core//src/armv7m_startup.o
RingBuffer_Init                                   examples_c/sapi/bluetooth/hm10_uart_bridge/out/libs/lpc_open/lpc_chip_43xx/src/ring_buffer.o
RingBuffer_Insert                                 examples_c/sapi/bluetooth/hm10_uart_bridge/out/libs/lpc_open/lpc_chip_43xx/src/ring_buffer.o
                                                  examples_c/sapi/bluetooth/hm10_uart_bridge/out/libs/lpc_open/lpc_chip_43xx/src/uart_18xx_43xx.o
RingBuffer_InsertMult                             examples_c/sapi/bluetooth/hm10_uart_bridge/out/libs/lpc_open/lpc_chip_43xx/src/ring_buffer.o
                                                  examples_c/sapi/bluetooth/hm10_uart_bridge/out/libs/lpc_open/lpc_chip_43xx/src/uart_18xx_43xx.o
RingBuffer_Pop                                    examples_c/sapi/bluetooth/hm10_uart_bridge/out/libs/lpc_open/lpc_chip_43xx/src/ring_buffer.o
                                                  examples_c/sapi/bluetooth/hm10_uart_bridge/out/libs/lpc_open/lpc_chip_43xx/src/uart_18xx_43xx.o
RingBuffer_PopMult                                examples_c/sapi/bluetooth/hm10_uart_bridge/out/libs/lpc_open/lpc_chip_43xx/src/ring_buffer.o
                                                  examples_c/sapi/bluetooth/hm10_uart_bridge/out/libs/lpc_open/lpc_chip_43xx/src/uart_18xx_43xx.o
SCT_IRQHandler                                    examples_c/sapi/bluetooth/hm10_uart_bridge/out/libs/lpc_open/lpc_startup/src/vendor_interrupt.o
SDIO_Card_DisableInt                              examples_c/sapi/bluetooth/hm10_uart_bridge/out/libs/lpc_open/lpc_chip_43xx/src/sdio_18xx_43xx.o
SDIO_Card_EnableInt                               examples_c/sapi/bluetooth/hm10_uart_bridge/out/libs/lpc_open/lpc_chip_43xx/src/sdio_18xx_43xx.o
SDIO_Card_GetBlockSize                            examples_c/sapi/bluetooth/hm10_uart_bridge/out/libs/lpc_open/lpc_chip_43xx/src/sdio_18xx_43xx.o
SDIO_Card_Init                                    examples_c/sapi/bluetooth/hm10_uart_bridge/out/libs/lpc_open/lpc_chip_43xx/src/sdio_18xx_43xx.o
SDIO_Card_ReadData                                examples_c/sapi/bluetooth/hm10_uart_bridge/out/libs/lpc_open/lpc_chip_43xx/src/sdio_18xx_43xx.o
SDIO_Card_SetBlockSize                            examples_c/sapi/bluetooth/hm10_uart_bridge/out/libs/lpc_open/lpc_chip_43xx/src/sdio_18xx_43xx.o
SDIO_Card_WriteData                               examples_c/sapi/bluetooth/hm10_uart_bridge/out/libs/lpc_open/lpc_chip_43xx/src/sdio_18xx_43xx.o
SDIO_Handler                                      examples_c/sapi/bluetooth/hm10_uart_bridge/out/libs/lpc_open/lpc_chip_43xx/src/sdio_18xx_43xx.o
SDIO_IRQHandler                                   examples_c/sapi/bluetooth/hm10_uart_bridge/out/libs/lpc_open/lpc_startup/src/vendor_interrupt.o
SDIO_Read_Direct                                  examples_c/sapi/bluetooth/hm10_uart_bridge/out/libs/lpc_open/lpc_chip_43xx/src/sdio_18xx_43xx.o
SDIO_Send_Command                                 examples_c/sapi/bluetooth/hm10_uart_bridge/out/libs/lpc_open/lpc_chip_43xx/src/sdio_18xx_43xx.o
SDIO_Setup_Callback                               examples_c/sapi/bluetooth/hm10_uart_bridge/out/libs/lpc_open/lpc_chip_43xx/src/sdio_18xx_43xx.o
SDIO_WriteRead_Direct                             examples_c/sapi/bluetooth/hm10_uart_bridge/out/libs/lpc_open/lpc_chip_43xx/src/sdio_18xx_43xx.o
SDIO_Write_Direct                                 examples_c/sapi/bluetooth/hm10_uart_bridge/out/libs/lpc_open/lpc_chip_43xx/src/sdio_18xx_43xx.o
SGPIO_IRQHandler                                  examples_c/sapi/bluetooth/hm10_uart_bridge/out/libs/lpc_open/lpc_startup/src/vendor_interrupt.o
SPIFI_IRQHandler                                  examples_c/sapi/bluetooth/hm10_uart_bridge/out/libs/lpc_open/lpc_startup/src/vendor_interrupt.o
SPI_IRQHandler                                    examples_c/sapi/bluetooth/hm10_uart_bridge/out/libs/lpc_open/lpc_startup/src/vendor_interrupt.o
SSP0_IRQHandler                                   examples_c/sapi/bluetooth/hm10_uart_bridge/out/libs/lpc_open/lpc_startup/src/vendor_interrupt.o
SSP1_IRQHandler                                   examples_c/sapi/bluetooth/hm10_uart_bridge/out/libs/lpc_open/lpc_startup/src/vendor_interrupt.o
SVC_Handler                                       examples_c/sapi/bluetooth/hm10_uart_bridge/out/libs/cmsis_core//src/armv7m_startup.o
Sct_EnablePwmFor                                  examples_c/sapi/bluetooth/hm10_uart_bridge/out/libs/sapi/sapi_v0.5.2/soc/peripherals/src/sapi_sct.o
                                                  examples_c/sapi/bluetooth/hm10_uart_bridge/out/libs/sapi/sapi_v0.5.2/soc/peripherals/src/sapi_pwm.o
Sct_GetDutyCycle                                  examples_c/sapi/bluetooth/hm10_uart_bridge/out/libs/sapi/sapi_v0.5.2/soc/peripherals/src/sapi_sct.o
                                                  examples_c/sapi/bluetooth/hm10_uart_bridge/out/libs/sapi/sapi_v0.5.2/soc/peripherals/src/sapi_pwm.o
Sct_Init                                          examples_c/sapi/bluetooth/hm10_uart_bridge/out/libs/sapi/sapi_v0.5.2/soc/peripherals/src/sapi_sct.o
                                                  examples_c/sapi/bluetooth/hm10_uart_bridge/out/libs/sapi/sapi_v0.5.2/soc/peripherals/src/sapi_pwm.o
Sct_SetDutyCycle                                  examples_c/sapi/bluetooth/hm10_uart_bridge/out/libs/sapi/sapi_v0.5.2/soc/peripherals/src/sapi_sct.o
                                                  examples_c/sapi/bluetooth/hm10_uart_bridge/out/libs/sapi/sapi_v0.5.2/soc/peripherals/src/sapi_pwm.o
Sct_Uint8ToTicks                                  examples_c/sapi/bluetooth/hm10_uart_bridge/out/libs/sapi/sapi_v0.5.2/soc/peripherals/src/sapi_sct.o
StopWatch_Init                                    examples_c/sapi/bluetooth/hm10_uart_bridge/out/libs/lpc_open/lpc_chip_43xx/src/stopwatch_18xx_43xx.o
StopWatch_MsToTicks                               examples_c/sapi/bluetooth/hm10_uart_bridge/out/libs/lpc_open/lpc_chip_43xx/src/stopwatch_18xx_43xx.o
StopWatch_Start                                   examples_c/sapi/bluetooth/hm10_uart_bridge/out/libs/lpc_open/lpc_chip_43xx/src/stopwatch_18xx_43xx.o
StopWatch_TicksPerSecond                          examples_c/sapi/bluetooth/hm10_uart_bridge/out/libs/lpc_open/lpc_chip_43xx/src/stopwatch_18xx_43xx.o
StopWatch_TicksToMs                               examples_c/sapi/bluetooth/hm10_uart_bridge/out/libs/lpc_open/lpc_chip_43xx/src/stopwatch_18xx_43xx.o
StopWatch_TicksToUs                               examples_c/sapi/bluetooth/hm10_uart_bridge/out/libs/lpc_open/lpc_chip_43xx/src/stopwatch_18xx_43xx.o
StopWatch_UsToTicks                               examples_c/sapi/bluetooth/hm10_uart_bridge/out/libs/lpc_open/lpc_chip_43xx/src/stopwatch_18xx_43xx.o
SysTick_Handler                                   examples_c/sapi/bluetooth/hm10_uart_bridge/out/libs/sapi/sapi_v0.5.2/soc/peripherals/src/sapi_tick.o
                                                  examples_c/sapi/bluetooth/hm10_uart_bridge/out/libs/cmsis_core//src/armv7m_startup.o
SystemCoreClock                                   examples_c/sapi/bluetooth/hm10_uart_bridge/out/libs/lpc_open/lpc_chip_43xx/src/chip_18xx_43xx.o
                                                  examples_c/sapi/bluetooth/hm10_uart_bridge/out/libs/sapi/sapi_v0.5.2/board/src/sapi_board.o
                                                  examples_c/sapi/bluetooth/hm10_uart_bridge/out/libs/sapi/sapi_v0.5.2/soc/peripherals/src/sapi_tick.o
                                                  examples_c/sapi/bluetooth/hm10_uart_bridge/out/libs/lpc_open/lpc_chip_43xx/src/enet_18xx_43xx.o
                                                  examples_c/sapi/bluetooth/hm10_uart_bridge/out/libs/lpc_open/lpc_chip_43xx/src/iap_18xx_43xx.o
SystemCoreClockUpdate                             examples_c/sapi/bluetooth/hm10_uart_bridge/out/libs/lpc_open/lpc_chip_43xx/src/chip_18xx_43xx.o
                                                  examples_c/sapi/bluetooth/hm10_uart_bridge/out/libs/sapi/sapi_v0.5.2/board/src/sapi_board.o
SystemInit                                        examples_c/sapi/bluetooth/hm10_uart_bridge/out/libs/lpc_open/lpc_startup/src/sysinit.o
                                                  examples_c/sapi/bluetooth/hm10_uart_bridge/out/libs/cmsis_core//src/armv7m_startup.o
TIMER0_IRQHandler                                 examples_c/sapi/bluetooth/hm10_uart_bridge/out/libs/lpc_open/lpc_startup/src/vendor_interrupt.o
TIMER1_IRQHandler                                 examples_c/sapi/bluetooth/hm10_uart_bridge/out/libs/lpc_open/lpc_startup/src/vendor_interrupt.o
TIMER2_IRQHandler                                 examples_c/sapi/bluetooth/hm10_uart_bridge/out/libs/lpc_open/lpc_startup/src/vendor_interrupt.o
TIMER3_IRQHandler                                 examples_c/sapi/bluetooth/hm10_uart_bridge/out/libs/lpc_open/lpc_startup/src/vendor_interrupt.o
Timer_DeInit                                      examples_c/sapi/bluetooth/hm10_uart_bridge/out/libs/sapi/sapi_v0.5.2/soc/peripherals/src/sapi_timer.o
Timer_DisableCompareMatch                         examples_c/sapi/bluetooth/hm10_uart_bridge/out/libs/sapi/sapi_v0.5.2/soc/peripherals/src/sapi_timer.o
                                                  examples_c/sapi/bluetooth/hm10_uart_bridge/out/libs/sapi/sapi_v0.5.2/external_peripherals/src/sapi_servo.o
Timer_EnableCompareMatch                          examples_c/sapi/bluetooth/hm10_uart_bridge/out/libs/sapi/sapi_v0.5.2/soc/peripherals/src/sapi_timer.o
                                                  examples_c/sapi/bluetooth/hm10_uart_bridge/out/libs/sapi/sapi_v0.5.2/external_peripherals/src/sapi_ultrasonic_hcsr04.o
                                                  examples_c/sapi/bluetooth/hm10_uart_bridge/out/libs/sapi/sapi_v0.5.2/external_peripherals/src/sapi_servo.o
