Archive member included to satisfy reference by file (symbol)

/home/mparamidani/CIAA/gcc-arm-none-eabi-7-2018-q2-update/bin/../lib/gcc/arm-none-eabi/7.3.1/thumb/v7e-m/fpv4-sp/hard/libgcc.a(_arm_addsubdf3.o)
                              examples_c/sapi/rtc/out/libs/sapi/sapi_v0.5.2/external_peripherals/src/sapi_imu_mpu9250.o (__aeabi_dadd)
/home/mparamidani/CIAA/gcc-arm-none-eabi-7-2018-q2-update/bin/../lib/gcc/arm-none-eabi/7.3.1/thumb/v7e-m/fpv4-sp/hard/libgcc.a(_arm_muldivdf3.o)
                              examples_c/sapi/rtc/out/libs/sapi/sapi_v0.5.2/soc/core/src/sapi_cyclesCounter.o (__aeabi_ddiv)
/home/mparamidani/CIAA/gcc-arm-none-eabi-7-2018-q2-update/bin/../lib/gcc/arm-none-eabi/7.3.1/thumb/v7e-m/fpv4-sp/hard/libgcc.a(_arm_truncdfsf2.o)
                              examples_c/sapi/rtc/out/libs/sapi/sapi_v0.5.2/soc/core/src/sapi_cyclesCounter.o (__aeabi_d2f)
/home/mparamidani/CIAA/gcc-arm-none-eabi-7-2018-q2-update/bin/../lib/gcc/arm-none-eabi/7.3.1/thumb/v7e-m/fpv4-sp/hard/libgcc.a(_aeabi_ldivmod.o)
                              examples_c/sapi/rtc/out/libs/sapi/sapi_v0.5.2/abstract_modules/src/sapi_convert.o (__aeabi_ldivmod)
/home/mparamidani/CIAA/gcc-arm-none-eabi-7-2018-q2-update/bin/../lib/gcc/arm-none-eabi/7.3.1/thumb/v7e-m/fpv4-sp/hard/libgcc.a(_aeabi_uldivmod.o)
                              examples_c/sapi/rtc/out/libs/lpc_open/lpc_chip_43xx/src/i2s_18xx_43xx.o (__aeabi_uldivmod)
/home/mparamidani/CIAA/gcc-arm-none-eabi-7-2018-q2-update/bin/../lib/gcc/arm-none-eabi/7.3.1/thumb/v7e-m/fpv4-sp/hard/libgcc.a(_udivmoddi4.o)
                              /home/mparamidani/CIAA/gcc-arm-none-eabi-7-2018-q2-update/bin/../lib/gcc/arm-none-eabi/7.3.1/thumb/v7e-m/fpv4-sp/hard/libgcc.a(_aeabi_ldivmod.o) (__udivmoddi4)
/home/mparamidani/CIAA/gcc-arm-none-eabi-7-2018-q2-update/bin/../lib/gcc/arm-none-eabi/7.3.1/thumb/v7e-m/fpv4-sp/hard/libgcc.a(_dvmd_tls.o)
                              /home/mparamidani/CIAA/gcc-arm-none-eabi-7-2018-q2-update/bin/../lib/gcc/arm-none-eabi/7.3.1/thumb/v7e-m/fpv4-sp/hard/libgcc.a(_aeabi_ldivmod.o) (__aeabi_ldiv0)
/home/mparamidani/CIAA/gcc-arm-none-eabi-7-2018-q2-update/bin/../lib/gcc/arm-none-eabi/7.3.1/../../../../arm-none-eabi/lib/thumb/v7e-m/fpv4-sp/hard/libc_nano.a(lib_a-init.o)
                              examples_c/sapi/rtc/out/libs/cmsis_core//src/armv7m_startup.o (__libc_init_array)
/home/mparamidani/CIAA/gcc-arm-none-eabi-7-2018-q2-update/bin/../lib/gcc/arm-none-eabi/7.3.1/../../../../arm-none-eabi/lib/thumb/v7e-m/fpv4-sp/hard/libc_nano.a(lib_a-memcpy-stub.o)
                              examples_c/sapi/rtc/out/libs/lpc_open/lpc_chip_43xx/src/ring_buffer.o (memcpy)
/home/mparamidani/CIAA/gcc-arm-none-eabi-7-2018-q2-update/bin/../lib/gcc/arm-none-eabi/7.3.1/../../../../arm-none-eabi/lib/thumb/v7e-m/fpv4-sp/hard/libc_nano.a(lib_a-memset.o)
                              examples_c/sapi/rtc/out/libs/lpc_open/lpc_chip_43xx/src/clock_18xx_43xx.o (memset)
/home/mparamidani/CIAA/gcc-arm-none-eabi-7-2018-q2-update/bin/../lib/gcc/arm-none-eabi/7.3.1/../../../../arm-none-eabi/lib/thumb/v7e-m/fpv4-sp/hard/libc_nano.a(lib_a-puts.o)
                              examples_c/sapi/rtc/out/libs/sapi/sapi_v0.5.2/soc/peripherals/usb/device/src/sapi_usb_device.o (puts)
/home/mparamidani/CIAA/gcc-arm-none-eabi-7-2018-q2-update/bin/../lib/gcc/arm-none-eabi/7.3.1/../../../../arm-none-eabi/lib/thumb/v7e-m/fpv4-sp/hard/libc_nano.a(lib_a-strcpy.o)
                              examples_c/sapi/rtc/out/libs/sapi/sapi_v0.5.2/external_peripherals/src/sapi_esp8266.o (strcpy)
/home/mparamidani/CIAA/gcc-arm-none-eabi-7-2018-q2-update/bin/../lib/gcc/arm-none-eabi/7.3.1/../../../../arm-none-eabi/lib/thumb/v7e-m/fpv4-sp/hard/libc_nano.a(lib_a-strlen.o)
                              examples_c/sapi/rtc/out/libs/sapi/sapi_v0.5.2/external_peripherals/src/sapi_esp8266.o (strlen)
/home/mparamidani/CIAA/gcc-arm-none-eabi-7-2018-q2-update/bin/../lib/gcc/arm-none-eabi/7.3.1/../../../../arm-none-eabi/lib/thumb/v7e-m/fpv4-sp/hard/libc_nano.a(lib_a-wbuf.o)
                              /home/mparamidani/CIAA/gcc-arm-none-eabi-7-2018-q2-update/bin/../lib/gcc/arm-none-eabi/7.3.1/../../../../arm-none-eabi/lib/thumb/v7e-m/fpv4-sp/hard/libc_nano.a(lib_a-puts.o) (__swbuf_r)
/home/mparamidani/CIAA/gcc-arm-none-eabi-7-2018-q2-update/bin/../lib/gcc/arm-none-eabi/7.3.1/../../../../arm-none-eabi/lib/thumb/v7e-m/fpv4-sp/hard/libc_nano.a(lib_a-wsetup.o)
                              /home/mparamidani/CIAA/gcc-arm-none-eabi-7-2018-q2-update/bin/../lib/gcc/arm-none-eabi/7.3.1/../../../../arm-none-eabi/lib/thumb/v7e-m/fpv4-sp/hard/libc_nano.a(lib_a-puts.o) (__swsetup_r)
/home/mparamidani/CIAA/gcc-arm-none-eabi-7-2018-q2-update/bin/../lib/gcc/arm-none-eabi/7.3.1/../../../../arm-none-eabi/lib/thumb/v7e-m/fpv4-sp/hard/libc_nano.a(lib_a-fflush.o)
                              /home/mparamidani/CIAA/gcc-arm-none-eabi-7-2018-q2-update/bin/../lib/gcc/arm-none-eabi/7.3.1/../../../../arm-none-eabi/lib/thumb/v7e-m/fpv4-sp/hard/libc_nano.a(lib_a-wbuf.o) (_fflush_r)
/home/mparamidani/CIAA/gcc-arm-none-eabi-7-2018-q2-update/bin/../lib/gcc/arm-none-eabi/7.3.1/../../../../arm-none-eabi/lib/thumb/v7e-m/fpv4-sp/hard/libc_nano.a(lib_a-findfp.o)
                              /home/mparamidani/CIAA/gcc-arm-none-eabi-7-2018-q2-update/bin/../lib/gcc/arm-none-eabi/7.3.1/../../../../arm-none-eabi/lib/thumb/v7e-m/fpv4-sp/hard/libc_nano.a(lib_a-puts.o) (__sinit)
/home/mparamidani/CIAA/gcc-arm-none-eabi-7-2018-q2-update/bin/../lib/gcc/arm-none-eabi/7.3.1/../../../../arm-none-eabi/lib/thumb/v7e-m/fpv4-sp/hard/libc_nano.a(lib_a-fwalk.o)
                              /home/mparamidani/CIAA/gcc-arm-none-eabi-7-2018-q2-update/bin/../lib/gcc/arm-none-eabi/7.3.1/../../../../arm-none-eabi/lib/thumb/v7e-m/fpv4-sp/hard/libc_nano.a(lib_a-findfp.o) (_fwalk)
/home/mparamidani/CIAA/gcc-arm-none-eabi-7-2018-q2-update/bin/../lib/gcc/arm-none-eabi/7.3.1/../../../../arm-none-eabi/lib/thumb/v7e-m/fpv4-sp/hard/libc_nano.a(lib_a-impure.o)
                              /home/mparamidani/CIAA/gcc-arm-none-eabi-7-2018-q2-update/bin/../lib/gcc/arm-none-eabi/7.3.1/../../../../arm-none-eabi/lib/thumb/v7e-m/fpv4-sp/hard/libc_nano.a(lib_a-fflush.o) (_global_impure_ptr)
/home/mparamidani/CIAA/gcc-arm-none-eabi-7-2018-q2-update/bin/../lib/gcc/arm-none-eabi/7.3.1/../../../../arm-none-eabi/lib/thumb/v7e-m/fpv4-sp/hard/libc_nano.a(lib_a-makebuf.o)
                              /home/mparamidani/CIAA/gcc-arm-none-eabi-7-2018-q2-update/bin/../lib/gcc/arm-none-eabi/7.3.1/../../../../arm-none-eabi/lib/thumb/v7e-m/fpv4-sp/hard/libc_nano.a(lib_a-wsetup.o) (__smakebuf_r)
/home/mparamidani/CIAA/gcc-arm-none-eabi-7-2018-q2-update/bin/../lib/gcc/arm-none-eabi/7.3.1/../../../../arm-none-eabi/lib/thumb/v7e-m/fpv4-sp/hard/libc_nano.a(lib_a-nano-freer.o)
                              /home/mparamidani/CIAA/gcc-arm-none-eabi-7-2018-q2-update/bin/../lib/gcc/arm-none-eabi/7.3.1/../../../../arm-none-eabi/lib/thumb/v7e-m/fpv4-sp/hard/libc_nano.a(lib_a-wsetup.o) (_free_r)
/home/mparamidani/CIAA/gcc-arm-none-eabi-7-2018-q2-update/bin/../lib/gcc/arm-none-eabi/7.3.1/../../../../arm-none-eabi/lib/thumb/v7e-m/fpv4-sp/hard/libc_nano.a(lib_a-nano-mallocr.o)
                              /home/mparamidani/CIAA/gcc-arm-none-eabi-7-2018-q2-update/bin/../lib/gcc/arm-none-eabi/7.3.1/../../../../arm-none-eabi/lib/thumb/v7e-m/fpv4-sp/hard/libc_nano.a(lib_a-findfp.o) (_malloc_r)
/home/mparamidani/CIAA/gcc-arm-none-eabi-7-2018-q2-update/bin/../lib/gcc/arm-none-eabi/7.3.1/../../../../arm-none-eabi/lib/thumb/v7e-m/fpv4-sp/hard/libc_nano.a(lib_a-stdio.o)
                              /home/mparamidani/CIAA/gcc-arm-none-eabi-7-2018-q2-update/bin/../lib/gcc/arm-none-eabi/7.3.1/../../../../arm-none-eabi/lib/thumb/v7e-m/fpv4-sp/hard/libc_nano.a(lib_a-findfp.o) (__sread)
/home/mparamidani/CIAA/gcc-arm-none-eabi-7-2018-q2-update/bin/../lib/gcc/arm-none-eabi/7.3.1/../../../../arm-none-eabi/lib/thumb/v7e-m/fpv4-sp/hard/libc_nano.a(lib_a-mlock.o)
                              /home/mparamidani/CIAA/gcc-arm-none-eabi-7-2018-q2-update/bin/../lib/gcc/arm-none-eabi/7.3.1/../../../../arm-none-eabi/lib/thumb/v7e-m/fpv4-sp/hard/libc_nano.a(lib_a-nano-freer.o) (__malloc_lock)

Allocating common symbols
Common symbol       size              file

dht11_timeout       0x4               examples_c/sapi/rtc/out/libs/sapi/sapi_v0.5.2/external_peripherals/src/sapi_dht11.o
dht11_timeout_max   0x4               examples_c/sapi/rtc/out/libs/sapi/sapi_v0.5.2/external_peripherals/src/sapi_dht11.o
SystemCoreClock     0x4               examples_c/sapi/rtc/out/libs/lpc_open/lpc_chip_43xx/src/chip_18xx_43xx.o
g_pUsbApi           0x4               examples_c/sapi/rtc/out/libs/sapi/sapi_v0.5.2/soc/peripherals/usb/device/src/sapi_usb_device.o
tickRateMS          0x8               examples_c/sapi/rtc/out/libs/sapi/sapi_v0.5.2/soc/peripherals/src/sapi_tick.o

Discarded input sections

 .group         0x0000000000000000        0xc examples_c/sapi/rtc/out/examples_c/sapi/rtc/src/rtc.o
 .group         0x0000000000000000        0xc examples_c/sapi/rtc/out/examples_c/sapi/rtc/src/rtc.o
 .group         0x0000000000000000        0xc examples_c/sapi/rtc/out/examples_c/sapi/rtc/src/rtc.o
 .group         0x0000000000000000        0xc examples_c/sapi/rtc/out/examples_c/sapi/rtc/src/rtc.o
 .group         0x0000000000000000        0xc examples_c/sapi/rtc/out/examples_c/sapi/rtc/src/rtc.o
 .group         0x0000000000000000        0xc examples_c/sapi/rtc/out/examples_c/sapi/rtc/src/rtc.o
 .group         0x0000000000000000        0xc examples_c/sapi/rtc/out/examples_c/sapi/rtc/src/rtc.o
 .group         0x0000000000000000        0xc examples_c/sapi/rtc/out/examples_c/sapi/rtc/src/rtc.o
 .group         0x0000000000000000        0xc examples_c/sapi/rtc/out/examples_c/sapi/rtc/src/rtc.o
 .group         0x0000000000000000        0xc examples_c/sapi/rtc/out/examples_c/sapi/rtc/src/rtc.o
 .group         0x0000000000000000        0xc examples_c/sapi/rtc/out/examples_c/sapi/rtc/src/rtc.o
 .group         0x0000000000000000        0xc examples_c/sapi/rtc/out/examples_c/sapi/rtc/src/rtc.o
 .group         0x0000000000000000        0xc examples_c/sapi/rtc/out/examples_c/sapi/rtc/src/rtc.o
 .group         0x0000000000000000        0xc examples_c/sapi/rtc/out/examples_c/sapi/rtc/src/rtc.o
 .group         0x0000000000000000        0xc examples_c/sapi/rtc/out/examples_c/sapi/rtc/src/rtc.o
 .group         0x0000000000000000        0xc examples_c/sapi/rtc/out/examples_c/sapi/rtc/src/rtc.o
 .group         0x0000000000000000        0xc examples_c/sapi/rtc/out/examples_c/sapi/rtc/src/rtc.o
 .group         0x0000000000000000        0xc examples_c/sapi/rtc/out/examples_c/sapi/rtc/src/rtc.o
Memory Configuration

Name             Origin             Length             Attributes
MFlashA512       0x000000001a000000 0x0000000000080000 xr
MFlashB512       0x000000001b000000 0x0000000000080000 xr
RamLoc32         0x0000000010000000 0x0000000000008000 xrw
RamLoc40         0x0000000010080000 0x000000000000a000 xrw
RamAHB32         0x0000000020000000 0x0000000000008000 xrw
RamAHB16         0x0000000020008000 0x0000000000004000 xrw
RamAHB_ETB16     0x000000002000c000 0x0000000000004000 xrw
*default*        0x0000000000000000 0xffffffffffffffff

Linker script and memory map

START GROUP
LOAD examples_c/sapi/rtc/out/examples_c/sapi/rtc/src/rtc.o
LOAD examples_c/sapi/rtc/out/libs/cmsis_core//src/armv7m_startup.o
LOAD examples_c/sapi/rtc/out/libs/sys_newlib//src/system.o
LOAD examples_c/sapi/rtc/out/libs/lpc_open/boards/edu_ciaa_nxp/src/board.o
LOAD examples_c/sapi/rtc/out/libs/lpc_open/boards/edu_ciaa_nxp/src/board_sysinit.o
LOAD examples_c/sapi/rtc/out/libs/lpc_open/lpc_chip_43xx/src/ccan_18xx_43xx.o
LOAD examples_c/sapi/rtc/out/libs/lpc_open/lpc_chip_43xx/src/gpiogroup_18xx_43xx.o
LOAD examples_c/sapi/rtc/out/libs/lpc_open/lpc_chip_43xx/src/ritimer_18xx_43xx.o
LOAD examples_c/sapi/rtc/out/libs/lpc_open/lpc_chip_43xx/src/i2s_18xx_43xx.o
LOAD examples_c/sapi/rtc/out/libs/lpc_open/lpc_chip_43xx/src/lcd_18xx_43xx.o
LOAD examples_c/sapi/rtc/out/libs/lpc_open/lpc_chip_43xx/src/uart_18xx_43xx.o
LOAD examples_c/sapi/rtc/out/libs/lpc_open/lpc_chip_43xx/src/adc_18xx_43xx.o
LOAD examples_c/sapi/rtc/out/libs/lpc_open/lpc_chip_43xx/src/clock_18xx_43xx.o
LOAD examples_c/sapi/rtc/out/libs/lpc_open/lpc_chip_43xx/src/chip_18xx_43xx.o
LOAD examples_c/sapi/rtc/out/libs/lpc_open/lpc_chip_43xx/src/pmc_18xx_43xx.o
LOAD examples_c/sapi/rtc/out/libs/lpc_open/lpc_chip_43xx/src/otp_18xx_43xx.o
LOAD examples_c/sapi/rtc/out/libs/lpc_open/lpc_chip_43xx/src/aes_18xx_43xx.o
LOAD examples_c/sapi/rtc/out/libs/lpc_open/lpc_chip_43xx/src/sysinit_18xx_43xx.o
LOAD examples_c/sapi/rtc/out/libs/lpc_open/lpc_chip_43xx/src/atimer_18xx_43xx.o
LOAD examples_c/sapi/rtc/out/libs/lpc_open/lpc_chip_43xx/src/stopwatch_18xx_43xx.o
LOAD examples_c/sapi/rtc/out/libs/lpc_open/lpc_chip_43xx/src/sdif_18xx_43xx.o
LOAD examples_c/sapi/rtc/out/libs/lpc_open/lpc_chip_43xx/src/timer_18xx_43xx.o
LOAD examples_c/sapi/rtc/out/libs/lpc_open/lpc_chip_43xx/src/iap_18xx_43xx.o
LOAD examples_c/sapi/rtc/out/libs/lpc_open/lpc_chip_43xx/src/wwdt_18xx_43xx.o
LOAD examples_c/sapi/rtc/out/libs/lpc_open/lpc_chip_43xx/src/ring_buffer.o
LOAD examples_c/sapi/rtc/out/libs/lpc_open/lpc_chip_43xx/src/i2cm_18xx_43xx.o
LOAD examples_c/sapi/rtc/out/libs/lpc_open/lpc_chip_43xx/src/pinint_18xx_43xx.o
LOAD examples_c/sapi/rtc/out/libs/lpc_open/lpc_chip_43xx/src/dac_18xx_43xx.o
LOAD examples_c/sapi/rtc/out/libs/lpc_open/lpc_chip_43xx/src/eeprom_18xx_43xx.o
LOAD examples_c/sapi/rtc/out/libs/lpc_open/lpc_chip_43xx/src/rtc_18xx_43xx.o
LOAD examples_c/sapi/rtc/out/libs/lpc_open/lpc_chip_43xx/src/sct_18xx_43xx.o
LOAD examples_c/sapi/rtc/out/libs/lpc_open/lpc_chip_43xx/src/emc_18xx_43xx.o
LOAD examples_c/sapi/rtc/out/libs/lpc_open/lpc_chip_43xx/src/sdmmc_18xx_43xx.o
LOAD examples_c/sapi/rtc/out/libs/lpc_open/lpc_chip_43xx/src/spi_18xx_43xx.o
LOAD examples_c/sapi/rtc/out/libs/lpc_open/lpc_chip_43xx/src/gpio_18xx_43xx.o
LOAD examples_c/sapi/rtc/out/libs/lpc_open/lpc_chip_43xx/src/i2c_18xx_43xx.o
LOAD examples_c/sapi/rtc/out/libs/lpc_open/lpc_chip_43xx/src/gpdma_18xx_43xx.o
LOAD examples_c/sapi/rtc/out/libs/lpc_open/lpc_chip_43xx/src/evrt_18xx_43xx.o
LOAD examples_c/sapi/rtc/out/libs/lpc_open/lpc_chip_43xx/src/sct_pwm_18xx_43xx.o
LOAD examples_c/sapi/rtc/out/libs/lpc_open/lpc_chip_43xx/src/sdio_18xx_43xx.o
LOAD examples_c/sapi/rtc/out/libs/lpc_open/lpc_chip_43xx/src/enet_18xx_43xx.o
LOAD examples_c/sapi/rtc/out/libs/lpc_open/lpc_chip_43xx/src/ssp_18xx_43xx.o
LOAD examples_c/sapi/rtc/out/libs/lpc_open/lpc_startup/src/crp.o
LOAD examples_c/sapi/rtc/out/libs/lpc_open/lpc_startup/src/sysinit.o
LOAD examples_c/sapi/rtc/out/libs/lpc_open/lpc_startup/src/vendor_interrupt.o
LOAD examples_c/sapi/rtc/out/libs/sapi/sapi_v0.5.2/base/src/sapi_datatypes.o
LOAD examples_c/sapi/rtc/out/libs/sapi/sapi_v0.5.2/soc/core/src/sapi_cyclesCounter.o
LOAD examples_c/sapi/rtc/out/libs/sapi/sapi_v0.5.2/soc/core/src/sapi_sleep.o
LOAD examples_c/sapi/rtc/out/libs/sapi/sapi_v0.5.2/soc/peripherals/src/sapi_dac.o
LOAD examples_c/sapi/rtc/out/libs/sapi/sapi_v0.5.2/soc/peripherals/src/sapi_uart.o
LOAD examples_c/sapi/rtc/out/libs/sapi/sapi_v0.5.2/soc/peripherals/src/sapi_spi.o
LOAD examples_c/sapi/rtc/out/libs/sapi/sapi_v0.5.2/soc/peripherals/src/sapi_pwm.o
LOAD examples_c/sapi/rtc/out/libs/sapi/sapi_v0.5.2/soc/peripherals/src/sapi_rtc.o
LOAD examples_c/sapi/rtc/out/libs/sapi/sapi_v0.5.2/soc/peripherals/src/sapi_tick.o
LOAD examples_c/sapi/rtc/out/libs/sapi/sapi_v0.5.2/soc/peripherals/src/sapi_sct.o
LOAD examples_c/sapi/rtc/out/libs/sapi/sapi_v0.5.2/soc/peripherals/src/sapi_i2c.o
LOAD examples_c/sapi/rtc/out/libs/sapi/sapi_v0.5.2/soc/peripherals/src/sapi_timer.o
LOAD examples_c/sapi/rtc/out/libs/sapi/sapi_v0.5.2/soc/peripherals/src/sapi_adc.o
LOAD examples_c/sapi/rtc/out/libs/sapi/sapi_v0.5.2/soc/peripherals/src/sapi_gpio.o
LOAD examples_c/sapi/rtc/out/libs/sapi/sapi_v0.5.2/soc/peripherals/usb/device/src/sapi_usb_device.o
LOAD examples_c/sapi/rtc/out/libs/sapi/sapi_v0.5.2/soc/peripherals/usb/device/src/usbd_keyboard.o
LOAD examples_c/sapi/rtc/out/libs/sapi/sapi_v0.5.2/soc/peripherals/usb/device/src/cdc_uart.o
LOAD examples_c/sapi/rtc/out/libs/sapi/sapi_v0.5.2/board/src/sapi_board.o
LOAD examples_c/sapi/rtc/out/libs/sapi/sapi_v0.5.2/abstract_modules/src/sapi_delay.o
LOAD examples_c/sapi/rtc/out/libs/sapi/sapi_v0.5.2/abstract_modules/src/sapi_circularBuffer.o
LOAD examples_c/sapi/rtc/out/libs/sapi/sapi_v0.5.2/abstract_modules/src/sapi_print.o
LOAD examples_c/sapi/rtc/out/libs/sapi/sapi_v0.5.2/abstract_modules/src/sapi_convert.o
LOAD examples_c/sapi/rtc/out/libs/sapi/sapi_v0.5.2/abstract_modules/src/sapi_stdio.o
LOAD examples_c/sapi/rtc/out/libs/sapi/sapi_v0.5.2/external_peripherals/src/sapi_7_segment_display.o
LOAD examples_c/sapi/rtc/out/libs/sapi/sapi_v0.5.2/external_peripherals/src/sapi_keypad.o
LOAD examples_c/sapi/rtc/out/libs/sapi/sapi_v0.5.2/external_peripherals/src/sapi_dht11.o
LOAD examples_c/sapi/rtc/out/libs/sapi/sapi_v0.5.2/external_peripherals/src/sapi_magnetometer_qmc5883l.o
LOAD examples_c/sapi/rtc/out/libs/sapi/sapi_v0.5.2/external_peripherals/src/sapi_lcd.o
LOAD examples_c/sapi/rtc/out/libs/sapi/sapi_v0.5.2/external_peripherals/src/sapi_servo.o
LOAD examples_c/sapi/rtc/out/libs/sapi/sapi_v0.5.2/external_peripherals/src/sapi_imu_mpu9250.o
LOAD examples_c/sapi/rtc/out/libs/sapi/sapi_v0.5.2/external_peripherals/src/sapi_esp8266.o
LOAD examples_c/sapi/rtc/out/libs/sapi/sapi_v0.5.2/external_peripherals/src/sapi_ultrasonic_hcsr04.o
LOAD examples_c/sapi/rtc/out/libs/sapi/sapi_v0.5.2/external_peripherals/src/sapi_rgb.o
LOAD examples_c/sapi/rtc/out/libs/sapi/sapi_v0.5.2/external_peripherals/src/sapi_magnetometer_hmc5883l.o
END GROUP
LOAD examples_c/sapi/rtc/out/libs/cmsis_dsp//lib//libarm_cortexM4lf_math.a
LOAD /home/mparamidani/CIAA/gcc-arm-none-eabi-7-2018-q2-update/bin/../lib/gcc/arm-none-eabi/7.3.1/../../../../arm-none-eabi/lib/thumb/v7e-m/fpv4-sp/hard/libstdc++_nano.a
LOAD /home/mparamidani/CIAA/gcc-arm-none-eabi-7-2018-q2-update/bin/../lib/gcc/arm-none-eabi/7.3.1/../../../../arm-none-eabi/lib/thumb/v7e-m/fpv4-sp/hard/libm.a
START GROUP
LOAD /home/mparamidani/CIAA/gcc-arm-none-eabi-7-2018-q2-update/bin/../lib/gcc/arm-none-eabi/7.3.1/thumb/v7e-m/fpv4-sp/hard/libgcc.a
LOAD /home/mparamidani/CIAA/gcc-arm-none-eabi-7-2018-q2-update/bin/../lib/gcc/arm-none-eabi/7.3.1/../../../../arm-none-eabi/lib/thumb/v7e-m/fpv4-sp/hard/libc_nano.a
END GROUP
START GROUP
LOAD /home/mparamidani/CIAA/gcc-arm-none-eabi-7-2018-q2-update/bin/../lib/gcc/arm-none-eabi/7.3.1/thumb/v7e-m/fpv4-sp/hard/libgcc.a
LOAD /home/mparamidani/CIAA/gcc-arm-none-eabi-7-2018-q2-update/bin/../lib/gcc/arm-none-eabi/7.3.1/../../../../arm-none-eabi/lib/thumb/v7e-m/fpv4-sp/hard/libc_nano.a
END GROUP
                0x000000001a080000                __top_MFlashA512 = 0x1a080000
                0x000000001b080000                __top_MFlashB512 = 0x1b080000
                0x0000000010008000                __top_RamLoc32 = 0x10008000
                0x000000001008a000                __top_RamLoc40 = 0x1008a000
                0x0000000020008000                __top_RamAHB32 = 0x20008000
                0x000000002000c000                __top_RamAHB16 = 0x2000c000
                0x0000000020010000                __top_RamAHB_ETB16 = 0x20010000
START GROUP
LOAD /home/mparamidani/CIAA/gcc-arm-none-eabi-7-2018-q2-update/bin/../lib/gcc/arm-none-eabi/7.3.1/thumb/v7e-m/fpv4-sp/hard/libgcc.a
LOAD /home/mparamidani/CIAA/gcc-arm-none-eabi-7-2018-q2-update/bin/../lib/gcc/arm-none-eabi/7.3.1/../../../../arm-none-eabi/lib/thumb/v7e-m/fpv4-sp/hard/libc.a
LOAD /home/mparamidani/CIAA/gcc-arm-none-eabi-7-2018-q2-update/bin/../lib/gcc/arm-none-eabi/7.3.1/../../../../arm-none-eabi/lib/thumb/v7e-m/fpv4-sp/hard/libm.a
END GROUP

.text_Flash2    0x000000001b000000        0x0
 FILL mask 0xff
 *(.text_Flash2*)
 *(.text_MFlashB512*)
 *(.text.$Flash2*)
 *(.text.$MFlashB512*)
 *(.rodata.$Flash2*)
 *(.rodata.$MFlashB512*)

.text           0x000000001a000000     0x2120
 FILL mask 0xff
                0x000000001a000000                __vectors_start__ = ABSOLUTE (.)
 *(.isr_vector)
 .isr_vector    0x000000001a000000       0x40 examples_c/sapi/rtc/out/libs/cmsis_core//src/armv7m_startup.o
                0x000000001a000000                g_pfnVectors
 *(.isr_vendor_vector)
 .isr_vendor_vector
                0x000000001a000040       0xd4 examples_c/sapi/rtc/out/libs/lpc_open/lpc_startup/src/vendor_interrupt.o
                0x000000001a000040                g_pfnVendorVectors
                0x000000001a000114                . = ALIGN (0x4)
                0x000000001a000114                __section_table_start = .
                0x000000001a000114                __data_section_table = .
                0x000000001a000114        0x4 LONG 0x1a00212c LOADADDR (.data)
                0x000000001a000118        0x4 LONG 0x10000000 ADDR (.data)
                0x000000001a00011c        0x4 LONG 0x84 SIZEOF (.data)
                0x000000001a000120        0x4 LONG 0x1a00212c LOADADDR (.data_RAM2)
                0x000000001a000124        0x4 LONG 0x10080000 ADDR (.data_RAM2)
                0x000000001a000128        0x4 LONG 0x0 SIZEOF (.data_RAM2)
                0x000000001a00012c        0x4 LONG 0x1a00212c LOADADDR (.data_RAM3)
                0x000000001a000130        0x4 LONG 0x20000000 ADDR (.data_RAM3)
                0x000000001a000134        0x4 LONG 0x0 SIZEOF (.data_RAM3)
                0x000000001a000138        0x4 LONG 0x1a00212c LOADADDR (.data_RAM4)
                0x000000001a00013c        0x4 LONG 0x20008000 ADDR (.data_RAM4)
                0x000000001a000140        0x4 LONG 0x0 SIZEOF (.data_RAM4)
                0x000000001a000144        0x4 LONG 0x1a00212c LOADADDR (.data_RAM5)
                0x000000001a000148        0x4 LONG 0x2000c000 ADDR (.data_RAM5)
                0x000000001a00014c        0x4 LONG 0x0 SIZEOF (.data_RAM5)
                0x000000001a000150                __data_section_table_end = .
                0x000000001a000150                __bss_section_table = .
                0x000000001a000150        0x4 LONG 0x10000088 ADDR (.bss)
                0x000000001a000154        0x4 LONG 0x44 SIZEOF (.bss)
                0x000000001a000158        0x4 LONG 0x10080000 ADDR (.bss_RAM2)
                0x000000001a00015c        0x4 LONG 0x0 SIZEOF (.bss_RAM2)
                0x000000001a000160        0x4 LONG 0x20000000 ADDR (.bss_RAM3)
                0x000000001a000164        0x4 LONG 0x0 SIZEOF (.bss_RAM3)
                0x000000001a000168        0x4 LONG 0x20008000 ADDR (.bss_RAM4)
                0x000000001a00016c        0x4 LONG 0x0 SIZEOF (.bss_RAM4)
                0x000000001a000170        0x4 LONG 0x2000c000 ADDR (.bss_RAM5)
                0x000000001a000174        0x4 LONG 0x0 SIZEOF (.bss_RAM5)
                0x000000001a000178                __bss_section_table_end = .
                0x000000001a000178                __section_table_end = .
 *(.after_vectors*)
 .after_vectors
                0x000000001a000178       0x42 examples_c/sapi/rtc/out/libs/cmsis_core//src/armv7m_startup.o
                0x000000001a000178                NMI_Handler
                0x000000001a00017a                HardFault_Handler
                0x000000001a00017c                MemManage_Handler
                0x000000001a00017e                BusFault_Handler
                0x000000001a000180                UsageFault_Handler
                0x000000001a000182                SVC_Handler
                0x000000001a000184                DebugMon_Handler
                0x000000001a000186                PendSV_Handler
                0x000000001a00018a                data_init
                0x000000001a0001a8                bss_init
 .after_vectors
                0x000000001a0001ba        0x2 examples_c/sapi/rtc/out/libs/lpc_open/lpc_startup/src/vendor_interrupt.o
                0x000000001a0001ba                TIMER2_IRQHandler
                0x000000001a0001ba                RIT_IRQHandler
                0x000000001a0001ba                ADCHS_IRQHandler
                0x000000001a0001ba                FLASH_EEPROM_IRQHandler
                0x000000001a0001ba                I2C0_IRQHandler
                0x000000001a0001ba                SDIO_IRQHandler
                0x000000001a0001ba                ATIMER_IRQHandler
                0x000000001a0001ba                I2C1_IRQHandler
                0x000000001a0001ba                UART1_IRQHandler
                0x000000001a0001ba                GPIO5_IRQHandler
                0x000000001a0001ba                CAN1_IRQHandler
                0x000000001a0001ba                USB1_IRQHandler
                0x000000001a0001ba                I2S0_IRQHandler
                0x000000001a0001ba                TIMER3_IRQHandler
                0x000000001a0001ba                UART0_IRQHandler
                0x000000001a0001ba                SGPIO_IRQHandler
                0x000000001a0001ba                ADC0_IRQHandler
                0x000000001a0001ba                GPIO6_IRQHandler
                0x000000001a0001ba                IntDefaultHandler
                0x000000001a0001ba                SSP0_IRQHandler
                0x000000001a0001ba                ADC1_IRQHandler
                0x000000001a0001ba                RTC_IRQHandler
                0x000000001a0001ba                TIMER0_IRQHandler
                0x000000001a0001ba                SPI_IRQHandler
                0x000000001a0001ba                LCD_IRQHandler
                0x000000001a0001ba                TIMER1_IRQHandler
                0x000000001a0001ba                UART2_IRQHandler
                0x000000001a0001ba                I2S1_IRQHandler
                0x000000001a0001ba                SSP1_IRQHandler
                0x000000001a0001ba                GPIO3_IRQHandler
                0x000000001a0001ba                SCT_IRQHandler
                0x000000001a0001ba                WDT_IRQHandler
                0x000000001a0001ba                GPIO7_IRQHandler
                0x000000001a0001ba                SPIFI_IRQHandler
                0x000000001a0001ba                QEI_IRQHandler
                0x000000001a0001ba                ETH_IRQHandler
                0x000000001a0001ba                CAN0_IRQHandler
                0x000000001a0001ba                GINT0_IRQHandler
                0x000000001a0001ba                DAC_IRQHandler
                0x000000001a0001ba                M0SUB_IRQHandler
                0x000000001a0001ba                DMA_IRQHandler
                0x000000001a0001ba                EVRT_IRQHandler
                0x000000001a0001ba                UART3_IRQHandler
                0x000000001a0001ba                MCPWM_IRQHandler
                0x000000001a0001ba                M0APP_IRQHandler
                0x000000001a0001ba                GINT1_IRQHandler
                0x000000001a0001ba                GPIO4_IRQHandler
                0x00000000000002fc                . = 0x2fc
 *fill*         0x000000001a0001bc      0x140 ff
                0x000000001a0002fc                PROVIDE (__CRP_WORD_START__ = .)
 *(.crp)
 .crp           0x000000001a0002fc        0x4 examples_c/sapi/rtc/out/libs/lpc_open/lpc_startup/src/crp.o
                0x000000001a0002fc                CRP_WORD
                0x000000001a000300                PROVIDE (__CRP_WORD_END__ = .)
                0x0000000000000001                ASSERT (! ((__CRP_WORD_START__ == __CRP_WORD_END__)), Linker CRP Enabled, but no CRP_WORD provided within application)
 *(.text*)
 .text.itoa     0x000000001a000300       0x68 examples_c/sapi/rtc/out/examples_c/sapi/rtc/src/rtc.o
                0x000000001a000300                itoa
 .text.showDateAndTime
                0x000000001a000368      0x118 examples_c/sapi/rtc/out/examples_c/sapi/rtc/src/rtc.o
                0x000000001a000368                showDateAndTime
 .text.main     0x000000001a000480       0xc4 examples_c/sapi/rtc/out/examples_c/sapi/rtc/src/rtc.o
                0x000000001a000480                main
 .text.initialise_monitor_handles
                0x000000001a000544        0x2 examples_c/sapi/rtc/out/libs/cmsis_core//src/armv7m_startup.o
                0x000000001a000544                initialise_monitor_handles
 *fill*         0x000000001a000546        0x2 ff
 .text.Reset_Handler
                0x000000001a000548       0x88 examples_c/sapi/rtc/out/libs/cmsis_core//src/armv7m_startup.o
                0x000000001a000548                Reset_Handler
 .text._fini    0x000000001a0005d0        0x2 examples_c/sapi/rtc/out/libs/cmsis_core//src/armv7m_startup.o
                0x000000001a0005d0                _fini
 .text._init    0x000000001a0005d2        0x2 examples_c/sapi/rtc/out/libs/cmsis_core//src/armv7m_startup.o
                0x000000001a0005d2                _init
 .text.Board_LED_Init
                0x000000001a0005d4       0x44 examples_c/sapi/rtc/out/libs/lpc_open/boards/edu_ciaa_nxp/src/board.o
 .text.Board_TEC_Init
                0x000000001a000618       0x40 examples_c/sapi/rtc/out/libs/lpc_open/boards/edu_ciaa_nxp/src/board.o
 .text.Board_GPIO_Init
                0x000000001a000658       0x40 examples_c/sapi/rtc/out/libs/lpc_open/boards/edu_ciaa_nxp/src/board.o
 .text.Board_ADC_Init
                0x000000001a000698       0x30 examples_c/sapi/rtc/out/libs/lpc_open/boards/edu_ciaa_nxp/src/board.o
 .text.Board_SPI_Init
                0x000000001a0006c8       0x38 examples_c/sapi/rtc/out/libs/lpc_open/boards/edu_ciaa_nxp/src/board.o
 .text.Board_I2C_Init
                0x000000001a000700       0x24 examples_c/sapi/rtc/out/libs/lpc_open/boards/edu_ciaa_nxp/src/board.o
 .text.Board_Debug_Init
                0x000000001a000724       0x24 examples_c/sapi/rtc/out/libs/lpc_open/boards/edu_ciaa_nxp/src/board.o
                0x000000001a000724                Board_Debug_Init
 .text.Board_Init
                0x000000001a000748       0x2c examples_c/sapi/rtc/out/libs/lpc_open/boards/edu_ciaa_nxp/src/board.o
                0x000000001a000748                Board_Init
 .text.__stdio_init
                0x000000001a000774        0x8 examples_c/sapi/rtc/out/libs/lpc_open/boards/edu_ciaa_nxp/src/board.o
                0x000000001a000774                __stdio_init
 .text.Board_SetupMuxing
                0x000000001a00077c       0x38 examples_c/sapi/rtc/out/libs/lpc_open/boards/edu_ciaa_nxp/src/board_sysinit.o
                0x000000001a00077c                Board_SetupMuxing
 .text.Board_SetupClocking
                0x000000001a0007b4       0x6c examples_c/sapi/rtc/out/libs/lpc_open/boards/edu_ciaa_nxp/src/board_sysinit.o
                0x000000001a0007b4                Board_SetupClocking
 .text.Board_SystemInit
                0x000000001a000820        0xc examples_c/sapi/rtc/out/libs/lpc_open/boards/edu_ciaa_nxp/src/board_sysinit.o
                0x000000001a000820                Board_SystemInit
 .text.Chip_UART_GetIndex
                0x000000001a00082c       0x2c examples_c/sapi/rtc/out/libs/lpc_open/lpc_chip_43xx/src/uart_18xx_43xx.o
 .text.Chip_UART_Init
                0x000000001a000858       0x54 examples_c/sapi/rtc/out/libs/lpc_open/lpc_chip_43xx/src/uart_18xx_43xx.o
                0x000000001a000858                Chip_UART_Init
 .text.Chip_UART_SetBaud
                0x000000001a0008ac       0x40 examples_c/sapi/rtc/out/libs/lpc_open/lpc_chip_43xx/src/uart_18xx_43xx.o
                0x000000001a0008ac                Chip_UART_SetBaud
 .text.Chip_UART_SetBaudFDR
                0x000000001a0008ec       0xe8 examples_c/sapi/rtc/out/libs/lpc_open/lpc_chip_43xx/src/uart_18xx_43xx.o
                0x000000001a0008ec                Chip_UART_SetBaudFDR
 .text.Chip_ADC_GetClockIndex
                0x000000001a0009d4       0x14 examples_c/sapi/rtc/out/libs/lpc_open/lpc_chip_43xx/src/adc_18xx_43xx.o
 .text.getClkDiv
                0x000000001a0009e8       0x32 examples_c/sapi/rtc/out/libs/lpc_open/lpc_chip_43xx/src/adc_18xx_43xx.o
 *fill*         0x000000001a000a1a        0x2 ff
 .text.Chip_ADC_Init
                0x000000001a000a1c       0x40 examples_c/sapi/rtc/out/libs/lpc_open/lpc_chip_43xx/src/adc_18xx_43xx.o
                0x000000001a000a1c                Chip_ADC_Init
 .text.Chip_ADC_SetSampleRate
                0x000000001a000a5c       0x32 examples_c/sapi/rtc/out/libs/lpc_open/lpc_chip_43xx/src/adc_18xx_43xx.o
                0x000000001a000a5c                Chip_ADC_SetSampleRate
 .text.Chip_ADC_SetResolution
                0x000000001a000a8e        0xc examples_c/sapi/rtc/out/libs/lpc_open/lpc_chip_43xx/src/adc_18xx_43xx.o
                0x000000001a000a8e                Chip_ADC_SetResolution
 *fill*         0x000000001a000a9a        0x2 ff
 .text.pll_calc_divs
                0x000000001a000a9c       0xa4 examples_c/sapi/rtc/out/libs/lpc_open/lpc_chip_43xx/src/clock_18xx_43xx.o
 .text.pll_get_frac
                0x000000001a000b40      0x10c examples_c/sapi/rtc/out/libs/lpc_open/lpc_chip_43xx/src/clock_18xx_43xx.o
 .text.Chip_Clock_FindBaseClock
                0x000000001a000c4c       0x4c examples_c/sapi/rtc/out/libs/lpc_open/lpc_chip_43xx/src/clock_18xx_43xx.o
 .text.Chip_Clock_EnableCrystal
                0x000000001a000c98       0x4c examples_c/sapi/rtc/out/libs/lpc_open/lpc_chip_43xx/src/clock_18xx_43xx.o
                0x000000001a000c98                Chip_Clock_EnableCrystal
 .text.Chip_Clock_GetDividerSource
                0x000000001a000ce4       0x1c examples_c/sapi/rtc/out/libs/lpc_open/lpc_chip_43xx/src/clock_18xx_43xx.o
                0x000000001a000ce4                Chip_Clock_GetDividerSource
 .text.Chip_Clock_GetDividerDivisor
                0x000000001a000d00       0x1c examples_c/sapi/rtc/out/libs/lpc_open/lpc_chip_43xx/src/clock_18xx_43xx.o
                0x000000001a000d00                Chip_Clock_GetDividerDivisor
 .text.Chip_Clock_GetClockInputHz
                0x000000001a000d1c       0xb8 examples_c/sapi/rtc/out/libs/lpc_open/lpc_chip_43xx/src/clock_18xx_43xx.o
                0x000000001a000d1c                Chip_Clock_GetClockInputHz
 .text.Chip_Clock_CalcMainPLLValue
                0x000000001a000dd4       0x80 examples_c/sapi/rtc/out/libs/lpc_open/lpc_chip_43xx/src/clock_18xx_43xx.o
                0x000000001a000dd4                Chip_Clock_CalcMainPLLValue
 .text.Chip_Clock_GetMainPLLHz
                0x000000001a000e54       0x6c examples_c/sapi/rtc/out/libs/lpc_open/lpc_chip_43xx/src/clock_18xx_43xx.o
                0x000000001a000e54                Chip_Clock_GetMainPLLHz
 .text.Chip_Clock_GetDivRate
                0x000000001a000ec0       0x22 examples_c/sapi/rtc/out/libs/lpc_open/lpc_chip_43xx/src/clock_18xx_43xx.o
 *fill*         0x000000001a000ee2        0x2 ff
 .text.Chip_Clock_SetBaseClock
                0x000000001a000ee4       0x58 examples_c/sapi/rtc/out/libs/lpc_open/lpc_chip_43xx/src/clock_18xx_43xx.o
                0x000000001a000ee4                Chip_Clock_SetBaseClock
 .text.Chip_Clock_GetBaseClock
                0x000000001a000f3c       0x26 examples_c/sapi/rtc/out/libs/lpc_open/lpc_chip_43xx/src/clock_18xx_43xx.o
                0x000000001a000f3c                Chip_Clock_GetBaseClock
 .text.Chip_Clock_GetBaseClocktHz
                0x000000001a000f62        0xc examples_c/sapi/rtc/out/libs/lpc_open/lpc_chip_43xx/src/clock_18xx_43xx.o
                0x000000001a000f62                Chip_Clock_GetBaseClocktHz
 *fill*         0x000000001a000f6e        0x2 ff
 .text.Chip_Clock_EnableOpts
                0x000000001a000f70       0x3c examples_c/sapi/rtc/out/libs/lpc_open/lpc_chip_43xx/src/clock_18xx_43xx.o
                0x000000001a000f70                Chip_Clock_EnableOpts
 .text.Chip_Clock_Enable
                0x000000001a000fac       0x34 examples_c/sapi/rtc/out/libs/lpc_open/lpc_chip_43xx/src/clock_18xx_43xx.o
                0x000000001a000fac                Chip_Clock_Enable
 .text.Chip_Clock_RTCEnable
                0x000000001a000fe0       0x18 examples_c/sapi/rtc/out/libs/lpc_open/lpc_chip_43xx/src/clock_18xx_43xx.o
                0x000000001a000fe0                Chip_Clock_RTCEnable
 .text.Chip_Clock_GetRate
                0x000000001a000ff8       0x4c examples_c/sapi/rtc/out/libs/lpc_open/lpc_chip_43xx/src/clock_18xx_43xx.o
                0x000000001a000ff8                Chip_Clock_GetRate
 .text.SystemCoreClockUpdate
                0x000000001a001044       0x14 examples_c/sapi/rtc/out/libs/lpc_open/lpc_chip_43xx/src/chip_18xx_43xx.o
                0x000000001a001044                SystemCoreClockUpdate
 .text.Chip_SetupCoreClock
                0x000000001a001058      0x154 examples_c/sapi/rtc/out/libs/lpc_open/lpc_chip_43xx/src/sysinit_18xx_43xx.o
                0x000000001a001058                Chip_SetupCoreClock
 .text.Chip_RTC_ResetClockTickCounter
                0x000000001a0011ac       0x22 examples_c/sapi/rtc/out/libs/lpc_open/lpc_chip_43xx/src/rtc_18xx_43xx.o
                0x000000001a0011ac                Chip_RTC_ResetClockTickCounter
 .text.Chip_RTC_Enable
                0x000000001a0011ce       0x18 examples_c/sapi/rtc/out/libs/lpc_open/lpc_chip_43xx/src/rtc_18xx_43xx.o
                0x000000001a0011ce                Chip_RTC_Enable
 .text.Chip_RTC_SetFullTime
                0x000000001a0011e6       0x2e examples_c/sapi/rtc/out/libs/lpc_open/lpc_chip_43xx/src/rtc_18xx_43xx.o
                0x000000001a0011e6                Chip_RTC_SetFullTime
 .text.Chip_RTC_GetFullTime
                0x000000001a001214       0x2e examples_c/sapi/rtc/out/libs/lpc_open/lpc_chip_43xx/src/rtc_18xx_43xx.o
                0x000000001a001214                Chip_RTC_GetFullTime
 .text.Chip_RTC_CalibCounterCmd
                0x000000001a001242       0x20 examples_c/sapi/rtc/out/libs/lpc_open/lpc_chip_43xx/src/rtc_18xx_43xx.o
                0x000000001a001242                Chip_RTC_CalibCounterCmd
 *fill*         0x000000001a001262        0x2 ff
 .text.Chip_RTC_Init
                0x000000001a001264       0x48 examples_c/sapi/rtc/out/libs/lpc_open/lpc_chip_43xx/src/rtc_18xx_43xx.o
                0x000000001a001264                Chip_RTC_Init
 .text.Chip_GPIO_Init
                0x000000001a0012ac        0x2 examples_c/sapi/rtc/out/libs/lpc_open/lpc_chip_43xx/src/gpio_18xx_43xx.o
                0x000000001a0012ac                Chip_GPIO_Init
 *fill*         0x000000001a0012ae        0x2 ff
 .text.Chip_I2C_EventHandler
                0x000000001a0012b0       0x20 examples_c/sapi/rtc/out/libs/lpc_open/lpc_chip_43xx/src/i2c_18xx_43xx.o
                0x000000001a0012b0                Chip_I2C_EventHandler
 .text.Chip_I2C_Init
                0x000000001a0012d0       0x24 examples_c/sapi/rtc/out/libs/lpc_open/lpc_chip_43xx/src/i2c_18xx_43xx.o
                0x000000001a0012d0                Chip_I2C_Init
 .text.Chip_I2C_SetClockRate
                0x000000001a0012f4       0x38 examples_c/sapi/rtc/out/libs/lpc_open/lpc_chip_43xx/src/i2c_18xx_43xx.o
                0x000000001a0012f4                Chip_I2C_SetClockRate
 .text.Chip_SSP_GetClockIndex
                0x000000001a00132c       0x14 examples_c/sapi/rtc/out/libs/lpc_open/lpc_chip_43xx/src/ssp_18xx_43xx.o
 .text.Chip_SSP_GetPeriphClockIndex
                0x000000001a001340       0x18 examples_c/sapi/rtc/out/libs/lpc_open/lpc_chip_43xx/src/ssp_18xx_43xx.o
 .text.Chip_SSP_SetClockRate
                0x000000001a001358       0x12 examples_c/sapi/rtc/out/libs/lpc_open/lpc_chip_43xx/src/ssp_18xx_43xx.o
                0x000000001a001358                Chip_SSP_SetClockRate
 .text.Chip_SSP_SetBitRate
                0x000000001a00136a       0x3e examples_c/sapi/rtc/out/libs/lpc_open/lpc_chip_43xx/src/ssp_18xx_43xx.o
                0x000000001a00136a                Chip_SSP_SetBitRate
 .text.Chip_SSP_Init
                0x000000001a0013a8       0x38 examples_c/sapi/rtc/out/libs/lpc_open/lpc_chip_43xx/src/ssp_18xx_43xx.o
                0x000000001a0013a8                Chip_SSP_Init
 .text.SystemInit
                0x000000001a0013e0       0x38 examples_c/sapi/rtc/out/libs/lpc_open/lpc_startup/src/sysinit.o
                0x000000001a0013e0                SystemInit
 .text.cyclesCounterInit
                0x000000001a001418       0x1c examples_c/sapi/rtc/out/libs/sapi/sapi_v0.5.2/soc/core/src/sapi_cyclesCounter.o
                0x000000001a001418                cyclesCounterInit
 .text.uartTxReady
                0x000000001a001434       0x18 examples_c/sapi/rtc/out/libs/sapi/sapi_v0.5.2/soc/peripherals/src/sapi_uart.o
                0x000000001a001434                uartTxReady
 .text.uartTxWrite
                0x000000001a00144c       0x14 examples_c/sapi/rtc/out/libs/sapi/sapi_v0.5.2/soc/peripherals/src/sapi_uart.o
                0x000000001a00144c                uartTxWrite
 .text.uartInit
                0x000000001a001460       0x7c examples_c/sapi/rtc/out/libs/sapi/sapi_v0.5.2/soc/peripherals/src/sapi_uart.o
                0x000000001a001460                uartInit
 .text.uartWriteByte
                0x000000001a0014dc       0x1a examples_c/sapi/rtc/out/libs/sapi/sapi_v0.5.2/soc/peripherals/src/sapi_uart.o
                0x000000001a0014dc                uartWriteByte
 .text.uartWriteString
                0x000000001a0014f6       0x18 examples_c/sapi/rtc/out/libs/sapi/sapi_v0.5.2/soc/peripherals/src/sapi_uart.o
                0x000000001a0014f6                uartWriteString
 *fill*         0x000000001a00150e        0x2 ff
 .text.rtcRead  0x000000001a001510       0x34 examples_c/sapi/rtc/out/libs/sapi/sapi_v0.5.2/soc/peripherals/src/sapi_rtc.o
                0x000000001a001510                rtcRead
 .text.rtcWrite
                0x000000001a001544       0x30 examples_c/sapi/rtc/out/libs/sapi/sapi_v0.5.2/soc/peripherals/src/sapi_rtc.o
                0x000000001a001544                rtcWrite
 .text.rtcInit  0x000000001a001574       0x34 examples_c/sapi/rtc/out/libs/sapi/sapi_v0.5.2/soc/peripherals/src/sapi_rtc.o
                0x000000001a001574                rtcInit
 .text.tickRead
                0x000000001a0015a8        0xc examples_c/sapi/rtc/out/libs/sapi/sapi_v0.5.2/soc/peripherals/src/sapi_tick.o
                0x000000001a0015a8                tickRead
 .text.tickPowerSet
                0x000000001a0015b4       0x18 examples_c/sapi/rtc/out/libs/sapi/sapi_v0.5.2/soc/peripherals/src/sapi_tick.o
                0x000000001a0015b4                tickPowerSet
 .text.tickInit
                0x000000001a0015cc       0x7c examples_c/sapi/rtc/out/libs/sapi/sapi_v0.5.2/soc/peripherals/src/sapi_tick.o
                0x000000001a0015cc                tickInit
 .text.SysTick_Handler
                0x000000001a001648       0x34 examples_c/sapi/rtc/out/libs/sapi/sapi_v0.5.2/soc/peripherals/src/sapi_tick.o
                0x000000001a001648                SysTick_Handler
 .text.gpioObtainPinInit
                0x000000001a00167c       0x34 examples_c/sapi/rtc/out/libs/sapi/sapi_v0.5.2/soc/peripherals/src/sapi_gpio.o
 .text.gpioInit
                0x000000001a0016b0      0x194 examples_c/sapi/rtc/out/libs/sapi/sapi_v0.5.2/soc/peripherals/src/sapi_gpio.o
                0x000000001a0016b0                gpioInit
 .text.USB0_IRQHandler
                0x000000001a001844       0x1c examples_c/sapi/rtc/out/libs/sapi/sapi_v0.5.2/soc/peripherals/usb/device/src/sapi_usb_device.o
                0x000000001a001844                USB0_IRQHandler
 .text.boardInit
                0x000000001a001860       0xf4 examples_c/sapi/rtc/out/libs/sapi/sapi_v0.5.2/board/src/sapi_board.o
                0x000000001a001860                boardInit
 .text.delay    0x000000001a001954       0x38 examples_c/sapi/rtc/out/libs/sapi/sapi_v0.5.2/abstract_modules/src/sapi_delay.o
                0x000000001a001954                delay
 .text.delayInit
                0x000000001a00198c       0x20 examples_c/sapi/rtc/out/libs/sapi/sapi_v0.5.2/abstract_modules/src/sapi_delay.o
                0x000000001a00198c                delayInit
 .text.delayRead
                0x000000001a0019ac       0x42 examples_c/sapi/rtc/out/libs/sapi/sapi_v0.5.2/abstract_modules/src/sapi_delay.o
                0x000000001a0019ac                delayRead
 *fill*         0x000000001a0019ee        0x2 ff
 .text.clearInterrupt
                0x000000001a0019f0       0x10 examples_c/sapi/rtc/out/libs/sapi/sapi_v0.5.2/external_peripherals/src/sapi_ultrasonic_hcsr04.o
 .text.serveInterrupt
                0x000000001a001a00       0x5c examples_c/sapi/rtc/out/libs/sapi/sapi_v0.5.2/external_peripherals/src/sapi_ultrasonic_hcsr04.o
 .text.GPIO0_IRQHandler
                0x000000001a001a5c        0xa examples_c/sapi/rtc/out/libs/sapi/sapi_v0.5.2/external_peripherals/src/sapi_ultrasonic_hcsr04.o
                0x000000001a001a5c                GPIO0_IRQHandler
 .text.GPIO1_IRQHandler
                0x000000001a001a66        0xa examples_c/sapi/rtc/out/libs/sapi/sapi_v0.5.2/external_peripherals/src/sapi_ultrasonic_hcsr04.o
                0x000000001a001a66                GPIO1_IRQHandler
 .text.GPIO2_IRQHandler
                0x000000001a001a70        0xa examples_c/sapi/rtc/out/libs/sapi/sapi_v0.5.2/external_peripherals/src/sapi_ultrasonic_hcsr04.o
                0x000000001a001a70                GPIO2_IRQHandler
 *fill*         0x000000001a001a7a        0x2 ff
 .text          0x000000001a001a7c       0x30 /home/mparamidani/CIAA/gcc-arm-none-eabi-7-2018-q2-update/bin/../lib/gcc/arm-none-eabi/7.3.1/thumb/v7e-m/fpv4-sp/hard/libgcc.a(_aeabi_uldivmod.o)
                0x000000001a001a7c                __aeabi_uldivmod
 .text          0x000000001a001aac      0x2cc /home/mparamidani/CIAA/gcc-arm-none-eabi-7-2018-q2-update/bin/../lib/gcc/arm-none-eabi/7.3.1/thumb/v7e-m/fpv4-sp/hard/libgcc.a(_udivmoddi4.o)
                0x000000001a001aac                __udivmoddi4
 .text          0x000000001a001d78        0x4 /home/mparamidani/CIAA/gcc-arm-none-eabi-7-2018-q2-update/bin/../lib/gcc/arm-none-eabi/7.3.1/thumb/v7e-m/fpv4-sp/hard/libgcc.a(_dvmd_tls.o)
                0x000000001a001d78                __aeabi_ldiv0
                0x000000001a001d78                __aeabi_idiv0
 .text.__libc_init_array
                0x000000001a001d7c       0x48 /home/mparamidani/CIAA/gcc-arm-none-eabi-7-2018-q2-update/bin/../lib/gcc/arm-none-eabi/7.3.1/../../../../arm-none-eabi/lib/thumb/v7e-m/fpv4-sp/hard/libc_nano.a(lib_a-init.o)
                0x000000001a001d7c                __libc_init_array
 .text.memset   0x000000001a001dc4       0x10 /home/mparamidani/CIAA/gcc-arm-none-eabi-7-2018-q2-update/bin/../lib/gcc/arm-none-eabi/7.3.1/../../../../arm-none-eabi/lib/thumb/v7e-m/fpv4-sp/hard/libc_nano.a(lib_a-memset.o)
                0x000000001a001dc4                memset
 *(.rodata .rodata.* .constdata .constdata.*)
 .rodata.itoa.str1.4
                0x000000001a001dd4       0x48 examples_c/sapi/rtc/out/examples_c/sapi/rtc/src/rtc.o
 .rodata.showDateAndTime.str1.4
                0x000000001a001e1c        0x7 examples_c/sapi/rtc/out/examples_c/sapi/rtc/src/rtc.o
 *fill*         0x000000001a001e23        0x1 ff
 .rodata.ExtRateIn
                0x000000001a001e24        0x4 examples_c/sapi/rtc/out/libs/lpc_open/boards/edu_ciaa_nxp/src/board.o
                0x000000001a001e24                ExtRateIn
 .rodata.GpioButtons
                0x000000001a001e28        0x8 examples_c/sapi/rtc/out/libs/lpc_open/boards/edu_ciaa_nxp/src/board.o
 .rodata.GpioLeds
                0x000000001a001e30        0xc examples_c/sapi/rtc/out/libs/lpc_open/boards/edu_ciaa_nxp/src/board.o
 .rodata.GpioPorts
                0x000000001a001e3c       0x12 examples_c/sapi/rtc/out/libs/lpc_open/boards/edu_ciaa_nxp/src/board.o
 *fill*         0x000000001a001e4e        0x2 ff
 .rodata.OscRateIn
                0x000000001a001e50        0x4 examples_c/sapi/rtc/out/libs/lpc_open/boards/edu_ciaa_nxp/src/board.o
                0x000000001a001e50                OscRateIn
 .rodata.InitClkStates
                0x000000001a001e54        0x4 examples_c/sapi/rtc/out/libs/lpc_open/boards/edu_ciaa_nxp/src/board_sysinit.o
 .rodata.pinmuxing
                0x000000001a001e58       0x74 examples_c/sapi/rtc/out/libs/lpc_open/boards/edu_ciaa_nxp/src/board_sysinit.o
 .rodata.UART_BClock
                0x000000001a001ecc        0x8 examples_c/sapi/rtc/out/libs/lpc_open/lpc_chip_43xx/src/uart_18xx_43xx.o
 .rodata.UART_PClock
                0x000000001a001ed4        0x8 examples_c/sapi/rtc/out/libs/lpc_open/lpc_chip_43xx/src/uart_18xx_43xx.o
 .rodata        0x000000001a001edc        0x4 examples_c/sapi/rtc/out/libs/lpc_open/lpc_chip_43xx/src/clock_18xx_43xx.o
 .rodata.Chip_Clock_SetDivider.str1.4
                0x000000001a001ee0        0x8 examples_c/sapi/rtc/out/libs/lpc_open/lpc_chip_43xx/src/clock_18xx_43xx.o
                                          0x6 (size before relaxing)
 .rodata.periph_to_base
                0x000000001a001ee8       0x6c examples_c/sapi/rtc/out/libs/lpc_open/lpc_chip_43xx/src/clock_18xx_43xx.o
 .rodata.InitClkStates
                0x000000001a001f54       0x48 examples_c/sapi/rtc/out/libs/lpc_open/lpc_chip_43xx/src/sysinit_18xx_43xx.o
 .rodata.lpcUarts
                0x000000001a001f9c       0x48 examples_c/sapi/rtc/out/libs/sapi/sapi_v0.5.2/soc/peripherals/src/sapi_uart.o
 .rodata.gpioPinsInit
                0x000000001a001fe4      0x136 examples_c/sapi/rtc/out/libs/sapi/sapi_v0.5.2/soc/peripherals/src/sapi_gpio.o
                0x000000001a001fe4                gpioPinsInit
 *fill*         0x000000001a00211a        0x2 ff
 .rodata.ultrasonicSensorsIrqMap
                0x000000001a00211c        0x3 examples_c/sapi/rtc/out/libs/sapi/sapi_v0.5.2/external_peripherals/src/sapi_ultrasonic_hcsr04.o
                0x000000001a002120                . = ALIGN (0x4)
 *fill*         0x000000001a00211f        0x1 ff

.glue_7         0x000000001a002120        0x0
 .glue_7        0x000000001a002120        0x0 linker stubs

.glue_7t        0x000000001a002120        0x0
 .glue_7t       0x000000001a002120        0x0 linker stubs

.vfp11_veneer   0x000000001a002120        0x0
 .vfp11_veneer  0x000000001a002120        0x0 linker stubs

.v4_bx          0x000000001a002120        0x0
 .v4_bx         0x000000001a002120        0x0 linker stubs

.iplt           0x000000001a002120        0x0
 .iplt          0x000000001a002120        0x0 examples_c/sapi/rtc/out/examples_c/sapi/rtc/src/rtc.o
                0x000000001a002120                . = ALIGN (0x4)

.preinit_array  0x000000001a002120        0x0
                0x000000001a002120                PROVIDE (__preinit_array_start = .)
 *(.preinit_array*)
                0x000000001a002120                PROVIDE (__preinit_array_end = .)

.init_array     0x000000001a002120        0x4
                0x000000001a002120                PROVIDE (__init_array_start = .)
 *(SORT_BY_NAME(.init_array.*))
 *(.init_array*)
 .init_array    0x000000001a002120        0x4 examples_c/sapi/rtc/out/libs/sys_newlib//src/system.o
                0x000000001a002124                PROVIDE (__init_array_end = .)
                0x000000001a002124                . = ALIGN (0x4)

.ARM.extab
 *(.ARM.extab* .gnu.linkonce.armextab.*)
                0x000000001a002124                __exidx_start = .

.ARM.exidx      0x000000001a002124        0x8
 *(.ARM.exidx* .gnu.linkonce.armexidx.*)
 .ARM.exidx     0x000000001a002124        0x8 /home/mparamidani/CIAA/gcc-arm-none-eabi-7-2018-q2-update/bin/../lib/gcc/arm-none-eabi/7.3.1/thumb/v7e-m/fpv4-sp/hard/libgcc.a(_udivmoddi4.o)
                0x000000001a00212c                __exidx_end = .
                0x000000001a00212c                _etext = .

.rel.dyn        0x000000001a00212c        0x0
 .rel.iplt      0x000000001a00212c        0x0 examples_c/sapi/rtc/out/examples_c/sapi/rtc/src/rtc.o

.data_RAM2      0x0000000010080000        0x0 load address 0x000000001a00212c
 FILL mask 0xff
 *(.ramfunc.$RAM2)
 *(.ramfunc.$RamLoc40)
 *(.data.$RAM2*)
 *(.data.$RamLoc40*)
                0x0000000010080000                . = ALIGN (0x4)

.data_RAM3      0x0000000020000000        0x0 load address 0x000000001a00212c
 FILL mask 0xff
 *(.ramfunc.$RAM3)
 *(.ramfunc.$RamAHB32)
 *(.data.$RAM3*)
 *(.data.$RamAHB32*)
                0x0000000020000000                . = ALIGN (0x4)

.data_RAM4      0x0000000020008000        0x0 load address 0x000000001a00212c
 FILL mask 0xff
 *(.ramfunc.$RAM4)
 *(.ramfunc.$RamAHB16)
 *(.data.$RAM4*)
 *(.data.$RamAHB16*)
                0x0000000020008000                . = ALIGN (0x4)

.data_RAM5      0x000000002000c000        0x0 load address 0x000000001a00212c
 FILL mask 0xff
 *(.ramfunc.$RAM5)
 *(.ramfunc.$RamAHB_ETB16)
 *(.data.$RAM5*)
 *(.data.$RamAHB_ETB16*)
                0x000000002000c000                . = ALIGN (0x4)

.uninit_RESERVED
                0x0000000010000000        0x0
 *(.bss.$RESERVED*)
                0x0000000010000000                . = ALIGN (0x4)
                0x0000000010000000                _end_uninit_RESERVED = .

.data           0x0000000010000000       0x84 load address 0x000000001a00212c
 FILL mask 0xff
                0x0000000010000000                _data = .
 *(vtable)
 *(.ramfunc*)
 *(.data*)
 .data.i2c      0x0000000010000000       0x38 examples_c/sapi/rtc/out/libs/lpc_open/lpc_chip_43xx/src/i2c_18xx_43xx.o
 .data.ClockSpeed
                0x0000000010000038        0x4 examples_c/sapi/rtc/out/libs/sapi/sapi_v0.5.2/soc/core/src/sapi_cyclesCounter.o
 .data.ultrasonicSensors
                0x000000001000003c       0x48 examples_c/sapi/rtc/out/libs/sapi/sapi_v0.5.2/external_peripherals/src/sapi_ultrasonic_hcsr04.o
                0x0000000010000084                . = ALIGN (0x4)
                0x0000000010000084                _edata = .

.igot.plt       0x0000000010000084        0x0 load address 0x000000001a0021b0
 .igot.plt      0x0000000010000084        0x0 examples_c/sapi/rtc/out/examples_c/sapi/rtc/src/rtc.o

.bss_RAM2       0x0000000010080000        0x0
 *(.bss.$RAM2*)
 *(.bss.$RamLoc40*)
                0x0000000010080000                . = ALIGN (0x4)

.bss_RAM3       0x0000000020000000        0x0
 *(.bss.$RAM3*)
 *(.bss.$RamAHB32*)
                0x0000000020000000                . = ALIGN (0x4)

.bss_RAM4       0x0000000020008000        0x0
 *(.bss.$RAM4*)
 *(.bss.$RamAHB16*)
                0x0000000020008000                . = ALIGN (0x4)

.bss_RAM5       0x000000002000c000        0x0
 *(.bss.$RAM5*)
 *(.bss.$RamAHB_ETB16*)
                0x000000002000c000                . = ALIGN (0x4)

.bss            0x0000000010000088       0x44
                0x0000000010000088                _bss = .
 *(.bss*)
 .bss.uartBuff  0x0000000010000088        0xa examples_c/sapi/rtc/out/examples_c/sapi/rtc/src/rtc.o
 *fill*         0x0000000010000092        0x2 
 .bss.audio_usb_pll_freq
                0x0000000010000094        0x8 examples_c/sapi/rtc/out/libs/lpc_open/lpc_chip_43xx/src/clock_18xx_43xx.o
 .bss.init.11552
                0x000000001000009c        0x1 examples_c/sapi/rtc/out/libs/sapi/sapi_v0.5.2/soc/peripherals/src/sapi_rtc.o
 *fill*         0x000000001000009d        0x3 
 .bss.callBackFuncParams
                0x00000000100000a0        0x4 examples_c/sapi/rtc/out/libs/sapi/sapi_v0.5.2/soc/peripherals/src/sapi_tick.o
 *fill*         0x00000000100000a4        0x4 
 .bss.tickCounter
                0x00000000100000a8        0x8 examples_c/sapi/rtc/out/libs/sapi/sapi_v0.5.2/soc/peripherals/src/sapi_tick.o
 .bss.tickHookFunction
                0x00000000100000b0        0x4 examples_c/sapi/rtc/out/libs/sapi/sapi_v0.5.2/soc/peripherals/src/sapi_tick.o
 .bss.g_hUsb    0x00000000100000b4        0x4 examples_c/sapi/rtc/out/libs/sapi/sapi_v0.5.2/soc/peripherals/usb/device/src/sapi_usb_device.o
 *(COMMON)
 COMMON         0x00000000100000b8        0x4 examples_c/sapi/rtc/out/libs/lpc_open/lpc_chip_43xx/src/chip_18xx_43xx.o
                0x00000000100000b8                SystemCoreClock
 *fill*         0x00000000100000bc        0x4 
 COMMON         0x00000000100000c0        0x8 examples_c/sapi/rtc/out/libs/sapi/sapi_v0.5.2/soc/peripherals/src/sapi_tick.o
                0x00000000100000c0                tickRateMS
 COMMON         0x00000000100000c8        0x4 examples_c/sapi/rtc/out/libs/sapi/sapi_v0.5.2/soc/peripherals/usb/device/src/sapi_usb_device.o
                0x00000000100000c8                g_pUsbApi
                0x00000000100000cc                . = ALIGN (0x4)
                0x00000000100000cc                _ebss = .
                [!provide]                        PROVIDE (end = .)

.noinit_RAM2    0x0000000010080000        0x0
 *(.noinit.$RAM2*)
 *(.noinit.$RamLoc40*)
                0x0000000010080000                . = ALIGN (0x4)

.noinit_RAM3    0x0000000020000000        0x0
 *(.noinit.$RAM3*)
 *(.noinit.$RamAHB32*)
                0x0000000020000000                . = ALIGN (0x4)

.noinit_RAM4    0x0000000020008000        0x0
 *(.noinit.$RAM4*)
 *(.noinit.$RamAHB16*)
                0x0000000020008000                . = ALIGN (0x4)

.noinit_RAM5    0x000000002000c000        0x0
 *(.noinit.$RAM5*)
 *(.noinit.$RamAHB_ETB16*)
                0x000000002000c000                . = ALIGN (0x4)

.noinit         0x00000000100000cc        0x0
                0x00000000100000cc                _noinit = .
 *(.noinit*)
                0x00000000100000cc                . = ALIGN (0x4)
                0x00000000100000cc                _end_noinit = .
                0x00000000100000cc                PROVIDE (_pvHeapStart = .)
                0x0000000010008000                PROVIDE (_vStackTop = (__top_RamLoc32 - 0x0))
                0xffffffff53ff7346                PROVIDE (__valid_user_code_checksum = (0x0 - ((((((_vStackTop + (Reset_Handler + 0x1)) + (NMI_Handler + 0x1)) + (HardFault_Handler + 0x1)) + (DEFINED (MemManage_Handler)?MemManage_Handler:0x0 + 0x1)) + (DEFINED (BusFault_Handler)?BusFault_Handler:0x0 + 0x1)) + (DEFINED (UsageFault_Handler)?UsageFault_Handler:0x0 + 0x1))))
OUTPUT(examples_c/sapi/rtc/out/rtc.elf elf32-littlearm)

.debug_info     0x0000000000000000    0x1d355
 .debug_info    0x0000000000000000     0x28ac examples_c/sapi/rtc/out/examples_c/sapi/rtc/src/rtc.o
 .debug_info    0x00000000000028ac      0x301 examples_c/sapi/rtc/out/libs/cmsis_core//src/armv7m_startup.o
 .debug_info    0x0000000000002bad      0xf43 examples_c/sapi/rtc/out/libs/sys_newlib//src/system.o
 .debug_info    0x0000000000003af0     0x2130 examples_c/sapi/rtc/out/libs/lpc_open/boards/edu_ciaa_nxp/src/board.o
 .debug_info    0x0000000000005c20     0x14c3 examples_c/sapi/rtc/out/libs/lpc_open/boards/edu_ciaa_nxp/src/board_sysinit.o
 .debug_info    0x00000000000070e3     0x164f examples_c/sapi/rtc/out/libs/lpc_open/lpc_chip_43xx/src/uart_18xx_43xx.o
 .debug_info    0x0000000000008732      0xaef examples_c/sapi/rtc/out/libs/lpc_open/lpc_chip_43xx/src/adc_18xx_43xx.o
 .debug_info    0x0000000000009221     0x18ed examples_c/sapi/rtc/out/libs/lpc_open/lpc_chip_43xx/src/clock_18xx_43xx.o
 .debug_info    0x000000000000ab0e      0xc3d examples_c/sapi/rtc/out/libs/lpc_open/lpc_chip_43xx/src/chip_18xx_43xx.o
 .debug_info    0x000000000000b74b      0xab0 examples_c/sapi/rtc/out/libs/lpc_open/lpc_chip_43xx/src/sysinit_18xx_43xx.o
 .debug_info    0x000000000000c1fb      0x74e examples_c/sapi/rtc/out/libs/lpc_open/lpc_chip_43xx/src/rtc_18xx_43xx.o
 .debug_info    0x000000000000c949      0x219 examples_c/sapi/rtc/out/libs/lpc_open/lpc_chip_43xx/src/gpio_18xx_43xx.o
 .debug_info    0x000000000000cb62     0x1366 examples_c/sapi/rtc/out/libs/lpc_open/lpc_chip_43xx/src/i2c_18xx_43xx.o
 .debug_info    0x000000000000dec8     0x1606 examples_c/sapi/rtc/out/libs/lpc_open/lpc_chip_43xx/src/ssp_18xx_43xx.o
 .debug_info    0x000000000000f4ce       0x3f examples_c/sapi/rtc/out/libs/lpc_open/lpc_startup/src/crp.o
 .debug_info    0x000000000000f50d      0xbbd examples_c/sapi/rtc/out/libs/lpc_open/lpc_startup/src/sysinit.o
 .debug_info    0x00000000000100ca       0x74 examples_c/sapi/rtc/out/libs/lpc_open/lpc_startup/src/vendor_interrupt.o
 .debug_info    0x000000000001013e      0xeaf examples_c/sapi/rtc/out/libs/sapi/sapi_v0.5.2/soc/core/src/sapi_cyclesCounter.o
 .debug_info    0x0000000000010fed     0x1d45 examples_c/sapi/rtc/out/libs/sapi/sapi_v0.5.2/soc/peripherals/src/sapi_uart.o
 .debug_info    0x0000000000012d32      0xce4 examples_c/sapi/rtc/out/libs/sapi/sapi_v0.5.2/soc/peripherals/src/sapi_rtc.o
 .debug_info    0x0000000000013a16     0x14a2 examples_c/sapi/rtc/out/libs/sapi/sapi_v0.5.2/soc/peripherals/src/sapi_tick.o
 .debug_info    0x0000000000014eb8     0x1a90 examples_c/sapi/rtc/out/libs/sapi/sapi_v0.5.2/soc/peripherals/src/sapi_gpio.o
 .debug_info    0x0000000000016948     0x330e examples_c/sapi/rtc/out/libs/sapi/sapi_v0.5.2/soc/peripherals/usb/device/src/sapi_usb_device.o
 .debug_info    0x0000000000019c56      0xdb2 examples_c/sapi/rtc/out/libs/sapi/sapi_v0.5.2/board/src/sapi_board.o
 .debug_info    0x000000000001aa08      0xb14 examples_c/sapi/rtc/out/libs/sapi/sapi_v0.5.2/abstract_modules/src/sapi_delay.o
 .debug_info    0x000000000001b51c     0x1e39 examples_c/sapi/rtc/out/libs/sapi/sapi_v0.5.2/external_peripherals/src/sapi_ultrasonic_hcsr04.o

.debug_abbrev   0x0000000000000000     0x42c4
 .debug_abbrev  0x0000000000000000      0x30b examples_c/sapi/rtc/out/examples_c/sapi/rtc/src/rtc.o
 .debug_abbrev  0x000000000000030b      0x10d examples_c/sapi/rtc/out/libs/cmsis_core//src/armv7m_startup.o
 .debug_abbrev  0x0000000000000418      0x2b7 examples_c/sapi/rtc/out/libs/sys_newlib//src/system.o
 .debug_abbrev  0x00000000000006cf      0x47e examples_c/sapi/rtc/out/libs/lpc_open/boards/edu_ciaa_nxp/src/board.o
 .debug_abbrev  0x0000000000000b4d      0x2f8 examples_c/sapi/rtc/out/libs/lpc_open/boards/edu_ciaa_nxp/src/board_sysinit.o
 .debug_abbrev  0x0000000000000e45      0x3b7 examples_c/sapi/rtc/out/libs/lpc_open/lpc_chip_43xx/src/uart_18xx_43xx.o
 .debug_abbrev  0x00000000000011fc      0x1f9 examples_c/sapi/rtc/out/libs/lpc_open/lpc_chip_43xx/src/adc_18xx_43xx.o
 .debug_abbrev  0x00000000000013f5      0x379 examples_c/sapi/rtc/out/libs/lpc_open/lpc_chip_43xx/src/clock_18xx_43xx.o
 .debug_abbrev  0x000000000000176e      0x1c3 examples_c/sapi/rtc/out/libs/lpc_open/lpc_chip_43xx/src/chip_18xx_43xx.o
 .debug_abbrev  0x0000000000001931      0x203 examples_c/sapi/rtc/out/libs/lpc_open/lpc_chip_43xx/src/sysinit_18xx_43xx.o
 .debug_abbrev  0x0000000000001b34      0x1cc examples_c/sapi/rtc/out/libs/lpc_open/lpc_chip_43xx/src/rtc_18xx_43xx.o
 .debug_abbrev  0x0000000000001d00      0x100 examples_c/sapi/rtc/out/libs/lpc_open/lpc_chip_43xx/src/gpio_18xx_43xx.o
 .debug_abbrev  0x0000000000001e00      0x344 examples_c/sapi/rtc/out/libs/lpc_open/lpc_chip_43xx/src/i2c_18xx_43xx.o
 .debug_abbrev  0x0000000000002144      0x352 examples_c/sapi/rtc/out/libs/lpc_open/lpc_chip_43xx/src/ssp_18xx_43xx.o
 .debug_abbrev  0x0000000000002496       0x36 examples_c/sapi/rtc/out/libs/lpc_open/lpc_startup/src/crp.o
 .debug_abbrev  0x00000000000024cc      0x221 examples_c/sapi/rtc/out/libs/lpc_open/lpc_startup/src/sysinit.o
 .debug_abbrev  0x00000000000026ed       0x74 examples_c/sapi/rtc/out/libs/lpc_open/lpc_startup/src/vendor_interrupt.o
 .debug_abbrev  0x0000000000002761      0x232 examples_c/sapi/rtc/out/libs/sapi/sapi_v0.5.2/soc/core/src/sapi_cyclesCounter.o
 .debug_abbrev  0x0000000000002993      0x3e2 examples_c/sapi/rtc/out/libs/sapi/sapi_v0.5.2/soc/peripherals/src/sapi_uart.o
 .debug_abbrev  0x0000000000002d75      0x240 examples_c/sapi/rtc/out/libs/sapi/sapi_v0.5.2/soc/peripherals/src/sapi_rtc.o
 .debug_abbrev  0x0000000000002fb5      0x368 examples_c/sapi/rtc/out/libs/sapi/sapi_v0.5.2/soc/peripherals/src/sapi_tick.o
 .debug_abbrev  0x000000000000331d      0x389 examples_c/sapi/rtc/out/libs/sapi/sapi_v0.5.2/soc/peripherals/src/sapi_gpio.o
 .debug_abbrev  0x00000000000036a6      0x3d9 examples_c/sapi/rtc/out/libs/sapi/sapi_v0.5.2/soc/peripherals/usb/device/src/sapi_usb_device.o
 .debug_abbrev  0x0000000000003a7f      0x216 examples_c/sapi/rtc/out/libs/sapi/sapi_v0.5.2/board/src/sapi_board.o
 .debug_abbrev  0x0000000000003c95      0x241 examples_c/sapi/rtc/out/libs/sapi/sapi_v0.5.2/abstract_modules/src/sapi_delay.o
 .debug_abbrev  0x0000000000003ed6      0x3ee examples_c/sapi/rtc/out/libs/sapi/sapi_v0.5.2/external_peripherals/src/sapi_ultrasonic_hcsr04.o

.debug_loc      0x0000000000000000     0x6f5b
 .debug_loc     0x0000000000000000      0x187 examples_c/sapi/rtc/out/examples_c/sapi/rtc/src/rtc.o
 .debug_loc     0x0000000000000187      0x206 examples_c/sapi/rtc/out/libs/cmsis_core//src/armv7m_startup.o
 .debug_loc     0x000000000000038d      0x586 examples_c/sapi/rtc/out/libs/sys_newlib//src/system.o
 .debug_loc     0x0000000000000913      0x5b0 examples_c/sapi/rtc/out/libs/lpc_open/boards/edu_ciaa_nxp/src/board.o
 .debug_loc     0x0000000000000ec3       0xf5 examples_c/sapi/rtc/out/libs/lpc_open/boards/edu_ciaa_nxp/src/board_sysinit.o
 .debug_loc     0x0000000000000fb8      0xd25 examples_c/sapi/rtc/out/libs/lpc_open/lpc_chip_43xx/src/uart_18xx_43xx.o
 .debug_loc     0x0000000000001cdd      0x67e examples_c/sapi/rtc/out/libs/lpc_open/lpc_chip_43xx/src/adc_18xx_43xx.o
 .debug_loc     0x000000000000235b     0x123c examples_c/sapi/rtc/out/libs/lpc_open/lpc_chip_43xx/src/clock_18xx_43xx.o
 .debug_loc     0x0000000000003597      0x1b5 examples_c/sapi/rtc/out/libs/lpc_open/lpc_chip_43xx/src/sysinit_18xx_43xx.o
 .debug_loc     0x000000000000374c      0x196 examples_c/sapi/rtc/out/libs/lpc_open/lpc_chip_43xx/src/rtc_18xx_43xx.o
 .debug_loc     0x00000000000038e2      0xc9a examples_c/sapi/rtc/out/libs/lpc_open/lpc_chip_43xx/src/i2c_18xx_43xx.o
 .debug_loc     0x000000000000457c      0xd56 examples_c/sapi/rtc/out/libs/lpc_open/lpc_chip_43xx/src/ssp_18xx_43xx.o
 .debug_loc     0x00000000000052d2       0x13 examples_c/sapi/rtc/out/libs/lpc_open/lpc_startup/src/sysinit.o
 .debug_loc     0x00000000000052e5       0xed examples_c/sapi/rtc/out/libs/sapi/sapi_v0.5.2/soc/core/src/sapi_cyclesCounter.o
 .debug_loc     0x00000000000053d2      0x7c8 examples_c/sapi/rtc/out/libs/sapi/sapi_v0.5.2/soc/peripherals/src/sapi_uart.o
 .debug_loc     0x0000000000005b9a       0xaf examples_c/sapi/rtc/out/libs/sapi/sapi_v0.5.2/soc/peripherals/src/sapi_rtc.o
 .debug_loc     0x0000000000005c49      0x173 examples_c/sapi/rtc/out/libs/sapi/sapi_v0.5.2/soc/peripherals/src/sapi_tick.o
 .debug_loc     0x0000000000005dbc      0x7e4 examples_c/sapi/rtc/out/libs/sapi/sapi_v0.5.2/soc/peripherals/src/sapi_gpio.o
 .debug_loc     0x00000000000065a0      0x34f examples_c/sapi/rtc/out/libs/sapi/sapi_v0.5.2/soc/peripherals/usb/device/src/sapi_usb_device.o
 .debug_loc     0x00000000000068ef      0x1af examples_c/sapi/rtc/out/libs/sapi/sapi_v0.5.2/abstract_modules/src/sapi_delay.o
 .debug_loc     0x0000000000006a9e      0x4bd examples_c/sapi/rtc/out/libs/sapi/sapi_v0.5.2/external_peripherals/src/sapi_ultrasonic_hcsr04.o

.debug_aranges  0x0000000000000000      0xa70
 .debug_aranges
                0x0000000000000000       0x30 examples_c/sapi/rtc/out/examples_c/sapi/rtc/src/rtc.o
 .debug_aranges
                0x0000000000000030       0x90 examples_c/sapi/rtc/out/libs/cmsis_core//src/armv7m_startup.o
 .debug_aranges
                0x00000000000000c0       0xe0 examples_c/sapi/rtc/out/libs/sys_newlib//src/system.o
 .debug_aranges
                0x00000000000001a0       0xc0 examples_c/sapi/rtc/out/libs/lpc_open/boards/edu_ciaa_nxp/src/board.o
 .debug_aranges
                0x0000000000000260       0x30 examples_c/sapi/rtc/out/libs/lpc_open/boards/edu_ciaa_nxp/src/board_sysinit.o
 .debug_aranges
                0x0000000000000290       0xa8 examples_c/sapi/rtc/out/libs/lpc_open/lpc_chip_43xx/src/uart_18xx_43xx.o
 .debug_aranges
                0x0000000000000338       0x90 examples_c/sapi/rtc/out/libs/lpc_open/lpc_chip_43xx/src/adc_18xx_43xx.o
 .debug_aranges
                0x00000000000003c8      0x128 examples_c/sapi/rtc/out/libs/lpc_open/lpc_chip_43xx/src/clock_18xx_43xx.o
 .debug_aranges
                0x00000000000004f0       0x38 examples_c/sapi/rtc/out/libs/lpc_open/lpc_chip_43xx/src/chip_18xx_43xx.o
 .debug_aranges
                0x0000000000000528       0x38 examples_c/sapi/rtc/out/libs/lpc_open/lpc_chip_43xx/src/sysinit_18xx_43xx.o
 .debug_aranges
                0x0000000000000560       0x80 examples_c/sapi/rtc/out/libs/lpc_open/lpc_chip_43xx/src/rtc_18xx_43xx.o
 .debug_aranges
                0x00000000000005e0       0x28 examples_c/sapi/rtc/out/libs/lpc_open/lpc_chip_43xx/src/gpio_18xx_43xx.o
 .debug_aranges
                0x0000000000000608       0xd8 examples_c/sapi/rtc/out/libs/lpc_open/lpc_chip_43xx/src/i2c_18xx_43xx.o
 .debug_aranges
                0x00000000000006e0       0xa0 examples_c/sapi/rtc/out/libs/lpc_open/lpc_chip_43xx/src/ssp_18xx_43xx.o
 .debug_aranges
                0x0000000000000780       0x18 examples_c/sapi/rtc/out/libs/lpc_open/lpc_startup/src/crp.o
 .debug_aranges
                0x0000000000000798       0x20 examples_c/sapi/rtc/out/libs/lpc_open/lpc_startup/src/sysinit.o
 .debug_aranges
                0x00000000000007b8       0x20 examples_c/sapi/rtc/out/libs/lpc_open/lpc_startup/src/vendor_interrupt.o
 .debug_aranges
                0x00000000000007d8       0x38 examples_c/sapi/rtc/out/libs/sapi/sapi_v0.5.2/soc/core/src/sapi_cyclesCounter.o
 .debug_aranges
                0x0000000000000810       0x80 examples_c/sapi/rtc/out/libs/sapi/sapi_v0.5.2/soc/peripherals/src/sapi_uart.o
 .debug_aranges
                0x0000000000000890       0x30 examples_c/sapi/rtc/out/libs/sapi/sapi_v0.5.2/soc/peripherals/src/sapi_rtc.o
 .debug_aranges
                0x00000000000008c0       0x48 examples_c/sapi/rtc/out/libs/sapi/sapi_v0.5.2/soc/peripherals/src/sapi_tick.o
 .debug_aranges
                0x0000000000000908       0x40 examples_c/sapi/rtc/out/libs/sapi/sapi_v0.5.2/soc/peripherals/src/sapi_gpio.o
 .debug_aranges
                0x0000000000000948       0x50 examples_c/sapi/rtc/out/libs/sapi/sapi_v0.5.2/soc/peripherals/usb/device/src/sapi_usb_device.o
 .debug_aranges
                0x0000000000000998       0x20 examples_c/sapi/rtc/out/libs/sapi/sapi_v0.5.2/board/src/sapi_board.o
 .debug_aranges
                0x00000000000009b8       0x48 examples_c/sapi/rtc/out/libs/sapi/sapi_v0.5.2/abstract_modules/src/sapi_delay.o
 .debug_aranges
                0x0000000000000a00       0x70 examples_c/sapi/rtc/out/libs/sapi/sapi_v0.5.2/external_peripherals/src/sapi_ultrasonic_hcsr04.o

.debug_ranges   0x0000000000000000      0xa00
 .debug_ranges  0x0000000000000000       0x20 examples_c/sapi/rtc/out/examples_c/sapi/rtc/src/rtc.o
 .debug_ranges  0x0000000000000020       0x80 examples_c/sapi/rtc/out/libs/cmsis_core//src/armv7m_startup.o
 .debug_ranges  0x00000000000000a0       0xd0 examples_c/sapi/rtc/out/libs/sys_newlib//src/system.o
 .debug_ranges  0x0000000000000170       0xf8 examples_c/sapi/rtc/out/libs/lpc_open/boards/edu_ciaa_nxp/src/board.o
 .debug_ranges  0x0000000000000268       0x50 examples_c/sapi/rtc/out/libs/lpc_open/boards/edu_ciaa_nxp/src/board_sysinit.o
 .debug_ranges  0x00000000000002b8       0xb0 examples_c/sapi/rtc/out/libs/lpc_open/lpc_chip_43xx/src/uart_18xx_43xx.o
 .debug_ranges  0x0000000000000368       0x80 examples_c/sapi/rtc/out/libs/lpc_open/lpc_chip_43xx/src/adc_18xx_43xx.o
 .debug_ranges  0x00000000000003e8      0x190 examples_c/sapi/rtc/out/libs/lpc_open/lpc_chip_43xx/src/clock_18xx_43xx.o
 .debug_ranges  0x0000000000000578       0x28 examples_c/sapi/rtc/out/libs/lpc_open/lpc_chip_43xx/src/chip_18xx_43xx.o
 .debug_ranges  0x00000000000005a0       0x28 examples_c/sapi/rtc/out/libs/lpc_open/lpc_chip_43xx/src/sysinit_18xx_43xx.o
 .debug_ranges  0x00000000000005c8       0x70 examples_c/sapi/rtc/out/libs/lpc_open/lpc_chip_43xx/src/rtc_18xx_43xx.o
 .debug_ranges  0x0000000000000638       0x18 examples_c/sapi/rtc/out/libs/lpc_open/lpc_chip_43xx/src/gpio_18xx_43xx.o
 .debug_ranges  0x0000000000000650       0xc8 examples_c/sapi/rtc/out/libs/lpc_open/lpc_chip_43xx/src/i2c_18xx_43xx.o
 .debug_ranges  0x0000000000000718       0xc0 examples_c/sapi/rtc/out/libs/lpc_open/lpc_chip_43xx/src/ssp_18xx_43xx.o
 .debug_ranges  0x00000000000007d8       0x10 examples_c/sapi/rtc/out/libs/lpc_open/lpc_startup/src/sysinit.o
 .debug_ranges  0x00000000000007e8       0x10 examples_c/sapi/rtc/out/libs/lpc_open/lpc_startup/src/vendor_interrupt.o
 .debug_ranges  0x00000000000007f8       0x28 examples_c/sapi/rtc/out/libs/sapi/sapi_v0.5.2/soc/core/src/sapi_cyclesCounter.o
 .debug_ranges  0x0000000000000820       0x70 examples_c/sapi/rtc/out/libs/sapi/sapi_v0.5.2/soc/peripherals/src/sapi_uart.o
 .debug_ranges  0x0000000000000890       0x20 examples_c/sapi/rtc/out/libs/sapi/sapi_v0.5.2/soc/peripherals/src/sapi_rtc.o
 .debug_ranges  0x00000000000008b0       0x38 examples_c/sapi/rtc/out/libs/sapi/sapi_v0.5.2/soc/peripherals/src/sapi_tick.o
 .debug_ranges  0x00000000000008e8       0x30 examples_c/sapi/rtc/out/libs/sapi/sapi_v0.5.2/soc/peripherals/src/sapi_gpio.o
 .debug_ranges  0x0000000000000918       0x40 examples_c/sapi/rtc/out/libs/sapi/sapi_v0.5.2/soc/peripherals/usb/device/src/sapi_usb_device.o
 .debug_ranges  0x0000000000000958       0x10 examples_c/sapi/rtc/out/libs/sapi/sapi_v0.5.2/board/src/sapi_board.o
 .debug_ranges  0x0000000000000968       0x38 examples_c/sapi/rtc/out/libs/sapi/sapi_v0.5.2/abstract_modules/src/sapi_delay.o
 .debug_ranges  0x00000000000009a0       0x60 examples_c/sapi/rtc/out/libs/sapi/sapi_v0.5.2/external_peripherals/src/sapi_ultrasonic_hcsr04.o

.debug_macro    0x0000000000000000     0xcc62
 .debug_macro   0x0000000000000000      0x667 examples_c/sapi/rtc/out/examples_c/sapi/rtc/src/rtc.o
 .debug_macro   0x0000000000000667      0xa6c examples_c/sapi/rtc/out/examples_c/sapi/rtc/src/rtc.o
 .debug_macro   0x00000000000010d3       0x22 examples_c/sapi/rtc/out/examples_c/sapi/rtc/src/rtc.o
 .debug_macro   0x00000000000010f5       0x56 examples_c/sapi/rtc/out/examples_c/sapi/rtc/src/rtc.o
 .debug_macro   0x000000000000114b       0x51 examples_c/sapi/rtc/out/examples_c/sapi/rtc/src/rtc.o
 .debug_macro   0x000000000000119c       0xef examples_c/sapi/rtc/out/examples_c/sapi/rtc/src/rtc.o
 .debug_macro   0x000000000000128b       0x6a examples_c/sapi/rtc/out/examples_c/sapi/rtc/src/rtc.o
 .debug_macro   0x00000000000012f5      0x1df examples_c/sapi/rtc/out/examples_c/sapi/rtc/src/rtc.o
 .debug_macro   0x00000000000014d4       0x10 examples_c/sapi/rtc/out/examples_c/sapi/rtc/src/rtc.o
 .debug_macro   0x00000000000014e4       0x22 examples_c/sapi/rtc/out/examples_c/sapi/rtc/src/rtc.o
 .debug_macro   0x0000000000001506       0x73 examples_c/sapi/rtc/out/examples_c/sapi/rtc/src/rtc.o
 .debug_macro   0x0000000000001579       0x22 examples_c/sapi/rtc/out/examples_c/sapi/rtc/src/rtc.o
 .debug_macro   0x000000000000159b       0x1c examples_c/sapi/rtc/out/examples_c/sapi/rtc/src/rtc.o
 .debug_macro   0x00000000000015b7       0x22 examples_c/sapi/rtc/out/examples_c/sapi/rtc/src/rtc.o
 .debug_macro   0x00000000000015d9       0xdf examples_c/sapi/rtc/out/examples_c/sapi/rtc/src/rtc.o
 .debug_macro   0x00000000000016b8     0x102d examples_c/sapi/rtc/out/examples_c/sapi/rtc/src/rtc.o
 .debug_macro   0x00000000000026e5      0x11f examples_c/sapi/rtc/out/examples_c/sapi/rtc/src/rtc.o
 .debug_macro   0x0000000000002804      0x2c3 examples_c/sapi/rtc/out/examples_c/sapi/rtc/src/rtc.o
 .debug_macro   0x0000000000002ac7      0x112 examples_c/sapi/rtc/out/examples_c/sapi/rtc/src/rtc.o
 .debug_macro   0x0000000000002bd9       0x11 examples_c/sapi/rtc/out/examples_c/sapi/rtc/src/rtc.o
 .debug_macro   0x0000000000002bea       0x2a examples_c/sapi/rtc/out/examples_c/sapi/rtc/src/rtc.o
 .debug_macro   0x0000000000002c14       0x16 examples_c/sapi/rtc/out/examples_c/sapi/rtc/src/rtc.o
 .debug_macro   0x0000000000002c2a      0x2e6 examples_c/sapi/rtc/out/examples_c/sapi/rtc/src/rtc.o
 .debug_macro   0x0000000000002f10       0x82 examples_c/sapi/rtc/out/examples_c/sapi/rtc/src/rtc.o
 .debug_macro   0x0000000000002f92      0x13d examples_c/sapi/rtc/out/examples_c/sapi/rtc/src/rtc.o
 .debug_macro   0x00000000000030cf      0x198 examples_c/sapi/rtc/out/examples_c/sapi/rtc/src/rtc.o
 .debug_macro   0x0000000000003267       0x34 examples_c/sapi/rtc/out/examples_c/sapi/rtc/src/rtc.o
 .debug_macro   0x000000000000329b       0x58 examples_c/sapi/rtc/out/examples_c/sapi/rtc/src/rtc.o
 .debug_macro   0x00000000000032f3      0x236 examples_c/sapi/rtc/out/examples_c/sapi/rtc/src/rtc.o
 .debug_macro   0x0000000000003529      0x572 examples_c/sapi/rtc/out/examples_c/sapi/rtc/src/rtc.o
 .debug_macro   0x0000000000003a9b       0x16 examples_c/sapi/rtc/out/examples_c/sapi/rtc/src/rtc.o
 .debug_macro   0x0000000000003ab1      0x18a examples_c/sapi/rtc/out/examples_c/sapi/rtc/src/rtc.o
 .debug_macro   0x0000000000003c3b       0x88 examples_c/sapi/rtc/out/examples_c/sapi/rtc/src/rtc.o
 .debug_macro   0x0000000000003cc3      0x1b9 examples_c/sapi/rtc/out/examples_c/sapi/rtc/src/rtc.o
 .debug_macro   0x0000000000003e7c      0x1da examples_c/sapi/rtc/out/examples_c/sapi/rtc/src/rtc.o
 .debug_macro   0x0000000000004056       0x40 examples_c/sapi/rtc/out/examples_c/sapi/rtc/src/rtc.o
 .debug_macro   0x0000000000004096       0x1c examples_c/sapi/rtc/out/examples_c/sapi/rtc/src/rtc.o
 .debug_macro   0x00000000000040b2       0x2e examples_c/sapi/rtc/out/examples_c/sapi/rtc/src/rtc.o
 .debug_macro   0x00000000000040e0       0x2e examples_c/sapi/rtc/out/examples_c/sapi/rtc/src/rtc.o
 .debug_macro   0x000000000000410e       0x22 examples_c/sapi/rtc/out/examples_c/sapi/rtc/src/rtc.o
 .debug_macro   0x0000000000004130      0x201 examples_c/sapi/rtc/out/examples_c/sapi/rtc/src/rtc.o
 .debug_macro   0x0000000000004331       0xe0 examples_c/sapi/rtc/out/examples_c/sapi/rtc/src/rtc.o
 .debug_macro   0x0000000000004411      0x34c examples_c/sapi/rtc/out/examples_c/sapi/rtc/src/rtc.o
 .debug_macro   0x000000000000475d       0xdc examples_c/sapi/rtc/out/examples_c/sapi/rtc/src/rtc.o
 .debug_macro   0x0000000000004839       0xc4 examples_c/sapi/rtc/out/examples_c/sapi/rtc/src/rtc.o
 .debug_macro   0x00000000000048fd       0x8f examples_c/sapi/rtc/out/examples_c/sapi/rtc/src/rtc.o
 .debug_macro   0x000000000000498c       0x94 examples_c/sapi/rtc/out/examples_c/sapi/rtc/src/rtc.o
 .debug_macro   0x0000000000004a20       0xb8 examples_c/sapi/rtc/out/examples_c/sapi/rtc/src/rtc.o
 .debug_macro   0x0000000000004ad8       0x4c examples_c/sapi/rtc/out/examples_c/sapi/rtc/src/rtc.o
 .debug_macro   0x0000000000004b24       0x16 examples_c/sapi/rtc/out/examples_c/sapi/rtc/src/rtc.o
 .debug_macro   0x0000000000004b3a      0x328 examples_c/sapi/rtc/out/examples_c/sapi/rtc/src/rtc.o
 .debug_macro   0x0000000000004e62       0x3a examples_c/sapi/rtc/out/examples_c/sapi/rtc/src/rtc.o
 .debug_macro   0x0000000000004e9c       0xd0 examples_c/sapi/rtc/out/examples_c/sapi/rtc/src/rtc.o
 .debug_macro   0x0000000000004f6c       0x18 examples_c/sapi/rtc/out/examples_c/sapi/rtc/src/rtc.o
 .debug_macro   0x0000000000004f84       0x22 examples_c/sapi/rtc/out/examples_c/sapi/rtc/src/rtc.o
 .debug_macro   0x0000000000004fa6       0x40 examples_c/sapi/rtc/out/examples_c/sapi/rtc/src/rtc.o
 .debug_macro   0x0000000000004fe6       0x5e examples_c/sapi/rtc/out/examples_c/sapi/rtc/src/rtc.o
 .debug_macro   0x0000000000005044       0x18 examples_c/sapi/rtc/out/examples_c/sapi/rtc/src/rtc.o
 .debug_macro   0x000000000000505c       0x35 examples_c/sapi/rtc/out/examples_c/sapi/rtc/src/rtc.o
 .debug_macro   0x0000000000005091       0x34 examples_c/sapi/rtc/out/examples_c/sapi/rtc/src/rtc.o
 .debug_macro   0x00000000000050c5       0x16 examples_c/sapi/rtc/out/examples_c/sapi/rtc/src/rtc.o
 .debug_macro   0x00000000000050db       0x97 examples_c/sapi/rtc/out/examples_c/sapi/rtc/src/rtc.o
 .debug_macro   0x0000000000005172      0x34d examples_c/sapi/rtc/out/examples_c/sapi/rtc/src/rtc.o
 .debug_macro   0x00000000000054bf       0xf6 examples_c/sapi/rtc/out/examples_c/sapi/rtc/src/rtc.o
 .debug_macro   0x00000000000055b5       0x10 examples_c/sapi/rtc/out/examples_c/sapi/rtc/src/rtc.o
 .debug_macro   0x00000000000055c5       0x58 examples_c/sapi/rtc/out/examples_c/sapi/rtc/src/rtc.o
 .debug_macro   0x000000000000561d       0x1f examples_c/sapi/rtc/out/examples_c/sapi/rtc/src/rtc.o
 .debug_macro   0x000000000000563c       0x43 examples_c/sapi/rtc/out/examples_c/sapi/rtc/src/rtc.o
 .debug_macro   0x000000000000567f       0x20 examples_c/sapi/rtc/out/examples_c/sapi/rtc/src/rtc.o
 .debug_macro   0x000000000000569f      0x18e examples_c/sapi/rtc/out/examples_c/sapi/rtc/src/rtc.o
 .debug_macro   0x000000000000582d       0x10 examples_c/sapi/rtc/out/examples_c/sapi/rtc/src/rtc.o
 .debug_macro   0x000000000000583d       0xb6 examples_c/sapi/rtc/out/examples_c/sapi/rtc/src/rtc.o
 .debug_macro   0x00000000000058f3       0x16 examples_c/sapi/rtc/out/examples_c/sapi/rtc/src/rtc.o
 .debug_macro   0x0000000000005909      0x129 examples_c/sapi/rtc/out/examples_c/sapi/rtc/src/rtc.o
 .debug_macro   0x0000000000005a32       0x20 examples_c/sapi/rtc/out/examples_c/sapi/rtc/src/rtc.o
 .debug_macro   0x0000000000005a52       0xee examples_c/sapi/rtc/out/examples_c/sapi/rtc/src/rtc.o
 .debug_macro   0x0000000000005b40       0x52 examples_c/sapi/rtc/out/examples_c/sapi/rtc/src/rtc.o
 .debug_macro   0x0000000000005b92       0x10 examples_c/sapi/rtc/out/examples_c/sapi/rtc/src/rtc.o
 .debug_macro   0x0000000000005ba2       0x10 examples_c/sapi/rtc/out/examples_c/sapi/rtc/src/rtc.o
 .debug_macro   0x0000000000005bb2       0x10 examples_c/sapi/rtc/out/examples_c/sapi/rtc/src/rtc.o
 .debug_macro   0x0000000000005bc2       0x2e examples_c/sapi/rtc/out/examples_c/sapi/rtc/src/rtc.o
 .debug_macro   0x0000000000005bf0       0x1c examples_c/sapi/rtc/out/examples_c/sapi/rtc/src/rtc.o
 .debug_macro   0x0000000000005c0c       0x10 examples_c/sapi/rtc/out/examples_c/sapi/rtc/src/rtc.o
 .debug_macro   0x0000000000005c1c       0x10 examples_c/sapi/rtc/out/examples_c/sapi/rtc/src/rtc.o
 .debug_macro   0x0000000000005c2c       0x40 examples_c/sapi/rtc/out/examples_c/sapi/rtc/src/rtc.o
 .debug_macro   0x0000000000005c6c       0x10 examples_c/sapi/rtc/out/examples_c/sapi/rtc/src/rtc.o
 .debug_macro   0x0000000000005c7c       0x10 examples_c/sapi/rtc/out/examples_c/sapi/rtc/src/rtc.o
 .debug_macro   0x0000000000005c8c       0x2e examples_c/sapi/rtc/out/examples_c/sapi/rtc/src/rtc.o
 .debug_macro   0x0000000000005cba      0x26c examples_c/sapi/rtc/out/examples_c/sapi/rtc/src/rtc.o
 .debug_macro   0x0000000000005f26       0x5e examples_c/sapi/rtc/out/examples_c/sapi/rtc/src/rtc.o
 .debug_macro   0x0000000000005f84       0x12 examples_c/sapi/rtc/out/examples_c/sapi/rtc/src/rtc.o
 .debug_macro   0x0000000000005f96       0xfa examples_c/sapi/rtc/out/examples_c/sapi/rtc/src/rtc.o
 .debug_macro   0x0000000000006090       0xee examples_c/sapi/rtc/out/examples_c/sapi/rtc/src/rtc.o
 .debug_macro   0x000000000000617e      0x69a examples_c/sapi/rtc/out/examples_c/sapi/rtc/src/rtc.o
 .debug_macro   0x0000000000006818      0x272 examples_c/sapi/rtc/out/examples_c/sapi/rtc/src/rtc.o
 .debug_macro   0x0000000000006a8a       0x10 examples_c/sapi/rtc/out/examples_c/sapi/rtc/src/rtc.o
 .debug_macro   0x0000000000006a9a       0x16 examples_c/sapi/rtc/out/examples_c/sapi/rtc/src/rtc.o
 .debug_macro   0x0000000000006ab0       0x40 examples_c/sapi/rtc/out/examples_c/sapi/rtc/src/rtc.o
 .debug_macro   0x0000000000006af0       0x70 examples_c/sapi/rtc/out/examples_c/sapi/rtc/src/rtc.o
 .debug_macro   0x0000000000006b60       0x70 examples_c/sapi/rtc/out/examples_c/sapi/rtc/src/rtc.o
 .debug_macro   0x0000000000006bd0       0x10 examples_c/sapi/rtc/out/examples_c/sapi/rtc/src/rtc.o
 .debug_macro   0x0000000000006be0       0x22 examples_c/sapi/rtc/out/examples_c/sapi/rtc/src/rtc.o
 .debug_macro   0x0000000000006c02       0x16 examples_c/sapi/rtc/out/examples_c/sapi/rtc/src/rtc.o
 .debug_macro   0x0000000000006c18       0x10 examples_c/sapi/rtc/out/examples_c/sapi/rtc/src/rtc.o
 .debug_macro   0x0000000000006c28       0x10 examples_c/sapi/rtc/out/examples_c/sapi/rtc/src/rtc.o
 .debug_macro   0x0000000000006c38       0x88 examples_c/sapi/rtc/out/examples_c/sapi/rtc/src/rtc.o
 .debug_macro   0x0000000000006cc0       0x10 examples_c/sapi/rtc/out/examples_c/sapi/rtc/src/rtc.o
 .debug_macro   0x0000000000006cd0       0x16 examples_c/sapi/rtc/out/examples_c/sapi/rtc/src/rtc.o
 .debug_macro   0x0000000000006ce6       0x10 examples_c/sapi/rtc/out/examples_c/sapi/rtc/src/rtc.o
 .debug_macro   0x0000000000006cf6       0x7c examples_c/sapi/rtc/out/examples_c/sapi/rtc/src/rtc.o
 .debug_macro   0x0000000000006d72       0x64 examples_c/sapi/rtc/out/examples_c/sapi/rtc/src/rtc.o
 .debug_macro   0x0000000000006dd6      0x1ec examples_c/sapi/rtc/out/examples_c/sapi/rtc/src/rtc.o
 .debug_macro   0x0000000000006fc2       0x10 examples_c/sapi/rtc/out/examples_c/sapi/rtc/src/rtc.o
 .debug_macro   0x0000000000006fd2       0x1d examples_c/sapi/rtc/out/libs/cmsis_core//src/armv7m_startup.o
 .debug_macro   0x0000000000006fef      0x168 examples_c/sapi/rtc/out/libs/sys_newlib//src/system.o
 .debug_macro   0x0000000000007157       0x58 examples_c/sapi/rtc/out/libs/sys_newlib//src/system.o
 .debug_macro   0x00000000000071af       0x5c examples_c/sapi/rtc/out/libs/sys_newlib//src/system.o
 .debug_macro   0x000000000000720b      0x16d examples_c/sapi/rtc/out/libs/sys_newlib//src/system.o
 .debug_macro   0x0000000000007378       0x57 examples_c/sapi/rtc/out/libs/sys_newlib//src/system.o
 .debug_macro   0x00000000000073cf       0x10 examples_c/sapi/rtc/out/libs/sys_newlib//src/system.o
 .debug_macro   0x00000000000073df       0x35 examples_c/sapi/rtc/out/libs/sys_newlib//src/system.o
 .debug_macro   0x0000000000007414       0x10 examples_c/sapi/rtc/out/libs/sys_newlib//src/system.o
 .debug_macro   0x0000000000007424      0x241 examples_c/sapi/rtc/out/libs/sys_newlib//src/system.o
 .debug_macro   0x0000000000007665      0x353 examples_c/sapi/rtc/out/libs/sys_newlib//src/system.o
 .debug_macro   0x00000000000079b8      0x105 examples_c/sapi/rtc/out/libs/sys_newlib//src/system.o
 .debug_macro   0x0000000000007abd       0x16 examples_c/sapi/rtc/out/libs/sys_newlib//src/system.o
 .debug_macro   0x0000000000007ad3      0x43d examples_c/sapi/rtc/out/libs/lpc_open/boards/edu_ciaa_nxp/src/board.o
 .debug_macro   0x0000000000007f10      0x42b examples_c/sapi/rtc/out/libs/lpc_open/boards/edu_ciaa_nxp/src/board_sysinit.o
 .debug_macro   0x000000000000833b      0x315 examples_c/sapi/rtc/out/libs/lpc_open/lpc_chip_43xx/src/uart_18xx_43xx.o
 .debug_macro   0x0000000000008650      0x315 examples_c/sapi/rtc/out/libs/lpc_open/lpc_chip_43xx/src/adc_18xx_43xx.o
 .debug_macro   0x0000000000008965      0x31b examples_c/sapi/rtc/out/libs/lpc_open/lpc_chip_43xx/src/clock_18xx_43xx.o
 .debug_macro   0x0000000000008c80      0x315 examples_c/sapi/rtc/out/libs/lpc_open/lpc_chip_43xx/src/chip_18xx_43xx.o
 .debug_macro   0x0000000000008f95      0x315 examples_c/sapi/rtc/out/libs/lpc_open/lpc_chip_43xx/src/sysinit_18xx_43xx.o
 .debug_macro   0x00000000000092aa      0x315 examples_c/sapi/rtc/out/libs/lpc_open/lpc_chip_43xx/src/rtc_18xx_43xx.o
 .debug_macro   0x00000000000095bf      0x315 examples_c/sapi/rtc/out/libs/lpc_open/lpc_chip_43xx/src/gpio_18xx_43xx.o
 .debug_macro   0x00000000000098d4      0x327 examples_c/sapi/rtc/out/libs/lpc_open/lpc_chip_43xx/src/i2c_18xx_43xx.o
 .debug_macro   0x0000000000009bfb      0x315 examples_c/sapi/rtc/out/libs/lpc_open/lpc_chip_43xx/src/ssp_18xx_43xx.o
 .debug_macro   0x0000000000009f10       0x17 examples_c/sapi/rtc/out/libs/lpc_open/lpc_startup/src/crp.o
 .debug_macro   0x0000000000009f27      0x42b examples_c/sapi/rtc/out/libs/lpc_open/lpc_startup/src/sysinit.o
 .debug_macro   0x000000000000a352       0x1d examples_c/sapi/rtc/out/libs/lpc_open/lpc_startup/src/vendor_interrupt.o
 .debug_macro   0x000000000000a36f      0x449 examples_c/sapi/rtc/out/libs/sapi/sapi_v0.5.2/soc/core/src/sapi_cyclesCounter.o
 .debug_macro   0x000000000000a7b8       0x28 examples_c/sapi/rtc/out/libs/sapi/sapi_v0.5.2/soc/core/src/sapi_cyclesCounter.o
 .debug_macro   0x000000000000a7e0      0x482 examples_c/sapi/rtc/out/libs/sapi/sapi_v0.5.2/soc/peripherals/src/sapi_uart.o
 .debug_macro   0x000000000000ac62       0x16 examples_c/sapi/rtc/out/libs/sapi/sapi_v0.5.2/soc/peripherals/src/sapi_uart.o
 .debug_macro   0x000000000000ac78       0x16 examples_c/sapi/rtc/out/libs/sapi/sapi_v0.5.2/soc/peripherals/src/sapi_uart.o
 .debug_macro   0x000000000000ac8e      0x453 examples_c/sapi/rtc/out/libs/sapi/sapi_v0.5.2/soc/peripherals/src/sapi_rtc.o
 .debug_macro   0x000000000000b0e1      0x450 examples_c/sapi/rtc/out/libs/sapi/sapi_v0.5.2/soc/peripherals/src/sapi_tick.o
 .debug_macro   0x000000000000b531      0x452 examples_c/sapi/rtc/out/libs/sapi/sapi_v0.5.2/soc/peripherals/src/sapi_gpio.o
 .debug_macro   0x000000000000b983       0x28 examples_c/sapi/rtc/out/libs/sapi/sapi_v0.5.2/soc/peripherals/src/sapi_gpio.o
 .debug_macro   0x000000000000b9ab      0x546 examples_c/sapi/rtc/out/libs/sapi/sapi_v0.5.2/soc/peripherals/usb/device/src/sapi_usb_device.o
 .debug_macro   0x000000000000bef1      0x474 examples_c/sapi/rtc/out/libs/sapi/sapi_v0.5.2/board/src/sapi_board.o
 .debug_macro   0x000000000000c365      0x45b examples_c/sapi/rtc/out/libs/sapi/sapi_v0.5.2/abstract_modules/src/sapi_delay.o
 .debug_macro   0x000000000000c7c0      0x4a2 examples_c/sapi/rtc/out/libs/sapi/sapi_v0.5.2/external_peripherals/src/sapi_ultrasonic_hcsr04.o

.debug_line     0x0000000000000000     0xd8eb
 .debug_line    0x0000000000000000      0xd60 examples_c/sapi/rtc/out/examples_c/sapi/rtc/src/rtc.o
 .debug_line    0x0000000000000d60       0xfa examples_c/sapi/rtc/out/libs/cmsis_core//src/armv7m_startup.o
 .debug_line    0x0000000000000e5a      0x4be examples_c/sapi/rtc/out/libs/sys_newlib//src/system.o
 .debug_line    0x0000000000001318      0xa83 examples_c/sapi/rtc/out/libs/lpc_open/boards/edu_ciaa_nxp/src/board.o
 .debug_line    0x0000000000001d9b      0x886 examples_c/sapi/rtc/out/libs/lpc_open/boards/edu_ciaa_nxp/src/board_sysinit.o
 .debug_line    0x0000000000002621      0x9f5 examples_c/sapi/rtc/out/libs/lpc_open/lpc_chip_43xx/src/uart_18xx_43xx.o
 .debug_line    0x0000000000003016      0x83c examples_c/sapi/rtc/out/libs/lpc_open/lpc_chip_43xx/src/adc_18xx_43xx.o
 .debug_line    0x0000000000003852      0xb4d examples_c/sapi/rtc/out/libs/lpc_open/lpc_chip_43xx/src/clock_18xx_43xx.o
 .debug_line    0x000000000000439f      0x757 examples_c/sapi/rtc/out/libs/lpc_open/lpc_chip_43xx/src/chip_18xx_43xx.o
 .debug_line    0x0000000000004af6      0x7b4 examples_c/sapi/rtc/out/libs/lpc_open/lpc_chip_43xx/src/sysinit_18xx_43xx.o
 .debug_line    0x00000000000052aa      0x86f examples_c/sapi/rtc/out/libs/lpc_open/lpc_chip_43xx/src/rtc_18xx_43xx.o
 .debug_line    0x0000000000005b19      0x715 examples_c/sapi/rtc/out/libs/lpc_open/lpc_chip_43xx/src/gpio_18xx_43xx.o
 .debug_line    0x000000000000622e      0x9fa examples_c/sapi/rtc/out/libs/lpc_open/lpc_chip_43xx/src/i2c_18xx_43xx.o
 .debug_line    0x0000000000006c28      0xb9f examples_c/sapi/rtc/out/libs/lpc_open/lpc_chip_43xx/src/ssp_18xx_43xx.o
 .debug_line    0x00000000000077c7       0x44 examples_c/sapi/rtc/out/libs/lpc_open/lpc_startup/src/crp.o
 .debug_line    0x000000000000780b      0x823 examples_c/sapi/rtc/out/libs/lpc_open/lpc_startup/src/sysinit.o
 .debug_line    0x000000000000802e       0x61 examples_c/sapi/rtc/out/libs/lpc_open/lpc_startup/src/vendor_interrupt.o
 .debug_line    0x000000000000808f      0x8cd examples_c/sapi/rtc/out/libs/sapi/sapi_v0.5.2/soc/core/src/sapi_cyclesCounter.o
 .debug_line    0x000000000000895c      0xafe examples_c/sapi/rtc/out/libs/sapi/sapi_v0.5.2/soc/peripherals/src/sapi_uart.o
 .debug_line    0x000000000000945a      0x901 examples_c/sapi/rtc/out/libs/sapi/sapi_v0.5.2/soc/peripherals/src/sapi_rtc.o
 .debug_line    0x0000000000009d5b      0x919 examples_c/sapi/rtc/out/libs/sapi/sapi_v0.5.2/soc/peripherals/src/sapi_tick.o
 .debug_line    0x000000000000a674      0x9c0 examples_c/sapi/rtc/out/libs/sapi/sapi_v0.5.2/soc/peripherals/src/sapi_gpio.o
 .debug_line    0x000000000000b034      0xb67 examples_c/sapi/rtc/out/libs/sapi/sapi_v0.5.2/soc/peripherals/usb/device/src/sapi_usb_device.o
 .debug_line    0x000000000000bb9b      0x935 examples_c/sapi/rtc/out/libs/sapi/sapi_v0.5.2/board/src/sapi_board.o
 .debug_line    0x000000000000c4d0      0x98c examples_c/sapi/rtc/out/libs/sapi/sapi_v0.5.2/abstract_modules/src/sapi_delay.o
 .debug_line    0x000000000000ce5c      0xa8f examples_c/sapi/rtc/out/libs/sapi/sapi_v0.5.2/external_peripherals/src/sapi_ultrasonic_hcsr04.o

.debug_str      0x0000000000000000    0x26d07
 .debug_str     0x0000000000000000    0x222b6 examples_c/sapi/rtc/out/examples_c/sapi/rtc/src/rtc.o
                                      0x22688 (size before relaxing)
 .debug_str     0x00000000000222b6      0x212 examples_c/sapi/rtc/out/libs/cmsis_core//src/armv7m_startup.o
                                       0x2f3c (size before relaxing)
 .debug_str     0x00000000000224c8      0x894 examples_c/sapi/rtc/out/libs/sys_newlib//src/system.o
                                       0x6b9f (size before relaxing)
 .debug_str     0x0000000000022d5c      0x99f examples_c/sapi/rtc/out/libs/lpc_open/boards/edu_ciaa_nxp/src/board.o
                                      0x1b5fc (size before relaxing)
 .debug_str     0x00000000000236fb      0x352 examples_c/sapi/rtc/out/libs/lpc_open/boards/edu_ciaa_nxp/src/board_sysinit.o
                                      0x1af8d (size before relaxing)
 .debug_str     0x0000000000023a4d      0x3cf examples_c/sapi/rtc/out/libs/lpc_open/lpc_chip_43xx/src/uart_18xx_43xx.o
                                      0x17683 (size before relaxing)
 .debug_str     0x0000000000023e1c      0x14a examples_c/sapi/rtc/out/libs/lpc_open/lpc_chip_43xx/src/adc_18xx_43xx.o
                                      0x1701e (size before relaxing)
 .debug_str     0x0000000000023f66      0x5d1 examples_c/sapi/rtc/out/libs/lpc_open/lpc_chip_43xx/src/clock_18xx_43xx.o
                                      0x17a46 (size before relaxing)
 .debug_str     0x0000000000024537       0x8c examples_c/sapi/rtc/out/libs/lpc_open/lpc_chip_43xx/src/chip_18xx_43xx.o
                                      0x17573 (size before relaxing)
 .debug_str     0x00000000000245c3       0xbc examples_c/sapi/rtc/out/libs/lpc_open/lpc_chip_43xx/src/sysinit_18xx_43xx.o
                                      0x174d4 (size before relaxing)
 .debug_str     0x000000000002467f      0x281 examples_c/sapi/rtc/out/libs/lpc_open/lpc_chip_43xx/src/rtc_18xx_43xx.o
                                      0x16b76 (size before relaxing)
 .debug_str     0x0000000000024900       0x42 examples_c/sapi/rtc/out/libs/lpc_open/lpc_chip_43xx/src/gpio_18xx_43xx.o
                                      0x167d5 (size before relaxing)
 .debug_str     0x0000000000024942      0x584 examples_c/sapi/rtc/out/libs/lpc_open/lpc_chip_43xx/src/i2c_18xx_43xx.o
                                      0x177b5 (size before relaxing)
 .debug_str     0x0000000000024ec6      0x3e8 examples_c/sapi/rtc/out/libs/lpc_open/lpc_chip_43xx/src/ssp_18xx_43xx.o
                                      0x17214 (size before relaxing)
 .debug_str     0x00000000000252ae       0x43 examples_c/sapi/rtc/out/libs/lpc_open/lpc_startup/src/crp.o
                                       0x2d3c (size before relaxing)
 .debug_str     0x00000000000252f1       0xb9 examples_c/sapi/rtc/out/libs/lpc_open/lpc_startup/src/sysinit.o
                                      0x1a25f (size before relaxing)
 .debug_str     0x00000000000253aa       0x56 examples_c/sapi/rtc/out/libs/lpc_open/lpc_startup/src/vendor_interrupt.o
                                       0x2d97 (size before relaxing)
 .debug_str     0x0000000000025400       0xc6 examples_c/sapi/rtc/out/libs/sapi/sapi_v0.5.2/soc/core/src/sapi_cyclesCounter.o
                                      0x1aee6 (size before relaxing)
 .debug_str     0x00000000000254c6      0x668 examples_c/sapi/rtc/out/libs/sapi/sapi_v0.5.2/soc/peripherals/src/sapi_uart.o
                                      0x1b873 (size before relaxing)
 .debug_str     0x0000000000025b2e       0x45 examples_c/sapi/rtc/out/libs/sapi/sapi_v0.5.2/soc/peripherals/src/sapi_rtc.o
                                      0x1a5ab (size before relaxing)
 .debug_str     0x0000000000025b73      0x175 examples_c/sapi/rtc/out/libs/sapi/sapi_v0.5.2/soc/peripherals/src/sapi_tick.o
                                      0x1b2cb (size before relaxing)
 .debug_str     0x0000000000025ce8      0x289 examples_c/sapi/rtc/out/libs/sapi/sapi_v0.5.2/soc/peripherals/src/sapi_gpio.o
                                      0x1b1e1 (size before relaxing)
 .debug_str     0x0000000000025f71      0x765 examples_c/sapi/rtc/out/libs/sapi/sapi_v0.5.2/soc/peripherals/usb/device/src/sapi_usb_device.o
                                      0x21035 (size before relaxing)
 .debug_str     0x00000000000266d6       0x2d examples_c/sapi/rtc/out/libs/sapi/sapi_v0.5.2/board/src/sapi_board.o
                                      0x1a703 (size before relaxing)
 .debug_str     0x0000000000026703       0x85 examples_c/sapi/rtc/out/libs/sapi/sapi_v0.5.2/abstract_modules/src/sapi_delay.o
                                      0x1a564 (size before relaxing)
 .debug_str     0x0000000000026788      0x57f examples_c/sapi/rtc/out/libs/sapi/sapi_v0.5.2/external_peripherals/src/sapi_ultrasonic_hcsr04.o
                                      0x1b9ff (size before relaxing)

.comment        0x0000000000000000       0x7f
 .comment       0x0000000000000000       0x7f examples_c/sapi/rtc/out/examples_c/sapi/rtc/src/rtc.o
                                         0x80 (size before relaxing)
 .comment       0x000000000000007f       0x80 examples_c/sapi/rtc/out/libs/cmsis_core//src/armv7m_startup.o
 .comment       0x000000000000007f       0x80 examples_c/sapi/rtc/out/libs/sys_newlib//src/system.o
 .comment       0x000000000000007f       0x80 examples_c/sapi/rtc/out/libs/lpc_open/boards/edu_ciaa_nxp/src/board.o
 .comment       0x000000000000007f       0x80 examples_c/sapi/rtc/out/libs/lpc_open/boards/edu_ciaa_nxp/src/board_sysinit.o
 .comment       0x000000000000007f       0x80 examples_c/sapi/rtc/out/libs/lpc_open/lpc_chip_43xx/src/uart_18xx_43xx.o
 .comment       0x000000000000007f       0x80 examples_c/sapi/rtc/out/libs/lpc_open/lpc_chip_43xx/src/adc_18xx_43xx.o
 .comment       0x000000000000007f       0x80 examples_c/sapi/rtc/out/libs/lpc_open/lpc_chip_43xx/src/clock_18xx_43xx.o
 .comment       0x000000000000007f       0x80 examples_c/sapi/rtc/out/libs/lpc_open/lpc_chip_43xx/src/chip_18xx_43xx.o
 .comment       0x000000000000007f       0x80 examples_c/sapi/rtc/out/libs/lpc_open/lpc_chip_43xx/src/sysinit_18xx_43xx.o
 .comment       0x000000000000007f       0x80 examples_c/sapi/rtc/out/libs/lpc_open/lpc_chip_43xx/src/rtc_18xx_43xx.o
 .comment       0x000000000000007f       0x80 examples_c/sapi/rtc/out/libs/lpc_open/lpc_chip_43xx/src/gpio_18xx_43xx.o
 .comment       0x000000000000007f       0x80 examples_c/sapi/rtc/out/libs/lpc_open/lpc_chip_43xx/src/i2c_18xx_43xx.o
 .comment       0x000000000000007f       0x80 examples_c/sapi/rtc/out/libs/lpc_open/lpc_chip_43xx/src/ssp_18xx_43xx.o
 .comment       0x000000000000007f       0x80 examples_c/sapi/rtc/out/libs/lpc_open/lpc_startup/src/crp.o
 .comment       0x000000000000007f       0x80 examples_c/sapi/rtc/out/libs/lpc_open/lpc_startup/src/sysinit.o
 .comment       0x000000000000007f       0x80 examples_c/sapi/rtc/out/libs/lpc_open/lpc_startup/src/vendor_interrupt.o
 .comment       0x000000000000007f       0x80 examples_c/sapi/rtc/out/libs/sapi/sapi_v0.5.2/soc/core/src/sapi_cyclesCounter.o
 .comment       0x000000000000007f       0x80 examples_c/sapi/rtc/out/libs/sapi/sapi_v0.5.2/soc/peripherals/src/sapi_uart.o
 .comment       0x000000000000007f       0x80 examples_c/sapi/rtc/out/libs/sapi/sapi_v0.5.2/soc/peripherals/src/sapi_rtc.o
 .comment       0x000000000000007f       0x80 examples_c/sapi/rtc/out/libs/sapi/sapi_v0.5.2/soc/peripherals/src/sapi_tick.o
 .comment       0x000000000000007f       0x80 examples_c/sapi/rtc/out/libs/sapi/sapi_v0.5.2/soc/peripherals/src/sapi_gpio.o
 .comment       0x000000000000007f       0x80 examples_c/sapi/rtc/out/libs/sapi/sapi_v0.5.2/soc/peripherals/usb/device/src/sapi_usb_device.o
 .comment       0x000000000000007f       0x80 examples_c/sapi/rtc/out/libs/sapi/sapi_v0.5.2/board/src/sapi_board.o
 .comment       0x000000000000007f       0x80 examples_c/sapi/rtc/out/libs/sapi/sapi_v0.5.2/abstract_modules/src/sapi_delay.o
 .comment       0x000000000000007f       0x80 examples_c/sapi/rtc/out/libs/sapi/sapi_v0.5.2/external_peripherals/src/sapi_ultrasonic_hcsr04.o

.ARM.attributes
                0x0000000000000000       0x37
 .ARM.attributes
                0x0000000000000000       0x39 examples_c/sapi/rtc/out/examples_c/sapi/rtc/src/rtc.o
 .ARM.attributes
                0x0000000000000039       0x39 examples_c/sapi/rtc/out/libs/cmsis_core//src/armv7m_startup.o
 .ARM.attributes
                0x0000000000000072       0x39 examples_c/sapi/rtc/out/libs/sys_newlib//src/system.o
 .ARM.attributes
                0x00000000000000ab       0x39 examples_c/sapi/rtc/out/libs/lpc_open/boards/edu_ciaa_nxp/src/board.o
 .ARM.attributes
                0x00000000000000e4       0x39 examples_c/sapi/rtc/out/libs/lpc_open/boards/edu_ciaa_nxp/src/board_sysinit.o
 .ARM.attributes
                0x000000000000011d       0x39 examples_c/sapi/rtc/out/libs/lpc_open/lpc_chip_43xx/src/uart_18xx_43xx.o
 .ARM.attributes
                0x0000000000000156       0x39 examples_c/sapi/rtc/out/libs/lpc_open/lpc_chip_43xx/src/adc_18xx_43xx.o
 .ARM.attributes
                0x000000000000018f       0x39 examples_c/sapi/rtc/out/libs/lpc_open/lpc_chip_43xx/src/clock_18xx_43xx.o
 .ARM.attributes
                0x00000000000001c8       0x39 examples_c/sapi/rtc/out/libs/lpc_open/lpc_chip_43xx/src/chip_18xx_43xx.o
 .ARM.attributes
                0x0000000000000201       0x39 examples_c/sapi/rtc/out/libs/lpc_open/lpc_chip_43xx/src/sysinit_18xx_43xx.o
 .ARM.attributes
                0x000000000000023a       0x39 examples_c/sapi/rtc/out/libs/lpc_open/lpc_chip_43xx/src/rtc_18xx_43xx.o
 .ARM.attributes
                0x0000000000000273       0x39 examples_c/sapi/rtc/out/libs/lpc_open/lpc_chip_43xx/src/gpio_18xx_43xx.o
 .ARM.attributes
                0x00000000000002ac       0x39 examples_c/sapi/rtc/out/libs/lpc_open/lpc_chip_43xx/src/i2c_18xx_43xx.o
 .ARM.attributes
                0x00000000000002e5       0x39 examples_c/sapi/rtc/out/libs/lpc_open/lpc_chip_43xx/src/ssp_18xx_43xx.o
 .ARM.attributes
                0x000000000000031e       0x39 examples_c/sapi/rtc/out/libs/lpc_open/lpc_startup/src/crp.o
 .ARM.attributes
                0x0000000000000357       0x39 examples_c/sapi/rtc/out/libs/lpc_open/lpc_startup/src/sysinit.o
 .ARM.attributes
                0x0000000000000390       0x39 examples_c/sapi/rtc/out/libs/lpc_open/lpc_startup/src/vendor_interrupt.o
 .ARM.attributes
                0x00000000000003c9       0x39 examples_c/sapi/rtc/out/libs/sapi/sapi_v0.5.2/soc/core/src/sapi_cyclesCounter.o
 .ARM.attributes
                0x0000000000000402       0x39 examples_c/sapi/rtc/out/libs/sapi/sapi_v0.5.2/soc/peripherals/src/sapi_uart.o
 .ARM.attributes
                0x000000000000043b       0x39 examples_c/sapi/rtc/out/libs/sapi/sapi_v0.5.2/soc/peripherals/src/sapi_rtc.o
 .ARM.attributes
                0x0000000000000474       0x39 examples_c/sapi/rtc/out/libs/sapi/sapi_v0.5.2/soc/peripherals/src/sapi_tick.o
 .ARM.attributes
                0x00000000000004ad       0x39 examples_c/sapi/rtc/out/libs/sapi/sapi_v0.5.2/soc/peripherals/src/sapi_gpio.o
 .ARM.attributes
                0x00000000000004e6       0x39 examples_c/sapi/rtc/out/libs/sapi/sapi_v0.5.2/soc/peripherals/usb/device/src/sapi_usb_device.o
 .ARM.attributes
                0x000000000000051f       0x39 examples_c/sapi/rtc/out/libs/sapi/sapi_v0.5.2/board/src/sapi_board.o
 .ARM.attributes
                0x0000000000000558       0x39 examples_c/sapi/rtc/out/libs/sapi/sapi_v0.5.2/abstract_modules/src/sapi_delay.o
 .ARM.attributes
                0x0000000000000591       0x39 examples_c/sapi/rtc/out/libs/sapi/sapi_v0.5.2/external_peripherals/src/sapi_ultrasonic_hcsr04.o
 .ARM.attributes
                0x00000000000005ca       0x22 /home/mparamidani/CIAA/gcc-arm-none-eabi-7-2018-q2-update/bin/../lib/gcc/arm-none-eabi/7.3.1/thumb/v7e-m/fpv4-sp/hard/libgcc.a(_aeabi_uldivmod.o)
 .ARM.attributes
                0x00000000000005ec       0x34 /home/mparamidani/CIAA/gcc-arm-none-eabi-7-2018-q2-update/bin/../lib/gcc/arm-none-eabi/7.3.1/thumb/v7e-m/fpv4-sp/hard/libgcc.a(_udivmoddi4.o)
 .ARM.attributes
                0x0000000000000620       0x22 /home/mparamidani/CIAA/gcc-arm-none-eabi-7-2018-q2-update/bin/../lib/gcc/arm-none-eabi/7.3.1/thumb/v7e-m/fpv4-sp/hard/libgcc.a(_dvmd_tls.o)
 .ARM.attributes
                0x0000000000000642       0x34 /home/mparamidani/CIAA/gcc-arm-none-eabi-7-2018-q2-update/bin/../lib/gcc/arm-none-eabi/7.3.1/../../../../arm-none-eabi/lib/thumb/v7e-m/fpv4-sp/hard/libc_nano.a(lib_a-init.o)
 .ARM.attributes
                0x0000000000000676       0x34 /home/mparamidani/CIAA/gcc-arm-none-eabi-7-2018-q2-update/bin/../lib/gcc/arm-none-eabi/7.3.1/../../../../arm-none-eabi/lib/thumb/v7e-m/fpv4-sp/hard/libc_nano.a(lib_a-memset.o)

.debug_frame    0x0000000000000000     0x19a0
 .debug_frame   0x0000000000000000       0x7c examples_c/sapi/rtc/out/examples_c/sapi/rtc/src/rtc.o
 .debug_frame   0x000000000000007c      0x114 examples_c/sapi/rtc/out/libs/cmsis_core//src/armv7m_startup.o
 .debug_frame   0x0000000000000190      0x1d8 examples_c/sapi/rtc/out/libs/sys_newlib//src/system.o
 .debug_frame   0x0000000000000368      0x204 examples_c/sapi/rtc/out/libs/lpc_open/boards/edu_ciaa_nxp/src/board.o
 .debug_frame   0x000000000000056c       0x5c examples_c/sapi/rtc/out/libs/lpc_open/boards/edu_ciaa_nxp/src/board_sysinit.o
 .debug_frame   0x00000000000005c8      0x1f4 examples_c/sapi/rtc/out/libs/lpc_open/lpc_chip_43xx/src/uart_18xx_43xx.o
 .debug_frame   0x00000000000007bc      0x160 examples_c/sapi/rtc/out/libs/lpc_open/lpc_chip_43xx/src/adc_18xx_43xx.o
 .debug_frame   0x000000000000091c      0x318 examples_c/sapi/rtc/out/libs/lpc_open/lpc_chip_43xx/src/clock_18xx_43xx.o
 .debug_frame   0x0000000000000c34       0x70 examples_c/sapi/rtc/out/libs/lpc_open/lpc_chip_43xx/src/chip_18xx_43xx.o
 .debug_frame   0x0000000000000ca4       0x7c examples_c/sapi/rtc/out/libs/lpc_open/lpc_chip_43xx/src/sysinit_18xx_43xx.o
 .debug_frame   0x0000000000000d20      0x10c examples_c/sapi/rtc/out/libs/lpc_open/lpc_chip_43xx/src/rtc_18xx_43xx.o
 .debug_frame   0x0000000000000e2c       0x30 examples_c/sapi/rtc/out/libs/lpc_open/lpc_chip_43xx/src/gpio_18xx_43xx.o
 .debug_frame   0x0000000000000e5c      0x270 examples_c/sapi/rtc/out/libs/lpc_open/lpc_chip_43xx/src/i2c_18xx_43xx.o
 .debug_frame   0x00000000000010cc      0x198 examples_c/sapi/rtc/out/libs/lpc_open/lpc_chip_43xx/src/ssp_18xx_43xx.o
 .debug_frame   0x0000000000001264       0x28 examples_c/sapi/rtc/out/libs/lpc_open/lpc_startup/src/sysinit.o
 .debug_frame   0x000000000000128c       0x20 examples_c/sapi/rtc/out/libs/lpc_open/lpc_startup/src/vendor_interrupt.o
 .debug_frame   0x00000000000012ac       0x74 examples_c/sapi/rtc/out/libs/sapi/sapi_v0.5.2/soc/core/src/sapi_cyclesCounter.o
 .debug_frame   0x0000000000001320      0x170 examples_c/sapi/rtc/out/libs/sapi/sapi_v0.5.2/soc/peripherals/src/sapi_uart.o
 .debug_frame   0x0000000000001490       0x68 examples_c/sapi/rtc/out/libs/sapi/sapi_v0.5.2/soc/peripherals/src/sapi_rtc.o
 .debug_frame   0x00000000000014f8       0x84 examples_c/sapi/rtc/out/libs/sapi/sapi_v0.5.2/soc/peripherals/src/sapi_tick.o
 .debug_frame   0x000000000000157c       0xa4 examples_c/sapi/rtc/out/libs/sapi/sapi_v0.5.2/soc/peripherals/src/sapi_gpio.o
 .debug_frame   0x0000000000001620       0xb8 examples_c/sapi/rtc/out/libs/sapi/sapi_v0.5.2/soc/peripherals/usb/device/src/sapi_usb_device.o
 .debug_frame   0x00000000000016d8       0x28 examples_c/sapi/rtc/out/libs/sapi/sapi_v0.5.2/board/src/sapi_board.o
 .debug_frame   0x0000000000001700       0xc8 examples_c/sapi/rtc/out/libs/sapi/sapi_v0.5.2/abstract_modules/src/sapi_delay.o
 .debug_frame   0x00000000000017c8      0x12c examples_c/sapi/rtc/out/libs/sapi/sapi_v0.5.2/external_peripherals/src/sapi_ultrasonic_hcsr04.o
 .debug_frame   0x00000000000018f4       0x2c /home/mparamidani/CIAA/gcc-arm-none-eabi-7-2018-q2-update/bin/../lib/gcc/arm-none-eabi/7.3.1/thumb/v7e-m/fpv4-sp/hard/libgcc.a(_aeabi_uldivmod.o)
 .debug_frame   0x0000000000001920       0x34 /home/mparamidani/CIAA/gcc-arm-none-eabi-7-2018-q2-update/bin/../lib/gcc/arm-none-eabi/7.3.1/thumb/v7e-m/fpv4-sp/hard/libgcc.a(_udivmoddi4.o)
 .debug_frame   0x0000000000001954       0x2c /home/mparamidani/CIAA/gcc-arm-none-eabi-7-2018-q2-update/bin/../lib/gcc/arm-none-eabi/7.3.1/../../../../arm-none-eabi/lib/thumb/v7e-m/fpv4-sp/hard/libc_nano.a(lib_a-init.o)
 .debug_frame   0x0000000000001980       0x20 /home/mparamidani/CIAA/gcc-arm-none-eabi-7-2018-q2-update/bin/../lib/gcc/arm-none-eabi/7.3.1/../../../../arm-none-eabi/lib/thumb/v7e-m/fpv4-sp/hard/libc_nano.a(lib_a-memset.o)

Cross Reference Table

Symbol                                            File
ADC0_IRQHandler                                   examples_c/sapi/rtc/out/libs/lpc_open/lpc_startup/src/vendor_interrupt.o
ADC1_IRQHandler                                   examples_c/sapi/rtc/out/libs/lpc_open/lpc_startup/src/vendor_interrupt.o
ADCHS_IRQHandler                                  examples_c/sapi/rtc/out/libs/lpc_open/lpc_startup/src/vendor_interrupt.o
ATIMER_IRQHandler                                 examples_c/sapi/rtc/out/libs/lpc_open/lpc_startup/src/vendor_interrupt.o
Board_ADC_ReadBegin                               examples_c/sapi/rtc/out/libs/lpc_open/boards/edu_ciaa_nxp/src/board.o
Board_ADC_ReadEnd                                 examples_c/sapi/rtc/out/libs/lpc_open/boards/edu_ciaa_nxp/src/board.o
Board_ADC_ReadWait                                examples_c/sapi/rtc/out/libs/lpc_open/boards/edu_ciaa_nxp/src/board.o
Board_Debug_Init                                  examples_c/sapi/rtc/out/libs/lpc_open/boards/edu_ciaa_nxp/src/board.o
Board_Init                                        examples_c/sapi/rtc/out/libs/lpc_open/boards/edu_ciaa_nxp/src/board.o
                                                  examples_c/sapi/rtc/out/libs/lpc_open/lpc_startup/src/sysinit.o
Board_LED_Set                                     examples_c/sapi/rtc/out/libs/lpc_open/boards/edu_ciaa_nxp/src/board.o
Board_LED_Test                                    examples_c/sapi/rtc/out/libs/lpc_open/boards/edu_ciaa_nxp/src/board.o
Board_LED_Toggle                                  examples_c/sapi/rtc/out/libs/lpc_open/boards/edu_ciaa_nxp/src/board.o
Board_SetupClocking                               examples_c/sapi/rtc/out/libs/lpc_open/boards/edu_ciaa_nxp/src/board_sysinit.o
Board_SetupMuxing                                 examples_c/sapi/rtc/out/libs/lpc_open/boards/edu_ciaa_nxp/src/board_sysinit.o
Board_SystemInit                                  examples_c/sapi/rtc/out/libs/lpc_open/boards/edu_ciaa_nxp/src/board_sysinit.o
                                                  examples_c/sapi/rtc/out/libs/lpc_open/lpc_startup/src/sysinit.o
Board_TEC_GetStatus                               examples_c/sapi/rtc/out/libs/lpc_open/boards/edu_ciaa_nxp/src/board.o
Board_UARTGetChar                                 examples_c/sapi/rtc/out/libs/lpc_open/boards/edu_ciaa_nxp/src/board.o
Board_UARTPutChar                                 examples_c/sapi/rtc/out/libs/lpc_open/boards/edu_ciaa_nxp/src/board.o
Board_UARTPutSTR                                  examples_c/sapi/rtc/out/libs/lpc_open/boards/edu_ciaa_nxp/src/board.o
BusFault_Handler                                  examples_c/sapi/rtc/out/libs/cmsis_core//src/armv7m_startup.o
CAN0_IRQHandler                                   examples_c/sapi/rtc/out/libs/lpc_open/lpc_startup/src/vendor_interrupt.o
CAN1_IRQHandler                                   examples_c/sapi/rtc/out/libs/lpc_open/lpc_startup/src/vendor_interrupt.o
CRP_WORD                                          examples_c/sapi/rtc/out/libs/lpc_open/lpc_startup/src/crp.o
Chip_ADC_DeInit                                   examples_c/sapi/rtc/out/libs/lpc_open/lpc_chip_43xx/src/adc_18xx_43xx.o
                                                  examples_c/sapi/rtc/out/libs/sapi/sapi_v0.5.2/soc/peripherals/src/sapi_adc.o
Chip_ADC_EnableChannel                            examples_c/sapi/rtc/out/libs/lpc_open/lpc_chip_43xx/src/adc_18xx_43xx.o
                                                  examples_c/sapi/rtc/out/libs/sapi/sapi_v0.5.2/soc/peripherals/src/sapi_adc.o
                                                  examples_c/sapi/rtc/out/libs/lpc_open/boards/edu_ciaa_nxp/src/board.o
Chip_ADC_Init                                     examples_c/sapi/rtc/out/libs/lpc_open/lpc_chip_43xx/src/adc_18xx_43xx.o
                                                  examples_c/sapi/rtc/out/libs/sapi/sapi_v0.5.2/soc/peripherals/src/sapi_adc.o
                                                  examples_c/sapi/rtc/out/libs/lpc_open/boards/edu_ciaa_nxp/src/board.o
Chip_ADC_Int_SetChannelCmd                        examples_c/sapi/rtc/out/libs/lpc_open/lpc_chip_43xx/src/adc_18xx_43xx.o
                                                  examples_c/sapi/rtc/out/libs/sapi/sapi_v0.5.2/soc/peripherals/src/sapi_adc.o
Chip_ADC_ReadByte                                 examples_c/sapi/rtc/out/libs/lpc_open/lpc_chip_43xx/src/adc_18xx_43xx.o
Chip_ADC_ReadStatus                               examples_c/sapi/rtc/out/libs/lpc_open/lpc_chip_43xx/src/adc_18xx_43xx.o
                                                  examples_c/sapi/rtc/out/libs/sapi/sapi_v0.5.2/soc/peripherals/src/sapi_adc.o
                                                  examples_c/sapi/rtc/out/libs/lpc_open/boards/edu_ciaa_nxp/src/board.o
Chip_ADC_ReadValue                                examples_c/sapi/rtc/out/libs/lpc_open/lpc_chip_43xx/src/adc_18xx_43xx.o
                                                  examples_c/sapi/rtc/out/libs/sapi/sapi_v0.5.2/soc/peripherals/src/sapi_adc.o
                                                  examples_c/sapi/rtc/out/libs/lpc_open/boards/edu_ciaa_nxp/src/board.o
Chip_ADC_SetBurstCmd                              examples_c/sapi/rtc/out/libs/lpc_open/lpc_chip_43xx/src/adc_18xx_43xx.o
                                                  examples_c/sapi/rtc/out/libs/sapi/sapi_v0.5.2/soc/peripherals/src/sapi_adc.o
                                                  examples_c/sapi/rtc/out/libs/lpc_open/boards/edu_ciaa_nxp/src/board.o
Chip_ADC_SetResolution                            examples_c/sapi/rtc/out/libs/lpc_open/lpc_chip_43xx/src/adc_18xx_43xx.o
                                                  examples_c/sapi/rtc/out/libs/lpc_open/boards/edu_ciaa_nxp/src/board.o
Chip_ADC_SetSampleRate                            examples_c/sapi/rtc/out/libs/lpc_open/lpc_chip_43xx/src/adc_18xx_43xx.o
                                                  examples_c/sapi/rtc/out/libs/sapi/sapi_v0.5.2/soc/peripherals/src/sapi_adc.o
                                                  examples_c/sapi/rtc/out/libs/lpc_open/boards/edu_ciaa_nxp/src/board.o
Chip_ADC_SetStartMode                             examples_c/sapi/rtc/out/libs/lpc_open/lpc_chip_43xx/src/adc_18xx_43xx.o
                                                  examples_c/sapi/rtc/out/libs/sapi/sapi_v0.5.2/soc/peripherals/src/sapi_adc.o
                                                  examples_c/sapi/rtc/out/libs/lpc_open/boards/edu_ciaa_nxp/src/board.o
Chip_AES_Config_DMA                               examples_c/sapi/rtc/out/libs/lpc_open/lpc_chip_43xx/src/aes_18xx_43xx.o
Chip_AES_GetStatusDMA                             examples_c/sapi/rtc/out/libs/lpc_open/lpc_chip_43xx/src/aes_18xx_43xx.o
Chip_AES_Init                                     examples_c/sapi/rtc/out/libs/lpc_open/lpc_chip_43xx/src/aes_18xx_43xx.o
Chip_AES_LoadIV_IC                                examples_c/sapi/rtc/out/libs/lpc_open/lpc_chip_43xx/src/aes_18xx_43xx.o
Chip_AES_LoadIV_SW                                examples_c/sapi/rtc/out/libs/lpc_open/lpc_chip_43xx/src/aes_18xx_43xx.o
Chip_AES_LoadKey                                  examples_c/sapi/rtc/out/libs/lpc_open/lpc_chip_43xx/src/aes_18xx_43xx.o
Chip_AES_LoadKeyRNG                               examples_c/sapi/rtc/out/libs/lpc_open/lpc_chip_43xx/src/aes_18xx_43xx.o
Chip_AES_LoadKeySW                                examples_c/sapi/rtc/out/libs/lpc_open/lpc_chip_43xx/src/aes_18xx_43xx.o
Chip_AES_Operate                                  examples_c/sapi/rtc/out/libs/lpc_open/lpc_chip_43xx/src/aes_18xx_43xx.o
Chip_AES_OperateDMA                               examples_c/sapi/rtc/out/libs/lpc_open/lpc_chip_43xx/src/aes_18xx_43xx.o
Chip_AES_ProgramKey                               examples_c/sapi/rtc/out/libs/lpc_open/lpc_chip_43xx/src/aes_18xx_43xx.o
Chip_AES_SetMode                                  examples_c/sapi/rtc/out/libs/lpc_open/lpc_chip_43xx/src/aes_18xx_43xx.o
Chip_ATIMER_DeInit                                examples_c/sapi/rtc/out/libs/lpc_open/lpc_chip_43xx/src/atimer_18xx_43xx.o
Chip_ATIMER_Init                                  examples_c/sapi/rtc/out/libs/lpc_open/lpc_chip_43xx/src/atimer_18xx_43xx.o
Chip_CCAN_AddReceiveID                            examples_c/sapi/rtc/out/libs/lpc_open/lpc_chip_43xx/src/ccan_18xx_43xx.o
Chip_CCAN_ClearStatus                             examples_c/sapi/rtc/out/libs/lpc_open/lpc_chip_43xx/src/ccan_18xx_43xx.o
Chip_CCAN_DeInit                                  examples_c/sapi/rtc/out/libs/lpc_open/lpc_chip_43xx/src/ccan_18xx_43xx.o
Chip_CCAN_DeleteReceiveID                         examples_c/sapi/rtc/out/libs/lpc_open/lpc_chip_43xx/src/ccan_18xx_43xx.o
Chip_CCAN_GetMsgObject                            examples_c/sapi/rtc/out/libs/lpc_open/lpc_chip_43xx/src/ccan_18xx_43xx.o
Chip_CCAN_Init                                    examples_c/sapi/rtc/out/libs/lpc_open/lpc_chip_43xx/src/ccan_18xx_43xx.o
Chip_CCAN_Send                                    examples_c/sapi/rtc/out/libs/lpc_open/lpc_chip_43xx/src/ccan_18xx_43xx.o
Chip_CCAN_SetBitRate                              examples_c/sapi/rtc/out/libs/lpc_open/lpc_chip_43xx/src/ccan_18xx_43xx.o
Chip_CCAN_SetMsgObject                            examples_c/sapi/rtc/out/libs/lpc_open/lpc_chip_43xx/src/ccan_18xx_43xx.o
Chip_CCAN_SetValidMsg                             examples_c/sapi/rtc/out/libs/lpc_open/lpc_chip_43xx/src/ccan_18xx_43xx.o
Chip_CCAN_TransferMsgObject                       examples_c/sapi/rtc/out/libs/lpc_open/lpc_chip_43xx/src/ccan_18xx_43xx.o
Chip_Clock_CalcMainPLLValue                       examples_c/sapi/rtc/out/libs/lpc_open/lpc_chip_43xx/src/clock_18xx_43xx.o
                                                  examples_c/sapi/rtc/out/libs/lpc_open/lpc_chip_43xx/src/sysinit_18xx_43xx.o
Chip_Clock_ClearPowerDown                         examples_c/sapi/rtc/out/libs/lpc_open/lpc_chip_43xx/src/clock_18xx_43xx.o
Chip_Clock_Disable                                examples_c/sapi/rtc/out/libs/lpc_open/lpc_chip_43xx/src/clock_18xx_43xx.o
                                                  examples_c/sapi/rtc/out/libs/lpc_open/lpc_chip_43xx/src/ssp_18xx_43xx.o
                                                  examples_c/sapi/rtc/out/libs/lpc_open/lpc_chip_43xx/src/enet_18xx_43xx.o
                                                  examples_c/sapi/rtc/out/libs/lpc_open/lpc_chip_43xx/src/gpdma_18xx_43xx.o
                                                  examples_c/sapi/rtc/out/libs/lpc_open/lpc_chip_43xx/src/i2c_18xx_43xx.o
                                                  examples_c/sapi/rtc/out/libs/lpc_open/lpc_chip_43xx/src/spi_18xx_43xx.o
                                                  examples_c/sapi/rtc/out/libs/lpc_open/lpc_chip_43xx/src/sct_18xx_43xx.o
                                                  examples_c/sapi/rtc/out/libs/lpc_open/lpc_chip_43xx/src/dac_18xx_43xx.o
                                                  examples_c/sapi/rtc/out/libs/lpc_open/lpc_chip_43xx/src/i2cm_18xx_43xx.o
                                                  examples_c/sapi/rtc/out/libs/lpc_open/lpc_chip_43xx/src/timer_18xx_43xx.o
                                                  examples_c/sapi/rtc/out/libs/lpc_open/lpc_chip_43xx/src/sdif_18xx_43xx.o
                                                  examples_c/sapi/rtc/out/libs/lpc_open/lpc_chip_43xx/src/adc_18xx_43xx.o
                                                  examples_c/sapi/rtc/out/libs/lpc_open/lpc_chip_43xx/src/uart_18xx_43xx.o
                                                  examples_c/sapi/rtc/out/libs/lpc_open/lpc_chip_43xx/src/lcd_18xx_43xx.o
                                                  examples_c/sapi/rtc/out/libs/lpc_open/lpc_chip_43xx/src/i2s_18xx_43xx.o
                                                  examples_c/sapi/rtc/out/libs/lpc_open/lpc_chip_43xx/src/ritimer_18xx_43xx.o
                                                  examples_c/sapi/rtc/out/libs/lpc_open/lpc_chip_43xx/src/ccan_18xx_43xx.o
Chip_Clock_DisableBaseClock                       examples_c/sapi/rtc/out/libs/lpc_open/lpc_chip_43xx/src/clock_18xx_43xx.o
Chip_Clock_DisableCrystal                         examples_c/sapi/rtc/out/libs/lpc_open/lpc_chip_43xx/src/clock_18xx_43xx.o
Chip_Clock_DisablePLL                             examples_c/sapi/rtc/out/libs/lpc_open/lpc_chip_43xx/src/clock_18xx_43xx.o
Chip_Clock_Enable                                 examples_c/sapi/rtc/out/libs/lpc_open/lpc_chip_43xx/src/clock_18xx_43xx.o
                                                  examples_c/sapi/rtc/out/libs/lpc_open/lpc_chip_43xx/src/ssp_18xx_43xx.o
                                                  examples_c/sapi/rtc/out/libs/lpc_open/lpc_chip_43xx/src/i2c_18xx_43xx.o
                                                  examples_c/sapi/rtc/out/libs/lpc_open/lpc_chip_43xx/src/spi_18xx_43xx.o
                                                  examples_c/sapi/rtc/out/libs/lpc_open/lpc_chip_43xx/src/i2cm_18xx_43xx.o
                                                  examples_c/sapi/rtc/out/libs/lpc_open/lpc_chip_43xx/src/timer_18xx_43xx.o
                                                  examples_c/sapi/rtc/out/libs/lpc_open/lpc_chip_43xx/src/i2s_18xx_43xx.o
Chip_Clock_EnableBaseClock                        examples_c/sapi/rtc/out/libs/lpc_open/lpc_chip_43xx/src/clock_18xx_43xx.o
                                                  examples_c/sapi/rtc/out/libs/lpc_open/lpc_chip_43xx/src/chip_18xx_43xx.o
Chip_Clock_EnableCrystal                          examples_c/sapi/rtc/out/libs/lpc_open/lpc_chip_43xx/src/clock_18xx_43xx.o
                                                  examples_c/sapi/rtc/out/libs/lpc_open/lpc_chip_43xx/src/sysinit_18xx_43xx.o
Chip_Clock_EnableOpts                             examples_c/sapi/rtc/out/libs/lpc_open/lpc_chip_43xx/src/clock_18xx_43xx.o
                                                  examples_c/sapi/rtc/out/libs/sapi/sapi_v0.5.2/soc/peripherals/src/sapi_dac.o
                                                  examples_c/sapi/rtc/out/libs/lpc_open/lpc_chip_43xx/src/enet_18xx_43xx.o
                                                  examples_c/sapi/rtc/out/libs/lpc_open/lpc_chip_43xx/src/gpdma_18xx_43xx.o
                                                  examples_c/sapi/rtc/out/libs/lpc_open/lpc_chip_43xx/src/sct_18xx_43xx.o
                                                  examples_c/sapi/rtc/out/libs/lpc_open/lpc_chip_43xx/src/dac_18xx_43xx.o
                                                  examples_c/sapi/rtc/out/libs/lpc_open/lpc_chip_43xx/src/sdif_18xx_43xx.o
                                                  examples_c/sapi/rtc/out/libs/lpc_open/lpc_chip_43xx/src/chip_18xx_43xx.o
                                                  examples_c/sapi/rtc/out/libs/lpc_open/lpc_chip_43xx/src/adc_18xx_43xx.o
                                                  examples_c/sapi/rtc/out/libs/lpc_open/lpc_chip_43xx/src/uart_18xx_43xx.o
                                                  examples_c/sapi/rtc/out/libs/lpc_open/lpc_chip_43xx/src/lcd_18xx_43xx.o
                                                  examples_c/sapi/rtc/out/libs/lpc_open/lpc_chip_43xx/src/ritimer_18xx_43xx.o
                                                  examples_c/sapi/rtc/out/libs/lpc_open/lpc_chip_43xx/src/ccan_18xx_43xx.o
Chip_Clock_EnablePLL                              examples_c/sapi/rtc/out/libs/lpc_open/lpc_chip_43xx/src/clock_18xx_43xx.o
                                                  examples_c/sapi/rtc/out/libs/lpc_open/lpc_chip_43xx/src/chip_18xx_43xx.o
Chip_Clock_GetBaseClock                           examples_c/sapi/rtc/out/libs/lpc_open/lpc_chip_43xx/src/clock_18xx_43xx.o
Chip_Clock_GetBaseClockOpts                       examples_c/sapi/rtc/out/libs/lpc_open/lpc_chip_43xx/src/clock_18xx_43xx.o
Chip_Clock_GetBaseClocktHz                        examples_c/sapi/rtc/out/libs/lpc_open/lpc_chip_43xx/src/clock_18xx_43xx.o
                                                  examples_c/sapi/rtc/out/libs/lpc_open/lpc_chip_43xx/src/sdio_18xx_43xx.o
                                                  examples_c/sapi/rtc/out/libs/lpc_open/lpc_chip_43xx/src/sdmmc_18xx_43xx.o
Chip_Clock_GetClockInputHz                        examples_c/sapi/rtc/out/libs/lpc_open/lpc_chip_43xx/src/clock_18xx_43xx.o
                                                  examples_c/sapi/rtc/out/libs/lpc_open/lpc_chip_43xx/src/chip_18xx_43xx.o
Chip_Clock_GetDividerDivisor                      examples_c/sapi/rtc/out/libs/lpc_open/lpc_chip_43xx/src/clock_18xx_43xx.o
Chip_Clock_GetDividerSource                       examples_c/sapi/rtc/out/libs/lpc_open/lpc_chip_43xx/src/clock_18xx_43xx.o
Chip_Clock_GetEMCRate                             examples_c/sapi/rtc/out/libs/lpc_open/lpc_chip_43xx/src/clock_18xx_43xx.o
                                                  examples_c/sapi/rtc/out/libs/lpc_open/lpc_chip_43xx/src/emc_18xx_43xx.o
Chip_Clock_GetMainPLLHz                           examples_c/sapi/rtc/out/libs/lpc_open/lpc_chip_43xx/src/clock_18xx_43xx.o
Chip_Clock_GetPLLStatus                           examples_c/sapi/rtc/out/libs/lpc_open/lpc_chip_43xx/src/clock_18xx_43xx.o
                                                  examples_c/sapi/rtc/out/libs/lpc_open/lpc_chip_43xx/src/chip_18xx_43xx.o
Chip_Clock_GetRate                                examples_c/sapi/rtc/out/libs/lpc_open/lpc_chip_43xx/src/clock_18xx_43xx.o
                                                  examples_c/sapi/rtc/out/libs/lpc_open/lpc_chip_43xx/src/ssp_18xx_43xx.o
                                                  examples_c/sapi/rtc/out/libs/lpc_open/lpc_chip_43xx/src/sct_pwm_18xx_43xx.o
                                                  examples_c/sapi/rtc/out/libs/lpc_open/lpc_chip_43xx/src/i2c_18xx_43xx.o
                                                  examples_c/sapi/rtc/out/libs/lpc_open/lpc_chip_43xx/src/spi_18xx_43xx.o
                                                  examples_c/sapi/rtc/out/libs/lpc_open/lpc_chip_43xx/src/eeprom_18xx_43xx.o
                                                  examples_c/sapi/rtc/out/libs/lpc_open/lpc_chip_43xx/src/i2cm_18xx_43xx.o
                                                  examples_c/sapi/rtc/out/libs/lpc_open/lpc_chip_43xx/src/stopwatch_18xx_43xx.o
                                                  examples_c/sapi/rtc/out/libs/lpc_open/lpc_chip_43xx/src/chip_18xx_43xx.o
                                                  examples_c/sapi/rtc/out/libs/lpc_open/lpc_chip_43xx/src/adc_18xx_43xx.o
                                                  examples_c/sapi/rtc/out/libs/lpc_open/lpc_chip_43xx/src/uart_18xx_43xx.o
                                                  examples_c/sapi/rtc/out/libs/lpc_open/lpc_chip_43xx/src/i2s_18xx_43xx.o
                                                  examples_c/sapi/rtc/out/libs/lpc_open/lpc_chip_43xx/src/ritimer_18xx_43xx.o
                                                  examples_c/sapi/rtc/out/libs/lpc_open/lpc_chip_43xx/src/ccan_18xx_43xx.o
Chip_Clock_IsBaseClockEnabled                     examples_c/sapi/rtc/out/libs/lpc_open/lpc_chip_43xx/src/clock_18xx_43xx.o
Chip_Clock_RTCEnable                              examples_c/sapi/rtc/out/libs/lpc_open/lpc_chip_43xx/src/clock_18xx_43xx.o
                                                  examples_c/sapi/rtc/out/libs/lpc_open/lpc_chip_43xx/src/rtc_18xx_43xx.o
Chip_Clock_SetBaseClock                           examples_c/sapi/rtc/out/libs/lpc_open/lpc_chip_43xx/src/clock_18xx_43xx.o
                                                  examples_c/sapi/rtc/out/libs/lpc_open/lpc_chip_43xx/src/sysinit_18xx_43xx.o
                                                  examples_c/sapi/rtc/out/libs/lpc_open/lpc_chip_43xx/src/chip_18xx_43xx.o
                                                  examples_c/sapi/rtc/out/libs/lpc_open/boards/edu_ciaa_nxp/src/board_sysinit.o
Chip_Clock_SetDivider                             examples_c/sapi/rtc/out/libs/lpc_open/lpc_chip_43xx/src/clock_18xx_43xx.o
                                                  examples_c/sapi/rtc/out/libs/lpc_open/lpc_chip_43xx/src/chip_18xx_43xx.o
Chip_Clock_SetupMainPLLHz                         examples_c/sapi/rtc/out/libs/lpc_open/lpc_chip_43xx/src/clock_18xx_43xx.o
Chip_Clock_SetupMainPLLMult                       examples_c/sapi/rtc/out/libs/lpc_open/lpc_chip_43xx/src/clock_18xx_43xx.o
Chip_Clock_SetupPLL                               examples_c/sapi/rtc/out/libs/lpc_open/lpc_chip_43xx/src/clock_18xx_43xx.o
                                                  examples_c/sapi/rtc/out/libs/lpc_open/lpc_chip_43xx/src/chip_18xx_43xx.o
Chip_Clock_StartPowerDown                         examples_c/sapi/rtc/out/libs/lpc_open/lpc_chip_43xx/src/clock_18xx_43xx.o
Chip_DAC_DeInit                                   examples_c/sapi/rtc/out/libs/lpc_open/lpc_chip_43xx/src/dac_18xx_43xx.o
                                                  examples_c/sapi/rtc/out/libs/sapi/sapi_v0.5.2/soc/peripherals/src/sapi_dac.o
Chip_DAC_Init                                     examples_c/sapi/rtc/out/libs/lpc_open/lpc_chip_43xx/src/dac_18xx_43xx.o
Chip_DAC_SetBias                                  examples_c/sapi/rtc/out/libs/lpc_open/lpc_chip_43xx/src/dac_18xx_43xx.o
                                                  examples_c/sapi/rtc/out/libs/sapi/sapi_v0.5.2/soc/peripherals/src/sapi_dac.o
Chip_DAC_UpdateValue                              examples_c/sapi/rtc/out/libs/lpc_open/lpc_chip_43xx/src/dac_18xx_43xx.o
                                                  examples_c/sapi/rtc/out/libs/sapi/sapi_v0.5.2/soc/peripherals/src/sapi_dac.o
Chip_EEPROM_EraseProgramPage                      examples_c/sapi/rtc/out/libs/lpc_open/lpc_chip_43xx/src/eeprom_18xx_43xx.o
Chip_EEPROM_Init                                  examples_c/sapi/rtc/out/libs/lpc_open/lpc_chip_43xx/src/eeprom_18xx_43xx.o
Chip_EEPROM_WaitForIntStatus                      examples_c/sapi/rtc/out/libs/lpc_open/lpc_chip_43xx/src/eeprom_18xx_43xx.o
Chip_EMC_Dynamic_Enable                           examples_c/sapi/rtc/out/libs/lpc_open/lpc_chip_43xx/src/emc_18xx_43xx.o
Chip_EMC_Dynamic_Init                             examples_c/sapi/rtc/out/libs/lpc_open/lpc_chip_43xx/src/emc_18xx_43xx.o
Chip_EMC_Enable                                   examples_c/sapi/rtc/out/libs/lpc_open/lpc_chip_43xx/src/emc_18xx_43xx.o
Chip_EMC_Init                                     examples_c/sapi/rtc/out/libs/lpc_open/lpc_chip_43xx/src/emc_18xx_43xx.o
Chip_EMC_LowPowerMode                             examples_c/sapi/rtc/out/libs/lpc_open/lpc_chip_43xx/src/emc_18xx_43xx.o
Chip_EMC_Mirror                                   examples_c/sapi/rtc/out/libs/lpc_open/lpc_chip_43xx/src/emc_18xx_43xx.o
Chip_EMC_Static_Init                              examples_c/sapi/rtc/out/libs/lpc_open/lpc_chip_43xx/src/emc_18xx_43xx.o
Chip_ENET_DeInit                                  examples_c/sapi/rtc/out/libs/lpc_open/lpc_chip_43xx/src/enet_18xx_43xx.o
Chip_ENET_Init                                    examples_c/sapi/rtc/out/libs/lpc_open/lpc_chip_43xx/src/enet_18xx_43xx.o
Chip_ENET_SetDuplex                               examples_c/sapi/rtc/out/libs/lpc_open/lpc_chip_43xx/src/enet_18xx_43xx.o
Chip_ENET_SetSpeed                                examples_c/sapi/rtc/out/libs/lpc_open/lpc_chip_43xx/src/enet_18xx_43xx.o
Chip_ENET_SetupMII                                examples_c/sapi/rtc/out/libs/lpc_open/lpc_chip_43xx/src/enet_18xx_43xx.o
Chip_ENET_StartMIIRead                            examples_c/sapi/rtc/out/libs/lpc_open/lpc_chip_43xx/src/enet_18xx_43xx.o
Chip_ENET_StartMIIWrite                           examples_c/sapi/rtc/out/libs/lpc_open/lpc_chip_43xx/src/enet_18xx_43xx.o
Chip_EVRT_ConfigIntSrcActiveType                  examples_c/sapi/rtc/out/libs/lpc_open/lpc_chip_43xx/src/evrt_18xx_43xx.o
Chip_EVRT_Init                                    examples_c/sapi/rtc/out/libs/lpc_open/lpc_chip_43xx/src/evrt_18xx_43xx.o
Chip_EVRT_IsSourceInterrupting                    examples_c/sapi/rtc/out/libs/lpc_open/lpc_chip_43xx/src/evrt_18xx_43xx.o
Chip_EVRT_SetUpIntSrc                             examples_c/sapi/rtc/out/libs/lpc_open/lpc_chip_43xx/src/evrt_18xx_43xx.o
Chip_GPDMA_ChannelCmd                             examples_c/sapi/rtc/out/libs/lpc_open/lpc_chip_43xx/src/gpdma_18xx_43xx.o
Chip_GPDMA_ClearIntPending                        examples_c/sapi/rtc/out/libs/lpc_open/lpc_chip_43xx/src/gpdma_18xx_43xx.o
Chip_GPDMA_DeInit                                 examples_c/sapi/rtc/out/libs/lpc_open/lpc_chip_43xx/src/gpdma_18xx_43xx.o
Chip_GPDMA_GetFreeChannel                         examples_c/sapi/rtc/out/libs/lpc_open/lpc_chip_43xx/src/gpdma_18xx_43xx.o
Chip_GPDMA_Init                                   examples_c/sapi/rtc/out/libs/lpc_open/lpc_chip_43xx/src/gpdma_18xx_43xx.o
Chip_GPDMA_InitChannelCfg                         examples_c/sapi/rtc/out/libs/lpc_open/lpc_chip_43xx/src/gpdma_18xx_43xx.o
Chip_GPDMA_IntGetStatus                           examples_c/sapi/rtc/out/libs/lpc_open/lpc_chip_43xx/src/gpdma_18xx_43xx.o
Chip_GPDMA_Interrupt                              examples_c/sapi/rtc/out/libs/lpc_open/lpc_chip_43xx/src/gpdma_18xx_43xx.o
Chip_GPDMA_PrepareDescriptor                      examples_c/sapi/rtc/out/libs/lpc_open/lpc_chip_43xx/src/gpdma_18xx_43xx.o
Chip_GPDMA_SGTransfer                             examples_c/sapi/rtc/out/libs/lpc_open/lpc_chip_43xx/src/gpdma_18xx_43xx.o
Chip_GPDMA_Stop                                   examples_c/sapi/rtc/out/libs/lpc_open/lpc_chip_43xx/src/gpdma_18xx_43xx.o
Chip_GPDMA_Transfer                               examples_c/sapi/rtc/out/libs/lpc_open/lpc_chip_43xx/src/gpdma_18xx_43xx.o
Chip_GPIO_DeInit                                  examples_c/sapi/rtc/out/libs/lpc_open/lpc_chip_43xx/src/gpio_18xx_43xx.o
Chip_GPIO_Init                                    examples_c/sapi/rtc/out/libs/lpc_open/lpc_chip_43xx/src/gpio_18xx_43xx.o
                                                  examples_c/sapi/rtc/out/libs/sapi/sapi_v0.5.2/soc/peripherals/src/sapi_gpio.o
                                                  examples_c/sapi/rtc/out/libs/lpc_open/boards/edu_ciaa_nxp/src/board.o
Chip_I2CM_DeInit                                  examples_c/sapi/rtc/out/libs/lpc_open/lpc_chip_43xx/src/i2cm_18xx_43xx.o
Chip_I2CM_Init                                    examples_c/sapi/rtc/out/libs/lpc_open/lpc_chip_43xx/src/i2cm_18xx_43xx.o
Chip_I2CM_Read                                    examples_c/sapi/rtc/out/libs/lpc_open/lpc_chip_43xx/src/i2cm_18xx_43xx.o
Chip_I2CM_SetBusSpeed                             examples_c/sapi/rtc/out/libs/lpc_open/lpc_chip_43xx/src/i2cm_18xx_43xx.o
Chip_I2CM_Write                                   examples_c/sapi/rtc/out/libs/lpc_open/lpc_chip_43xx/src/i2cm_18xx_43xx.o
Chip_I2CM_Xfer                                    examples_c/sapi/rtc/out/libs/lpc_open/lpc_chip_43xx/src/i2cm_18xx_43xx.o
Chip_I2CM_XferBlocking                            examples_c/sapi/rtc/out/libs/lpc_open/lpc_chip_43xx/src/i2cm_18xx_43xx.o
                                                  examples_c/sapi/rtc/out/libs/sapi/sapi_v0.5.2/soc/peripherals/src/sapi_i2c.o
Chip_I2CM_XferHandler                             examples_c/sapi/rtc/out/libs/lpc_open/lpc_chip_43xx/src/i2cm_18xx_43xx.o
Chip_I2C_DeInit                                   examples_c/sapi/rtc/out/libs/lpc_open/lpc_chip_43xx/src/i2c_18xx_43xx.o
Chip_I2C_Disable                                  examples_c/sapi/rtc/out/libs/lpc_open/lpc_chip_43xx/src/i2c_18xx_43xx.o
Chip_I2C_EventHandler                             examples_c/sapi/rtc/out/libs/lpc_open/lpc_chip_43xx/src/i2c_18xx_43xx.o
Chip_I2C_EventHandlerPolling                      examples_c/sapi/rtc/out/libs/lpc_open/lpc_chip_43xx/src/i2c_18xx_43xx.o
                                                  examples_c/sapi/rtc/out/libs/sapi/sapi_v0.5.2/soc/peripherals/src/sapi_i2c.o
Chip_I2C_GetClockRate                             examples_c/sapi/rtc/out/libs/lpc_open/lpc_chip_43xx/src/i2c_18xx_43xx.o
Chip_I2C_GetMasterEventHandler                    examples_c/sapi/rtc/out/libs/lpc_open/lpc_chip_43xx/src/i2c_18xx_43xx.o
Chip_I2C_Init                                     examples_c/sapi/rtc/out/libs/lpc_open/lpc_chip_43xx/src/i2c_18xx_43xx.o
                                                  examples_c/sapi/rtc/out/libs/sapi/sapi_v0.5.2/soc/peripherals/src/sapi_i2c.o
                                                  examples_c/sapi/rtc/out/libs/lpc_open/boards/edu_ciaa_nxp/src/board.o
Chip_I2C_IsMasterActive                           examples_c/sapi/rtc/out/libs/lpc_open/lpc_chip_43xx/src/i2c_18xx_43xx.o
Chip_I2C_IsStateChanged                           examples_c/sapi/rtc/out/libs/lpc_open/lpc_chip_43xx/src/i2c_18xx_43xx.o
Chip_I2C_MasterCmdRead                            examples_c/sapi/rtc/out/libs/lpc_open/lpc_chip_43xx/src/i2c_18xx_43xx.o
Chip_I2C_MasterRead                               examples_c/sapi/rtc/out/libs/lpc_open/lpc_chip_43xx/src/i2c_18xx_43xx.o
Chip_I2C_MasterSend                               examples_c/sapi/rtc/out/libs/lpc_open/lpc_chip_43xx/src/i2c_18xx_43xx.o
Chip_I2C_MasterStateHandler                       examples_c/sapi/rtc/out/libs/lpc_open/lpc_chip_43xx/src/i2c_18xx_43xx.o
Chip_I2C_MasterTransfer                           examples_c/sapi/rtc/out/libs/lpc_open/lpc_chip_43xx/src/i2c_18xx_43xx.o
Chip_I2C_SetClockRate                             examples_c/sapi/rtc/out/libs/lpc_open/lpc_chip_43xx/src/i2c_18xx_43xx.o
                                                  examples_c/sapi/rtc/out/libs/sapi/sapi_v0.5.2/soc/peripherals/src/sapi_i2c.o
                                                  examples_c/sapi/rtc/out/libs/lpc_open/boards/edu_ciaa_nxp/src/board.o
Chip_I2C_SetMasterEventHandler                    examples_c/sapi/rtc/out/libs/lpc_open/lpc_chip_43xx/src/i2c_18xx_43xx.o
                                                  examples_c/sapi/rtc/out/libs/sapi/sapi_v0.5.2/soc/peripherals/src/sapi_i2c.o
Chip_I2C_SlaveSetup                               examples_c/sapi/rtc/out/libs/lpc_open/lpc_chip_43xx/src/i2c_18xx_43xx.o
Chip_I2C_SlaveStateHandler                        examples_c/sapi/rtc/out/libs/lpc_open/lpc_chip_43xx/src/i2c_18xx_43xx.o
Chip_I2S_DMA_RxCmd                                examples_c/sapi/rtc/out/libs/lpc_open/lpc_chip_43xx/src/i2s_18xx_43xx.o
Chip_I2S_DMA_TxCmd                                examples_c/sapi/rtc/out/libs/lpc_open/lpc_chip_43xx/src/i2s_18xx_43xx.o
Chip_I2S_DeInit                                   examples_c/sapi/rtc/out/libs/lpc_open/lpc_chip_43xx/src/i2s_18xx_43xx.o
Chip_I2S_Init                                     examples_c/sapi/rtc/out/libs/lpc_open/lpc_chip_43xx/src/i2s_18xx_43xx.o
Chip_I2S_Int_RxCmd                                examples_c/sapi/rtc/out/libs/lpc_open/lpc_chip_43xx/src/i2s_18xx_43xx.o
Chip_I2S_Int_TxCmd                                examples_c/sapi/rtc/out/libs/lpc_open/lpc_chip_43xx/src/i2s_18xx_43xx.o
Chip_I2S_RxConfig                                 examples_c/sapi/rtc/out/libs/lpc_open/lpc_chip_43xx/src/i2s_18xx_43xx.o
Chip_I2S_TxConfig                                 examples_c/sapi/rtc/out/libs/lpc_open/lpc_chip_43xx/src/i2s_18xx_43xx.o
Chip_IAP_BlankCheckSector                         examples_c/sapi/rtc/out/libs/lpc_open/lpc_chip_43xx/src/iap_18xx_43xx.o
Chip_IAP_Compare                                  examples_c/sapi/rtc/out/libs/lpc_open/lpc_chip_43xx/src/iap_18xx_43xx.o
Chip_IAP_CopyRamToFlash                           examples_c/sapi/rtc/out/libs/lpc_open/lpc_chip_43xx/src/iap_18xx_43xx.o
Chip_IAP_ErasePage                                examples_c/sapi/rtc/out/libs/lpc_open/lpc_chip_43xx/src/iap_18xx_43xx.o
Chip_IAP_EraseSector                              examples_c/sapi/rtc/out/libs/lpc_open/lpc_chip_43xx/src/iap_18xx_43xx.o
Chip_IAP_Init                                     examples_c/sapi/rtc/out/libs/lpc_open/lpc_chip_43xx/src/iap_18xx_43xx.o
Chip_IAP_PreSectorForReadWrite                    examples_c/sapi/rtc/out/libs/lpc_open/lpc_chip_43xx/src/iap_18xx_43xx.o
Chip_IAP_ReadBootCode                             examples_c/sapi/rtc/out/libs/lpc_open/lpc_chip_43xx/src/iap_18xx_43xx.o
Chip_IAP_ReadPID                                  examples_c/sapi/rtc/out/libs/lpc_open/lpc_chip_43xx/src/iap_18xx_43xx.o
Chip_IAP_ReadUID                                  examples_c/sapi/rtc/out/libs/lpc_open/lpc_chip_43xx/src/iap_18xx_43xx.o
Chip_IAP_ReinvokeISP                              examples_c/sapi/rtc/out/libs/lpc_open/lpc_chip_43xx/src/iap_18xx_43xx.o
Chip_IAP_SetBootFlashBank                         examples_c/sapi/rtc/out/libs/lpc_open/lpc_chip_43xx/src/iap_18xx_43xx.o
Chip_LCD_Cursor_Config                            examples_c/sapi/rtc/out/libs/lpc_open/lpc_chip_43xx/src/lcd_18xx_43xx.o
Chip_LCD_Cursor_WriteImage                        examples_c/sapi/rtc/out/libs/lpc_open/lpc_chip_43xx/src/lcd_18xx_43xx.o
Chip_LCD_DeInit                                   examples_c/sapi/rtc/out/libs/lpc_open/lpc_chip_43xx/src/lcd_18xx_43xx.o
Chip_LCD_Init                                     examples_c/sapi/rtc/out/libs/lpc_open/lpc_chip_43xx/src/lcd_18xx_43xx.o
Chip_LCD_LoadPalette                              examples_c/sapi/rtc/out/libs/lpc_open/lpc_chip_43xx/src/lcd_18xx_43xx.o
Chip_OTP_GenRand                                  examples_c/sapi/rtc/out/libs/lpc_open/lpc_chip_43xx/src/otp_18xx_43xx.o
Chip_OTP_Init                                     examples_c/sapi/rtc/out/libs/lpc_open/lpc_chip_43xx/src/otp_18xx_43xx.o
Chip_OTP_ProgBootSrc                              examples_c/sapi/rtc/out/libs/lpc_open/lpc_chip_43xx/src/otp_18xx_43xx.o
Chip_OTP_ProgGPWord                               examples_c/sapi/rtc/out/libs/lpc_open/lpc_chip_43xx/src/otp_18xx_43xx.o
Chip_OTP_ProgJTAGDis                              examples_c/sapi/rtc/out/libs/lpc_open/lpc_chip_43xx/src/otp_18xx_43xx.o
Chip_OTP_ProgKey                                  examples_c/sapi/rtc/out/libs/lpc_open/lpc_chip_43xx/src/otp_18xx_43xx.o
Chip_OTP_ProgUSBID                                examples_c/sapi/rtc/out/libs/lpc_open/lpc_chip_43xx/src/otp_18xx_43xx.o
Chip_PMC_Set_PwrState                             examples_c/sapi/rtc/out/libs/lpc_open/lpc_chip_43xx/src/pmc_18xx_43xx.o
Chip_PMC_Sleep                                    examples_c/sapi/rtc/out/libs/lpc_open/lpc_chip_43xx/src/pmc_18xx_43xx.o
Chip_RIT_DeInit                                   examples_c/sapi/rtc/out/libs/lpc_open/lpc_chip_43xx/src/ritimer_18xx_43xx.o
Chip_RIT_GetIntStatus                             examples_c/sapi/rtc/out/libs/lpc_open/lpc_chip_43xx/src/ritimer_18xx_43xx.o
Chip_RIT_Init                                     examples_c/sapi/rtc/out/libs/lpc_open/lpc_chip_43xx/src/ritimer_18xx_43xx.o
Chip_RIT_SetTimerInterval                         examples_c/sapi/rtc/out/libs/lpc_open/lpc_chip_43xx/src/ritimer_18xx_43xx.o
Chip_RTC_AlarmIntConfig                           examples_c/sapi/rtc/out/libs/lpc_open/lpc_chip_43xx/src/rtc_18xx_43xx.o
Chip_RTC_CalibCounterCmd                          examples_c/sapi/rtc/out/libs/lpc_open/lpc_chip_43xx/src/rtc_18xx_43xx.o
Chip_RTC_CntIncrIntConfig                         examples_c/sapi/rtc/out/libs/lpc_open/lpc_chip_43xx/src/rtc_18xx_43xx.o
Chip_RTC_DeInit                                   examples_c/sapi/rtc/out/libs/lpc_open/lpc_chip_43xx/src/rtc_18xx_43xx.o
Chip_RTC_EV_GetFirstTimeStamp                     examples_c/sapi/rtc/out/libs/lpc_open/lpc_chip_43xx/src/rtc_18xx_43xx.o
Chip_RTC_EV_GetLastTimeStamp                      examples_c/sapi/rtc/out/libs/lpc_open/lpc_chip_43xx/src/rtc_18xx_43xx.o
Chip_RTC_Enable                                   examples_c/sapi/rtc/out/libs/lpc_open/lpc_chip_43xx/src/rtc_18xx_43xx.o
                                                  examples_c/sapi/rtc/out/libs/sapi/sapi_v0.5.2/soc/peripherals/src/sapi_rtc.o
Chip_RTC_GetFullAlarmTime                         examples_c/sapi/rtc/out/libs/lpc_open/lpc_chip_43xx/src/rtc_18xx_43xx.o
Chip_RTC_GetFullTime                              examples_c/sapi/rtc/out/libs/lpc_open/lpc_chip_43xx/src/rtc_18xx_43xx.o
                                                  examples_c/sapi/rtc/out/libs/sapi/sapi_v0.5.2/soc/peripherals/src/sapi_rtc.o
Chip_RTC_Init                                     examples_c/sapi/rtc/out/libs/lpc_open/lpc_chip_43xx/src/rtc_18xx_43xx.o
                                                  examples_c/sapi/rtc/out/libs/sapi/sapi_v0.5.2/soc/peripherals/src/sapi_rtc.o
Chip_RTC_ResetClockTickCounter                    examples_c/sapi/rtc/out/libs/lpc_open/lpc_chip_43xx/src/rtc_18xx_43xx.o
Chip_RTC_SetFullAlarmTime                         examples_c/sapi/rtc/out/libs/lpc_open/lpc_chip_43xx/src/rtc_18xx_43xx.o
Chip_RTC_SetFullTime                              examples_c/sapi/rtc/out/libs/lpc_open/lpc_chip_43xx/src/rtc_18xx_43xx.o
                                                  examples_c/sapi/rtc/out/libs/sapi/sapi_v0.5.2/soc/peripherals/src/sapi_rtc.o
Chip_SCTPWM_SetOutPin                             examples_c/sapi/rtc/out/libs/lpc_open/lpc_chip_43xx/src/sct_pwm_18xx_43xx.o
                                                  examples_c/sapi/rtc/out/libs/sapi/sapi_v0.5.2/soc/peripherals/src/sapi_sct.o
Chip_SCTPWM_SetRate                               examples_c/sapi/rtc/out/libs/lpc_open/lpc_chip_43xx/src/sct_pwm_18xx_43xx.o
                                                  examples_c/sapi/rtc/out/libs/sapi/sapi_v0.5.2/soc/peripherals/src/sapi_sct.o
Chip_SCT_DeInit                                   examples_c/sapi/rtc/out/libs/lpc_open/lpc_chip_43xx/src/sct_18xx_43xx.o
Chip_SCT_Init                                     examples_c/sapi/rtc/out/libs/lpc_open/lpc_chip_43xx/src/sct_18xx_43xx.o
                                                  examples_c/sapi/rtc/out/libs/sapi/sapi_v0.5.2/soc/peripherals/src/sapi_sct.o
Chip_SCT_SetClrControl                            examples_c/sapi/rtc/out/libs/lpc_open/lpc_chip_43xx/src/sct_18xx_43xx.o
Chip_SCT_SetConflictResolution                    examples_c/sapi/rtc/out/libs/lpc_open/lpc_chip_43xx/src/sct_18xx_43xx.o
Chip_SDIF_DeInit                                  examples_c/sapi/rtc/out/libs/lpc_open/lpc_chip_43xx/src/sdif_18xx_43xx.o
Chip_SDIF_DmaSetup                                examples_c/sapi/rtc/out/libs/lpc_open/lpc_chip_43xx/src/sdif_18xx_43xx.o
                                                  examples_c/sapi/rtc/out/libs/lpc_open/lpc_chip_43xx/src/sdio_18xx_43xx.o
                                                  examples_c/sapi/rtc/out/libs/lpc_open/lpc_chip_43xx/src/sdmmc_18xx_43xx.o
Chip_SDIF_GetResponse                             examples_c/sapi/rtc/out/libs/lpc_open/lpc_chip_43xx/src/sdif_18xx_43xx.o
                                                  examples_c/sapi/rtc/out/libs/lpc_open/lpc_chip_43xx/src/sdio_18xx_43xx.o
                                                  examples_c/sapi/rtc/out/libs/lpc_open/lpc_chip_43xx/src/sdmmc_18xx_43xx.o
Chip_SDIF_Init                                    examples_c/sapi/rtc/out/libs/lpc_open/lpc_chip_43xx/src/sdif_18xx_43xx.o
Chip_SDIF_SendCmd                                 examples_c/sapi/rtc/out/libs/lpc_open/lpc_chip_43xx/src/sdif_18xx_43xx.o
                                                  examples_c/sapi/rtc/out/libs/lpc_open/lpc_chip_43xx/src/sdio_18xx_43xx.o
                                                  examples_c/sapi/rtc/out/libs/lpc_open/lpc_chip_43xx/src/sdmmc_18xx_43xx.o
Chip_SDIF_SetClearIntFifo                         examples_c/sapi/rtc/out/libs/lpc_open/lpc_chip_43xx/src/sdif_18xx_43xx.o
                                                  examples_c/sapi/rtc/out/libs/lpc_open/lpc_chip_43xx/src/sdmmc_18xx_43xx.o
Chip_SDIF_SetClock                                examples_c/sapi/rtc/out/libs/lpc_open/lpc_chip_43xx/src/sdif_18xx_43xx.o
                                                  examples_c/sapi/rtc/out/libs/lpc_open/lpc_chip_43xx/src/sdio_18xx_43xx.o
                                                  examples_c/sapi/rtc/out/libs/lpc_open/lpc_chip_43xx/src/sdmmc_18xx_43xx.o
Chip_SDMMC_Acquire                                examples_c/sapi/rtc/out/libs/lpc_open/lpc_chip_43xx/src/sdmmc_18xx_43xx.o
Chip_SDMMC_GetDeviceBlocks                        examples_c/sapi/rtc/out/libs/lpc_open/lpc_chip_43xx/src/sdmmc_18xx_43xx.o
Chip_SDMMC_GetDeviceSize                          examples_c/sapi/rtc/out/libs/lpc_open/lpc_chip_43xx/src/sdmmc_18xx_43xx.o
Chip_SDMMC_GetState                               examples_c/sapi/rtc/out/libs/lpc_open/lpc_chip_43xx/src/sdmmc_18xx_43xx.o
Chip_SDMMC_ReadBlocks                             examples_c/sapi/rtc/out/libs/lpc_open/lpc_chip_43xx/src/sdmmc_18xx_43xx.o
Chip_SDMMC_WriteBlocks                            examples_c/sapi/rtc/out/libs/lpc_open/lpc_chip_43xx/src/sdmmc_18xx_43xx.o
Chip_SPI_DeInit                                   examples_c/sapi/rtc/out/libs/lpc_open/lpc_chip_43xx/src/spi_18xx_43xx.o
Chip_SPI_Init                                     examples_c/sapi/rtc/out/libs/lpc_open/lpc_chip_43xx/src/spi_18xx_43xx.o
Chip_SPI_Int_FlushData                            examples_c/sapi/rtc/out/libs/lpc_open/lpc_chip_43xx/src/spi_18xx_43xx.o
Chip_SPI_Int_RWFrames                             examples_c/sapi/rtc/out/libs/lpc_open/lpc_chip_43xx/src/spi_18xx_43xx.o
Chip_SPI_Int_RWFrames16Bits                       examples_c/sapi/rtc/out/libs/lpc_open/lpc_chip_43xx/src/spi_18xx_43xx.o
Chip_SPI_Int_RWFrames8Bits                        examples_c/sapi/rtc/out/libs/lpc_open/lpc_chip_43xx/src/spi_18xx_43xx.o
Chip_SPI_RWFrames_Blocking                        examples_c/sapi/rtc/out/libs/lpc_open/lpc_chip_43xx/src/spi_18xx_43xx.o
Chip_SPI_SetBitRate                               examples_c/sapi/rtc/out/libs/lpc_open/lpc_chip_43xx/src/spi_18xx_43xx.o
Chip_SSP_DeInit                                   examples_c/sapi/rtc/out/libs/lpc_open/lpc_chip_43xx/src/ssp_18xx_43xx.o
Chip_SSP_Init                                     examples_c/sapi/rtc/out/libs/lpc_open/lpc_chip_43xx/src/ssp_18xx_43xx.o
                                                  examples_c/sapi/rtc/out/libs/sapi/sapi_v0.5.2/soc/peripherals/src/sapi_spi.o
                                                  examples_c/sapi/rtc/out/libs/lpc_open/boards/edu_ciaa_nxp/src/board.o
Chip_SSP_Int_FlushData                            examples_c/sapi/rtc/out/libs/lpc_open/lpc_chip_43xx/src/ssp_18xx_43xx.o
Chip_SSP_Int_RWFrames16Bits                       examples_c/sapi/rtc/out/libs/lpc_open/lpc_chip_43xx/src/ssp_18xx_43xx.o
Chip_SSP_Int_RWFrames8Bits                        examples_c/sapi/rtc/out/libs/lpc_open/lpc_chip_43xx/src/ssp_18xx_43xx.o
Chip_SSP_RWFrames_Blocking                        examples_c/sapi/rtc/out/libs/lpc_open/lpc_chip_43xx/src/ssp_18xx_43xx.o
                                                  examples_c/sapi/rtc/out/libs/sapi/sapi_v0.5.2/soc/peripherals/src/sapi_spi.o
Chip_SSP_ReadFrames_Blocking                      examples_c/sapi/rtc/out/libs/lpc_open/lpc_chip_43xx/src/ssp_18xx_43xx.o
Chip_SSP_SetBitRate                               examples_c/sapi/rtc/out/libs/lpc_open/lpc_chip_43xx/src/ssp_18xx_43xx.o
                                                  examples_c/sapi/rtc/out/libs/lpc_open/boards/edu_ciaa_nxp/src/board.o
Chip_SSP_SetClockRate                             examples_c/sapi/rtc/out/libs/lpc_open/lpc_chip_43xx/src/ssp_18xx_43xx.o
Chip_SSP_SetMaster                                examples_c/sapi/rtc/out/libs/lpc_open/lpc_chip_43xx/src/ssp_18xx_43xx.o
Chip_SSP_WriteFrames_Blocking                     examples_c/sapi/rtc/out/libs/lpc_open/lpc_chip_43xx/src/ssp_18xx_43xx.o
Chip_SetupCoreClock                               examples_c/sapi/rtc/out/libs/lpc_open/lpc_chip_43xx/src/sysinit_18xx_43xx.o
                                                  examples_c/sapi/rtc/out/libs/lpc_open/boards/edu_ciaa_nxp/src/board_sysinit.o
Chip_SetupIrcClocking                             examples_c/sapi/rtc/out/libs/lpc_open/lpc_chip_43xx/src/sysinit_18xx_43xx.o
Chip_SetupXtalClocking                            examples_c/sapi/rtc/out/libs/lpc_open/lpc_chip_43xx/src/sysinit_18xx_43xx.o
Chip_SystemInit                                   examples_c/sapi/rtc/out/libs/lpc_open/lpc_chip_43xx/src/sysinit_18xx_43xx.o
Chip_TIMER_DeInit                                 examples_c/sapi/rtc/out/libs/lpc_open/lpc_chip_43xx/src/timer_18xx_43xx.o
                                                  examples_c/sapi/rtc/out/libs/sapi/sapi_v0.5.2/soc/peripherals/src/sapi_timer.o
Chip_TIMER_ExtMatchControlSet                     examples_c/sapi/rtc/out/libs/lpc_open/lpc_chip_43xx/src/timer_18xx_43xx.o
Chip_TIMER_Init                                   examples_c/sapi/rtc/out/libs/lpc_open/lpc_chip_43xx/src/timer_18xx_43xx.o
                                                  examples_c/sapi/rtc/out/libs/sapi/sapi_v0.5.2/soc/peripherals/src/sapi_timer.o
                                                  examples_c/sapi/rtc/out/libs/lpc_open/lpc_chip_43xx/src/stopwatch_18xx_43xx.o
Chip_TIMER_Reset                                  examples_c/sapi/rtc/out/libs/lpc_open/lpc_chip_43xx/src/timer_18xx_43xx.o
                                                  examples_c/sapi/rtc/out/libs/sapi/sapi_v0.5.2/soc/peripherals/src/sapi_timer.o
Chip_UART_ABCmd                                   examples_c/sapi/rtc/out/libs/lpc_open/lpc_chip_43xx/src/uart_18xx_43xx.o
Chip_UART_CheckBusy                               examples_c/sapi/rtc/out/libs/lpc_open/lpc_chip_43xx/src/uart_18xx_43xx.o
Chip_UART_DeInit                                  examples_c/sapi/rtc/out/libs/lpc_open/lpc_chip_43xx/src/uart_18xx_43xx.o
Chip_UART_GetABEOStatus                           examples_c/sapi/rtc/out/libs/lpc_open/lpc_chip_43xx/src/uart_18xx_43xx.o
Chip_UART_IRQRBHandler                            examples_c/sapi/rtc/out/libs/lpc_open/lpc_chip_43xx/src/uart_18xx_43xx.o
Chip_UART_Init                                    examples_c/sapi/rtc/out/libs/lpc_open/lpc_chip_43xx/src/uart_18xx_43xx.o
                                                  examples_c/sapi/rtc/out/libs/sapi/sapi_v0.5.2/soc/peripherals/src/sapi_uart.o
                                                  examples_c/sapi/rtc/out/libs/lpc_open/boards/edu_ciaa_nxp/src/board.o
Chip_UART_RXIntHandlerRB                          examples_c/sapi/rtc/out/libs/lpc_open/lpc_chip_43xx/src/uart_18xx_43xx.o
Chip_UART_Read                                    examples_c/sapi/rtc/out/libs/lpc_open/lpc_chip_43xx/src/uart_18xx_43xx.o
Chip_UART_ReadBlocking                            examples_c/sapi/rtc/out/libs/lpc_open/lpc_chip_43xx/src/uart_18xx_43xx.o
Chip_UART_ReadRB                                  examples_c/sapi/rtc/out/libs/lpc_open/lpc_chip_43xx/src/uart_18xx_43xx.o
Chip_UART_Send                                    examples_c/sapi/rtc/out/libs/lpc_open/lpc_chip_43xx/src/uart_18xx_43xx.o
                                                  examples_c/sapi/rtc/out/libs/sapi/sapi_v0.5.2/soc/peripherals/usb/device/src/cdc_uart.o
Chip_UART_SendBlocking                            examples_c/sapi/rtc/out/libs/lpc_open/lpc_chip_43xx/src/uart_18xx_43xx.o
Chip_UART_SendRB                                  examples_c/sapi/rtc/out/libs/lpc_open/lpc_chip_43xx/src/uart_18xx_43xx.o
Chip_UART_SetBaud                                 examples_c/sapi/rtc/out/libs/lpc_open/lpc_chip_43xx/src/uart_18xx_43xx.o
                                                  examples_c/sapi/rtc/out/libs/sapi/sapi_v0.5.2/soc/peripherals/usb/device/src/cdc_uart.o
                                                  examples_c/sapi/rtc/out/libs/sapi/sapi_v0.5.2/soc/peripherals/src/sapi_uart.o
Chip_UART_SetBaudFDR                              examples_c/sapi/rtc/out/libs/lpc_open/lpc_chip_43xx/src/uart_18xx_43xx.o
                                                  examples_c/sapi/rtc/out/libs/lpc_open/boards/edu_ciaa_nxp/src/board.o
Chip_UART_TXIntHandlerRB                          examples_c/sapi/rtc/out/libs/lpc_open/lpc_chip_43xx/src/uart_18xx_43xx.o
Chip_USB0_Init                                    examples_c/sapi/rtc/out/libs/lpc_open/lpc_chip_43xx/src/chip_18xx_43xx.o
                                                  examples_c/sapi/rtc/out/libs/sapi/sapi_v0.5.2/soc/peripherals/usb/device/src/sapi_usb_device.o
Chip_USB1_Init                                    examples_c/sapi/rtc/out/libs/lpc_open/lpc_chip_43xx/src/chip_18xx_43xx.o
Chip_WWDT_ClearStatusFlag                         examples_c/sapi/rtc/out/libs/lpc_open/lpc_chip_43xx/src/wwdt_18xx_43xx.o
Chip_WWDT_DeInit                                  examples_c/sapi/rtc/out/libs/lpc_open/lpc_chip_43xx/src/wwdt_18xx_43xx.o
Chip_WWDT_Init                                    examples_c/sapi/rtc/out/libs/lpc_open/lpc_chip_43xx/src/wwdt_18xx_43xx.o
DAC_IRQHandler                                    examples_c/sapi/rtc/out/libs/lpc_open/lpc_startup/src/vendor_interrupt.o
DMA_IRQHandler                                    examples_c/sapi/rtc/out/libs/lpc_open/lpc_startup/src/vendor_interrupt.o
DebugMon_Handler                                  examples_c/sapi/rtc/out/libs/cmsis_core//src/armv7m_startup.o
EP0_patch                                         examples_c/sapi/rtc/out/libs/sapi/sapi_v0.5.2/soc/peripherals/usb/device/src/sapi_usb_device.o
ETH_IRQHandler                                    examples_c/sapi/rtc/out/libs/lpc_open/lpc_startup/src/vendor_interrupt.o
EVRT_IRQHandler                                   examples_c/sapi/rtc/out/libs/lpc_open/lpc_startup/src/vendor_interrupt.o
ExtRateIn                                         examples_c/sapi/rtc/out/libs/lpc_open/boards/edu_ciaa_nxp/src/board.o
                                                  examples_c/sapi/rtc/out/libs/lpc_open/lpc_chip_43xx/src/clock_18xx_43xx.o
FLASH_EEPROM_IRQHandler                           examples_c/sapi/rtc/out/libs/lpc_open/lpc_startup/src/vendor_interrupt.o
GINT0_IRQHandler                                  examples_c/sapi/rtc/out/libs/lpc_open/lpc_startup/src/vendor_interrupt.o
GINT1_IRQHandler                                  examples_c/sapi/rtc/out/libs/lpc_open/lpc_startup/src/vendor_interrupt.o
GPIO0_IRQHandler                                  examples_c/sapi/rtc/out/libs/sapi/sapi_v0.5.2/external_peripherals/src/sapi_ultrasonic_hcsr04.o
                                                  examples_c/sapi/rtc/out/libs/lpc_open/lpc_startup/src/vendor_interrupt.o
GPIO1_IRQHandler                                  examples_c/sapi/rtc/out/libs/sapi/sapi_v0.5.2/external_peripherals/src/sapi_ultrasonic_hcsr04.o
                                                  examples_c/sapi/rtc/out/libs/lpc_open/lpc_startup/src/vendor_interrupt.o
GPIO2_IRQHandler                                  examples_c/sapi/rtc/out/libs/sapi/sapi_v0.5.2/external_peripherals/src/sapi_ultrasonic_hcsr04.o
                                                  examples_c/sapi/rtc/out/libs/lpc_open/lpc_startup/src/vendor_interrupt.o
GPIO3_IRQHandler                                  examples_c/sapi/rtc/out/libs/lpc_open/lpc_startup/src/vendor_interrupt.o
GPIO4_IRQHandler                                  examples_c/sapi/rtc/out/libs/lpc_open/lpc_startup/src/vendor_interrupt.o
GPIO5_IRQHandler                                  examples_c/sapi/rtc/out/libs/lpc_open/lpc_startup/src/vendor_interrupt.o
GPIO6_IRQHandler                                  examples_c/sapi/rtc/out/libs/lpc_open/lpc_startup/src/vendor_interrupt.o
GPIO7_IRQHandler                                  examples_c/sapi/rtc/out/libs/lpc_open/lpc_startup/src/vendor_interrupt.o
HardFault_Handler                                 examples_c/sapi/rtc/out/libs/cmsis_core//src/armv7m_startup.o
I2C0_IRQHandler                                   examples_c/sapi/rtc/out/libs/lpc_open/lpc_startup/src/vendor_interrupt.o
I2C1_IRQHandler                                   examples_c/sapi/rtc/out/libs/lpc_open/lpc_startup/src/vendor_interrupt.o
I2S0_IRQHandler                                   examples_c/sapi/rtc/out/libs/lpc_open/lpc_startup/src/vendor_interrupt.o
I2S1_IRQHandler                                   examples_c/sapi/rtc/out/libs/lpc_open/lpc_startup/src/vendor_interrupt.o
IntDefaultHandler                                 examples_c/sapi/rtc/out/libs/lpc_open/lpc_startup/src/vendor_interrupt.o
Keyboard_ReportDescSize                           examples_c/sapi/rtc/out/libs/sapi/sapi_v0.5.2/soc/peripherals/usb/device/src/usbd_keyboard.o
Keyboard_ReportDescriptor                         examples_c/sapi/rtc/out/libs/sapi/sapi_v0.5.2/soc/peripherals/usb/device/src/usbd_keyboard.o
LCD_IRQHandler                                    examples_c/sapi/rtc/out/libs/lpc_open/lpc_startup/src/vendor_interrupt.o
M0APP_IRQHandler                                  examples_c/sapi/rtc/out/libs/lpc_open/lpc_startup/src/vendor_interrupt.o
M0SUB_IRQHandler                                  examples_c/sapi/rtc/out/libs/lpc_open/lpc_startup/src/vendor_interrupt.o
MCPWM_IRQHandler                                  examples_c/sapi/rtc/out/libs/lpc_open/lpc_startup/src/vendor_interrupt.o
MemManage_Handler                                 examples_c/sapi/rtc/out/libs/cmsis_core//src/armv7m_startup.o
NMI_Handler                                       examples_c/sapi/rtc/out/libs/cmsis_core//src/armv7m_startup.o
OscRateIn                                         examples_c/sapi/rtc/out/libs/lpc_open/boards/edu_ciaa_nxp/src/board.o
                                                  examples_c/sapi/rtc/out/libs/lpc_open/lpc_chip_43xx/src/clock_18xx_43xx.o
PendSV_Handler                                    examples_c/sapi/rtc/out/libs/cmsis_core//src/armv7m_startup.o
QEI_IRQHandler                                    examples_c/sapi/rtc/out/libs/lpc_open/lpc_startup/src/vendor_interrupt.o
RIT_IRQHandler                                    examples_c/sapi/rtc/out/libs/lpc_open/lpc_startup/src/vendor_interrupt.o
RTC_IRQHandler                                    examples_c/sapi/rtc/out/libs/lpc_open/lpc_startup/src/vendor_interrupt.o
Reset_Handler                                     examples_c/sapi/rtc/out/libs/cmsis_core//src/armv7m_startup.o
RingBuffer_Init                                   examples_c/sapi/rtc/out/libs/lpc_open/lpc_chip_43xx/src/ring_buffer.o
RingBuffer_Insert                                 examples_c/sapi/rtc/out/libs/lpc_open/lpc_chip_43xx/src/ring_buffer.o
                                                  examples_c/sapi/rtc/out/libs/lpc_open/lpc_chip_43xx/src/uart_18xx_43xx.o
RingBuffer_InsertMult                             examples_c/sapi/rtc/out/libs/lpc_open/lpc_chip_43xx/src/ring_buffer.o
                                                  examples_c/sapi/rtc/out/libs/lpc_open/lpc_chip_43xx/src/uart_18xx_43xx.o
RingBuffer_Pop                                    examples_c/sapi/rtc/out/libs/lpc_open/lpc_chip_43xx/src/ring_buffer.o
                                                  examples_c/sapi/rtc/out/libs/lpc_open/lpc_chip_43xx/src/uart_18xx_43xx.o
RingBuffer_PopMult                                examples_c/sapi/rtc/out/libs/lpc_open/lpc_chip_43xx/src/ring_buffer.o
                                                  examples_c/sapi/rtc/out/libs/lpc_open/lpc_chip_43xx/src/uart_18xx_43xx.o
SCT_IRQHandler                                    examples_c/sapi/rtc/out/libs/lpc_open/lpc_startup/src/vendor_interrupt.o
SDIO_Card_DisableInt                              examples_c/sapi/rtc/out/libs/lpc_open/lpc_chip_43xx/src/sdio_18xx_43xx.o
SDIO_Card_EnableInt                               examples_c/sapi/rtc/out/libs/lpc_open/lpc_chip_43xx/src/sdio_18xx_43xx.o
SDIO_Card_GetBlockSize                            examples_c/sapi/rtc/out/libs/lpc_open/lpc_chip_43xx/src/sdio_18xx_43xx.o
SDIO_Card_Init                                    examples_c/sapi/rtc/out/libs/lpc_open/lpc_chip_43xx/src/sdio_18xx_43xx.o
SDIO_Card_ReadData                                examples_c/sapi/rtc/out/libs/lpc_open/lpc_chip_43xx/src/sdio_18xx_43xx.o
SDIO_Card_SetBlockSize                            examples_c/sapi/rtc/out/libs/lpc_open/lpc_chip_43xx/src/sdio_18xx_43xx.o
SDIO_Card_WriteData                               examples_c/sapi/rtc/out/libs/lpc_open/lpc_chip_43xx/src/sdio_18xx_43xx.o
SDIO_Handler                                      examples_c/sapi/rtc/out/libs/lpc_open/lpc_chip_43xx/src/sdio_18xx_43xx.o
SDIO_IRQHandler                                   examples_c/sapi/rtc/out/libs/lpc_open/lpc_startup/src/vendor_interrupt.o
SDIO_Read_Direct                                  examples_c/sapi/rtc/out/libs/lpc_open/lpc_chip_43xx/src/sdio_18xx_43xx.o
SDIO_Send_Command                                 examples_c/sapi/rtc/out/libs/lpc_open/lpc_chip_43xx/src/sdio_18xx_43xx.o
SDIO_Setup_Callback                               examples_c/sapi/rtc/out/libs/lpc_open/lpc_chip_43xx/src/sdio_18xx_43xx.o
SDIO_WriteRead_Direct                             examples_c/sapi/rtc/out/libs/lpc_open/lpc_chip_43xx/src/sdio_18xx_43xx.o
SDIO_Write_Direct                                 examples_c/sapi/rtc/out/libs/lpc_open/lpc_chip_43xx/src/sdio_18xx_43xx.o
SGPIO_IRQHandler                                  examples_c/sapi/rtc/out/libs/lpc_open/lpc_startup/src/vendor_interrupt.o
SPIFI_IRQHandler                                  examples_c/sapi/rtc/out/libs/lpc_open/lpc_startup/src/vendor_interrupt.o
SPI_IRQHandler                                    examples_c/sapi/rtc/out/libs/lpc_open/lpc_startup/src/vendor_interrupt.o
SSP0_IRQHandler                                   examples_c/sapi/rtc/out/libs/lpc_open/lpc_startup/src/vendor_interrupt.o
SSP1_IRQHandler                                   examples_c/sapi/rtc/out/libs/lpc_open/lpc_startup/src/vendor_interrupt.o
SVC_Handler                                       examples_c/sapi/rtc/out/libs/cmsis_core//src/armv7m_startup.o
Sct_EnablePwmFor                                  examples_c/sapi/rtc/out/libs/sapi/sapi_v0.5.2/soc/peripherals/src/sapi_sct.o
                                                  examples_c/sapi/rtc/out/libs/sapi/sapi_v0.5.2/soc/peripherals/src/sapi_pwm.o
Sct_GetDutyCycle                                  examples_c/sapi/rtc/out/libs/sapi/sapi_v0.5.2/soc/peripherals/src/sapi_sct.o
                                                  examples_c/sapi/rtc/out/libs/sapi/sapi_v0.5.2/soc/peripherals/src/sapi_pwm.o
Sct_Init                                          examples_c/sapi/rtc/out/libs/sapi/sapi_v0.5.2/soc/peripherals/src/sapi_sct.o
                                                  examples_c/sapi/rtc/out/libs/sapi/sapi_v0.5.2/soc/peripherals/src/sapi_pwm.o
Sct_SetDutyCycle                                  examples_c/sapi/rtc/out/libs/sapi/sapi_v0.5.2/soc/peripherals/src/sapi_sct.o
                                                  examples_c/sapi/rtc/out/libs/sapi/sapi_v0.5.2/soc/peripherals/src/sapi_pwm.o
Sct_Uint8ToTicks                                  examples_c/sapi/rtc/out/libs/sapi/sapi_v0.5.2/soc/peripherals/src/sapi_sct.o
StopWatch_Init                                    examples_c/sapi/rtc/out/libs/lpc_open/lpc_chip_43xx/src/stopwatch_18xx_43xx.o
StopWatch_MsToTicks                               examples_c/sapi/rtc/out/libs/lpc_open/lpc_chip_43xx/src/stopwatch_18xx_43xx.o
StopWatch_Start                                   examples_c/sapi/rtc/out/libs/lpc_open/lpc_chip_43xx/src/stopwatch_18xx_43xx.o
StopWatch_TicksPerSecond                          examples_c/sapi/rtc/out/libs/lpc_open/lpc_chip_43xx/src/stopwatch_18xx_43xx.o
StopWatch_TicksToMs                               examples_c/sapi/rtc/out/libs/lpc_open/lpc_chip_43xx/src/stopwatch_18xx_43xx.o
StopWatch_TicksToUs                               examples_c/sapi/rtc/out/libs/lpc_open/lpc_chip_43xx/src/stopwatch_18xx_43xx.o
StopWatch_UsToTicks                               examples_c/sapi/rtc/out/libs/lpc_open/lpc_chip_43xx/src/stopwatch_18xx_43xx.o
SysTick_Handler                                   examples_c/sapi/rtc/out/libs/sapi/sapi_v0.5.2/soc/peripherals/src/sapi_tick.o
                                                  examples_c/sapi/rtc/out/libs/cmsis_core//src/armv7m_startup.o
SystemCoreClock                                   examples_c/sapi/rtc/out/libs/lpc_open/lpc_chip_43xx/src/chip_18xx_43xx.o
                                                  examples_c/sapi/rtc/out/libs/sapi/sapi_v0.5.2/board/src/sapi_board.o
                                                  examples_c/sapi/rtc/out/libs/sapi/sapi_v0.5.2/soc/peripherals/src/sapi_tick.o
                                                  examples_c/sapi/rtc/out/libs/lpc_open/lpc_chip_43xx/src/enet_18xx_43xx.o
                                                  examples_c/sapi/rtc/out/libs/lpc_open/lpc_chip_43xx/src/iap_18xx_43xx.o
SystemCoreClockUpdate                             examples_c/sapi/rtc/out/libs/lpc_open/lpc_chip_43xx/src/chip_18xx_43xx.o
                                                  examples_c/sapi/rtc/out/libs/sapi/sapi_v0.5.2/board/src/sapi_board.o
SystemInit                                        examples_c/sapi/rtc/out/libs/lpc_open/lpc_startup/src/sysinit.o
                                                  examples_c/sapi/rtc/out/libs/cmsis_core//src/armv7m_startup.o
TIMER0_IRQHandler                                 examples_c/sapi/rtc/out/libs/lpc_open/lpc_startup/src/vendor_interrupt.o
TIMER1_IRQHandler                                 examples_c/sapi/rtc/out/libs/lpc_open/lpc_startup/src/vendor_interrupt.o
TIMER2_IRQHandler                                 examples_c/sapi/rtc/out/libs/lpc_open/lpc_startup/src/vendor_interrupt.o
TIMER3_IRQHandler                                 examples_c/sapi/rtc/out/libs/lpc_open/lpc_startup/src/vendor_interrupt.o
Timer_DeInit                                      examples_c/sapi/rtc/out/libs/sapi/sapi_v0.5.2/soc/peripherals/src/sapi_timer.o
Timer_DisableCompareMatch                         examples_c/sapi/rtc/out/libs/sapi/sapi_v0.5.2/soc/peripherals/src/sapi_timer.o
                                                  examples_c/sapi/rtc/out/libs/sapi/sapi_v0.5.2/external_peripherals/src/sapi_servo.o
Timer_EnableCompareMatch                          examples_c/sapi/rtc/out/libs/sapi/sapi_v0.5.2/soc/peripherals/src/sapi_timer.o
                                                  examples_c/sapi/rtc/out/libs/sapi/sapi_v0.5.2/external_peripherals/src/sapi_ultrasonic_hcsr04.o
                                                  examples_c/sapi/rtc/out/libs/sapi/sapi_v0.5.2/external_peripherals/src/sapi_servo.o
Timer_Init                                        examples_c/sapi/rtc/out/libs/sapi/sapi_v0.5.2/soc/peripherals/src/sapi_timer.o
                                                  examples_c/sapi/rtc/out/libs/sapi/sapi_v0.5.2/external_peripherals/src/sapi_rgb.o
                                                  examples_c/sapi/rtc/out/libs/sapi/sapi_v0.5.2/external_peripherals/src/sapi_ultrasonic_hcsr04.o
                                                  examples_c/sapi/rtc/out/libs/sapi/sapi_v0.5.2/external_peripherals/src/sapi_servo.o
Timer_SetCompareMatch                             examples_c/sapi/rtc/out/libs/sapi/sapi_v0.5.2/soc/peripherals/src/sapi_timer.o
                                                  examples_c/sapi/rtc/out/libs/sapi/sapi_v0.5.2/external_peripherals/src/sapi_servo.o
Timer_microsecondsToTicks                         examples_c/sapi/rtc/out/libs/sapi/sapi_v0.5.2/soc/peripherals/src/sapi_timer.o
                                                  examples_c/sapi/rtc/out/libs/sapi/sapi_v0.5.2/external_peripherals/src/sapi_rgb.o
                                                  examples_c/sapi/rtc/out/libs/sapi/sapi_v0.5.2/external_peripherals/src/sapi_ultrasonic_hcsr04.o
                                                  examples_c/sapi/rtc/out/libs/sapi/sapi_v0.5.2/external_peripherals/src/sapi_servo.o
UART0_IRQHandler                                  examples_c/sapi/rtc/out/libs/lpc_open/lpc_startup/src/vendor_interrupt.o
UART1_IRQHandler                                  examples_c/sapi/rtc/out/libs/lpc_open/lpc_startup/src/vendor_interrupt.o
UART2_IRQHandler                                  examples_c/sapi/rtc/out/libs/lpc_open/lpc_startup/src/vendor_interrupt.o
UART3_IRQHandler                                  examples_c/sapi/rtc/out/libs/lpc_open/lpc_startup/src/vendor_interrupt.o
USB0_IRQHandler                                   examples_c/sapi/rtc/out/libs/sapi/sapi_v0.5.2/soc/peripherals/usb/device/src/sapi_usb_device.o
                                                  examples_c/sapi/rtc/out/libs/lpc_open/lpc_startup/src/vendor_interrupt.o
USB1_IRQHandler                                   examples_c/sapi/rtc/out/libs/lpc_open/lpc_startup/src/vendor_interrupt.o
USB_DeviceDescriptor                              examples_c/sapi/rtc/out/libs/sapi/sapi_v0.5.2/soc/peripherals/usb/device/src/sapi_usb_device.o
USB_DeviceQualifier                               examples_c/sapi/rtc/out/libs/sapi/sapi_v0.5.2/soc/peripherals/usb/device/src/sapi_usb_device.o
USB_FsConfigDescriptor                            examples_c/sapi/rtc/out/libs/sapi/sapi_v0.5.2/soc/peripherals/usb/device/src/sapi_usb_device.o
USB_HsConfigDescriptor                            examples_c/sapi/rtc/out/libs/sapi/sapi_v0.5.2/soc/peripherals/usb/device/src/sapi_usb_device.o
USB_StringDescriptor                              examples_c/sapi/rtc/out/libs/sapi/sapi_v0.5.2/soc/peripherals/usb/device/src/sapi_usb_device.o
UsageFault_Handler                                examples_c/sapi/rtc/out/libs/cmsis_core//src/armv7m_startup.o
WDT_IRQHandler                                    examples_c/sapi/rtc/out/libs/lpc_open/lpc_startup/src/vendor_interrupt.o
__adddf3                                          /home/mparamidani/CIAA/gcc-arm-none-eabi-7-2018-q2-update/bin/../lib/gcc/arm-none-eabi/7.3.1/thumb/v7e-m/fpv4-sp/hard/libgcc.a(_arm_addsubdf3.o)
__aeabi_d2f                                       /home/mparamidani/CIAA/gcc-arm-none-eabi-7-2018-q2-update/bin/../lib/gcc/arm-none-eabi/7.3.1/thumb/v7e-m/fpv4-sp/hard/libgcc.a(_arm_truncdfsf2.o)
                                                  examples_c/sapi/rtc/out/libs/sapi/sapi_v0.5.2/external_peripherals/src/sapi_imu_mpu9250.o
                                                  examples_c/sapi/rtc/out/libs/sapi/sapi_v0.5.2/soc/core/src/sapi_cyclesCounter.o
__aeabi_dadd                                      /home/mparamidani/CIAA/gcc-arm-none-eabi-7-2018-q2-update/bin/../lib/gcc/arm-none-eabi/7.3.1/thumb/v7e-m/fpv4-sp/hard/libgcc.a(_arm_addsubdf3.o)
                                                  examples_c/sapi/rtc/out/libs/sapi/sapi_v0.5.2/external_peripherals/src/sapi_imu_mpu9250.o
__aeabi_ddiv                                      /home/mparamidani/CIAA/gcc-arm-none-eabi-7-2018-q2-update/bin/../lib/gcc/arm-none-eabi/7.3.1/thumb/v7e-m/fpv4-sp/hard/libgcc.a(_arm_muldivdf3.o)
                                                  examples_c/sapi/rtc/out/libs/sapi/sapi_v0.5.2/soc/core/src/sapi_cyclesCounter.o
__aeabi_dmul                                      /home/mparamidani/CIAA/gcc-arm-none-eabi-7-2018-q2-update/bin/../lib/gcc/arm-none-eabi/7.3.1/thumb/v7e-m/fpv4-sp/hard/libgcc.a(_arm_muldivdf3.o)
__aeabi_drsub                                     /home/mparamidani/CIAA/gcc-arm-none-eabi-7-2018-q2-update/bin/../lib/gcc/arm-none-eabi/7.3.1/thumb/v7e-m/fpv4-sp/hard/libgcc.a(_arm_addsubdf3.o)
__aeabi_dsub                                      /home/mparamidani/CIAA/gcc-arm-none-eabi-7-2018-q2-update/bin/../lib/gcc/arm-none-eabi/7.3.1/thumb/v7e-m/fpv4-sp/hard/libgcc.a(_arm_addsubdf3.o)
__aeabi_f2d                                       /home/mparamidani/CIAA/gcc-arm-none-eabi-7-2018-q2-update/bin/../lib/gcc/arm-none-eabi/7.3.1/thumb/v7e-m/fpv4-sp/hard/libgcc.a(_arm_addsubdf3.o)
                                                  examples_c/sapi/rtc/out/libs/sapi/sapi_v0.5.2/external_peripherals/src/sapi_imu_mpu9250.o
                                                  examples_c/sapi/rtc/out/libs/sapi/sapi_v0.5.2/soc/core/src/sapi_cyclesCounter.o
__aeabi_i2d                                       /home/mparamidani/CIAA/gcc-arm-none-eabi-7-2018-q2-update/bin/../lib/gcc/arm-none-eabi/7.3.1/thumb/v7e-m/fpv4-sp/hard/libgcc.a(_arm_addsubdf3.o)
__aeabi_idiv0                                     /home/mparamidani/CIAA/gcc-arm-none-eabi-7-2018-q2-update/bin/../lib/gcc/arm-none-eabi/7.3.1/thumb/v7e-m/fpv4-sp/hard/libgcc.a(_dvmd_tls.o)
__aeabi_l2d                                       /home/mparamidani/CIAA/gcc-arm-none-eabi-7-2018-q2-update/bin/../lib/gcc/arm-none-eabi/7.3.1/thumb/v7e-m/fpv4-sp/hard/libgcc.a(_arm_addsubdf3.o)
__aeabi_ldiv0                                     /home/mparamidani/CIAA/gcc-arm-none-eabi-7-2018-q2-update/bin/../lib/gcc/arm-none-eabi/7.3.1/thumb/v7e-m/fpv4-sp/hard/libgcc.a(_dvmd_tls.o)
                                                  /home/mparamidani/CIAA/gcc-arm-none-eabi-7-2018-q2-update/bin/../lib/gcc/arm-none-eabi/7.3.1/thumb/v7e-m/fpv4-sp/hard/libgcc.a(_aeabi_uldivmod.o)
                                                  /home/mparamidani/CIAA/gcc-arm-none-eabi-7-2018-q2-update/bin/../lib/gcc/arm-none-eabi/7.3.1/thumb/v7e-m/fpv4-sp/hard/libgcc.a(_aeabi_ldivmod.o)
__aeabi_ldivmod                                   /home/mparamidani/CIAA/gcc-arm-none-eabi-7-2018-q2-update/bin/../lib/gcc/arm-none-eabi/7.3.1/thumb/v7e-m/fpv4-sp/hard/libgcc.a(_aeabi_ldivmod.o)
                                                  examples_c/sapi/rtc/out/libs/sapi/sapi_v0.5.2/abstract_modules/src/sapi_convert.o
__aeabi_ui2d                                      /home/mparamidani/CIAA/gcc-arm-none-eabi-7-2018-q2-update/bin/../lib/gcc/arm-none-eabi/7.3.1/thumb/v7e-m/fpv4-sp/hard/libgcc.a(_arm_addsubdf3.o)
__aeabi_ul2d                                      /home/mparamidani/CIAA/gcc-arm-none-eabi-7-2018-q2-update/bin/../lib/gcc/arm-none-eabi/7.3.1/thumb/v7e-m/fpv4-sp/hard/libgcc.a(_arm_addsubdf3.o)
__aeabi_uldivmod                                  /home/mparamidani/CIAA/gcc-arm-none-eabi-7-2018-q2-update/bin/../lib/gcc/arm-none-eabi/7.3.1/thumb/v7e-m/fpv4-sp/hard/libgcc.a(_aeabi_uldivmod.o)
                                                  examples_c/sapi/rtc/out/libs/sapi/sapi_v0.5.2/abstract_modules/src/sapi_convert.o
                                                  examples_c/sapi/rtc/out/libs/sapi/sapi_v0.5.2/abstract_modules/src/sapi_delay.o
                                                  examples_c/sapi/rtc/out/libs/sapi/sapi_v0.5.2/soc/peripherals/src/sapi_tick.o
                                                  examples_c/sapi/rtc/out/libs/lpc_open/lpc_chip_43xx/src/uart_18xx_43xx.o
                                                  examples_c/sapi/rtc/out/libs/lpc_open/lpc_chip_43xx/src/i2s_18xx_43xx.o
__bss_section_table_end                           examples_c/sapi/rtc/out/libs/cmsis_core//src/armv7m_startup.o
__data_section_table                              examples_c/sapi/rtc/out/libs/cmsis_core//src/armv7m_startup.o
__data_section_table_end                          examples_c/sapi/rtc/out/libs/cmsis_core//src/armv7m_startup.o
__divdf3                                          /home/mparamidani/CIAA/gcc-arm-none-eabi-7-2018-q2-update/bin/../lib/gcc/arm-none-eabi/7.3.1/thumb/v7e-m/fpv4-sp/hard/libgcc.a(_arm_muldivdf3.o)
__extendsfdf2                                     /home/mparamidani/CIAA/gcc-arm-none-eabi-7-2018-q2-update/bin/../lib/gcc/arm-none-eabi/7.3.1/thumb/v7e-m/fpv4-sp/hard/libgcc.a(_arm_addsubdf3.o)
__floatdidf                                       /home/mparamidani/CIAA/gcc-arm-none-eabi-7-2018-q2-update/bin/../lib/gcc/arm-none-eabi/7.3.1/thumb/v7e-m/fpv4-sp/hard/libgcc.a(_arm_addsubdf3.o)
__floatsidf                                       /home/mparamidani/CIAA/gcc-arm-none-eabi-7-2018-q2-update/bin/../lib/gcc/arm-none-eabi/7.3.1/thumb/v7e-m/fpv4-sp/hard/libgcc.a(_arm_addsubdf3.o)
__floatundidf                                     /home/mparamidani/CIAA/gcc-arm-none-eabi-7-2018-q2-update/bin/../lib/gcc/arm-none-eabi/7.3.1/thumb/v7e-m/fpv4-sp/hard/libgcc.a(_arm_addsubdf3.o)
__floatunsidf                                     /home/mparamidani/CIAA/gcc-arm-none-eabi-7-2018-q2-update/bin/../lib/gcc/arm-none-eabi/7.3.1/thumb/v7e-m/fpv4-sp/hard/libgcc.a(_arm_addsubdf3.o)
__fp_lock_all                                     /home/mparamidani/CIAA/gcc-arm-none-eabi-7-2018-q2-update/bin/../lib/gcc/arm-none-eabi/7.3.1/../../../../arm-none-eabi/lib/thumb/v7e-m/fpv4-sp/hard/libc_nano.a(lib_a-findfp.o)
__fp_unlock_all                                   /home/mparamidani/CIAA/gcc-arm-none-eabi-7-2018-q2-update/bin/../lib/gcc/arm-none-eabi/7.3.1/../../../../arm-none-eabi/lib/thumb/v7e-m/fpv4-sp/hard/libc_nano.a(lib_a-findfp.o)
__init_array_end                                  /home/mparamidani/CIAA/gcc-arm-none-eabi-7-2018-q2-update/bin/../lib/gcc/arm-none-eabi/7.3.1/../../../../arm-none-eabi/lib/thumb/v7e-m/fpv4-sp/hard/libc_nano.a(lib_a-init.o)
__init_array_start                                /home/mparamidani/CIAA/gcc-arm-none-eabi-7-2018-q2-update/bin/../lib/gcc/arm-none-eabi/7.3.1/../../../../arm-none-eabi/lib/thumb/v7e-m/fpv4-sp/hard/libc_nano.a(lib_a-init.o)
__libc_init_array                                 /home/mparamidani/CIAA/gcc-arm-none-eabi-7-2018-q2-update/bin/../lib/gcc/arm-none-eabi/7.3.1/../../../../arm-none-eabi/lib/thumb/v7e-m/fpv4-sp/hard/libc_nano.a(lib_a-init.o)
                                                  examples_c/sapi/rtc/out/libs/cmsis_core//src/armv7m_startup.o
__malloc_free_list                                /home/mparamidani/CIAA/gcc-arm-none-eabi-7-2018-q2-update/bin/../lib/gcc/arm-none-eabi/7.3.1/../../../../arm-none-eabi/lib/thumb/v7e-m/fpv4-sp/hard/libc_nano.a(lib_a-nano-mallocr.o)
                                                  /home/mparamidani/CIAA/gcc-arm-none-eabi-7-2018-q2-update/bin/../lib/gcc/arm-none-eabi/7.3.1/../../../../arm-none-eabi/lib/thumb/v7e-m/fpv4-sp/hard/libc_nano.a(lib_a-nano-freer.o)
__malloc_lock                                     /home/mparamidani/CIAA/gcc-arm-none-eabi-7-2018-q2-update/bin/../lib/gcc/arm-none-eabi/7.3.1/../../../../arm-none-eabi/lib/thumb/v7e-m/fpv4-sp/hard/libc_nano.a(lib_a-mlock.o)
                                                  /home/mparamidani/CIAA/gcc-arm-none-eabi-7-2018-q2-update/bin/../lib/gcc/arm-none-eabi/7.3.1/../../../../arm-none-eabi/lib/thumb/v7e-m/fpv4-sp/hard/libc_nano.a(lib_a-nano-mallocr.o)
                                                  /home/mparamidani/CIAA/gcc-arm-none-eabi-7-2018-q2-update/bin/../lib/gcc/arm-none-eabi/7.3.1/../../../../arm-none-eabi/lib/thumb/v7e-m/fpv4-sp/hard/libc_nano.a(lib_a-nano-freer.o)
__malloc_sbrk_start                               /home/mparamidani/CIAA/gcc-arm-none-eabi-7-2018-q2-update/bin/../lib/gcc/arm-none-eabi/7.3.1/../../../../arm-none-eabi/lib/thumb/v7e-m/fpv4-sp/hard/libc_nano.a(lib_a-nano-mallocr.o)
__malloc_unlock                                   /home/mparamidani/CIAA/gcc-arm-none-eabi-7-2018-q2-update/bin/../lib/gcc/arm-none-eabi/7.3.1/../../../../arm-none-eabi/lib/thumb/v7e-m/fpv4-sp/hard/libc_nano.a(lib_a-mlock.o)
                                                  /home/mparamidani/CIAA/gcc-arm-none-eabi-7-2018-q2-update/bin/../lib/gcc/arm-none-eabi/7.3.1/../../../../arm-none-eabi/lib/thumb/v7e-m/fpv4-sp/hard/libc_nano.a(lib_a-nano-mallocr.o)
                                                  /home/mparamidani/CIAA/gcc-arm-none-eabi-7-2018-q2-update/bin/../lib/gcc/arm-none-eabi/7.3.1/../../../../arm-none-eabi/lib/thumb/v7e-m/fpv4-sp/hard/libc_nano.a(lib_a-nano-freer.o)
__muldf3                                          /home/mparamidani/CIAA/gcc-arm-none-eabi-7-2018-q2-update/bin/../lib/gcc/arm-none-eabi/7.3.1/thumb/v7e-m/fpv4-sp/hard/libgcc.a(_arm_muldivdf3.o)
__preinit_array_end                               /home/mparamidani/CIAA/gcc-arm-none-eabi-7-2018-q2-update/bin/../lib/gcc/arm-none-eabi/7.3.1/../../../../arm-none-eabi/lib/thumb/v7e-m/fpv4-sp/hard/libc_nano.a(lib_a-init.o)
__preinit_array_start                             /home/mparamidani/CIAA/gcc-arm-none-eabi-7-2018-q2-update/bin/../lib/gcc/arm-none-eabi/7.3.1/../../../../arm-none-eabi/lib/thumb/v7e-m/fpv4-sp/hard/libc_nano.a(lib_a-init.o)
__sclose                                          /home/mparamidani/CIAA/gcc-arm-none-eabi-7-2018-q2-update/bin/../lib/gcc/arm-none-eabi/7.3.1/../../../../arm-none-eabi/lib/thumb/v7e-m/fpv4-sp/hard/libc_nano.a(lib_a-stdio.o)
                                                  /home/mparamidani/CIAA/gcc-arm-none-eabi-7-2018-q2-update/bin/../lib/gcc/arm-none-eabi/7.3.1/../../../../arm-none-eabi/lib/thumb/v7e-m/fpv4-sp/hard/libc_nano.a(lib_a-findfp.o)
__seofread                                        /home/mparamidani/CIAA/gcc-arm-none-eabi-7-2018-q2-update/bin/../lib/gcc/arm-none-eabi/7.3.1/../../../../arm-none-eabi/lib/thumb/v7e-m/fpv4-sp/hard/libc_nano.a(lib_a-stdio.o)
__sf_fake_stderr                                  /home/mparamidani/CIAA/gcc-arm-none-eabi-7-2018-q2-update/bin/../lib/gcc/arm-none-eabi/7.3.1/../../../../arm-none-eabi/lib/thumb/v7e-m/fpv4-sp/hard/libc_nano.a(lib_a-findfp.o)
                                                  /home/mparamidani/CIAA/gcc-arm-none-eabi-7-2018-q2-update/bin/../lib/gcc/arm-none-eabi/7.3.1/../../../../arm-none-eabi/lib/thumb/v7e-m/fpv4-sp/hard/libc_nano.a(lib_a-impure.o)
                                                  /home/mparamidani/CIAA/gcc-arm-none-eabi-7-2018-q2-update/bin/../lib/gcc/arm-none-eabi/7.3.1/../../../../arm-none-eabi/lib/thumb/v7e-m/fpv4-sp/hard/libc_nano.a(lib_a-fflush.o)
                                                  /home/mparamidani/CIAA/gcc-arm-none-eabi-7-2018-q2-update/bin/../lib/gcc/arm-none-eabi/7.3.1/../../../../arm-none-eabi/lib/thumb/v7e-m/fpv4-sp/hard/libc_nano.a(lib_a-wsetup.o)
                                                  /home/mparamidani/CIAA/gcc-arm-none-eabi-7-2018-q2-update/bin/../lib/gcc/arm-none-eabi/7.3.1/../../../../arm-none-eabi/lib/thumb/v7e-m/fpv4-sp/hard/libc_nano.a(lib_a-wbuf.o)
                                                  /home/mparamidani/CIAA/gcc-arm-none-eabi-7-2018-q2-update/bin/../lib/gcc/arm-none-eabi/7.3.1/../../../../arm-none-eabi/lib/thumb/v7e-m/fpv4-sp/hard/libc_nano.a(lib_a-puts.o)
__sf_fake_stdin                                   /home/mparamidani/CIAA/gcc-arm-none-eabi-7-2018-q2-update/bin/../lib/gcc/arm-none-eabi/7.3.1/../../../../arm-none-eabi/lib/thumb/v7e-m/fpv4-sp/hard/libc_nano.a(lib_a-findfp.o)
                                                  /home/mparamidani/CIAA/gcc-arm-none-eabi-7-2018-q2-update/bin/../lib/gcc/arm-none-eabi/7.3.1/../../../../arm-none-eabi/lib/thumb/v7e-m/fpv4-sp/hard/libc_nano.a(lib_a-impure.o)
                                                  /home/mparamidani/CIAA/gcc-arm-none-eabi-7-2018-q2-update/bin/../lib/gcc/arm-none-eabi/7.3.1/../../../../arm-none-eabi/lib/thumb/v7e-m/fpv4-sp/hard/libc_nano.a(lib_a-fflush.o)
                                                  /home/mparamidani/CIAA/gcc-arm-none-eabi-7-2018-q2-update/bin/../lib/gcc/arm-none-eabi/7.3.1/../../../../arm-none-eabi/lib/thumb/v7e-m/fpv4-sp/hard/libc_nano.a(lib_a-wsetup.o)
                                                  /home/mparamidani/CIAA/gcc-arm-none-eabi-7-2018-q2-update/bin/../lib/gcc/arm-none-eabi/7.3.1/../../../../arm-none-eabi/lib/thumb/v7e-m/fpv4-sp/hard/libc_nano.a(lib_a-wbuf.o)
                                                  /home/mparamidani/CIAA/gcc-arm-none-eabi-7-2018-q2-update/bin/../lib/gcc/arm-none-eabi/7.3.1/../../../../arm-none-eabi/lib/thumb/v7e-m/fpv4-sp/hard/libc_nano.a(lib_a-puts.o)
__sf_fake_stdout                                  /home/mparamidani/CIAA/gcc-arm-none-eabi-7-2018-q2-update/bin/../lib/gcc/arm-none-eabi/7.3.1/../../../../arm-none-eabi/lib/thumb/v7e-m/fpv4-sp/hard/libc_nano.a(lib_a-findfp.o)
                                                  /home/mparamidani/CIAA/gcc-arm-none-eabi-7-2018-q2-update/bin/../lib/gcc/arm-none-eabi/7.3.1/../../../../arm-none-eabi/lib/thumb/v7e-m/fpv4-sp/hard/libc_nano.a(lib_a-impure.o)
                                                  /home/mparamidani/CIAA/gcc-arm-none-eabi-7-2018-q2-update/bin/../lib/gcc/arm-none-eabi/7.3.1/../../../../arm-none-eabi/lib/thumb/v7e-m/fpv4-sp/hard/libc_nano.a(lib_a-fflush.o)
                                                  /home/mparamidani/CIAA/gcc-arm-none-eabi-7-2018-q2-update/bin/../lib/gcc/arm-none-eabi/7.3.1/../../../../arm-none-eabi/lib/thumb/v7e-m/fpv4-sp/hard/libc_nano.a(lib_a-wsetup.o)
                                                  /home/mparamidani/CIAA/gcc-arm-none-eabi-7-2018-q2-update/bin/../lib/gcc/arm-none-eabi/7.3.1/../../../../arm-none-eabi/lib/thumb/v7e-m/fpv4-sp/hard/libc_nano.a(lib_a-wbuf.o)
                                                  /home/mparamidani/CIAA/gcc-arm-none-eabi-7-2018-q2-update/bin/../lib/gcc/arm-none-eabi/7.3.1/../../../../arm-none-eabi/lib/thumb/v7e-m/fpv4-sp/hard/libc_nano.a(lib_a-puts.o)
__sflush_r                                        /home/mparamidani/CIAA/gcc-arm-none-eabi-7-2018-q2-update/bin/../lib/gcc/arm-none-eabi/7.3.1/../../../../arm-none-eabi/lib/thumb/v7e-m/fpv4-sp/hard/libc_nano.a(lib_a-fflush.o)
__sfmoreglue                                      /home/mparamidani/CIAA/gcc-arm-none-eabi-7-2018-q2-update/bin/../lib/gcc/arm-none-eabi/7.3.1/../../../../arm-none-eabi/lib/thumb/v7e-m/fpv4-sp/hard/libc_nano.a(lib_a-findfp.o)
__sfp                                             /home/mparamidani/CIAA/gcc-arm-none-eabi-7-2018-q2-update/bin/../lib/gcc/arm-none-eabi/7.3.1/../../../../arm-none-eabi/lib/thumb/v7e-m/fpv4-sp/hard/libc_nano.a(lib_a-findfp.o)
__sfp_lock_acquire                                /home/mparamidani/CIAA/gcc-arm-none-eabi-7-2018-q2-update/bin/../lib/gcc/arm-none-eabi/7.3.1/../../../../arm-none-eabi/lib/thumb/v7e-m/fpv4-sp/hard/libc_nano.a(lib_a-findfp.o)
__sfp_lock_release                                /home/mparamidani/CIAA/gcc-arm-none-eabi-7-2018-q2-update/bin/../lib/gcc/arm-none-eabi/7.3.1/../../../../arm-none-eabi/lib/thumb/v7e-m/fpv4-sp/hard/libc_nano.a(lib_a-findfp.o)
__sinit                                           /home/mparamidani/CIAA/gcc-arm-none-eabi-7-2018-q2-update/bin/../lib/gcc/arm-none-eabi/7.3.1/../../../../arm-none-eabi/lib/thumb/v7e-m/fpv4-sp/hard/libc_nano.a(lib_a-findfp.o)
                                                  /home/mparamidani/CIAA/gcc-arm-none-eabi-7-2018-q2-update/bin/../lib/gcc/arm-none-eabi/7.3.1/../../../../arm-none-eabi/lib/thumb/v7e-m/fpv4-sp/hard/libc_nano.a(lib_a-fflush.o)
                                                  /home/mparamidani/CIAA/gcc-arm-none-eabi-7-2018-q2-update/bin/../lib/gcc/arm-none-eabi/7.3.1/../../../../arm-none-eabi/lib/thumb/v7e-m/fpv4-sp/hard/libc_nano.a(lib_a-wsetup.o)
                                                  /home/mparamidani/CIAA/gcc-arm-none-eabi-7-2018-q2-update/bin/../lib/gcc/arm-none-eabi/7.3.1/../../../../arm-none-eabi/lib/thumb/v7e-m/fpv4-sp/hard/libc_nano.a(lib_a-wbuf.o)
                                                  /home/mparamidani/CIAA/gcc-arm-none-eabi-7-2018-q2-update/bin/../lib/gcc/arm-none-eabi/7.3.1/../../../../arm-none-eabi/lib/thumb/v7e-m/fpv4-sp/hard/libc_nano.a(lib_a-puts.o)
__sinit_lock_acquire                              /home/mparamidani/CIAA/gcc-arm-none-eabi-7-2018-q2-update/bin/../lib/gcc/arm-none-eabi/7.3.1/../../../../arm-none-eabi/lib/thumb/v7e-m/fpv4-sp/hard/libc_nano.a(lib_a-findfp.o)
__sinit_lock_release                              /home/mparamidani/CIAA/gcc-arm-none-eabi-7-2018-q2-update/bin/../lib/gcc/arm-none-eabi/7.3.1/../../../../arm-none-eabi/lib/thumb/v7e-m/fpv4-sp/hard/libc_nano.a(lib_a-findfp.o)
__smakebuf_r                                      /home/mparamidani/CIAA/gcc-arm-none-eabi-7-2018-q2-update/bin/../lib/gcc/arm-none-eabi/7.3.1/../../../../arm-none-eabi/lib/thumb/v7e-m/fpv4-sp/hard/libc_nano.a(lib_a-makebuf.o)
                                                  /home/mparamidani/CIAA/gcc-arm-none-eabi-7-2018-q2-update/bin/../lib/gcc/arm-none-eabi/7.3.1/../../../../arm-none-eabi/lib/thumb/v7e-m/fpv4-sp/hard/libc_nano.a(lib_a-wsetup.o)
__sread                                           /home/mparamidani/CIAA/gcc-arm-none-eabi-7-2018-q2-update/bin/../lib/gcc/arm-none-eabi/7.3.1/../../../../arm-none-eabi/lib/thumb/v7e-m/fpv4-sp/hard/libc_nano.a(lib_a-stdio.o)
                                                  /home/mparamidani/CIAA/gcc-arm-none-eabi-7-2018-q2-update/bin/../lib/gcc/arm-none-eabi/7.3.1/../../../../arm-none-eabi/lib/thumb/v7e-m/fpv4-sp/hard/libc_nano.a(lib_a-findfp.o)
__sseek                                           /home/mparamidani/CIAA/gcc-arm-none-eabi-7-2018-q2-update/bin/../lib/gcc/arm-none-eabi/7.3.1/../../../../arm-none-eabi/lib/thumb/v7e-m/fpv4-sp/hard/libc_nano.a(lib_a-stdio.o)
                                                  /home/mparamidani/CIAA/gcc-arm-none-eabi-7-2018-q2-update/bin/../lib/gcc/arm-none-eabi/7.3.1/../../../../arm-none-eabi/lib/thumb/v7e-m/fpv4-sp/hard/libc_nano.a(lib_a-findfp.o)
__stdio_getchar                                   examples_c/sapi/rtc/out/libs/lpc_open/boards/edu_ciaa_nxp/src/board.o
                                                  examples_c/sapi/rtc/out/libs/sys_newlib//src/system.o
__stdio_init                                      examples_c/sapi/rtc/out/libs/lpc_open/boards/edu_ciaa_nxp/src/board.o
                                                  examples_c/sapi/rtc/out/libs/sys_newlib//src/system.o
__stdio_putchar                                   examples_c/sapi/rtc/out/libs/lpc_open/boards/edu_ciaa_nxp/src/board.o
                                                  examples_c/sapi/rtc/out/libs/sys_newlib//src/system.o
__subdf3                                          /home/mparamidani/CIAA/gcc-arm-none-eabi-7-2018-q2-update/bin/../lib/gcc/arm-none-eabi/7.3.1/thumb/v7e-m/fpv4-sp/hard/libgcc.a(_arm_addsubdf3.o)
__swbuf                                           /home/mparamidani/CIAA/gcc-arm-none-eabi-7-2018-q2-update/bin/../lib/gcc/arm-none-eabi/7.3.1/../../../../arm-none-eabi/lib/thumb/v7e-m/fpv4-sp/hard/libc_nano.a(lib_a-wbuf.o)
__swbuf_r                                         /home/mparamidani/CIAA/gcc-arm-none-eabi-7-2018-q2-update/bin/../lib/gcc/arm-none-eabi/7.3.1/../../../../arm-none-eabi/lib/thumb/v7e-m/fpv4-sp/hard/libc_nano.a(lib_a-wbuf.o)
                                                  /home/mparamidani/CIAA/gcc-arm-none-eabi-7-2018-q2-update/bin/../lib/gcc/arm-none-eabi/7.3.1/../../../../arm-none-eabi/lib/thumb/v7e-m/fpv4-sp/hard/libc_nano.a(lib_a-puts.o)
__swhatbuf_r                                      /home/mparamidani/CIAA/gcc-arm-none-eabi-7-2018-q2-update/bin/../lib/gcc/arm-none-eabi/7.3.1/../../../../arm-none-eabi/lib/thumb/v7e-m/fpv4-sp/hard/libc_nano.a(lib_a-makebuf.o)
__swrite                                          /home/mparamidani/CIAA/gcc-arm-none-eabi-7-2018-q2-update/bin/../lib/gcc/arm-none-eabi/7.3.1/../../../../arm-none-eabi/lib/thumb/v7e-m/fpv4-sp/hard/libc_nano.a(lib_a-stdio.o)
                                                  /home/mparamidani/CIAA/gcc-arm-none-eabi-7-2018-q2-update/bin/../lib/gcc/arm-none-eabi/7.3.1/../../../../arm-none-eabi/lib/thumb/v7e-m/fpv4-sp/hard/libc_nano.a(lib_a-findfp.o)
__swsetup_r                                       /home/mparamidani/CIAA/gcc-arm-none-eabi-7-2018-q2-update/bin/../lib/gcc/arm-none-eabi/7.3.1/../../../../arm-none-eabi/lib/thumb/v7e-m/fpv4-sp/hard/libc_nano.a(lib_a-wsetup.o)
                                                  /home/mparamidani/CIAA/gcc-arm-none-eabi-7-2018-q2-update/bin/../lib/gcc/arm-none-eabi/7.3.1/../../../../arm-none-eabi/lib/thumb/v7e-m/fpv4-sp/hard/libc_nano.a(lib_a-wbuf.o)
                                                  /home/mparamidani/CIAA/gcc-arm-none-eabi-7-2018-q2-update/bin/../lib/gcc/arm-none-eabi/7.3.1/../../../../arm-none-eabi/lib/thumb/v7e-m/fpv4-sp/hard/libc_nano.a(lib_a-puts.o)
__truncdfsf2                                      /home/mparamidani/CIAA/gcc-arm-none-eabi-7-2018-q2-update/bin/../lib/gcc/arm-none-eabi/7.3.1/thumb/v7e-m/fpv4-sp/hard/libgcc.a(_arm_truncdfsf2.o)
__udivmoddi4                                      /home/mparamidani/CIAA/gcc-arm-none-eabi-7-2018-q2-update/bin/../lib/gcc/arm-none-eabi/7.3.1/thumb/v7e-m/fpv4-sp/hard/libgcc.a(_udivmoddi4.o)
                                                  /home/mparamidani/CIAA/gcc-arm-none-eabi-7-2018-q2-update/bin/../lib/gcc/arm-none-eabi/7.3.1/thumb/v7e-m/fpv4-sp/hard/libgcc.a(_aeabi_uldivmod.o)
                                                  /home/mparamidani/CIAA/gcc-arm-none-eabi-7-2018-q2-update/bin/../lib/gcc/arm-none-eabi/7.3.1/thumb/v7e-m/fpv4-sp/hard/libgcc.a(_aeabi_ldivmod.o)
__valid_user_code_checksum                        examples_c/sapi/rtc/out/libs/cmsis_core//src/armv7m_startup.o
_cleanup                                          /home/mparamidani/CIAA/gcc-arm-none-eabi-7-2018-q2-update/bin/../lib/gcc/arm-none-eabi/7.3.1/../../../../arm-none-eabi/lib/thumb/v7e-m/fpv4-sp/hard/libc_nano.a(lib_a-findfp.o)
_cleanup_r                                        /home/mparamidani/CIAA/gcc-arm-none-eabi-7-2018-q2-update/bin/../lib/gcc/arm-none-eabi/7.3.1/../../../../arm-none-eabi/lib/thumb/v7e-m/fpv4-sp/hard/libc_nano.a(lib_a-findfp.o)
                                                  /home/mparamidani/CIAA/gcc-arm-none-eabi-7-2018-q2-update/bin/../lib/gcc/arm-none-eabi/7.3.1/../../../../arm-none-eabi/lib/thumb/v7e-m/fpv4-sp/hard/libc_nano.a(lib_a-makebuf.o)
_close_r                                          examples_c/sapi/rtc/out/libs/sys_newlib//src/system.o
                                                  /home/mparamidani/CIAA/gcc-arm-none-eabi-7-2018-q2-update/bin/../lib/gcc/arm-none-eabi/7.3.1/../../../../arm-none-eabi/lib/thumb/v7e-m/fpv4-sp/hard/libc_nano.a(lib_a-stdio.o)
_execve_r                                         examples_c/sapi/rtc/out/libs/sys_newlib//src/system.o
_exit                                             examples_c/sapi/rtc/out/libs/sys_newlib//src/system.o
_fcntl_r                                          examples_c/sapi/rtc/out/libs/sys_newlib//src/system.o
_fflush_r                                         /home/mparamidani/CIAA/gcc-arm-none-eabi-7-2018-q2-update/bin/../lib/gcc/arm-none-eabi/7.3.1/../../../../arm-none-eabi/lib/thumb/v7e-m/fpv4-sp/hard/libc_nano.a(lib_a-fflush.o)
