Archive member included to satisfy reference by file (symbol)

/tmp/.mount_CIAA_S7Q9Wj6/usr/bin/../lib/gcc/arm-none-eabi/7.2.1/thumb/v7e-m/fpv4-sp/hard/libgcc.a(_arm_addsubdf3.o)
                              examples/c/sapi/bare_metal/gpio/gpio_01_switches_leds/out/libs/sapi/sapi_v0.5.1/src/sapi_imu_mpu9250.o (__aeabi_dadd)
/tmp/.mount_CIAA_S7Q9Wj6/usr/bin/../lib/gcc/arm-none-eabi/7.2.1/thumb/v7e-m/fpv4-sp/hard/libgcc.a(_arm_truncdfsf2.o)
                              examples/c/sapi/bare_metal/gpio/gpio_01_switches_leds/out/libs/sapi/sapi_v0.5.1/src/sapi_imu_mpu9250.o (__aeabi_d2f)
/tmp/.mount_CIAA_S7Q9Wj6/usr/bin/../lib/gcc/arm-none-eabi/7.2.1/thumb/v7e-m/fpv4-sp/hard/libgcc.a(_aeabi_ldivmod.o)
                              examples/c/sapi/bare_metal/gpio/gpio_01_switches_leds/out/libs/sapi/sapi_v0.5.1/src/sapi_convert.o (__aeabi_ldivmod)
/tmp/.mount_CIAA_S7Q9Wj6/usr/bin/../lib/gcc/arm-none-eabi/7.2.1/thumb/v7e-m/fpv4-sp/hard/libgcc.a(_aeabi_uldivmod.o)
                              examples/c/sapi/bare_metal/gpio/gpio_01_switches_leds/out/libs/sapi/sapi_v0.5.1/src/sapi_convert.o (__aeabi_uldivmod)
/tmp/.mount_CIAA_S7Q9Wj6/usr/bin/../lib/gcc/arm-none-eabi/7.2.1/thumb/v7e-m/fpv4-sp/hard/libgcc.a(_fixunssfdi.o)
                              examples/c/sapi/bare_metal/gpio/gpio_01_switches_leds/out/libs/sapi/sapi_v0.5.1/src/sapi_delay.o (__aeabi_f2ulz)
/tmp/.mount_CIAA_S7Q9Wj6/usr/bin/../lib/gcc/arm-none-eabi/7.2.1/thumb/v7e-m/fpv4-sp/hard/libgcc.a(_udivmoddi4.o)
                              /tmp/.mount_CIAA_S7Q9Wj6/usr/bin/../lib/gcc/arm-none-eabi/7.2.1/thumb/v7e-m/fpv4-sp/hard/libgcc.a(_aeabi_ldivmod.o) (__udivmoddi4)
/tmp/.mount_CIAA_S7Q9Wj6/usr/bin/../lib/gcc/arm-none-eabi/7.2.1/thumb/v7e-m/fpv4-sp/hard/libgcc.a(_dvmd_tls.o)
                              /tmp/.mount_CIAA_S7Q9Wj6/usr/bin/../lib/gcc/arm-none-eabi/7.2.1/thumb/v7e-m/fpv4-sp/hard/libgcc.a(_aeabi_ldivmod.o) (__aeabi_ldiv0)
/tmp/.mount_CIAA_S7Q9Wj6/usr/bin/../lib/gcc/arm-none-eabi/7.2.1/thumb/v7e-m/fpv4-sp/hard/libgcc.a(_arm_muldivdf3.o)
                              /tmp/.mount_CIAA_S7Q9Wj6/usr/bin/../lib/gcc/arm-none-eabi/7.2.1/thumb/v7e-m/fpv4-sp/hard/libgcc.a(_fixunssfdi.o) (__aeabi_dmul)
/tmp/.mount_CIAA_S7Q9Wj6/usr/bin/../lib/gcc/arm-none-eabi/7.2.1/thumb/v7e-m/fpv4-sp/hard/libgcc.a(_arm_fixunsdfsi.o)
                              /tmp/.mount_CIAA_S7Q9Wj6/usr/bin/../lib/gcc/arm-none-eabi/7.2.1/thumb/v7e-m/fpv4-sp/hard/libgcc.a(_fixunssfdi.o) (__aeabi_d2uiz)
/tmp/.mount_CIAA_S7Q9Wj6/usr/bin/../lib/gcc/arm-none-eabi/7.2.1/../../../../arm-none-eabi/lib/thumb/v7e-m/fpv4-sp/hard/libc_nano.a(lib_a-init.o)
                              examples/c/sapi/bare_metal/gpio/gpio_01_switches_leds/out/libs/vendor_libs/lpc_startup/src/cr_startup_lpc43xx.o (__libc_init_array)
/tmp/.mount_CIAA_S7Q9Wj6/usr/bin/../lib/gcc/arm-none-eabi/7.2.1/../../../../arm-none-eabi/lib/thumb/v7e-m/fpv4-sp/hard/libc_nano.a(lib_a-memcpy-stub.o)
                              examples/c/sapi/bare_metal/gpio/gpio_01_switches_leds/out/libs/vendor_libs/lpc_chip_43xx/src/ring_buffer.o (memcpy)
/tmp/.mount_CIAA_S7Q9Wj6/usr/bin/../lib/gcc/arm-none-eabi/7.2.1/../../../../arm-none-eabi/lib/thumb/v7e-m/fpv4-sp/hard/libc_nano.a(lib_a-memset.o)
                              examples/c/sapi/bare_metal/gpio/gpio_01_switches_leds/out/libs/vendor_libs/lpc_chip_43xx/src/clock_18xx_43xx.o (memset)
/tmp/.mount_CIAA_S7Q9Wj6/usr/bin/../lib/gcc/arm-none-eabi/7.2.1/../../../../arm-none-eabi/lib/thumb/v7e-m/fpv4-sp/hard/libc_nano.a(lib_a-printf.o)
                              examples/c/sapi/bare_metal/gpio/gpio_01_switches_leds/out/libs/sapi/sapi_v0.5.1/src/sapi_esp8266.o (printf)
/tmp/.mount_CIAA_S7Q9Wj6/usr/bin/../lib/gcc/arm-none-eabi/7.2.1/../../../../arm-none-eabi/lib/thumb/v7e-m/fpv4-sp/hard/libc_nano.a(lib_a-putchar.o)
                              examples/c/sapi/bare_metal/gpio/gpio_01_switches_leds/out/libs/sapi/sapi_v0.5.1/src/sapi_esp8266.o (putchar)
/tmp/.mount_CIAA_S7Q9Wj6/usr/bin/../lib/gcc/arm-none-eabi/7.2.1/../../../../arm-none-eabi/lib/thumb/v7e-m/fpv4-sp/hard/libc_nano.a(lib_a-puts.o)
                              examples/c/sapi/bare_metal/gpio/gpio_01_switches_leds/out/libs/sapi/sapi_v0.5.1/src/sapi_esp8266.o (puts)
/tmp/.mount_CIAA_S7Q9Wj6/usr/bin/../lib/gcc/arm-none-eabi/7.2.1/../../../../arm-none-eabi/lib/thumb/v7e-m/fpv4-sp/hard/libc_nano.a(lib_a-sprintf.o)
                              examples/c/sapi/bare_metal/gpio/gpio_01_switches_leds/out/libs/sapi/sapi_v0.5.1/src/sapi_esp8266.o (sprintf)
/tmp/.mount_CIAA_S7Q9Wj6/usr/bin/../lib/gcc/arm-none-eabi/7.2.1/../../../../arm-none-eabi/lib/thumb/v7e-m/fpv4-sp/hard/libc_nano.a(lib_a-strcpy.o)
                              examples/c/sapi/bare_metal/gpio/gpio_01_switches_leds/out/libs/sapi/sapi_v0.5.1/src/sapi_esp8266.o (strcpy)
/tmp/.mount_CIAA_S7Q9Wj6/usr/bin/../lib/gcc/arm-none-eabi/7.2.1/../../../../arm-none-eabi/lib/thumb/v7e-m/fpv4-sp/hard/libc_nano.a(lib_a-strlen.o)
                              examples/c/sapi/bare_metal/gpio/gpio_01_switches_leds/out/libs/sapi/sapi_v0.5.1/src/sapi_esp8266.o (strlen)
/tmp/.mount_CIAA_S7Q9Wj6/usr/bin/../lib/gcc/arm-none-eabi/7.2.1/../../../../arm-none-eabi/lib/thumb/v7e-m/fpv4-sp/hard/libc_nano.a(lib_a-wbuf.o)
                              /tmp/.mount_CIAA_S7Q9Wj6/usr/bin/../lib/gcc/arm-none-eabi/7.2.1/../../../../arm-none-eabi/lib/thumb/v7e-m/fpv4-sp/hard/libc_nano.a(lib_a-puts.o) (__swbuf_r)
/tmp/.mount_CIAA_S7Q9Wj6/usr/bin/../lib/gcc/arm-none-eabi/7.2.1/../../../../arm-none-eabi/lib/thumb/v7e-m/fpv4-sp/hard/libc_nano.a(lib_a-wsetup.o)
                              /tmp/.mount_CIAA_S7Q9Wj6/usr/bin/../lib/gcc/arm-none-eabi/7.2.1/../../../../arm-none-eabi/lib/thumb/v7e-m/fpv4-sp/hard/libc_nano.a(lib_a-puts.o) (__swsetup_r)
/tmp/.mount_CIAA_S7Q9Wj6/usr/bin/../lib/gcc/arm-none-eabi/7.2.1/../../../../arm-none-eabi/lib/thumb/v7e-m/fpv4-sp/hard/libc_nano.a(lib_a-fflush.o)
                              /tmp/.mount_CIAA_S7Q9Wj6/usr/bin/../lib/gcc/arm-none-eabi/7.2.1/../../../../arm-none-eabi/lib/thumb/v7e-m/fpv4-sp/hard/libc_nano.a(lib_a-wbuf.o) (_fflush_r)
/tmp/.mount_CIAA_S7Q9Wj6/usr/bin/../lib/gcc/arm-none-eabi/7.2.1/../../../../arm-none-eabi/lib/thumb/v7e-m/fpv4-sp/hard/libc_nano.a(lib_a-findfp.o)
                              /tmp/.mount_CIAA_S7Q9Wj6/usr/bin/../lib/gcc/arm-none-eabi/7.2.1/../../../../arm-none-eabi/lib/thumb/v7e-m/fpv4-sp/hard/libc_nano.a(lib_a-printf.o) (__sinit)
/tmp/.mount_CIAA_S7Q9Wj6/usr/bin/../lib/gcc/arm-none-eabi/7.2.1/../../../../arm-none-eabi/lib/thumb/v7e-m/fpv4-sp/hard/libc_nano.a(lib_a-fwalk.o)
                              /tmp/.mount_CIAA_S7Q9Wj6/usr/bin/../lib/gcc/arm-none-eabi/7.2.1/../../../../arm-none-eabi/lib/thumb/v7e-m/fpv4-sp/hard/libc_nano.a(lib_a-findfp.o) (_fwalk)
/tmp/.mount_CIAA_S7Q9Wj6/usr/bin/../lib/gcc/arm-none-eabi/7.2.1/../../../../arm-none-eabi/lib/thumb/v7e-m/fpv4-sp/hard/libc_nano.a(lib_a-impure.o)
                              /tmp/.mount_CIAA_S7Q9Wj6/usr/bin/../lib/gcc/arm-none-eabi/7.2.1/../../../../arm-none-eabi/lib/thumb/v7e-m/fpv4-sp/hard/libc_nano.a(lib_a-fflush.o) (_global_impure_ptr)
/tmp/.mount_CIAA_S7Q9Wj6/usr/bin/../lib/gcc/arm-none-eabi/7.2.1/../../../../arm-none-eabi/lib/thumb/v7e-m/fpv4-sp/hard/libc_nano.a(lib_a-makebuf.o)
                              /tmp/.mount_CIAA_S7Q9Wj6/usr/bin/../lib/gcc/arm-none-eabi/7.2.1/../../../../arm-none-eabi/lib/thumb/v7e-m/fpv4-sp/hard/libc_nano.a(lib_a-wsetup.o) (__smakebuf_r)
/tmp/.mount_CIAA_S7Q9Wj6/usr/bin/../lib/gcc/arm-none-eabi/7.2.1/../../../../arm-none-eabi/lib/thumb/v7e-m/fpv4-sp/hard/libc_nano.a(lib_a-nano-freer.o)
                              /tmp/.mount_CIAA_S7Q9Wj6/usr/bin/../lib/gcc/arm-none-eabi/7.2.1/../../../../arm-none-eabi/lib/thumb/v7e-m/fpv4-sp/hard/libc_nano.a(lib_a-wsetup.o) (_free_r)
/tmp/.mount_CIAA_S7Q9Wj6/usr/bin/../lib/gcc/arm-none-eabi/7.2.1/../../../../arm-none-eabi/lib/thumb/v7e-m/fpv4-sp/hard/libc_nano.a(lib_a-nano-mallocr.o)
                              /tmp/.mount_CIAA_S7Q9Wj6/usr/bin/../lib/gcc/arm-none-eabi/7.2.1/../../../../arm-none-eabi/lib/thumb/v7e-m/fpv4-sp/hard/libc_nano.a(lib_a-findfp.o) (_malloc_r)
/tmp/.mount_CIAA_S7Q9Wj6/usr/bin/../lib/gcc/arm-none-eabi/7.2.1/../../../../arm-none-eabi/lib/thumb/v7e-m/fpv4-sp/hard/libc_nano.a(lib_a-nano-svfprintf.o)
                              /tmp/.mount_CIAA_S7Q9Wj6/usr/bin/../lib/gcc/arm-none-eabi/7.2.1/../../../../arm-none-eabi/lib/thumb/v7e-m/fpv4-sp/hard/libc_nano.a(lib_a-sprintf.o) (_svfprintf_r)
/tmp/.mount_CIAA_S7Q9Wj6/usr/bin/../lib/gcc/arm-none-eabi/7.2.1/../../../../arm-none-eabi/lib/thumb/v7e-m/fpv4-sp/hard/libc_nano.a(lib_a-nano-vfprintf.o)
                              /tmp/.mount_CIAA_S7Q9Wj6/usr/bin/../lib/gcc/arm-none-eabi/7.2.1/../../../../arm-none-eabi/lib/thumb/v7e-m/fpv4-sp/hard/libc_nano.a(lib_a-printf.o) (_vfprintf_r)
/tmp/.mount_CIAA_S7Q9Wj6/usr/bin/../lib/gcc/arm-none-eabi/7.2.1/../../../../arm-none-eabi/lib/thumb/v7e-m/fpv4-sp/hard/libc_nano.a(lib_a-nano-vfprintf_i.o)
                              /tmp/.mount_CIAA_S7Q9Wj6/usr/bin/../lib/gcc/arm-none-eabi/7.2.1/../../../../arm-none-eabi/lib/thumb/v7e-m/fpv4-sp/hard/libc_nano.a(lib_a-nano-svfprintf.o) (_printf_i)
/tmp/.mount_CIAA_S7Q9Wj6/usr/bin/../lib/gcc/arm-none-eabi/7.2.1/../../../../arm-none-eabi/lib/thumb/v7e-m/fpv4-sp/hard/libc_nano.a(lib_a-putc.o)
                              /tmp/.mount_CIAA_S7Q9Wj6/usr/bin/../lib/gcc/arm-none-eabi/7.2.1/../../../../arm-none-eabi/lib/thumb/v7e-m/fpv4-sp/hard/libc_nano.a(lib_a-putchar.o) (_putc_r)
/tmp/.mount_CIAA_S7Q9Wj6/usr/bin/../lib/gcc/arm-none-eabi/7.2.1/../../../../arm-none-eabi/lib/thumb/v7e-m/fpv4-sp/hard/libc_nano.a(lib_a-stdio.o)
                              /tmp/.mount_CIAA_S7Q9Wj6/usr/bin/../lib/gcc/arm-none-eabi/7.2.1/../../../../arm-none-eabi/lib/thumb/v7e-m/fpv4-sp/hard/libc_nano.a(lib_a-findfp.o) (__sread)
/tmp/.mount_CIAA_S7Q9Wj6/usr/bin/../lib/gcc/arm-none-eabi/7.2.1/../../../../arm-none-eabi/lib/thumb/v7e-m/fpv4-sp/hard/libc_nano.a(lib_a-fvwrite.o)
                              /tmp/.mount_CIAA_S7Q9Wj6/usr/bin/../lib/gcc/arm-none-eabi/7.2.1/../../../../arm-none-eabi/lib/thumb/v7e-m/fpv4-sp/hard/libc_nano.a(lib_a-nano-vfprintf.o) (__sfvwrite_r)
/tmp/.mount_CIAA_S7Q9Wj6/usr/bin/../lib/gcc/arm-none-eabi/7.2.1/../../../../arm-none-eabi/lib/thumb/v7e-m/fpv4-sp/hard/libc_nano.a(lib_a-memchr.o)
                              /tmp/.mount_CIAA_S7Q9Wj6/usr/bin/../lib/gcc/arm-none-eabi/7.2.1/../../../../arm-none-eabi/lib/thumb/v7e-m/fpv4-sp/hard/libc_nano.a(lib_a-nano-svfprintf.o) (memchr)
/tmp/.mount_CIAA_S7Q9Wj6/usr/bin/../lib/gcc/arm-none-eabi/7.2.1/../../../../arm-none-eabi/lib/thumb/v7e-m/fpv4-sp/hard/libc_nano.a(lib_a-memmove.o)
                              /tmp/.mount_CIAA_S7Q9Wj6/usr/bin/../lib/gcc/arm-none-eabi/7.2.1/../../../../arm-none-eabi/lib/thumb/v7e-m/fpv4-sp/hard/libc_nano.a(lib_a-nano-svfprintf.o) (memmove)
/tmp/.mount_CIAA_S7Q9Wj6/usr/bin/../lib/gcc/arm-none-eabi/7.2.1/../../../../arm-none-eabi/lib/thumb/v7e-m/fpv4-sp/hard/libc_nano.a(lib_a-mlock.o)
                              /tmp/.mount_CIAA_S7Q9Wj6/usr/bin/../lib/gcc/arm-none-eabi/7.2.1/../../../../arm-none-eabi/lib/thumb/v7e-m/fpv4-sp/hard/libc_nano.a(lib_a-nano-freer.o) (__malloc_lock)
/tmp/.mount_CIAA_S7Q9Wj6/usr/bin/../lib/gcc/arm-none-eabi/7.2.1/../../../../arm-none-eabi/lib/thumb/v7e-m/fpv4-sp/hard/libc_nano.a(lib_a-nano-reallocr.o)
                              /tmp/.mount_CIAA_S7Q9Wj6/usr/bin/../lib/gcc/arm-none-eabi/7.2.1/../../../../arm-none-eabi/lib/thumb/v7e-m/fpv4-sp/hard/libc_nano.a(lib_a-nano-svfprintf.o) (_realloc_r)
/tmp/.mount_CIAA_S7Q9Wj6/usr/bin/../lib/gcc/arm-none-eabi/7.2.1/../../../../arm-none-eabi/lib/thumb/v7e-m/fpv4-sp/hard/libc_nano.a(lib_a-nano-msizer.o)
                              /tmp/.mount_CIAA_S7Q9Wj6/usr/bin/../lib/gcc/arm-none-eabi/7.2.1/../../../../arm-none-eabi/lib/thumb/v7e-m/fpv4-sp/hard/libc_nano.a(lib_a-nano-reallocr.o) (_malloc_usable_size_r)

Allocating common symbols
Common symbol       size              file

dht11_timeout       0x4               examples/c/sapi/bare_metal/gpio/gpio_01_switches_leds/out/libs/sapi/sapi_v0.5.1/src/sapi_dht11.o
dht11_timeout_max   0x4               examples/c/sapi/bare_metal/gpio/gpio_01_switches_leds/out/libs/sapi/sapi_v0.5.1/src/sapi_dht11.o
SystemCoreClock     0x4               examples/c/sapi/bare_metal/gpio/gpio_01_switches_leds/out/libs/vendor_libs/lpc_chip_43xx/src/chip_18xx_43xx.o
tickCounter         0x8               examples/c/sapi/bare_metal/gpio/gpio_01_switches_leds/out/libs/sapi/sapi_v0.5.1/src/sapi_tick.o
tickRateMS          0x8               examples/c/sapi/bare_metal/gpio/gpio_01_switches_leds/out/libs/sapi/sapi_v0.5.1/src/sapi_tick.o

Discarded input sections

 .group         0x0000000000000000        0xc examples/c/sapi/bare_metal/gpio/gpio_01_switches_leds/out/examples/c/sapi/bare_metal/gpio/gpio_01_switches_leds/src/switches_leds.o
 .group         0x0000000000000000        0xc examples/c/sapi/bare_metal/gpio/gpio_01_switches_leds/out/examples/c/sapi/bare_metal/gpio/gpio_01_switches_leds/src/switches_leds.o
 .group         0x0000000000000000        0xc examples/c/sapi/bare_metal/gpio/gpio_01_switches_leds/out/examples/c/sapi/bare_metal/gpio/gpio_01_switches_leds/src/switches_leds.o
 .group         0x0000000000000000        0xc examples/c/sapi/bare_metal/gpio/gpio_01_switches_leds/out/examples/c/sapi/bare_metal/gpio/gpio_01_switches_leds/src/switches_leds.o
 .group         0x0000000000000000        0xc examples/c/sapi/bare_metal/gpio/gpio_01_switches_leds/out/examples/c/sapi/bare_metal/gpio/gpio_01_switches_leds/src/switches_leds.o
 .group         0x0000000000000000        0xc examples/c/sapi/bare_metal/gpio/gpio_01_switches_leds/out/examples/c/sapi/bare_metal/gpio/gpio_01_switches_leds/src/switches_leds.o
 .group         0x0000000000000000        0xc examples/c/sapi/bare_metal/gpio/gpio_01_switches_leds/out/examples/c/sapi/bare_metal/gpio/gpio_01_switches_leds/src/switches_leds.o
 .group         0x0000000000000000        0xc examples/c/sapi/bare_metal/gpio/gpio_01_switches_leds/out/examples/c/sapi/bare_metal/gpio/gpio_01_switches_leds/src/switches_leds.o
 .group         0x0000000000000000        0xc examples/c/sapi/bare_metal/gpio/gpio_01_switches_leds/out/examples/c/sapi/bare_metal/gpio/gpio_01_switches_leds/src/switches_leds.o
 .group         0x0000000000000000        0xc examples/c/sapi/bare_metal/gpio/gpio_01_switches_leds/out/examples/c/sapi/bare_metal/gpio/gpio_01_switches_leds/src/switches_leds.o
 .group         0x0000000000000000        0xc examples/c/sapi/bare_metal/gpio/gpio_01_switches_leds/out/examples/c/sapi/bare_metal/gpio/gpio_01_switches_leds/src/switches_leds.o
 .group         0x0000000000000000        0xc examples/c/sapi/bare_metal/gpio/gpio_01_switches_leds/out/examples/c/sapi/bare_metal/gpio/gpio_01_switches_leds/src/switches_leds.o
 .group         0x0000000000000000        0xc examples/c/sapi/bare_metal/gpio/gpio_01_switches_leds/out/examples/c/sapi/bare_metal/gpio/gpio_01_switches_leds/src/switches_leds.o
 .group         0x0000000000000000        0xc examples/c/sapi/bare_metal/gpio/gpio_01_switches_leds/out/examples/c/sapi/bare_metal/gpio/gpio_01_switches_leds/src/switches_leds.o
 .group         0x0000000000000000        0xc examples/c/sapi/bare_metal/gpio/gpio_01_switches_leds/out/examples/c/sapi/bare_metal/gpio/gpio_01_switches_leds/src/switches_leds.o
 .group         0x0000000000000000        0xc examples/c/sapi/bare_metal/gpio/gpio_01_switches_leds/out/examples/c/sapi/bare_metal/gpio/gpio_01_switches_leds/src/switches_leds.o
 .group         0x0000000000000000        0xc examples/c/sapi/bare_metal/gpio/gpio_01_switches_leds/out/examples/c/sapi/bare_metal/gpio/gpio_01_switches_leds/src/switches_leds.o
 .group         0x0000000000000000        0xc examples/c/sapi/bare_metal/gpio/gpio_01_switches_leds/out/examples/c/sapi/bare_metal/gpio/gpio_01_switches_leds/src/switches_leds.o
Memory Configuration

Name             Origin             Length             Attributes
MFlashA512       0x000000001a000000 0x0000000000080000 xr
MFlashB512       0x000000001b000000 0x0000000000080000 xr
RamLoc32         0x0000000010000000 0x0000000000008000 xrw
RamLoc40         0x0000000010080000 0x000000000000a000 xrw
RamAHB32         0x0000000020000000 0x0000000000008000 xrw
RamAHB16         0x0000000020008000 0x0000000000004000 xrw
RamAHB_ETB16     0x000000002000c000 0x0000000000004000 xrw
*default*        0x0000000000000000 0xffffffffffffffff

Linker script and memory map

LOAD examples/c/sapi/bare_metal/gpio/gpio_01_switches_leds/out/examples/c/sapi/bare_metal/gpio/gpio_01_switches_leds/src/switches_leds.o
LOAD examples/c/sapi/bare_metal/gpio/gpio_01_switches_leds/out/libs/sapi/sapi_v0.5.1/src/sapi_keypad.o
LOAD examples/c/sapi/bare_metal/gpio/gpio_01_switches_leds/out/libs/sapi/sapi_v0.5.1/src/sapi_sct.o
LOAD examples/c/sapi/bare_metal/gpio/gpio_01_switches_leds/out/libs/sapi/sapi_v0.5.1/src/sapi_dac.o
LOAD examples/c/sapi/bare_metal/gpio/gpio_01_switches_leds/out/libs/sapi/sapi_v0.5.1/src/sapi_pwm.o
LOAD examples/c/sapi/bare_metal/gpio/gpio_01_switches_leds/out/libs/sapi/sapi_v0.5.1/src/sapi_cyclesCounter.o
LOAD examples/c/sapi/bare_metal/gpio/gpio_01_switches_leds/out/libs/sapi/sapi_v0.5.1/src/sapi_ultrasonic_hcsr04.o
LOAD examples/c/sapi/bare_metal/gpio/gpio_01_switches_leds/out/libs/sapi/sapi_v0.5.1/src/sapi_convert.o
LOAD examples/c/sapi/bare_metal/gpio/gpio_01_switches_leds/out/libs/sapi/sapi_v0.5.1/src/sapi_gpio.o
LOAD examples/c/sapi/bare_metal/gpio/gpio_01_switches_leds/out/libs/sapi/sapi_v0.5.1/src/sapi_sleep.o
LOAD examples/c/sapi/bare_metal/gpio/gpio_01_switches_leds/out/libs/sapi/sapi_v0.5.1/src/sapi_dht11.o
LOAD examples/c/sapi/bare_metal/gpio/gpio_01_switches_leds/out/libs/sapi/sapi_v0.5.1/src/sapi_tick.o
LOAD examples/c/sapi/bare_metal/gpio/gpio_01_switches_leds/out/libs/sapi/sapi_v0.5.1/src/sapi_7_segment_display.o
LOAD examples/c/sapi/bare_metal/gpio/gpio_01_switches_leds/out/libs/sapi/sapi_v0.5.1/src/sapi_lcd.o
LOAD examples/c/sapi/bare_metal/gpio/gpio_01_switches_leds/out/libs/sapi/sapi_v0.5.1/src/sapi_uart.o
LOAD examples/c/sapi/bare_metal/gpio/gpio_01_switches_leds/out/libs/sapi/sapi_v0.5.1/src/sapi_servo.o
LOAD examples/c/sapi/bare_metal/gpio/gpio_01_switches_leds/out/libs/sapi/sapi_v0.5.1/src/sapi_spi.o
LOAD examples/c/sapi/bare_metal/gpio/gpio_01_switches_leds/out/libs/sapi/sapi_v0.5.1/src/sapi_imu_mpu9250.o
LOAD examples/c/sapi/bare_metal/gpio/gpio_01_switches_leds/out/libs/sapi/sapi_v0.5.1/src/sapi_datatypes.o
LOAD examples/c/sapi/bare_metal/gpio/gpio_01_switches_leds/out/libs/sapi/sapi_v0.5.1/src/sapi_delay.o
LOAD examples/c/sapi/bare_metal/gpio/gpio_01_switches_leds/out/libs/sapi/sapi_v0.5.1/src/sapi_i2c.o
LOAD examples/c/sapi/bare_metal/gpio/gpio_01_switches_leds/out/libs/sapi/sapi_v0.5.1/src/sapi_rgb.o
LOAD examples/c/sapi/bare_metal/gpio/gpio_01_switches_leds/out/libs/sapi/sapi_v0.5.1/src/sapi_rtc.o
LOAD examples/c/sapi/bare_metal/gpio/gpio_01_switches_leds/out/libs/sapi/sapi_v0.5.1/src/sapi_timer.o
LOAD examples/c/sapi/bare_metal/gpio/gpio_01_switches_leds/out/libs/sapi/sapi_v0.5.1/src/sapi_esp8266.o
LOAD examples/c/sapi/bare_metal/gpio/gpio_01_switches_leds/out/libs/sapi/sapi_v0.5.1/src/sapi_circularBuffer.o
LOAD examples/c/sapi/bare_metal/gpio/gpio_01_switches_leds/out/libs/sapi/sapi_v0.5.1/src/sapi_adc.o
LOAD examples/c/sapi/bare_metal/gpio/gpio_01_switches_leds/out/libs/sapi/sapi_v0.5.1/src/sapi_print.o
LOAD examples/c/sapi/bare_metal/gpio/gpio_01_switches_leds/out/libs/sapi/sapi_v0.5.1/src/sapi_board.o
LOAD examples/c/sapi/bare_metal/gpio/gpio_01_switches_leds/out/libs/sapi/sapi_v0.5.1/src/sapi_magnetometer_hmc5883l.o
LOAD examples/c/sapi/bare_metal/gpio/gpio_01_switches_leds/out/libs/sapi/sapi_v0.5.1/src/sapi_magnetometer_qmc5883l.o
LOAD examples/c/sapi/bare_metal/gpio/gpio_01_switches_leds/out/libs/vendor_libs/lpc_board_ciaa_edu_4337/src/board.o
LOAD examples/c/sapi/bare_metal/gpio/gpio_01_switches_leds/out/libs/vendor_libs/lpc_board_ciaa_edu_4337/src/system.o
LOAD examples/c/sapi/bare_metal/gpio/gpio_01_switches_leds/out/libs/vendor_libs/lpc_board_ciaa_edu_4337/src/sysinit.o
LOAD examples/c/sapi/bare_metal/gpio/gpio_01_switches_leds/out/libs/vendor_libs/lpc_board_ciaa_edu_4337/src/board_sysinit.o
LOAD examples/c/sapi/bare_metal/gpio/gpio_01_switches_leds/out/libs/vendor_libs/lpc_chip_43xx/src/ccan_18xx_43xx.o
LOAD examples/c/sapi/bare_metal/gpio/gpio_01_switches_leds/out/libs/vendor_libs/lpc_chip_43xx/src/gpiogroup_18xx_43xx.o
LOAD examples/c/sapi/bare_metal/gpio/gpio_01_switches_leds/out/libs/vendor_libs/lpc_chip_43xx/src/emc_18xx_43xx.o
LOAD examples/c/sapi/bare_metal/gpio/gpio_01_switches_leds/out/libs/vendor_libs/lpc_chip_43xx/src/ritimer_18xx_43xx.o
LOAD examples/c/sapi/bare_metal/gpio/gpio_01_switches_leds/out/libs/vendor_libs/lpc_chip_43xx/src/i2s_18xx_43xx.o
LOAD examples/c/sapi/bare_metal/gpio/gpio_01_switches_leds/out/libs/vendor_libs/lpc_chip_43xx/src/lcd_18xx_43xx.o
LOAD examples/c/sapi/bare_metal/gpio/gpio_01_switches_leds/out/libs/vendor_libs/lpc_chip_43xx/src/uart_18xx_43xx.o
LOAD examples/c/sapi/bare_metal/gpio/gpio_01_switches_leds/out/libs/vendor_libs/lpc_chip_43xx/src/adc_18xx_43xx.o
LOAD examples/c/sapi/bare_metal/gpio/gpio_01_switches_leds/out/libs/vendor_libs/lpc_chip_43xx/src/chip_18xx_43xx.o
LOAD examples/c/sapi/bare_metal/gpio/gpio_01_switches_leds/out/libs/vendor_libs/lpc_chip_43xx/src/pmc_18xx_43xx.o
LOAD examples/c/sapi/bare_metal/gpio/gpio_01_switches_leds/out/libs/vendor_libs/lpc_chip_43xx/src/clock_18xx_43xx.o
LOAD examples/c/sapi/bare_metal/gpio/gpio_01_switches_leds/out/libs/vendor_libs/lpc_chip_43xx/src/otp_18xx_43xx.o
LOAD examples/c/sapi/bare_metal/gpio/gpio_01_switches_leds/out/libs/vendor_libs/lpc_chip_43xx/src/aes_18xx_43xx.o
LOAD examples/c/sapi/bare_metal/gpio/gpio_01_switches_leds/out/libs/vendor_libs/lpc_chip_43xx/src/sysinit_18xx_43xx.o
LOAD examples/c/sapi/bare_metal/gpio/gpio_01_switches_leds/out/libs/vendor_libs/lpc_chip_43xx/src/atimer_18xx_43xx.o
LOAD examples/c/sapi/bare_metal/gpio/gpio_01_switches_leds/out/libs/vendor_libs/lpc_chip_43xx/src/stopwatch_18xx_43xx.o
LOAD examples/c/sapi/bare_metal/gpio/gpio_01_switches_leds/out/libs/vendor_libs/lpc_chip_43xx/src/sdif_18xx_43xx.o
LOAD examples/c/sapi/bare_metal/gpio/gpio_01_switches_leds/out/libs/vendor_libs/lpc_chip_43xx/src/timer_18xx_43xx.o
LOAD examples/c/sapi/bare_metal/gpio/gpio_01_switches_leds/out/libs/vendor_libs/lpc_chip_43xx/src/iap_18xx_43xx.o
LOAD examples/c/sapi/bare_metal/gpio/gpio_01_switches_leds/out/libs/vendor_libs/lpc_chip_43xx/src/wwdt_18xx_43xx.o
LOAD examples/c/sapi/bare_metal/gpio/gpio_01_switches_leds/out/libs/vendor_libs/lpc_chip_43xx/src/ring_buffer.o
LOAD examples/c/sapi/bare_metal/gpio/gpio_01_switches_leds/out/libs/vendor_libs/lpc_chip_43xx/src/i2cm_18xx_43xx.o
LOAD examples/c/sapi/bare_metal/gpio/gpio_01_switches_leds/out/libs/vendor_libs/lpc_chip_43xx/src/pinint_18xx_43xx.o
LOAD examples/c/sapi/bare_metal/gpio/gpio_01_switches_leds/out/libs/vendor_libs/lpc_chip_43xx/src/dac_18xx_43xx.o
LOAD examples/c/sapi/bare_metal/gpio/gpio_01_switches_leds/out/libs/vendor_libs/lpc_chip_43xx/src/fpu_init.o
LOAD examples/c/sapi/bare_metal/gpio/gpio_01_switches_leds/out/libs/vendor_libs/lpc_chip_43xx/src/eeprom_18xx_43xx.o
LOAD examples/c/sapi/bare_metal/gpio/gpio_01_switches_leds/out/libs/vendor_libs/lpc_chip_43xx/src/rtc_18xx_43xx.o
LOAD examples/c/sapi/bare_metal/gpio/gpio_01_switches_leds/out/libs/vendor_libs/lpc_chip_43xx/src/sct_18xx_43xx.o
LOAD examples/c/sapi/bare_metal/gpio/gpio_01_switches_leds/out/libs/vendor_libs/lpc_chip_43xx/src/sdmmc_18xx_43xx.o
LOAD examples/c/sapi/bare_metal/gpio/gpio_01_switches_leds/out/libs/vendor_libs/lpc_chip_43xx/src/spi_18xx_43xx.o
LOAD examples/c/sapi/bare_metal/gpio/gpio_01_switches_leds/out/libs/vendor_libs/lpc_chip_43xx/src/gpio_18xx_43xx.o
LOAD examples/c/sapi/bare_metal/gpio/gpio_01_switches_leds/out/libs/vendor_libs/lpc_chip_43xx/src/i2c_18xx_43xx.o
LOAD examples/c/sapi/bare_metal/gpio/gpio_01_switches_leds/out/libs/vendor_libs/lpc_chip_43xx/src/gpdma_18xx_43xx.o
LOAD examples/c/sapi/bare_metal/gpio/gpio_01_switches_leds/out/libs/vendor_libs/lpc_chip_43xx/src/evrt_18xx_43xx.o
LOAD examples/c/sapi/bare_metal/gpio/gpio_01_switches_leds/out/libs/vendor_libs/lpc_chip_43xx/src/sct_pwm_18xx_43xx.o
LOAD examples/c/sapi/bare_metal/gpio/gpio_01_switches_leds/out/libs/vendor_libs/lpc_chip_43xx/src/sdio_18xx_43xx.o
LOAD examples/c/sapi/bare_metal/gpio/gpio_01_switches_leds/out/libs/vendor_libs/lpc_chip_43xx/src/enet_18xx_43xx.o
LOAD examples/c/sapi/bare_metal/gpio/gpio_01_switches_leds/out/libs/vendor_libs/lpc_chip_43xx/src/ssp_18xx_43xx.o
LOAD examples/c/sapi/bare_metal/gpio/gpio_01_switches_leds/out/libs/vendor_libs/lpc_startup/src/crp.o
LOAD examples/c/sapi/bare_metal/gpio/gpio_01_switches_leds/out/libs/vendor_libs/lpc_startup/src/cr_startup_lpc43xx.o
LOAD /tmp/.mount_CIAA_S7Q9Wj6/usr/bin/../lib/gcc/arm-none-eabi/7.2.1/../../../../arm-none-eabi/lib/thumb/v7e-m/fpv4-sp/hard/libstdc++_nano.a
LOAD /tmp/.mount_CIAA_S7Q9Wj6/usr/bin/../lib/gcc/arm-none-eabi/7.2.1/../../../../arm-none-eabi/lib/thumb/v7e-m/fpv4-sp/hard/libm.a
START GROUP
LOAD /tmp/.mount_CIAA_S7Q9Wj6/usr/bin/../lib/gcc/arm-none-eabi/7.2.1/thumb/v7e-m/fpv4-sp/hard/libgcc.a
LOAD /tmp/.mount_CIAA_S7Q9Wj6/usr/bin/../lib/gcc/arm-none-eabi/7.2.1/../../../../arm-none-eabi/lib/thumb/v7e-m/fpv4-sp/hard/libc_nano.a
END GROUP
START GROUP
LOAD /tmp/.mount_CIAA_S7Q9Wj6/usr/bin/../lib/gcc/arm-none-eabi/7.2.1/thumb/v7e-m/fpv4-sp/hard/libgcc.a
LOAD /tmp/.mount_CIAA_S7Q9Wj6/usr/bin/../lib/gcc/arm-none-eabi/7.2.1/../../../../arm-none-eabi/lib/thumb/v7e-m/fpv4-sp/hard/libc_nano.a
END GROUP
                0x000000001a080000                __top_MFlashA512 = 0x1a080000
                0x000000001b080000                __top_MFlashB512 = 0x1b080000
                0x0000000010008000                __top_RamLoc32 = 0x10008000
                0x000000001008a000                __top_RamLoc40 = 0x1008a000
                0x0000000020008000                __top_RamAHB32 = 0x20008000
                0x000000002000c000                __top_RamAHB16 = 0x2000c000
                0x0000000020010000                __top_RamAHB_ETB16 = 0x20010000
START GROUP
LOAD /tmp/.mount_CIAA_S7Q9Wj6/usr/bin/../lib/gcc/arm-none-eabi/7.2.1/thumb/v7e-m/fpv4-sp/hard/libgcc.a
LOAD /tmp/.mount_CIAA_S7Q9Wj6/usr/bin/../lib/gcc/arm-none-eabi/7.2.1/../../../../arm-none-eabi/lib/thumb/v7e-m/fpv4-sp/hard/libc.a
LOAD /tmp/.mount_CIAA_S7Q9Wj6/usr/bin/../lib/gcc/arm-none-eabi/7.2.1/../../../../arm-none-eabi/lib/thumb/v7e-m/fpv4-sp/hard/libm.a
END GROUP

.text_Flash2    0x000000001b000000        0x0
 FILL mask 0xff
 *(.text_Flash2*)
 *(.text_MFlashB512*)
 *(.text.$Flash2*)
 *(.text.$MFlashB512*)
 *(.rodata.$Flash2*)
 *(.rodata.$MFlashB512*)

.text           0x000000001a000000     0x1e60
 FILL mask 0xff
                0x000000001a000000                __vectors_start__ = ABSOLUTE (.)
 *(.isr_vector)
 .isr_vector    0x000000001a000000      0x114 examples/c/sapi/bare_metal/gpio/gpio_01_switches_leds/out/libs/vendor_libs/lpc_startup/src/cr_startup_lpc43xx.o
                0x000000001a000000                g_pfnVectors
                0x000000001a000114                . = ALIGN (0x4)
                0x000000001a000114                __section_table_start = .
                0x000000001a000114                __data_section_table = .
                0x000000001a000114        0x4 LONG 0x1a001e68 LOADADDR (.data)
                0x000000001a000118        0x4 LONG 0x10000000 ADDR (.data)
                0x000000001a00011c        0x4 LONG 0xc8 SIZEOF (.data)
                0x000000001a000120        0x4 LONG 0x1a001e68 LOADADDR (.data_RAM2)
                0x000000001a000124        0x4 LONG 0x10080000 ADDR (.data_RAM2)
                0x000000001a000128        0x4 LONG 0x0 SIZEOF (.data_RAM2)
                0x000000001a00012c        0x4 LONG 0x1a001e68 LOADADDR (.data_RAM3)
                0x000000001a000130        0x4 LONG 0x20000000 ADDR (.data_RAM3)
                0x000000001a000134        0x4 LONG 0x0 SIZEOF (.data_RAM3)
                0x000000001a000138        0x4 LONG 0x1a001e68 LOADADDR (.data_RAM4)
                0x000000001a00013c        0x4 LONG 0x20008000 ADDR (.data_RAM4)
                0x000000001a000140        0x4 LONG 0x0 SIZEOF (.data_RAM4)
                0x000000001a000144        0x4 LONG 0x1a001e68 LOADADDR (.data_RAM5)
                0x000000001a000148        0x4 LONG 0x2000c000 ADDR (.data_RAM5)
                0x000000001a00014c        0x4 LONG 0x0 SIZEOF (.data_RAM5)
                0x000000001a000150                __data_section_table_end = .
                0x000000001a000150                __bss_section_table = .
                0x000000001a000150        0x4 LONG 0x100000c8 ADDR (.bss)
                0x000000001a000154        0x4 LONG 0x3c SIZEOF (.bss)
                0x000000001a000158        0x4 LONG 0x10080000 ADDR (.bss_RAM2)
                0x000000001a00015c        0x4 LONG 0x0 SIZEOF (.bss_RAM2)
                0x000000001a000160        0x4 LONG 0x20000000 ADDR (.bss_RAM3)
                0x000000001a000164        0x4 LONG 0x0 SIZEOF (.bss_RAM3)
                0x000000001a000168        0x4 LONG 0x20008000 ADDR (.bss_RAM4)
                0x000000001a00016c        0x4 LONG 0x0 SIZEOF (.bss_RAM4)
                0x000000001a000170        0x4 LONG 0x2000c000 ADDR (.bss_RAM5)
                0x000000001a000174        0x4 LONG 0x0 SIZEOF (.bss_RAM5)
                0x000000001a000178                __bss_section_table_end = .
                0x000000001a000178                __section_table_end = .
 *(.after_vectors*)
 .after_vectors
                0x000000001a000178        0xa examples/c/sapi/bare_metal/gpio/gpio_01_switches_leds/out/libs/sapi/sapi_v0.5.1/src/sapi_uart.o
                0x000000001a000178                UART0_IRQHandler
 .after_vectors
                0x000000001a000182       0x44 examples/c/sapi/bare_metal/gpio/gpio_01_switches_leds/out/libs/vendor_libs/lpc_startup/src/cr_startup_lpc43xx.o
                0x000000001a000182                NMI_Handler
                0x000000001a000184                HardFault_Handler
                0x000000001a000186                MemManage_Handler
                0x000000001a000188                BusFault_Handler
                0x000000001a00018a                UsageFault_Handler
                0x000000001a00018c                SVC_Handler
                0x000000001a00018e                DebugMon_Handler
                0x000000001a000190                PendSV_Handler
                0x000000001a000194                RIT_IRQHandler
                0x000000001a000194                ADCHS_IRQHandler
                0x000000001a000194                FLASH_EEPROM_IRQHandler
                0x000000001a000194                I2C0_IRQHandler
                0x000000001a000194                SDIO_IRQHandler
                0x000000001a000194                ATIMER_IRQHandler
                0x000000001a000194                I2C1_IRQHandler
                0x000000001a000194                UART1_IRQHandler
                0x000000001a000194                GPIO5_IRQHandler
                0x000000001a000194                CAN1_IRQHandler
                0x000000001a000194                USB1_IRQHandler
                0x000000001a000194                I2S0_IRQHandler
                0x000000001a000194                SGPIO_IRQHandler
                0x000000001a000194                ADC0_IRQHandler
                0x000000001a000194                GPIO6_IRQHandler
                0x000000001a000194                IntDefaultHandler
                0x000000001a000194                SSP0_IRQHandler
                0x000000001a000194                ADC1_IRQHandler
                0x000000001a000194                RTC_IRQHandler
                0x000000001a000194                SPI_IRQHandler
                0x000000001a000194                LCD_IRQHandler
                0x000000001a000194                I2S1_IRQHandler
                0x000000001a000194                SSP1_IRQHandler
                0x000000001a000194                USB0_IRQHandler
                0x000000001a000194                GPIO3_IRQHandler
                0x000000001a000194                SCT_IRQHandler
                0x000000001a000194                WDT_IRQHandler
                0x000000001a000194                GPIO7_IRQHandler
                0x000000001a000194                SPIFI_IRQHandler
                0x000000001a000194                QEI_IRQHandler
                0x000000001a000194                ETH_IRQHandler
                0x000000001a000194                CAN0_IRQHandler
                0x000000001a000194                GINT0_IRQHandler
                0x000000001a000194                DAC_IRQHandler
                0x000000001a000194                M0SUB_IRQHandler
                0x000000001a000194                DMA_IRQHandler
                0x000000001a000194                EVRT_IRQHandler
                0x000000001a000194                MCPWM_IRQHandler
                0x000000001a000194                M0APP_IRQHandler
                0x000000001a000194                GINT1_IRQHandler
                0x000000001a000194                GPIO4_IRQHandler
                0x000000001a000196                data_init
                0x000000001a0001b4                bss_init
                0x00000000000002fc                . = 0x2fc
 *fill*         0x000000001a0001c6      0x136 ff
                0x000000001a0002fc                PROVIDE (__CRP_WORD_START__, .)
 *(.crp)
 .crp           0x000000001a0002fc        0x4 examples/c/sapi/bare_metal/gpio/gpio_01_switches_leds/out/libs/vendor_libs/lpc_startup/src/crp.o
                0x000000001a0002fc                CRP_WORD
                0x000000001a000300                PROVIDE (__CRP_WORD_END__, .)
                0x0000000000000001                ASSERT (! ((__CRP_WORD_START__ == __CRP_WORD_END__)), Linker CRP Enabled, but no CRP_WORD provided within application)
 *(.text*)
 .text.main     0x000000001a000300       0x72 examples/c/sapi/bare_metal/gpio/gpio_01_switches_leds/out/examples/c/sapi/bare_metal/gpio/gpio_01_switches_leds/src/switches_leds.o
                0x000000001a000300                main
 *fill*         0x000000001a000372        0x2 ff
 .text.cyclesCounterInit
                0x000000001a000374       0x1c examples/c/sapi/bare_metal/gpio/gpio_01_switches_leds/out/libs/sapi/sapi_v0.5.1/src/sapi_cyclesCounter.o
                0x000000001a000374                cyclesCounterInit
 .text.clearInterrupt
                0x000000001a000390       0x10 examples/c/sapi/bare_metal/gpio/gpio_01_switches_leds/out/libs/sapi/sapi_v0.5.1/src/sapi_ultrasonic_hcsr04.o
 .text.serveInterrupt
                0x000000001a0003a0       0x5c examples/c/sapi/bare_metal/gpio/gpio_01_switches_leds/out/libs/sapi/sapi_v0.5.1/src/sapi_ultrasonic_hcsr04.o
 .text.GPIO0_IRQHandler
                0x000000001a0003fc        0xa examples/c/sapi/bare_metal/gpio/gpio_01_switches_leds/out/libs/sapi/sapi_v0.5.1/src/sapi_ultrasonic_hcsr04.o
                0x000000001a0003fc                GPIO0_IRQHandler
 .text.GPIO1_IRQHandler
                0x000000001a000406        0xa examples/c/sapi/bare_metal/gpio/gpio_01_switches_leds/out/libs/sapi/sapi_v0.5.1/src/sapi_ultrasonic_hcsr04.o
                0x000000001a000406                GPIO1_IRQHandler
 .text.GPIO2_IRQHandler
                0x000000001a000410        0xa examples/c/sapi/bare_metal/gpio/gpio_01_switches_leds/out/libs/sapi/sapi_v0.5.1/src/sapi_ultrasonic_hcsr04.o
                0x000000001a000410                GPIO2_IRQHandler
 *fill*         0x000000001a00041a        0x2 ff
 .text.gpioObtainPinInit
                0x000000001a00041c       0x34 examples/c/sapi/bare_metal/gpio/gpio_01_switches_leds/out/libs/sapi/sapi_v0.5.1/src/sapi_gpio.o
 .text.gpioInit
                0x000000001a000450      0x194 examples/c/sapi/bare_metal/gpio/gpio_01_switches_leds/out/libs/sapi/sapi_v0.5.1/src/sapi_gpio.o
                0x000000001a000450                gpioInit
 .text.gpioWrite
                0x000000001a0005e4       0x56 examples/c/sapi/bare_metal/gpio/gpio_01_switches_leds/out/libs/sapi/sapi_v0.5.1/src/sapi_gpio.o
                0x000000001a0005e4                gpioWrite
 .text.gpioRead
                0x000000001a00063a       0x54 examples/c/sapi/bare_metal/gpio/gpio_01_switches_leds/out/libs/sapi/sapi_v0.5.1/src/sapi_gpio.o
                0x000000001a00063a                gpioRead
 *fill*         0x000000001a00068e        0x2 ff
 .text.tickPowerSet
                0x000000001a000690       0x18 examples/c/sapi/bare_metal/gpio/gpio_01_switches_leds/out/libs/sapi/sapi_v0.5.1/src/sapi_tick.o
                0x000000001a000690                tickPowerSet
 .text.tickInit
                0x000000001a0006a8       0x7c examples/c/sapi/bare_metal/gpio/gpio_01_switches_leds/out/libs/sapi/sapi_v0.5.1/src/sapi_tick.o
                0x000000001a0006a8                tickInit
 .text.SysTick_Handler
                0x000000001a000724       0x38 examples/c/sapi/bare_metal/gpio/gpio_01_switches_leds/out/libs/sapi/sapi_v0.5.1/src/sapi_tick.o
                0x000000001a000724                SysTick_Handler
 .text.uartProcessIRQ
                0x000000001a00075c       0xbc examples/c/sapi/bare_metal/gpio/gpio_01_switches_leds/out/libs/sapi/sapi_v0.5.1/src/sapi_uart.o
 .text.UART2_IRQHandler
                0x000000001a000818        0xa examples/c/sapi/bare_metal/gpio/gpio_01_switches_leds/out/libs/sapi/sapi_v0.5.1/src/sapi_uart.o
                0x000000001a000818                UART2_IRQHandler
 .text.UART3_IRQHandler
                0x000000001a000822        0xa examples/c/sapi/bare_metal/gpio/gpio_01_switches_leds/out/libs/sapi/sapi_v0.5.1/src/sapi_uart.o
                0x000000001a000822                UART3_IRQHandler
 .text.errorOcurred
                0x000000001a00082c        0x2 examples/c/sapi/bare_metal/gpio/gpio_01_switches_leds/out/libs/sapi/sapi_v0.5.1/src/sapi_timer.o
 .text.doNothing
                0x000000001a00082e        0x2 examples/c/sapi/bare_metal/gpio/gpio_01_switches_leds/out/libs/sapi/sapi_v0.5.1/src/sapi_timer.o
 .text.TIMER0_IRQHandler
                0x000000001a000830       0x40 examples/c/sapi/bare_metal/gpio/gpio_01_switches_leds/out/libs/sapi/sapi_v0.5.1/src/sapi_timer.o
                0x000000001a000830                TIMER0_IRQHandler
 .text.TIMER1_IRQHandler
                0x000000001a000870       0x40 examples/c/sapi/bare_metal/gpio/gpio_01_switches_leds/out/libs/sapi/sapi_v0.5.1/src/sapi_timer.o
                0x000000001a000870                TIMER1_IRQHandler
 .text.TIMER2_IRQHandler
                0x000000001a0008b0       0x44 examples/c/sapi/bare_metal/gpio/gpio_01_switches_leds/out/libs/sapi/sapi_v0.5.1/src/sapi_timer.o
                0x000000001a0008b0                TIMER2_IRQHandler
 .text.TIMER3_IRQHandler
                0x000000001a0008f4       0x44 examples/c/sapi/bare_metal/gpio/gpio_01_switches_leds/out/libs/sapi/sapi_v0.5.1/src/sapi_timer.o
                0x000000001a0008f4                TIMER3_IRQHandler
 .text.boardInit
                0x000000001a000938       0xf4 examples/c/sapi/bare_metal/gpio/gpio_01_switches_leds/out/libs/sapi/sapi_v0.5.1/src/sapi_board.o
                0x000000001a000938                boardInit
 .text.Board_LED_Init
                0x000000001a000a2c       0x44 examples/c/sapi/bare_metal/gpio/gpio_01_switches_leds/out/libs/vendor_libs/lpc_board_ciaa_edu_4337/src/board.o
 .text.Board_TEC_Init
                0x000000001a000a70       0x40 examples/c/sapi/bare_metal/gpio/gpio_01_switches_leds/out/libs/vendor_libs/lpc_board_ciaa_edu_4337/src/board.o
 .text.Board_GPIO_Init
                0x000000001a000ab0       0x40 examples/c/sapi/bare_metal/gpio/gpio_01_switches_leds/out/libs/vendor_libs/lpc_board_ciaa_edu_4337/src/board.o
 .text.Board_SPI_Init
                0x000000001a000af0       0x38 examples/c/sapi/bare_metal/gpio/gpio_01_switches_leds/out/libs/vendor_libs/lpc_board_ciaa_edu_4337/src/board.o
 .text.Board_I2C_Init
                0x000000001a000b28       0x24 examples/c/sapi/bare_metal/gpio/gpio_01_switches_leds/out/libs/vendor_libs/lpc_board_ciaa_edu_4337/src/board.o
 .text.Board_ADC_Init
                0x000000001a000b4c       0x30 examples/c/sapi/bare_metal/gpio/gpio_01_switches_leds/out/libs/vendor_libs/lpc_board_ciaa_edu_4337/src/board.o
 .text.Board_Debug_Init
                0x000000001a000b7c       0x24 examples/c/sapi/bare_metal/gpio/gpio_01_switches_leds/out/libs/vendor_libs/lpc_board_ciaa_edu_4337/src/board.o
                0x000000001a000b7c                Board_Debug_Init
 .text.Board_Init
                0x000000001a000ba0       0x3c examples/c/sapi/bare_metal/gpio/gpio_01_switches_leds/out/libs/vendor_libs/lpc_board_ciaa_edu_4337/src/board.o
                0x000000001a000ba0                Board_Init
 .text.SystemInit
                0x000000001a000bdc       0x1c examples/c/sapi/bare_metal/gpio/gpio_01_switches_leds/out/libs/vendor_libs/lpc_board_ciaa_edu_4337/src/sysinit.o
                0x000000001a000bdc                SystemInit
 .text.Board_SetupMuxing
                0x000000001a000bf8       0x38 examples/c/sapi/bare_metal/gpio/gpio_01_switches_leds/out/libs/vendor_libs/lpc_board_ciaa_edu_4337/src/board_sysinit.o
                0x000000001a000bf8                Board_SetupMuxing
 .text.Board_SetupClocking
                0x000000001a000c30       0x6c examples/c/sapi/bare_metal/gpio/gpio_01_switches_leds/out/libs/vendor_libs/lpc_board_ciaa_edu_4337/src/board_sysinit.o
                0x000000001a000c30                Board_SetupClocking
 .text.Board_SystemInit
                0x000000001a000c9c        0xc examples/c/sapi/bare_metal/gpio/gpio_01_switches_leds/out/libs/vendor_libs/lpc_board_ciaa_edu_4337/src/board_sysinit.o
                0x000000001a000c9c                Board_SystemInit
 .text.Chip_UART_GetIndex
                0x000000001a000ca8       0x2c examples/c/sapi/bare_metal/gpio/gpio_01_switches_leds/out/libs/vendor_libs/lpc_chip_43xx/src/uart_18xx_43xx.o
 .text.Chip_UART_Init
                0x000000001a000cd4       0x54 examples/c/sapi/bare_metal/gpio/gpio_01_switches_leds/out/libs/vendor_libs/lpc_chip_43xx/src/uart_18xx_43xx.o
                0x000000001a000cd4                Chip_UART_Init
 .text.Chip_UART_SetBaudFDR
                0x000000001a000d28       0xe8 examples/c/sapi/bare_metal/gpio/gpio_01_switches_leds/out/libs/vendor_libs/lpc_chip_43xx/src/uart_18xx_43xx.o
                0x000000001a000d28                Chip_UART_SetBaudFDR
 .text.Chip_ADC_GetClockIndex
                0x000000001a000e10       0x14 examples/c/sapi/bare_metal/gpio/gpio_01_switches_leds/out/libs/vendor_libs/lpc_chip_43xx/src/adc_18xx_43xx.o
 .text.getClkDiv
                0x000000001a000e24       0x32 examples/c/sapi/bare_metal/gpio/gpio_01_switches_leds/out/libs/vendor_libs/lpc_chip_43xx/src/adc_18xx_43xx.o
 *fill*         0x000000001a000e56        0x2 ff
 .text.Chip_ADC_Init
                0x000000001a000e58       0x40 examples/c/sapi/bare_metal/gpio/gpio_01_switches_leds/out/libs/vendor_libs/lpc_chip_43xx/src/adc_18xx_43xx.o
                0x000000001a000e58                Chip_ADC_Init
 .text.Chip_ADC_SetSampleRate
                0x000000001a000e98       0x32 examples/c/sapi/bare_metal/gpio/gpio_01_switches_leds/out/libs/vendor_libs/lpc_chip_43xx/src/adc_18xx_43xx.o
                0x000000001a000e98                Chip_ADC_SetSampleRate
 .text.Chip_ADC_SetResolution
                0x000000001a000eca        0xc examples/c/sapi/bare_metal/gpio/gpio_01_switches_leds/out/libs/vendor_libs/lpc_chip_43xx/src/adc_18xx_43xx.o
                0x000000001a000eca                Chip_ADC_SetResolution
 *fill*         0x000000001a000ed6        0x2 ff
 .text.SystemCoreClockUpdate
                0x000000001a000ed8       0x14 examples/c/sapi/bare_metal/gpio/gpio_01_switches_leds/out/libs/vendor_libs/lpc_chip_43xx/src/chip_18xx_43xx.o
                0x000000001a000ed8                SystemCoreClockUpdate
 .text.pll_calc_divs
                0x000000001a000eec       0xa4 examples/c/sapi/bare_metal/gpio/gpio_01_switches_leds/out/libs/vendor_libs/lpc_chip_43xx/src/clock_18xx_43xx.o
 .text.pll_get_frac
                0x000000001a000f90      0x10c examples/c/sapi/bare_metal/gpio/gpio_01_switches_leds/out/libs/vendor_libs/lpc_chip_43xx/src/clock_18xx_43xx.o
 .text.Chip_Clock_FindBaseClock
                0x000000001a00109c       0x4c examples/c/sapi/bare_metal/gpio/gpio_01_switches_leds/out/libs/vendor_libs/lpc_chip_43xx/src/clock_18xx_43xx.o
 .text.Chip_Clock_EnableCrystal
                0x000000001a0010e8       0x4c examples/c/sapi/bare_metal/gpio/gpio_01_switches_leds/out/libs/vendor_libs/lpc_chip_43xx/src/clock_18xx_43xx.o
                0x000000001a0010e8                Chip_Clock_EnableCrystal
 .text.Chip_Clock_GetDividerSource
                0x000000001a001134       0x1c examples/c/sapi/bare_metal/gpio/gpio_01_switches_leds/out/libs/vendor_libs/lpc_chip_43xx/src/clock_18xx_43xx.o
                0x000000001a001134                Chip_Clock_GetDividerSource
 .text.Chip_Clock_GetDividerDivisor
                0x000000001a001150       0x1c examples/c/sapi/bare_metal/gpio/gpio_01_switches_leds/out/libs/vendor_libs/lpc_chip_43xx/src/clock_18xx_43xx.o
                0x000000001a001150                Chip_Clock_GetDividerDivisor
 .text.Chip_Clock_GetClockInputHz
                0x000000001a00116c       0xb8 examples/c/sapi/bare_metal/gpio/gpio_01_switches_leds/out/libs/vendor_libs/lpc_chip_43xx/src/clock_18xx_43xx.o
                0x000000001a00116c                Chip_Clock_GetClockInputHz
 .text.Chip_Clock_CalcMainPLLValue
                0x000000001a001224       0x80 examples/c/sapi/bare_metal/gpio/gpio_01_switches_leds/out/libs/vendor_libs/lpc_chip_43xx/src/clock_18xx_43xx.o
                0x000000001a001224                Chip_Clock_CalcMainPLLValue
 .text.Chip_Clock_GetMainPLLHz
                0x000000001a0012a4       0x6c examples/c/sapi/bare_metal/gpio/gpio_01_switches_leds/out/libs/vendor_libs/lpc_chip_43xx/src/clock_18xx_43xx.o
                0x000000001a0012a4                Chip_Clock_GetMainPLLHz
 .text.Chip_Clock_GetDivRate
                0x000000001a001310       0x22 examples/c/sapi/bare_metal/gpio/gpio_01_switches_leds/out/libs/vendor_libs/lpc_chip_43xx/src/clock_18xx_43xx.o
 *fill*         0x000000001a001332        0x2 ff
 .text.Chip_Clock_SetBaseClock
                0x000000001a001334       0x58 examples/c/sapi/bare_metal/gpio/gpio_01_switches_leds/out/libs/vendor_libs/lpc_chip_43xx/src/clock_18xx_43xx.o
                0x000000001a001334                Chip_Clock_SetBaseClock
 .text.Chip_Clock_GetBaseClock
                0x000000001a00138c       0x26 examples/c/sapi/bare_metal/gpio/gpio_01_switches_leds/out/libs/vendor_libs/lpc_chip_43xx/src/clock_18xx_43xx.o
                0x000000001a00138c                Chip_Clock_GetBaseClock
 .text.Chip_Clock_GetBaseClocktHz
                0x000000001a0013b2        0xc examples/c/sapi/bare_metal/gpio/gpio_01_switches_leds/out/libs/vendor_libs/lpc_chip_43xx/src/clock_18xx_43xx.o
                0x000000001a0013b2                Chip_Clock_GetBaseClocktHz
 *fill*         0x000000001a0013be        0x2 ff
 .text.Chip_Clock_EnableOpts
                0x000000001a0013c0       0x3c examples/c/sapi/bare_metal/gpio/gpio_01_switches_leds/out/libs/vendor_libs/lpc_chip_43xx/src/clock_18xx_43xx.o
                0x000000001a0013c0                Chip_Clock_EnableOpts
 .text.Chip_Clock_Enable
                0x000000001a0013fc       0x34 examples/c/sapi/bare_metal/gpio/gpio_01_switches_leds/out/libs/vendor_libs/lpc_chip_43xx/src/clock_18xx_43xx.o
                0x000000001a0013fc                Chip_Clock_Enable
 .text.Chip_Clock_GetRate
                0x000000001a001430       0x4c examples/c/sapi/bare_metal/gpio/gpio_01_switches_leds/out/libs/vendor_libs/lpc_chip_43xx/src/clock_18xx_43xx.o
                0x000000001a001430                Chip_Clock_GetRate
 .text.Chip_SetupCoreClock
                0x000000001a00147c      0x154 examples/c/sapi/bare_metal/gpio/gpio_01_switches_leds/out/libs/vendor_libs/lpc_chip_43xx/src/sysinit_18xx_43xx.o
                0x000000001a00147c                Chip_SetupCoreClock
 .text.fpuInit  0x000000001a0015d0       0x54 examples/c/sapi/bare_metal/gpio/gpio_01_switches_leds/out/libs/vendor_libs/lpc_chip_43xx/src/fpu_init.o
                0x000000001a0015d0                fpuInit
 .text.Chip_GPIO_Init
                0x000000001a001624        0x2 examples/c/sapi/bare_metal/gpio/gpio_01_switches_leds/out/libs/vendor_libs/lpc_chip_43xx/src/gpio_18xx_43xx.o
                0x000000001a001624                Chip_GPIO_Init
 *fill*         0x000000001a001626        0x2 ff
 .text.Chip_I2C_EventHandler
                0x000000001a001628       0x20 examples/c/sapi/bare_metal/gpio/gpio_01_switches_leds/out/libs/vendor_libs/lpc_chip_43xx/src/i2c_18xx_43xx.o
                0x000000001a001628                Chip_I2C_EventHandler
 .text.Chip_I2C_Init
                0x000000001a001648       0x24 examples/c/sapi/bare_metal/gpio/gpio_01_switches_leds/out/libs/vendor_libs/lpc_chip_43xx/src/i2c_18xx_43xx.o
                0x000000001a001648                Chip_I2C_Init
 .text.Chip_I2C_SetClockRate
                0x000000001a00166c       0x38 examples/c/sapi/bare_metal/gpio/gpio_01_switches_leds/out/libs/vendor_libs/lpc_chip_43xx/src/i2c_18xx_43xx.o
                0x000000001a00166c                Chip_I2C_SetClockRate
 .text.Chip_SSP_GetClockIndex
                0x000000001a0016a4       0x14 examples/c/sapi/bare_metal/gpio/gpio_01_switches_leds/out/libs/vendor_libs/lpc_chip_43xx/src/ssp_18xx_43xx.o
 .text.Chip_SSP_GetPeriphClockIndex
                0x000000001a0016b8       0x18 examples/c/sapi/bare_metal/gpio/gpio_01_switches_leds/out/libs/vendor_libs/lpc_chip_43xx/src/ssp_18xx_43xx.o
 .text.Chip_SSP_SetClockRate
                0x000000001a0016d0       0x12 examples/c/sapi/bare_metal/gpio/gpio_01_switches_leds/out/libs/vendor_libs/lpc_chip_43xx/src/ssp_18xx_43xx.o
                0x000000001a0016d0                Chip_SSP_SetClockRate
 .text.Chip_SSP_SetBitRate
                0x000000001a0016e2       0x3e examples/c/sapi/bare_metal/gpio/gpio_01_switches_leds/out/libs/vendor_libs/lpc_chip_43xx/src/ssp_18xx_43xx.o
                0x000000001a0016e2                Chip_SSP_SetBitRate
 .text.Chip_SSP_Init
                0x000000001a001720       0x38 examples/c/sapi/bare_metal/gpio/gpio_01_switches_leds/out/libs/vendor_libs/lpc_chip_43xx/src/ssp_18xx_43xx.o
                0x000000001a001720                Chip_SSP_Init
 .text.ResetISR
                0x000000001a001758       0x84 examples/c/sapi/bare_metal/gpio/gpio_01_switches_leds/out/libs/vendor_libs/lpc_startup/src/cr_startup_lpc43xx.o
                0x000000001a001758                ResetISR
 .text._init    0x000000001a0017dc        0x2 examples/c/sapi/bare_metal/gpio/gpio_01_switches_leds/out/libs/vendor_libs/lpc_startup/src/cr_startup_lpc43xx.o
                0x000000001a0017dc                _init
 *fill*         0x000000001a0017de        0x2 ff
 .text          0x000000001a0017e0       0x30 /tmp/.mount_CIAA_S7Q9Wj6/usr/bin/../lib/gcc/arm-none-eabi/7.2.1/thumb/v7e-m/fpv4-sp/hard/libgcc.a(_aeabi_uldivmod.o)
                0x000000001a0017e0                __aeabi_uldivmod
 .text          0x000000001a001810      0x2cc /tmp/.mount_CIAA_S7Q9Wj6/usr/bin/../lib/gcc/arm-none-eabi/7.2.1/thumb/v7e-m/fpv4-sp/hard/libgcc.a(_udivmoddi4.o)
                0x000000001a001810                __udivmoddi4
 .text          0x000000001a001adc        0x4 /tmp/.mount_CIAA_S7Q9Wj6/usr/bin/../lib/gcc/arm-none-eabi/7.2.1/thumb/v7e-m/fpv4-sp/hard/libgcc.a(_dvmd_tls.o)
                0x000000001a001adc                __aeabi_ldiv0
                0x000000001a001adc                __aeabi_idiv0
 .text.__libc_init_array
                0x000000001a001ae0       0x48 /tmp/.mount_CIAA_S7Q9Wj6/usr/bin/../lib/gcc/arm-none-eabi/7.2.1/../../../../arm-none-eabi/lib/thumb/v7e-m/fpv4-sp/hard/libc_nano.a(lib_a-init.o)
                0x000000001a001ae0                __libc_init_array
 .text.memset   0x000000001a001b28       0x10 /tmp/.mount_CIAA_S7Q9Wj6/usr/bin/../lib/gcc/arm-none-eabi/7.2.1/../../../../arm-none-eabi/lib/thumb/v7e-m/fpv4-sp/hard/libc_nano.a(lib_a-memset.o)
                0x000000001a001b28                memset
 *(.rodata .rodata.* .constdata .constdata.*)
 .rodata.ultrasonicSensorsIrqMap
                0x000000001a001b38        0x3 examples/c/sapi/bare_metal/gpio/gpio_01_switches_leds/out/libs/sapi/sapi_v0.5.1/src/sapi_ultrasonic_hcsr04.o
 *fill*         0x000000001a001b3b        0x1 ff
 .rodata.gpioPinsInit
                0x000000001a001b3c      0x136 examples/c/sapi/bare_metal/gpio/gpio_01_switches_leds/out/libs/sapi/sapi_v0.5.1/src/sapi_gpio.o
                0x000000001a001b3c                gpioPinsInit
 *fill*         0x000000001a001c72        0x2 ff
 .rodata.lpcUarts
                0x000000001a001c74       0x48 examples/c/sapi/bare_metal/gpio/gpio_01_switches_leds/out/libs/sapi/sapi_v0.5.1/src/sapi_uart.o
 .rodata.ExtRateIn
                0x000000001a001cbc        0x4 examples/c/sapi/bare_metal/gpio/gpio_01_switches_leds/out/libs/vendor_libs/lpc_board_ciaa_edu_4337/src/board.o
                0x000000001a001cbc                ExtRateIn
 .rodata.GpioButtons
                0x000000001a001cc0        0x8 examples/c/sapi/bare_metal/gpio/gpio_01_switches_leds/out/libs/vendor_libs/lpc_board_ciaa_edu_4337/src/board.o
 .rodata.GpioLeds
                0x000000001a001cc8        0xc examples/c/sapi/bare_metal/gpio/gpio_01_switches_leds/out/libs/vendor_libs/lpc_board_ciaa_edu_4337/src/board.o
 .rodata.GpioPorts
                0x000000001a001cd4       0x12 examples/c/sapi/bare_metal/gpio/gpio_01_switches_leds/out/libs/vendor_libs/lpc_board_ciaa_edu_4337/src/board.o
 *fill*         0x000000001a001ce6        0x2 ff
 .rodata.OscRateIn
                0x000000001a001ce8        0x4 examples/c/sapi/bare_metal/gpio/gpio_01_switches_leds/out/libs/vendor_libs/lpc_board_ciaa_edu_4337/src/board.o
                0x000000001a001ce8                OscRateIn
 .rodata.InitClkStates
                0x000000001a001cec        0xc examples/c/sapi/bare_metal/gpio/gpio_01_switches_leds/out/libs/vendor_libs/lpc_board_ciaa_edu_4337/src/board_sysinit.o
 .rodata.pinmuxing
                0x000000001a001cf8       0x98 examples/c/sapi/bare_metal/gpio/gpio_01_switches_leds/out/libs/vendor_libs/lpc_board_ciaa_edu_4337/src/board_sysinit.o
 .rodata.UART_BClock
                0x000000001a001d90        0x8 examples/c/sapi/bare_metal/gpio/gpio_01_switches_leds/out/libs/vendor_libs/lpc_chip_43xx/src/uart_18xx_43xx.o
 .rodata.UART_PClock
                0x000000001a001d98        0x8 examples/c/sapi/bare_metal/gpio/gpio_01_switches_leds/out/libs/vendor_libs/lpc_chip_43xx/src/uart_18xx_43xx.o
 .rodata        0x000000001a001da0        0x4 examples/c/sapi/bare_metal/gpio/gpio_01_switches_leds/out/libs/vendor_libs/lpc_chip_43xx/src/clock_18xx_43xx.o
 .rodata.Chip_Clock_SetDivider.str1.4
                0x000000001a001da4        0x8 examples/c/sapi/bare_metal/gpio/gpio_01_switches_leds/out/libs/vendor_libs/lpc_chip_43xx/src/clock_18xx_43xx.o
                                          0x6 (size before relaxing)
 .rodata.periph_to_base
                0x000000001a001dac       0x6c examples/c/sapi/bare_metal/gpio/gpio_01_switches_leds/out/libs/vendor_libs/lpc_chip_43xx/src/clock_18xx_43xx.o
 .rodata.InitClkStates
                0x000000001a001e18       0x48 examples/c/sapi/bare_metal/gpio/gpio_01_switches_leds/out/libs/vendor_libs/lpc_chip_43xx/src/sysinit_18xx_43xx.o
                0x000000001a001e60                . = ALIGN (0x4)

.glue_7         0x000000001a001e60        0x0
 .glue_7        0x000000001a001e60        0x0 linker stubs

.glue_7t        0x000000001a001e60        0x0
 .glue_7t       0x000000001a001e60        0x0 linker stubs

.vfp11_veneer   0x000000001a001e60        0x0
 .vfp11_veneer  0x000000001a001e60        0x0 linker stubs

.v4_bx          0x000000001a001e60        0x0
 .v4_bx         0x000000001a001e60        0x0 linker stubs

.iplt           0x000000001a001e60        0x0
 .iplt          0x000000001a001e60        0x0 examples/c/sapi/bare_metal/gpio/gpio_01_switches_leds/out/examples/c/sapi/bare_metal/gpio/gpio_01_switches_leds/src/switches_leds.o
                0x000000001a001e60                . = ALIGN (0x4)

.preinit_array  0x000000001a001e60        0x0
                0x000000001a001e60                PROVIDE (__preinit_array_start, .)
 *(.preinit_array*)
                0x000000001a001e60                PROVIDE (__preinit_array_end, .)

.init_array     0x000000001a001e60        0x0
                0x000000001a001e60                PROVIDE (__init_array_start, .)
 *(SORT_BY_NAME(.init_array.*))
 *(.init_array*)
                0x000000001a001e60                PROVIDE (__init_array_end, .)
                0x000000001a001e60                . = ALIGN (0x4)

.ARM.extab
 *(.ARM.extab* .gnu.linkonce.armextab.*)
                0x000000001a001e60                __exidx_start = .

.ARM.exidx      0x000000001a001e60        0x8
 *(.ARM.exidx* .gnu.linkonce.armexidx.*)
 .ARM.exidx     0x000000001a001e60        0x8 /tmp/.mount_CIAA_S7Q9Wj6/usr/bin/../lib/gcc/arm-none-eabi/7.2.1/thumb/v7e-m/fpv4-sp/hard/libgcc.a(_udivmoddi4.o)
                0x000000001a001e68                __exidx_end = .
                0x000000001a001e68                _etext = .

.rel.dyn        0x000000001a001e68        0x0
 .rel.iplt      0x000000001a001e68        0x0 examples/c/sapi/bare_metal/gpio/gpio_01_switches_leds/out/examples/c/sapi/bare_metal/gpio/gpio_01_switches_leds/src/switches_leds.o

.data_RAM2      0x0000000010080000        0x0 load address 0x000000001a001e68
 FILL mask 0xff
 *(.ramfunc.$RAM2)
 *(.ramfunc.$RamLoc40)
 *(.data.$RAM2*)
 *(.data.$RamLoc40*)
                0x0000000010080000                . = ALIGN (0x4)

.data_RAM3      0x0000000020000000        0x0 load address 0x000000001a001e68
 FILL mask 0xff
 *(.ramfunc.$RAM3)
 *(.ramfunc.$RamAHB32)
 *(.data.$RAM3*)
 *(.data.$RamAHB32*)
                0x0000000020000000                . = ALIGN (0x4)

.data_RAM4      0x0000000020008000        0x0 load address 0x000000001a001e68
 FILL mask 0xff
 *(.ramfunc.$RAM4)
 *(.ramfunc.$RamAHB16)
 *(.data.$RAM4*)
 *(.data.$RamAHB16*)
                0x0000000020008000                . = ALIGN (0x4)

.data_RAM5      0x000000002000c000        0x0 load address 0x000000001a001e68
 FILL mask 0xff
 *(.ramfunc.$RAM5)
 *(.ramfunc.$RamAHB_ETB16)
 *(.data.$RAM5*)
 *(.data.$RamAHB_ETB16*)
                0x000000002000c000                . = ALIGN (0x4)

.uninit_RESERVED
                0x0000000010000000        0x0
 *(.bss.$RESERVED*)
                0x0000000010000000                . = ALIGN (0x4)
                0x0000000010000000                _end_uninit_RESERVED = .

.data           0x0000000010000000       0xc8 load address 0x000000001a001e68
 FILL mask 0xff
                0x0000000010000000                _data = .
 *(vtable)
 *(.ramfunc*)
 *(.data*)
 .data.ClockSpeed
                0x0000000010000000        0x4 examples/c/sapi/bare_metal/gpio/gpio_01_switches_leds/out/libs/sapi/sapi_v0.5.1/src/sapi_cyclesCounter.o
 .data.DWT_CTRL
                0x0000000010000004        0x4 examples/c/sapi/bare_metal/gpio/gpio_01_switches_leds/out/libs/sapi/sapi_v0.5.1/src/sapi_cyclesCounter.o
                0x0000000010000004                DWT_CTRL
 .data.ultrasonicSensors
                0x0000000010000008       0x48 examples/c/sapi/bare_metal/gpio/gpio_01_switches_leds/out/libs/sapi/sapi_v0.5.1/src/sapi_ultrasonic_hcsr04.o
 .data.timer_dd
                0x0000000010000050       0x40 examples/c/sapi/bare_metal/gpio/gpio_01_switches_leds/out/libs/sapi/sapi_v0.5.1/src/sapi_timer.o
 .data.i2c      0x0000000010000090       0x38 examples/c/sapi/bare_metal/gpio/gpio_01_switches_leds/out/libs/vendor_libs/lpc_chip_43xx/src/i2c_18xx_43xx.o
                0x00000000100000c8                . = ALIGN (0x4)
                0x00000000100000c8                _edata = .

.igot.plt       0x00000000100000c8        0x0 load address 0x000000001a001f30
 .igot.plt      0x00000000100000c8        0x0 examples/c/sapi/bare_metal/gpio/gpio_01_switches_leds/out/examples/c/sapi/bare_metal/gpio/gpio_01_switches_leds/src/switches_leds.o

.bss_RAM2       0x0000000010080000        0x0
 *(.bss.$RAM2*)
 *(.bss.$RamLoc40*)
                0x0000000010080000                . = ALIGN (0x4)

.bss_RAM3       0x0000000020000000        0x0
 *(.bss.$RAM3*)
 *(.bss.$RamAHB32*)
                0x0000000020000000                . = ALIGN (0x4)

.bss_RAM4       0x0000000020008000        0x0
 *(.bss.$RAM4*)
 *(.bss.$RamAHB16*)
                0x0000000020008000                . = ALIGN (0x4)

.bss_RAM5       0x000000002000c000        0x0
 *(.bss.$RAM5*)
 *(.bss.$RamAHB_ETB16*)
                0x000000002000c000                . = ALIGN (0x4)

.bss            0x00000000100000c8       0x3c
                0x00000000100000c8                _bss = .
 *(.bss*)
 .bss.callBackFuncParams
                0x00000000100000c8        0x4 examples/c/sapi/bare_metal/gpio/gpio_01_switches_leds/out/libs/sapi/sapi_v0.5.1/src/sapi_tick.o
                0x00000000100000c8                callBackFuncParams
 .bss.tickHookFunction
                0x00000000100000cc        0x4 examples/c/sapi/bare_metal/gpio/gpio_01_switches_leds/out/libs/sapi/sapi_v0.5.1/src/sapi_tick.o
                0x00000000100000cc                tickHookFunction
 .bss.rxIsrCallbackUART0
                0x00000000100000d0        0x4 examples/c/sapi/bare_metal/gpio/gpio_01_switches_leds/out/libs/sapi/sapi_v0.5.1/src/sapi_uart.o
 .bss.rxIsrCallbackUART2
                0x00000000100000d4        0x4 examples/c/sapi/bare_metal/gpio/gpio_01_switches_leds/out/libs/sapi/sapi_v0.5.1/src/sapi_uart.o
 .bss.rxIsrCallbackUART3
                0x00000000100000d8        0x4 examples/c/sapi/bare_metal/gpio/gpio_01_switches_leds/out/libs/sapi/sapi_v0.5.1/src/sapi_uart.o
 .bss.txIsrCallbackUART0
                0x00000000100000dc        0x4 examples/c/sapi/bare_metal/gpio/gpio_01_switches_leds/out/libs/sapi/sapi_v0.5.1/src/sapi_uart.o
 .bss.txIsrCallbackUART2
                0x00000000100000e0        0x4 examples/c/sapi/bare_metal/gpio/gpio_01_switches_leds/out/libs/sapi/sapi_v0.5.1/src/sapi_uart.o
 .bss.txIsrCallbackUART3
                0x00000000100000e4        0x4 examples/c/sapi/bare_metal/gpio/gpio_01_switches_leds/out/libs/sapi/sapi_v0.5.1/src/sapi_uart.o
 .bss.audio_usb_pll_freq
                0x00000000100000e8        0x8 examples/c/sapi/bare_metal/gpio/gpio_01_switches_leds/out/libs/vendor_libs/lpc_chip_43xx/src/clock_18xx_43xx.o
 *(COMMON)
 COMMON         0x00000000100000f0       0x10 examples/c/sapi/bare_metal/gpio/gpio_01_switches_leds/out/libs/sapi/sapi_v0.5.1/src/sapi_tick.o
                0x00000000100000f0                tickCounter
                0x00000000100000f8                tickRateMS
 COMMON         0x0000000010000100        0x4 examples/c/sapi/bare_metal/gpio/gpio_01_switches_leds/out/libs/vendor_libs/lpc_chip_43xx/src/chip_18xx_43xx.o
                0x0000000010000100                SystemCoreClock
                0x0000000010000104                . = ALIGN (0x4)
                0x0000000010000104                _ebss = .
                [!provide]                        PROVIDE (end, .)

.noinit_RAM2    0x0000000010080000        0x0
 *(.noinit.$RAM2*)
 *(.noinit.$RamLoc40*)
                0x0000000010080000                . = ALIGN (0x4)

.noinit_RAM3    0x0000000020000000        0x0
 *(.noinit.$RAM3*)
 *(.noinit.$RamAHB32*)
                0x0000000020000000                . = ALIGN (0x4)

.noinit_RAM4    0x0000000020008000        0x0
 *(.noinit.$RAM4*)
 *(.noinit.$RamAHB16*)
                0x0000000020008000                . = ALIGN (0x4)

.noinit_RAM5    0x000000002000c000        0x0
 *(.noinit.$RAM5*)
 *(.noinit.$RamAHB_ETB16*)
                0x000000002000c000                . = ALIGN (0x4)

.noinit         0x0000000010000104        0x0
                0x0000000010000104                _noinit = .
 *(.noinit*)
                0x0000000010000104                . = ALIGN (0x4)
                0x0000000010000104                _end_noinit = .
                0x0000000010000104                PROVIDE (_pvHeapStart, .)
                0x0000000010008000                PROVIDE (_vStackTop, (__top_RamLoc32 - 0x0))
                0xffffffff53ff6104                PROVIDE (__valid_user_code_checksum, (0x0 - ((((((_vStackTop + (ResetISR + 0x1)) + (NMI_Handler + 0x1)) + (HardFault_Handler + 0x1)) + (DEFINED (MemManage_Handler)?MemManage_Handler:0x0 + 0x1)) + (DEFINED (BusFault_Handler)?BusFault_Handler:0x0 + 0x1)) + (DEFINED (UsageFault_Handler)?UsageFault_Handler:0x0 + 0x1))))
OUTPUT(examples/c/sapi/bare_metal/gpio/gpio_01_switches_leds/out/gpio_01_switches_leds.elf elf32-littlearm)

.debug_info     0x0000000000000000    0x18832
 .debug_info    0x0000000000000000      0xc31 examples/c/sapi/bare_metal/gpio/gpio_01_switches_leds/out/examples/c/sapi/bare_metal/gpio/gpio_01_switches_leds/src/switches_leds.o
 .debug_info    0x0000000000000c31      0xec6 examples/c/sapi/bare_metal/gpio/gpio_01_switches_leds/out/libs/sapi/sapi_v0.5.1/src/sapi_cyclesCounter.o
 .debug_info    0x0000000000001af7     0x1dff examples/c/sapi/bare_metal/gpio/gpio_01_switches_leds/out/libs/sapi/sapi_v0.5.1/src/sapi_ultrasonic_hcsr04.o
 .debug_info    0x00000000000038f6     0x1a90 examples/c/sapi/bare_metal/gpio/gpio_01_switches_leds/out/libs/sapi/sapi_v0.5.1/src/sapi_gpio.o
 .debug_info    0x0000000000005386     0x14ac examples/c/sapi/bare_metal/gpio/gpio_01_switches_leds/out/libs/sapi/sapi_v0.5.1/src/sapi_tick.o
 .debug_info    0x0000000000006832     0x22a4 examples/c/sapi/bare_metal/gpio/gpio_01_switches_leds/out/libs/sapi/sapi_v0.5.1/src/sapi_uart.o
 .debug_info    0x0000000000008ad6     0x1d10 examples/c/sapi/bare_metal/gpio/gpio_01_switches_leds/out/libs/sapi/sapi_v0.5.1/src/sapi_timer.o
 .debug_info    0x000000000000a7e6      0xdb2 examples/c/sapi/bare_metal/gpio/gpio_01_switches_leds/out/libs/sapi/sapi_v0.5.1/src/sapi_board.o
 .debug_info    0x000000000000b598     0x25bc examples/c/sapi/bare_metal/gpio/gpio_01_switches_leds/out/libs/vendor_libs/lpc_board_ciaa_edu_4337/src/board.o
 .debug_info    0x000000000000db54      0x95b examples/c/sapi/bare_metal/gpio/gpio_01_switches_leds/out/libs/vendor_libs/lpc_board_ciaa_edu_4337/src/sysinit.o
 .debug_info    0x000000000000e4af     0x14d2 examples/c/sapi/bare_metal/gpio/gpio_01_switches_leds/out/libs/vendor_libs/lpc_board_ciaa_edu_4337/src/board_sysinit.o
 .debug_info    0x000000000000f981     0x164f examples/c/sapi/bare_metal/gpio/gpio_01_switches_leds/out/libs/vendor_libs/lpc_chip_43xx/src/uart_18xx_43xx.o
 .debug_info    0x0000000000010fd0      0xaef examples/c/sapi/bare_metal/gpio/gpio_01_switches_leds/out/libs/vendor_libs/lpc_chip_43xx/src/adc_18xx_43xx.o
 .debug_info    0x0000000000011abf      0xc3d examples/c/sapi/bare_metal/gpio/gpio_01_switches_leds/out/libs/vendor_libs/lpc_chip_43xx/src/chip_18xx_43xx.o
 .debug_info    0x00000000000126fc     0x18ed examples/c/sapi/bare_metal/gpio/gpio_01_switches_leds/out/libs/vendor_libs/lpc_chip_43xx/src/clock_18xx_43xx.o
 .debug_info    0x0000000000013fe9      0xab0 examples/c/sapi/bare_metal/gpio/gpio_01_switches_leds/out/libs/vendor_libs/lpc_chip_43xx/src/sysinit_18xx_43xx.o
 .debug_info    0x0000000000014a99      0x145 examples/c/sapi/bare_metal/gpio/gpio_01_switches_leds/out/libs/vendor_libs/lpc_chip_43xx/src/fpu_init.o
 .debug_info    0x0000000000014bde      0x219 examples/c/sapi/bare_metal/gpio/gpio_01_switches_leds/out/libs/vendor_libs/lpc_chip_43xx/src/gpio_18xx_43xx.o
 .debug_info    0x0000000000014df7     0x1366 examples/c/sapi/bare_metal/gpio/gpio_01_switches_leds/out/libs/vendor_libs/lpc_chip_43xx/src/i2c_18xx_43xx.o
 .debug_info    0x000000000001615d     0x1606 examples/c/sapi/bare_metal/gpio/gpio_01_switches_leds/out/libs/vendor_libs/lpc_chip_43xx/src/ssp_18xx_43xx.o
 .debug_info    0x0000000000017763       0x3f examples/c/sapi/bare_metal/gpio/gpio_01_switches_leds/out/libs/vendor_libs/lpc_startup/src/crp.o
 .debug_info    0x00000000000177a2     0x1090 examples/c/sapi/bare_metal/gpio/gpio_01_switches_leds/out/libs/vendor_libs/lpc_startup/src/cr_startup_lpc43xx.o

.debug_abbrev   0x0000000000000000     0x3a6d
 .debug_abbrev  0x0000000000000000      0x227 examples/c/sapi/bare_metal/gpio/gpio_01_switches_leds/out/examples/c/sapi/bare_metal/gpio/gpio_01_switches_leds/src/switches_leds.o
 .debug_abbrev  0x0000000000000227      0x284 examples/c/sapi/bare_metal/gpio/gpio_01_switches_leds/out/libs/sapi/sapi_v0.5.1/src/sapi_cyclesCounter.o
 .debug_abbrev  0x00000000000004ab      0x3d7 examples/c/sapi/bare_metal/gpio/gpio_01_switches_leds/out/libs/sapi/sapi_v0.5.1/src/sapi_ultrasonic_hcsr04.o
 .debug_abbrev  0x0000000000000882      0x389 examples/c/sapi/bare_metal/gpio/gpio_01_switches_leds/out/libs/sapi/sapi_v0.5.1/src/sapi_gpio.o
 .debug_abbrev  0x0000000000000c0b      0x359 examples/c/sapi/bare_metal/gpio/gpio_01_switches_leds/out/libs/sapi/sapi_v0.5.1/src/sapi_tick.o
 .debug_abbrev  0x0000000000000f64      0x444 examples/c/sapi/bare_metal/gpio/gpio_01_switches_leds/out/libs/sapi/sapi_v0.5.1/src/sapi_uart.o
 .debug_abbrev  0x00000000000013a8      0x3cd examples/c/sapi/bare_metal/gpio/gpio_01_switches_leds/out/libs/sapi/sapi_v0.5.1/src/sapi_timer.o
 .debug_abbrev  0x0000000000001775      0x216 examples/c/sapi/bare_metal/gpio/gpio_01_switches_leds/out/libs/sapi/sapi_v0.5.1/src/sapi_board.o
 .debug_abbrev  0x000000000000198b      0x435 examples/c/sapi/bare_metal/gpio/gpio_01_switches_leds/out/libs/vendor_libs/lpc_board_ciaa_edu_4337/src/board.o
 .debug_abbrev  0x0000000000001dc0      0x1de examples/c/sapi/bare_metal/gpio/gpio_01_switches_leds/out/libs/vendor_libs/lpc_board_ciaa_edu_4337/src/sysinit.o
 .debug_abbrev  0x0000000000001f9e      0x2fa examples/c/sapi/bare_metal/gpio/gpio_01_switches_leds/out/libs/vendor_libs/lpc_board_ciaa_edu_4337/src/board_sysinit.o
 .debug_abbrev  0x0000000000002298      0x3b7 examples/c/sapi/bare_metal/gpio/gpio_01_switches_leds/out/libs/vendor_libs/lpc_chip_43xx/src/uart_18xx_43xx.o
 .debug_abbrev  0x000000000000264f      0x1f9 examples/c/sapi/bare_metal/gpio/gpio_01_switches_leds/out/libs/vendor_libs/lpc_chip_43xx/src/adc_18xx_43xx.o
 .debug_abbrev  0x0000000000002848      0x1c3 examples/c/sapi/bare_metal/gpio/gpio_01_switches_leds/out/libs/vendor_libs/lpc_chip_43xx/src/chip_18xx_43xx.o
 .debug_abbrev  0x0000000000002a0b      0x379 examples/c/sapi/bare_metal/gpio/gpio_01_switches_leds/out/libs/vendor_libs/lpc_chip_43xx/src/clock_18xx_43xx.o
 .debug_abbrev  0x0000000000002d84      0x203 examples/c/sapi/bare_metal/gpio/gpio_01_switches_leds/out/libs/vendor_libs/lpc_chip_43xx/src/sysinit_18xx_43xx.o
 .debug_abbrev  0x0000000000002f87       0xa2 examples/c/sapi/bare_metal/gpio/gpio_01_switches_leds/out/libs/vendor_libs/lpc_chip_43xx/src/fpu_init.o
 .debug_abbrev  0x0000000000003029      0x100 examples/c/sapi/bare_metal/gpio/gpio_01_switches_leds/out/libs/vendor_libs/lpc_chip_43xx/src/gpio_18xx_43xx.o
 .debug_abbrev  0x0000000000003129      0x344 examples/c/sapi/bare_metal/gpio/gpio_01_switches_leds/out/libs/vendor_libs/lpc_chip_43xx/src/i2c_18xx_43xx.o
 .debug_abbrev  0x000000000000346d      0x352 examples/c/sapi/bare_metal/gpio/gpio_01_switches_leds/out/libs/vendor_libs/lpc_chip_43xx/src/ssp_18xx_43xx.o
 .debug_abbrev  0x00000000000037bf       0x36 examples/c/sapi/bare_metal/gpio/gpio_01_switches_leds/out/libs/vendor_libs/lpc_startup/src/crp.o
 .debug_abbrev  0x00000000000037f5      0x278 examples/c/sapi/bare_metal/gpio/gpio_01_switches_leds/out/libs/vendor_libs/lpc_startup/src/cr_startup_lpc43xx.o

.debug_loc      0x0000000000000000     0x6aff
 .debug_loc     0x0000000000000000       0x53 examples/c/sapi/bare_metal/gpio/gpio_01_switches_leds/out/examples/c/sapi/bare_metal/gpio/gpio_01_switches_leds/src/switches_leds.o
 .debug_loc     0x0000000000000053       0x8e examples/c/sapi/bare_metal/gpio/gpio_01_switches_leds/out/libs/sapi/sapi_v0.5.1/src/sapi_cyclesCounter.o
 .debug_loc     0x00000000000000e1      0x497 examples/c/sapi/bare_metal/gpio/gpio_01_switches_leds/out/libs/sapi/sapi_v0.5.1/src/sapi_ultrasonic_hcsr04.o
 .debug_loc     0x0000000000000578      0x7e4 examples/c/sapi/bare_metal/gpio/gpio_01_switches_leds/out/libs/sapi/sapi_v0.5.1/src/sapi_gpio.o
 .debug_loc     0x0000000000000d5c      0x173 examples/c/sapi/bare_metal/gpio/gpio_01_switches_leds/out/libs/sapi/sapi_v0.5.1/src/sapi_tick.o
 .debug_loc     0x0000000000000ecf      0xa47 examples/c/sapi/bare_metal/gpio/gpio_01_switches_leds/out/libs/sapi/sapi_v0.5.1/src/sapi_uart.o
 .debug_loc     0x0000000000001916      0x78c examples/c/sapi/bare_metal/gpio/gpio_01_switches_leds/out/libs/sapi/sapi_v0.5.1/src/sapi_timer.o
 .debug_loc     0x00000000000020a2      0x5c8 examples/c/sapi/bare_metal/gpio/gpio_01_switches_leds/out/libs/vendor_libs/lpc_board_ciaa_edu_4337/src/board.o
 .debug_loc     0x000000000000266a       0xe0 examples/c/sapi/bare_metal/gpio/gpio_01_switches_leds/out/libs/vendor_libs/lpc_board_ciaa_edu_4337/src/board_sysinit.o
 .debug_loc     0x000000000000274a      0xd25 examples/c/sapi/bare_metal/gpio/gpio_01_switches_leds/out/libs/vendor_libs/lpc_chip_43xx/src/uart_18xx_43xx.o
 .debug_loc     0x000000000000346f      0x67e examples/c/sapi/bare_metal/gpio/gpio_01_switches_leds/out/libs/vendor_libs/lpc_chip_43xx/src/adc_18xx_43xx.o
 .debug_loc     0x0000000000003aed     0x123c examples/c/sapi/bare_metal/gpio/gpio_01_switches_leds/out/libs/vendor_libs/lpc_chip_43xx/src/clock_18xx_43xx.o
 .debug_loc     0x0000000000004d29      0x1b5 examples/c/sapi/bare_metal/gpio/gpio_01_switches_leds/out/libs/vendor_libs/lpc_chip_43xx/src/sysinit_18xx_43xx.o
 .debug_loc     0x0000000000004ede       0x2b examples/c/sapi/bare_metal/gpio/gpio_01_switches_leds/out/libs/vendor_libs/lpc_chip_43xx/src/fpu_init.o
 .debug_loc     0x0000000000004f09      0xc9a examples/c/sapi/bare_metal/gpio/gpio_01_switches_leds/out/libs/vendor_libs/lpc_chip_43xx/src/i2c_18xx_43xx.o
 .debug_loc     0x0000000000005ba3      0xd56 examples/c/sapi/bare_metal/gpio/gpio_01_switches_leds/out/libs/vendor_libs/lpc_chip_43xx/src/ssp_18xx_43xx.o
 .debug_loc     0x00000000000068f9      0x206 examples/c/sapi/bare_metal/gpio/gpio_01_switches_leds/out/libs/vendor_libs/lpc_startup/src/cr_startup_lpc43xx.o

.debug_aranges  0x0000000000000000      0x8d8
 .debug_aranges
                0x0000000000000000       0x20 examples/c/sapi/bare_metal/gpio/gpio_01_switches_leds/out/examples/c/sapi/bare_metal/gpio/gpio_01_switches_leds/src/switches_leds.o
 .debug_aranges
                0x0000000000000020       0x40 examples/c/sapi/bare_metal/gpio/gpio_01_switches_leds/out/libs/sapi/sapi_v0.5.1/src/sapi_cyclesCounter.o
 .debug_aranges
                0x0000000000000060       0x70 examples/c/sapi/bare_metal/gpio/gpio_01_switches_leds/out/libs/sapi/sapi_v0.5.1/src/sapi_ultrasonic_hcsr04.o
 .debug_aranges
                0x00000000000000d0       0x40 examples/c/sapi/bare_metal/gpio/gpio_01_switches_leds/out/libs/sapi/sapi_v0.5.1/src/sapi_gpio.o
 .debug_aranges
                0x0000000000000110       0x48 examples/c/sapi/bare_metal/gpio/gpio_01_switches_leds/out/libs/sapi/sapi_v0.5.1/src/sapi_tick.o
 .debug_aranges
                0x0000000000000158       0xc0 examples/c/sapi/bare_metal/gpio/gpio_01_switches_leds/out/libs/sapi/sapi_v0.5.1/src/sapi_uart.o
 .debug_aranges
                0x0000000000000218       0x78 examples/c/sapi/bare_metal/gpio/gpio_01_switches_leds/out/libs/sapi/sapi_v0.5.1/src/sapi_timer.o
 .debug_aranges
                0x0000000000000290       0x20 examples/c/sapi/bare_metal/gpio/gpio_01_switches_leds/out/libs/sapi/sapi_v0.5.1/src/sapi_board.o
 .debug_aranges
                0x00000000000002b0       0xa8 examples/c/sapi/bare_metal/gpio/gpio_01_switches_leds/out/libs/vendor_libs/lpc_board_ciaa_edu_4337/src/board.o
 .debug_aranges
                0x0000000000000358       0x20 examples/c/sapi/bare_metal/gpio/gpio_01_switches_leds/out/libs/vendor_libs/lpc_board_ciaa_edu_4337/src/sysinit.o
 .debug_aranges
                0x0000000000000378       0x30 examples/c/sapi/bare_metal/gpio/gpio_01_switches_leds/out/libs/vendor_libs/lpc_board_ciaa_edu_4337/src/board_sysinit.o
 .debug_aranges
                0x00000000000003a8       0xa8 examples/c/sapi/bare_metal/gpio/gpio_01_switches_leds/out/libs/vendor_libs/lpc_chip_43xx/src/uart_18xx_43xx.o
 .debug_aranges
                0x0000000000000450       0x90 examples/c/sapi/bare_metal/gpio/gpio_01_switches_leds/out/libs/vendor_libs/lpc_chip_43xx/src/adc_18xx_43xx.o
 .debug_aranges
                0x00000000000004e0       0x38 examples/c/sapi/bare_metal/gpio/gpio_01_switches_leds/out/libs/vendor_libs/lpc_chip_43xx/src/chip_18xx_43xx.o
 .debug_aranges
                0x0000000000000518      0x128 examples/c/sapi/bare_metal/gpio/gpio_01_switches_leds/out/libs/vendor_libs/lpc_chip_43xx/src/clock_18xx_43xx.o
 .debug_aranges
                0x0000000000000640       0x38 examples/c/sapi/bare_metal/gpio/gpio_01_switches_leds/out/libs/vendor_libs/lpc_chip_43xx/src/sysinit_18xx_43xx.o
 .debug_aranges
                0x0000000000000678       0x20 examples/c/sapi/bare_metal/gpio/gpio_01_switches_leds/out/libs/vendor_libs/lpc_chip_43xx/src/fpu_init.o
 .debug_aranges
                0x0000000000000698       0x28 examples/c/sapi/bare_metal/gpio/gpio_01_switches_leds/out/libs/vendor_libs/lpc_chip_43xx/src/gpio_18xx_43xx.o
 .debug_aranges
                0x00000000000006c0       0xd8 examples/c/sapi/bare_metal/gpio/gpio_01_switches_leds/out/libs/vendor_libs/lpc_chip_43xx/src/i2c_18xx_43xx.o
 .debug_aranges
                0x0000000000000798       0xa0 examples/c/sapi/bare_metal/gpio/gpio_01_switches_leds/out/libs/vendor_libs/lpc_chip_43xx/src/ssp_18xx_43xx.o
 .debug_aranges
                0x0000000000000838       0x18 examples/c/sapi/bare_metal/gpio/gpio_01_switches_leds/out/libs/vendor_libs/lpc_startup/src/crp.o
 .debug_aranges
                0x0000000000000850       0x88 examples/c/sapi/bare_metal/gpio/gpio_01_switches_leds/out/libs/vendor_libs/lpc_startup/src/cr_startup_lpc43xx.o

.debug_ranges   0x0000000000000000      0x8a8
 .debug_ranges  0x0000000000000000       0x10 examples/c/sapi/bare_metal/gpio/gpio_01_switches_leds/out/examples/c/sapi/bare_metal/gpio/gpio_01_switches_leds/src/switches_leds.o
 .debug_ranges  0x0000000000000010       0x30 examples/c/sapi/bare_metal/gpio/gpio_01_switches_leds/out/libs/sapi/sapi_v0.5.1/src/sapi_cyclesCounter.o
 .debug_ranges  0x0000000000000040       0x60 examples/c/sapi/bare_metal/gpio/gpio_01_switches_leds/out/libs/sapi/sapi_v0.5.1/src/sapi_ultrasonic_hcsr04.o
 .debug_ranges  0x00000000000000a0       0x30 examples/c/sapi/bare_metal/gpio/gpio_01_switches_leds/out/libs/sapi/sapi_v0.5.1/src/sapi_gpio.o
 .debug_ranges  0x00000000000000d0       0x38 examples/c/sapi/bare_metal/gpio/gpio_01_switches_leds/out/libs/sapi/sapi_v0.5.1/src/sapi_tick.o
 .debug_ranges  0x0000000000000108       0xb0 examples/c/sapi/bare_metal/gpio/gpio_01_switches_leds/out/libs/sapi/sapi_v0.5.1/src/sapi_uart.o
 .debug_ranges  0x00000000000001b8       0x80 examples/c/sapi/bare_metal/gpio/gpio_01_switches_leds/out/libs/sapi/sapi_v0.5.1/src/sapi_timer.o
 .debug_ranges  0x0000000000000238       0x10 examples/c/sapi/bare_metal/gpio/gpio_01_switches_leds/out/libs/sapi/sapi_v0.5.1/src/sapi_board.o
 .debug_ranges  0x0000000000000248       0xe0 examples/c/sapi/bare_metal/gpio/gpio_01_switches_leds/out/libs/vendor_libs/lpc_board_ciaa_edu_4337/src/board.o
 .debug_ranges  0x0000000000000328       0x10 examples/c/sapi/bare_metal/gpio/gpio_01_switches_leds/out/libs/vendor_libs/lpc_board_ciaa_edu_4337/src/sysinit.o
 .debug_ranges  0x0000000000000338       0x38 examples/c/sapi/bare_metal/gpio/gpio_01_switches_leds/out/libs/vendor_libs/lpc_board_ciaa_edu_4337/src/board_sysinit.o
 .debug_ranges  0x0000000000000370       0xb0 examples/c/sapi/bare_metal/gpio/gpio_01_switches_leds/out/libs/vendor_libs/lpc_chip_43xx/src/uart_18xx_43xx.o
 .debug_ranges  0x0000000000000420       0x80 examples/c/sapi/bare_metal/gpio/gpio_01_switches_leds/out/libs/vendor_libs/lpc_chip_43xx/src/adc_18xx_43xx.o
 .debug_ranges  0x00000000000004a0       0x28 examples/c/sapi/bare_metal/gpio/gpio_01_switches_leds/out/libs/vendor_libs/lpc_chip_43xx/src/chip_18xx_43xx.o
 .debug_ranges  0x00000000000004c8      0x190 examples/c/sapi/bare_metal/gpio/gpio_01_switches_leds/out/libs/vendor_libs/lpc_chip_43xx/src/clock_18xx_43xx.o
 .debug_ranges  0x0000000000000658       0x28 examples/c/sapi/bare_metal/gpio/gpio_01_switches_leds/out/libs/vendor_libs/lpc_chip_43xx/src/sysinit_18xx_43xx.o
 .debug_ranges  0x0000000000000680       0x10 examples/c/sapi/bare_metal/gpio/gpio_01_switches_leds/out/libs/vendor_libs/lpc_chip_43xx/src/fpu_init.o
 .debug_ranges  0x0000000000000690       0x18 examples/c/sapi/bare_metal/gpio/gpio_01_switches_leds/out/libs/vendor_libs/lpc_chip_43xx/src/gpio_18xx_43xx.o
 .debug_ranges  0x00000000000006a8       0xc8 examples/c/sapi/bare_metal/gpio/gpio_01_switches_leds/out/libs/vendor_libs/lpc_chip_43xx/src/i2c_18xx_43xx.o
 .debug_ranges  0x0000000000000770       0xc0 examples/c/sapi/bare_metal/gpio/gpio_01_switches_leds/out/libs/vendor_libs/lpc_chip_43xx/src/ssp_18xx_43xx.o
 .debug_ranges  0x0000000000000830       0x78 examples/c/sapi/bare_metal/gpio/gpio_01_switches_leds/out/libs/vendor_libs/lpc_startup/src/cr_startup_lpc43xx.o

.debug_macro    0x0000000000000000     0xa567
 .debug_macro   0x0000000000000000      0x560 examples/c/sapi/bare_metal/gpio/gpio_01_switches_leds/out/examples/c/sapi/bare_metal/gpio/gpio_01_switches_leds/src/switches_leds.o
 .debug_macro   0x0000000000000560      0xa5a examples/c/sapi/bare_metal/gpio/gpio_01_switches_leds/out/examples/c/sapi/bare_metal/gpio/gpio_01_switches_leds/src/switches_leds.o
 .debug_macro   0x0000000000000fba       0x22 examples/c/sapi/bare_metal/gpio/gpio_01_switches_leds/out/examples/c/sapi/bare_metal/gpio/gpio_01_switches_leds/src/switches_leds.o
 .debug_macro   0x0000000000000fdc       0x4f examples/c/sapi/bare_metal/gpio/gpio_01_switches_leds/out/examples/c/sapi/bare_metal/gpio/gpio_01_switches_leds/src/switches_leds.o
 .debug_macro   0x000000000000102b       0x51 examples/c/sapi/bare_metal/gpio/gpio_01_switches_leds/out/examples/c/sapi/bare_metal/gpio/gpio_01_switches_leds/src/switches_leds.o
 .debug_macro   0x000000000000107c       0xef examples/c/sapi/bare_metal/gpio/gpio_01_switches_leds/out/examples/c/sapi/bare_metal/gpio/gpio_01_switches_leds/src/switches_leds.o
 .debug_macro   0x000000000000116b       0x6a examples/c/sapi/bare_metal/gpio/gpio_01_switches_leds/out/examples/c/sapi/bare_metal/gpio/gpio_01_switches_leds/src/switches_leds.o
 .debug_macro   0x00000000000011d5      0x1df examples/c/sapi/bare_metal/gpio/gpio_01_switches_leds/out/examples/c/sapi/bare_metal/gpio/gpio_01_switches_leds/src/switches_leds.o
 .debug_macro   0x00000000000013b4       0x10 examples/c/sapi/bare_metal/gpio/gpio_01_switches_leds/out/examples/c/sapi/bare_metal/gpio/gpio_01_switches_leds/src/switches_leds.o
 .debug_macro   0x00000000000013c4       0x22 examples/c/sapi/bare_metal/gpio/gpio_01_switches_leds/out/examples/c/sapi/bare_metal/gpio/gpio_01_switches_leds/src/switches_leds.o
 .debug_macro   0x00000000000013e6       0x73 examples/c/sapi/bare_metal/gpio/gpio_01_switches_leds/out/examples/c/sapi/bare_metal/gpio/gpio_01_switches_leds/src/switches_leds.o
 .debug_macro   0x0000000000001459       0x28 examples/c/sapi/bare_metal/gpio/gpio_01_switches_leds/out/examples/c/sapi/bare_metal/gpio/gpio_01_switches_leds/src/switches_leds.o
 .debug_macro   0x0000000000001481       0x3b examples/c/sapi/bare_metal/gpio/gpio_01_switches_leds/out/examples/c/sapi/bare_metal/gpio/gpio_01_switches_leds/src/switches_leds.o
 .debug_macro   0x00000000000014bc       0x2d examples/c/sapi/bare_metal/gpio/gpio_01_switches_leds/out/examples/c/sapi/bare_metal/gpio/gpio_01_switches_leds/src/switches_leds.o
 .debug_macro   0x00000000000014e9       0x42 examples/c/sapi/bare_metal/gpio/gpio_01_switches_leds/out/examples/c/sapi/bare_metal/gpio/gpio_01_switches_leds/src/switches_leds.o
 .debug_macro   0x000000000000152b      0xd39 examples/c/sapi/bare_metal/gpio/gpio_01_switches_leds/out/examples/c/sapi/bare_metal/gpio/gpio_01_switches_leds/src/switches_leds.o
 .debug_macro   0x0000000000002264      0x2c3 examples/c/sapi/bare_metal/gpio/gpio_01_switches_leds/out/examples/c/sapi/bare_metal/gpio/gpio_01_switches_leds/src/switches_leds.o
 .debug_macro   0x0000000000002527      0x112 examples/c/sapi/bare_metal/gpio/gpio_01_switches_leds/out/examples/c/sapi/bare_metal/gpio/gpio_01_switches_leds/src/switches_leds.o
 .debug_macro   0x0000000000002639       0x11 examples/c/sapi/bare_metal/gpio/gpio_01_switches_leds/out/examples/c/sapi/bare_metal/gpio/gpio_01_switches_leds/src/switches_leds.o
 .debug_macro   0x000000000000264a       0x2a examples/c/sapi/bare_metal/gpio/gpio_01_switches_leds/out/examples/c/sapi/bare_metal/gpio/gpio_01_switches_leds/src/switches_leds.o
 .debug_macro   0x0000000000002674       0x16 examples/c/sapi/bare_metal/gpio/gpio_01_switches_leds/out/examples/c/sapi/bare_metal/gpio/gpio_01_switches_leds/src/switches_leds.o
 .debug_macro   0x000000000000268a      0x2e6 examples/c/sapi/bare_metal/gpio/gpio_01_switches_leds/out/examples/c/sapi/bare_metal/gpio/gpio_01_switches_leds/src/switches_leds.o
 .debug_macro   0x0000000000002970       0x82 examples/c/sapi/bare_metal/gpio/gpio_01_switches_leds/out/examples/c/sapi/bare_metal/gpio/gpio_01_switches_leds/src/switches_leds.o
 .debug_macro   0x00000000000029f2      0x13d examples/c/sapi/bare_metal/gpio/gpio_01_switches_leds/out/examples/c/sapi/bare_metal/gpio/gpio_01_switches_leds/src/switches_leds.o
 .debug_macro   0x0000000000002b2f      0x198 examples/c/sapi/bare_metal/gpio/gpio_01_switches_leds/out/examples/c/sapi/bare_metal/gpio/gpio_01_switches_leds/src/switches_leds.o
 .debug_macro   0x0000000000002cc7       0x34 examples/c/sapi/bare_metal/gpio/gpio_01_switches_leds/out/examples/c/sapi/bare_metal/gpio/gpio_01_switches_leds/src/switches_leds.o
 .debug_macro   0x0000000000002cfb       0x58 examples/c/sapi/bare_metal/gpio/gpio_01_switches_leds/out/examples/c/sapi/bare_metal/gpio/gpio_01_switches_leds/src/switches_leds.o
 .debug_macro   0x0000000000002d53      0x236 examples/c/sapi/bare_metal/gpio/gpio_01_switches_leds/out/examples/c/sapi/bare_metal/gpio/gpio_01_switches_leds/src/switches_leds.o
 .debug_macro   0x0000000000002f89      0x572 examples/c/sapi/bare_metal/gpio/gpio_01_switches_leds/out/examples/c/sapi/bare_metal/gpio/gpio_01_switches_leds/src/switches_leds.o
 .debug_macro   0x00000000000034fb       0x16 examples/c/sapi/bare_metal/gpio/gpio_01_switches_leds/out/examples/c/sapi/bare_metal/gpio/gpio_01_switches_leds/src/switches_leds.o
 .debug_macro   0x0000000000003511      0x18a examples/c/sapi/bare_metal/gpio/gpio_01_switches_leds/out/examples/c/sapi/bare_metal/gpio/gpio_01_switches_leds/src/switches_leds.o
 .debug_macro   0x000000000000369b       0x88 examples/c/sapi/bare_metal/gpio/gpio_01_switches_leds/out/examples/c/sapi/bare_metal/gpio/gpio_01_switches_leds/src/switches_leds.o
 .debug_macro   0x0000000000003723      0x1b9 examples/c/sapi/bare_metal/gpio/gpio_01_switches_leds/out/examples/c/sapi/bare_metal/gpio/gpio_01_switches_leds/src/switches_leds.o
 .debug_macro   0x00000000000038dc      0x1da examples/c/sapi/bare_metal/gpio/gpio_01_switches_leds/out/examples/c/sapi/bare_metal/gpio/gpio_01_switches_leds/src/switches_leds.o
 .debug_macro   0x0000000000003ab6       0x40 examples/c/sapi/bare_metal/gpio/gpio_01_switches_leds/out/examples/c/sapi/bare_metal/gpio/gpio_01_switches_leds/src/switches_leds.o
 .debug_macro   0x0000000000003af6       0x1c examples/c/sapi/bare_metal/gpio/gpio_01_switches_leds/out/examples/c/sapi/bare_metal/gpio/gpio_01_switches_leds/src/switches_leds.o
 .debug_macro   0x0000000000003b12       0x2e examples/c/sapi/bare_metal/gpio/gpio_01_switches_leds/out/examples/c/sapi/bare_metal/gpio/gpio_01_switches_leds/src/switches_leds.o
 .debug_macro   0x0000000000003b40       0x2e examples/c/sapi/bare_metal/gpio/gpio_01_switches_leds/out/examples/c/sapi/bare_metal/gpio/gpio_01_switches_leds/src/switches_leds.o
 .debug_macro   0x0000000000003b6e       0x22 examples/c/sapi/bare_metal/gpio/gpio_01_switches_leds/out/examples/c/sapi/bare_metal/gpio/gpio_01_switches_leds/src/switches_leds.o
 .debug_macro   0x0000000000003b90      0x201 examples/c/sapi/bare_metal/gpio/gpio_01_switches_leds/out/examples/c/sapi/bare_metal/gpio/gpio_01_switches_leds/src/switches_leds.o
 .debug_macro   0x0000000000003d91       0xe0 examples/c/sapi/bare_metal/gpio/gpio_01_switches_leds/out/examples/c/sapi/bare_metal/gpio/gpio_01_switches_leds/src/switches_leds.o
 .debug_macro   0x0000000000003e71      0x34c examples/c/sapi/bare_metal/gpio/gpio_01_switches_leds/out/examples/c/sapi/bare_metal/gpio/gpio_01_switches_leds/src/switches_leds.o
 .debug_macro   0x00000000000041bd       0xdc examples/c/sapi/bare_metal/gpio/gpio_01_switches_leds/out/examples/c/sapi/bare_metal/gpio/gpio_01_switches_leds/src/switches_leds.o
 .debug_macro   0x0000000000004299       0xc4 examples/c/sapi/bare_metal/gpio/gpio_01_switches_leds/out/examples/c/sapi/bare_metal/gpio/gpio_01_switches_leds/src/switches_leds.o
 .debug_macro   0x000000000000435d       0x8f examples/c/sapi/bare_metal/gpio/gpio_01_switches_leds/out/examples/c/sapi/bare_metal/gpio/gpio_01_switches_leds/src/switches_leds.o
 .debug_macro   0x00000000000043ec       0x94 examples/c/sapi/bare_metal/gpio/gpio_01_switches_leds/out/examples/c/sapi/bare_metal/gpio/gpio_01_switches_leds/src/switches_leds.o
 .debug_macro   0x0000000000004480       0xb8 examples/c/sapi/bare_metal/gpio/gpio_01_switches_leds/out/examples/c/sapi/bare_metal/gpio/gpio_01_switches_leds/src/switches_leds.o
 .debug_macro   0x0000000000004538       0x4c examples/c/sapi/bare_metal/gpio/gpio_01_switches_leds/out/examples/c/sapi/bare_metal/gpio/gpio_01_switches_leds/src/switches_leds.o
 .debug_macro   0x0000000000004584       0x16 examples/c/sapi/bare_metal/gpio/gpio_01_switches_leds/out/examples/c/sapi/bare_metal/gpio/gpio_01_switches_leds/src/switches_leds.o
 .debug_macro   0x000000000000459a      0x328 examples/c/sapi/bare_metal/gpio/gpio_01_switches_leds/out/examples/c/sapi/bare_metal/gpio/gpio_01_switches_leds/src/switches_leds.o
 .debug_macro   0x00000000000048c2       0x3a examples/c/sapi/bare_metal/gpio/gpio_01_switches_leds/out/examples/c/sapi/bare_metal/gpio/gpio_01_switches_leds/src/switches_leds.o
 .debug_macro   0x00000000000048fc       0xd0 examples/c/sapi/bare_metal/gpio/gpio_01_switches_leds/out/examples/c/sapi/bare_metal/gpio/gpio_01_switches_leds/src/switches_leds.o
 .debug_macro   0x00000000000049cc       0x18 examples/c/sapi/bare_metal/gpio/gpio_01_switches_leds/out/examples/c/sapi/bare_metal/gpio/gpio_01_switches_leds/src/switches_leds.o
 .debug_macro   0x00000000000049e4       0x22 examples/c/sapi/bare_metal/gpio/gpio_01_switches_leds/out/examples/c/sapi/bare_metal/gpio/gpio_01_switches_leds/src/switches_leds.o
 .debug_macro   0x0000000000004a06       0x40 examples/c/sapi/bare_metal/gpio/gpio_01_switches_leds/out/examples/c/sapi/bare_metal/gpio/gpio_01_switches_leds/src/switches_leds.o
 .debug_macro   0x0000000000004a46       0x10 examples/c/sapi/bare_metal/gpio/gpio_01_switches_leds/out/examples/c/sapi/bare_metal/gpio/gpio_01_switches_leds/src/switches_leds.o
 .debug_macro   0x0000000000004a56       0x58 examples/c/sapi/bare_metal/gpio/gpio_01_switches_leds/out/examples/c/sapi/bare_metal/gpio/gpio_01_switches_leds/src/switches_leds.o
 .debug_macro   0x0000000000004aae       0x17 examples/c/sapi/bare_metal/gpio/gpio_01_switches_leds/out/examples/c/sapi/bare_metal/gpio/gpio_01_switches_leds/src/switches_leds.o
 .debug_macro   0x0000000000004ac5       0x35 examples/c/sapi/bare_metal/gpio/gpio_01_switches_leds/out/examples/c/sapi/bare_metal/gpio/gpio_01_switches_leds/src/switches_leds.o
 .debug_macro   0x0000000000004afa       0x9c examples/c/sapi/bare_metal/gpio/gpio_01_switches_leds/out/examples/c/sapi/bare_metal/gpio/gpio_01_switches_leds/src/switches_leds.o
 .debug_macro   0x0000000000004b96       0x16 examples/c/sapi/bare_metal/gpio/gpio_01_switches_leds/out/examples/c/sapi/bare_metal/gpio/gpio_01_switches_leds/src/switches_leds.o
 .debug_macro   0x0000000000004bac       0x97 examples/c/sapi/bare_metal/gpio/gpio_01_switches_leds/out/examples/c/sapi/bare_metal/gpio/gpio_01_switches_leds/src/switches_leds.o
 .debug_macro   0x0000000000004c43      0x353 examples/c/sapi/bare_metal/gpio/gpio_01_switches_leds/out/examples/c/sapi/bare_metal/gpio/gpio_01_switches_leds/src/switches_leds.o
 .debug_macro   0x0000000000004f96       0xf6 examples/c/sapi/bare_metal/gpio/gpio_01_switches_leds/out/examples/c/sapi/bare_metal/gpio/gpio_01_switches_leds/src/switches_leds.o
 .debug_macro   0x000000000000508c       0x10 examples/c/sapi/bare_metal/gpio/gpio_01_switches_leds/out/examples/c/sapi/bare_metal/gpio/gpio_01_switches_leds/src/switches_leds.o
 .debug_macro   0x000000000000509c       0x58 examples/c/sapi/bare_metal/gpio/gpio_01_switches_leds/out/examples/c/sapi/bare_metal/gpio/gpio_01_switches_leds/src/switches_leds.o
 .debug_macro   0x00000000000050f4       0x1f examples/c/sapi/bare_metal/gpio/gpio_01_switches_leds/out/examples/c/sapi/bare_metal/gpio/gpio_01_switches_leds/src/switches_leds.o
 .debug_macro   0x0000000000005113       0x43 examples/c/sapi/bare_metal/gpio/gpio_01_switches_leds/out/examples/c/sapi/bare_metal/gpio/gpio_01_switches_leds/src/switches_leds.o
 .debug_macro   0x0000000000005156       0x20 examples/c/sapi/bare_metal/gpio/gpio_01_switches_leds/out/examples/c/sapi/bare_metal/gpio/gpio_01_switches_leds/src/switches_leds.o
 .debug_macro   0x0000000000005176      0x18e examples/c/sapi/bare_metal/gpio/gpio_01_switches_leds/out/examples/c/sapi/bare_metal/gpio/gpio_01_switches_leds/src/switches_leds.o
 .debug_macro   0x0000000000005304       0x10 examples/c/sapi/bare_metal/gpio/gpio_01_switches_leds/out/examples/c/sapi/bare_metal/gpio/gpio_01_switches_leds/src/switches_leds.o
 .debug_macro   0x0000000000005314       0xb6 examples/c/sapi/bare_metal/gpio/gpio_01_switches_leds/out/examples/c/sapi/bare_metal/gpio/gpio_01_switches_leds/src/switches_leds.o
 .debug_macro   0x00000000000053ca       0x16 examples/c/sapi/bare_metal/gpio/gpio_01_switches_leds/out/examples/c/sapi/bare_metal/gpio/gpio_01_switches_leds/src/switches_leds.o
 .debug_macro   0x00000000000053e0      0x129 examples/c/sapi/bare_metal/gpio/gpio_01_switches_leds/out/examples/c/sapi/bare_metal/gpio/gpio_01_switches_leds/src/switches_leds.o
 .debug_macro   0x0000000000005509       0x20 examples/c/sapi/bare_metal/gpio/gpio_01_switches_leds/out/examples/c/sapi/bare_metal/gpio/gpio_01_switches_leds/src/switches_leds.o
 .debug_macro   0x0000000000005529       0xee examples/c/sapi/bare_metal/gpio/gpio_01_switches_leds/out/examples/c/sapi/bare_metal/gpio/gpio_01_switches_leds/src/switches_leds.o
 .debug_macro   0x0000000000005617       0x1c examples/c/sapi/bare_metal/gpio/gpio_01_switches_leds/out/examples/c/sapi/bare_metal/gpio/gpio_01_switches_leds/src/switches_leds.o
 .debug_macro   0x0000000000005633       0x16 examples/c/sapi/bare_metal/gpio/gpio_01_switches_leds/out/examples/c/sapi/bare_metal/gpio/gpio_01_switches_leds/src/switches_leds.o
 .debug_macro   0x0000000000005649       0x10 examples/c/sapi/bare_metal/gpio/gpio_01_switches_leds/out/examples/c/sapi/bare_metal/gpio/gpio_01_switches_leds/src/switches_leds.o
 .debug_macro   0x0000000000005659       0x10 examples/c/sapi/bare_metal/gpio/gpio_01_switches_leds/out/examples/c/sapi/bare_metal/gpio/gpio_01_switches_leds/src/switches_leds.o
 .debug_macro   0x0000000000005669       0x10 examples/c/sapi/bare_metal/gpio/gpio_01_switches_leds/out/examples/c/sapi/bare_metal/gpio/gpio_01_switches_leds/src/switches_leds.o
 .debug_macro   0x0000000000005679       0x1c examples/c/sapi/bare_metal/gpio/gpio_01_switches_leds/out/examples/c/sapi/bare_metal/gpio/gpio_01_switches_leds/src/switches_leds.o
 .debug_macro   0x0000000000005695       0x10 examples/c/sapi/bare_metal/gpio/gpio_01_switches_leds/out/examples/c/sapi/bare_metal/gpio/gpio_01_switches_leds/src/switches_leds.o
 .debug_macro   0x00000000000056a5       0x10 examples/c/sapi/bare_metal/gpio/gpio_01_switches_leds/out/examples/c/sapi/bare_metal/gpio/gpio_01_switches_leds/src/switches_leds.o
 .debug_macro   0x00000000000056b5       0x40 examples/c/sapi/bare_metal/gpio/gpio_01_switches_leds/out/examples/c/sapi/bare_metal/gpio/gpio_01_switches_leds/src/switches_leds.o
 .debug_macro   0x00000000000056f5       0x10 examples/c/sapi/bare_metal/gpio/gpio_01_switches_leds/out/examples/c/sapi/bare_metal/gpio/gpio_01_switches_leds/src/switches_leds.o
 .debug_macro   0x0000000000005705       0x10 examples/c/sapi/bare_metal/gpio/gpio_01_switches_leds/out/examples/c/sapi/bare_metal/gpio/gpio_01_switches_leds/src/switches_leds.o
 .debug_macro   0x0000000000005715       0x16 examples/c/sapi/bare_metal/gpio/gpio_01_switches_leds/out/examples/c/sapi/bare_metal/gpio/gpio_01_switches_leds/src/switches_leds.o
 .debug_macro   0x000000000000572b       0x40 examples/c/sapi/bare_metal/gpio/gpio_01_switches_leds/out/examples/c/sapi/bare_metal/gpio/gpio_01_switches_leds/src/switches_leds.o
 .debug_macro   0x000000000000576b       0x76 examples/c/sapi/bare_metal/gpio/gpio_01_switches_leds/out/examples/c/sapi/bare_metal/gpio/gpio_01_switches_leds/src/switches_leds.o
 .debug_macro   0x00000000000057e1       0x70 examples/c/sapi/bare_metal/gpio/gpio_01_switches_leds/out/examples/c/sapi/bare_metal/gpio/gpio_01_switches_leds/src/switches_leds.o
 .debug_macro   0x0000000000005851       0x10 examples/c/sapi/bare_metal/gpio/gpio_01_switches_leds/out/examples/c/sapi/bare_metal/gpio/gpio_01_switches_leds/src/switches_leds.o
 .debug_macro   0x0000000000005861       0x22 examples/c/sapi/bare_metal/gpio/gpio_01_switches_leds/out/examples/c/sapi/bare_metal/gpio/gpio_01_switches_leds/src/switches_leds.o
 .debug_macro   0x0000000000005883       0x16 examples/c/sapi/bare_metal/gpio/gpio_01_switches_leds/out/examples/c/sapi/bare_metal/gpio/gpio_01_switches_leds/src/switches_leds.o
 .debug_macro   0x0000000000005899       0x10 examples/c/sapi/bare_metal/gpio/gpio_01_switches_leds/out/examples/c/sapi/bare_metal/gpio/gpio_01_switches_leds/src/switches_leds.o
 .debug_macro   0x00000000000058a9       0x10 examples/c/sapi/bare_metal/gpio/gpio_01_switches_leds/out/examples/c/sapi/bare_metal/gpio/gpio_01_switches_leds/src/switches_leds.o
 .debug_macro   0x00000000000058b9       0x10 examples/c/sapi/bare_metal/gpio/gpio_01_switches_leds/out/examples/c/sapi/bare_metal/gpio/gpio_01_switches_leds/src/switches_leds.o
 .debug_macro   0x00000000000058c9       0x10 examples/c/sapi/bare_metal/gpio/gpio_01_switches_leds/out/examples/c/sapi/bare_metal/gpio/gpio_01_switches_leds/src/switches_leds.o
 .debug_macro   0x00000000000058d9       0x10 examples/c/sapi/bare_metal/gpio/gpio_01_switches_leds/out/examples/c/sapi/bare_metal/gpio/gpio_01_switches_leds/src/switches_leds.o
 .debug_macro   0x00000000000058e9       0x82 examples/c/sapi/bare_metal/gpio/gpio_01_switches_leds/out/examples/c/sapi/bare_metal/gpio/gpio_01_switches_leds/src/switches_leds.o
 .debug_macro   0x000000000000596b       0x10 examples/c/sapi/bare_metal/gpio/gpio_01_switches_leds/out/examples/c/sapi/bare_metal/gpio/gpio_01_switches_leds/src/switches_leds.o
 .debug_macro   0x000000000000597b       0x76 examples/c/sapi/bare_metal/gpio/gpio_01_switches_leds/out/examples/c/sapi/bare_metal/gpio/gpio_01_switches_leds/src/switches_leds.o
 .debug_macro   0x00000000000059f1       0x64 examples/c/sapi/bare_metal/gpio/gpio_01_switches_leds/out/examples/c/sapi/bare_metal/gpio/gpio_01_switches_leds/src/switches_leds.o
 .debug_macro   0x0000000000005a55      0x1ec examples/c/sapi/bare_metal/gpio/gpio_01_switches_leds/out/examples/c/sapi/bare_metal/gpio/gpio_01_switches_leds/src/switches_leds.o
 .debug_macro   0x0000000000005c41      0x43e examples/c/sapi/bare_metal/gpio/gpio_01_switches_leds/out/libs/sapi/sapi_v0.5.1/src/sapi_cyclesCounter.o
 .debug_macro   0x000000000000607f       0x10 examples/c/sapi/bare_metal/gpio/gpio_01_switches_leds/out/libs/sapi/sapi_v0.5.1/src/sapi_cyclesCounter.o
 .debug_macro   0x000000000000608f      0x497 examples/c/sapi/bare_metal/gpio/gpio_01_switches_leds/out/libs/sapi/sapi_v0.5.1/src/sapi_ultrasonic_hcsr04.o
 .debug_macro   0x0000000000006526      0x448 examples/c/sapi/bare_metal/gpio/gpio_01_switches_leds/out/libs/sapi/sapi_v0.5.1/src/sapi_gpio.o
 .debug_macro   0x000000000000696e      0x445 examples/c/sapi/bare_metal/gpio/gpio_01_switches_leds/out/libs/sapi/sapi_v0.5.1/src/sapi_tick.o
 .debug_macro   0x0000000000006db3      0x477 examples/c/sapi/bare_metal/gpio/gpio_01_switches_leds/out/libs/sapi/sapi_v0.5.1/src/sapi_uart.o
 .debug_macro   0x000000000000722a       0x16 examples/c/sapi/bare_metal/gpio/gpio_01_switches_leds/out/libs/sapi/sapi_v0.5.1/src/sapi_uart.o
 .debug_macro   0x0000000000007240       0x16 examples/c/sapi/bare_metal/gpio/gpio_01_switches_leds/out/libs/sapi/sapi_v0.5.1/src/sapi_uart.o
 .debug_macro   0x0000000000007256       0x35 examples/c/sapi/bare_metal/gpio/gpio_01_switches_leds/out/libs/sapi/sapi_v0.5.1/src/sapi_uart.o
 .debug_macro   0x000000000000728b      0x44e examples/c/sapi/bare_metal/gpio/gpio_01_switches_leds/out/libs/sapi/sapi_v0.5.1/src/sapi_timer.o
 .debug_macro   0x00000000000076d9      0x46a examples/c/sapi/bare_metal/gpio/gpio_01_switches_leds/out/libs/sapi/sapi_v0.5.1/src/sapi_board.o
 .debug_macro   0x0000000000007b43      0x439 examples/c/sapi/bare_metal/gpio/gpio_01_switches_leds/out/libs/vendor_libs/lpc_board_ciaa_edu_4337/src/board.o
 .debug_macro   0x0000000000007f7c      0x427 examples/c/sapi/bare_metal/gpio/gpio_01_switches_leds/out/libs/vendor_libs/lpc_board_ciaa_edu_4337/src/sysinit.o
 .debug_macro   0x00000000000083a3      0x427 examples/c/sapi/bare_metal/gpio/gpio_01_switches_leds/out/libs/vendor_libs/lpc_board_ciaa_edu_4337/src/board_sysinit.o
 .debug_macro   0x00000000000087ca      0x30b examples/c/sapi/bare_metal/gpio/gpio_01_switches_leds/out/libs/vendor_libs/lpc_chip_43xx/src/uart_18xx_43xx.o
 .debug_macro   0x0000000000008ad5      0x30b examples/c/sapi/bare_metal/gpio/gpio_01_switches_leds/out/libs/vendor_libs/lpc_chip_43xx/src/adc_18xx_43xx.o
 .debug_macro   0x0000000000008de0      0x30b examples/c/sapi/bare_metal/gpio/gpio_01_switches_leds/out/libs/vendor_libs/lpc_chip_43xx/src/chip_18xx_43xx.o
 .debug_macro   0x00000000000090eb      0x311 examples/c/sapi/bare_metal/gpio/gpio_01_switches_leds/out/libs/vendor_libs/lpc_chip_43xx/src/clock_18xx_43xx.o
 .debug_macro   0x00000000000093fc      0x30b examples/c/sapi/bare_metal/gpio/gpio_01_switches_leds/out/libs/vendor_libs/lpc_chip_43xx/src/sysinit_18xx_43xx.o
 .debug_macro   0x0000000000009707       0xe3 examples/c/sapi/bare_metal/gpio/gpio_01_switches_leds/out/libs/vendor_libs/lpc_chip_43xx/src/fpu_init.o
 .debug_macro   0x00000000000097ea      0x30b examples/c/sapi/bare_metal/gpio/gpio_01_switches_leds/out/libs/vendor_libs/lpc_chip_43xx/src/gpio_18xx_43xx.o
 .debug_macro   0x0000000000009af5      0x31d examples/c/sapi/bare_metal/gpio/gpio_01_switches_leds/out/libs/vendor_libs/lpc_chip_43xx/src/i2c_18xx_43xx.o
 .debug_macro   0x0000000000009e12      0x30b examples/c/sapi/bare_metal/gpio/gpio_01_switches_leds/out/libs/vendor_libs/lpc_chip_43xx/src/ssp_18xx_43xx.o
 .debug_macro   0x000000000000a11d       0x17 examples/c/sapi/bare_metal/gpio/gpio_01_switches_leds/out/libs/vendor_libs/lpc_startup/src/crp.o
 .debug_macro   0x000000000000a134      0x433 examples/c/sapi/bare_metal/gpio/gpio_01_switches_leds/out/libs/vendor_libs/lpc_startup/src/cr_startup_lpc43xx.o

.debug_line     0x0000000000000000     0xb6dd
 .debug_line    0x0000000000000000      0xa6d examples/c/sapi/bare_metal/gpio/gpio_01_switches_leds/out/examples/c/sapi/bare_metal/gpio/gpio_01_switches_leds/src/switches_leds.o
 .debug_line    0x0000000000000a6d      0x841 examples/c/sapi/bare_metal/gpio/gpio_01_switches_leds/out/libs/sapi/sapi_v0.5.1/src/sapi_cyclesCounter.o
 .debug_line    0x00000000000012ae      0x985 examples/c/sapi/bare_metal/gpio/gpio_01_switches_leds/out/libs/sapi/sapi_v0.5.1/src/sapi_ultrasonic_hcsr04.o
 .debug_line    0x0000000000001c33      0x8f7 examples/c/sapi/bare_metal/gpio/gpio_01_switches_leds/out/libs/sapi/sapi_v0.5.1/src/sapi_gpio.o
 .debug_line    0x000000000000252a      0x870 examples/c/sapi/bare_metal/gpio/gpio_01_switches_leds/out/libs/sapi/sapi_v0.5.1/src/sapi_tick.o
 .debug_line    0x0000000000002d9a      0xb8d examples/c/sapi/bare_metal/gpio/gpio_01_switches_leds/out/libs/sapi/sapi_v0.5.1/src/sapi_uart.o
 .debug_line    0x0000000000003927      0x9da examples/c/sapi/bare_metal/gpio/gpio_01_switches_leds/out/libs/sapi/sapi_v0.5.1/src/sapi_timer.o
 .debug_line    0x0000000000004301      0x853 examples/c/sapi/bare_metal/gpio/gpio_01_switches_leds/out/libs/sapi/sapi_v0.5.1/src/sapi_board.o
 .debug_line    0x0000000000004b54      0x9f3 examples/c/sapi/bare_metal/gpio/gpio_01_switches_leds/out/libs/vendor_libs/lpc_board_ciaa_edu_4337/src/board.o
 .debug_line    0x0000000000005547      0x7bb examples/c/sapi/bare_metal/gpio/gpio_01_switches_leds/out/libs/vendor_libs/lpc_board_ciaa_edu_4337/src/sysinit.o
 .debug_line    0x0000000000005d02      0x821 examples/c/sapi/bare_metal/gpio/gpio_01_switches_leds/out/libs/vendor_libs/lpc_board_ciaa_edu_4337/src/board_sysinit.o
 .debug_line    0x0000000000006523      0x9a0 examples/c/sapi/bare_metal/gpio/gpio_01_switches_leds/out/libs/vendor_libs/lpc_chip_43xx/src/uart_18xx_43xx.o
 .debug_line    0x0000000000006ec3      0x7e7 examples/c/sapi/bare_metal/gpio/gpio_01_switches_leds/out/libs/vendor_libs/lpc_chip_43xx/src/adc_18xx_43xx.o
 .debug_line    0x00000000000076aa      0x702 examples/c/sapi/bare_metal/gpio/gpio_01_switches_leds/out/libs/vendor_libs/lpc_chip_43xx/src/chip_18xx_43xx.o
 .debug_line    0x0000000000007dac      0xaf8 examples/c/sapi/bare_metal/gpio/gpio_01_switches_leds/out/libs/vendor_libs/lpc_chip_43xx/src/clock_18xx_43xx.o
 .debug_line    0x00000000000088a4      0x75f examples/c/sapi/bare_metal/gpio/gpio_01_switches_leds/out/libs/vendor_libs/lpc_chip_43xx/src/sysinit_18xx_43xx.o
 .debug_line    0x0000000000009003      0x2a0 examples/c/sapi/bare_metal/gpio/gpio_01_switches_leds/out/libs/vendor_libs/lpc_chip_43xx/src/fpu_init.o
 .debug_line    0x00000000000092a3      0x6c0 examples/c/sapi/bare_metal/gpio/gpio_01_switches_leds/out/libs/vendor_libs/lpc_chip_43xx/src/gpio_18xx_43xx.o
 .debug_line    0x0000000000009963      0x9a5 examples/c/sapi/bare_metal/gpio/gpio_01_switches_leds/out/libs/vendor_libs/lpc_chip_43xx/src/i2c_18xx_43xx.o
 .debug_line    0x000000000000a308      0xb4a examples/c/sapi/bare_metal/gpio/gpio_01_switches_leds/out/libs/vendor_libs/lpc_chip_43xx/src/ssp_18xx_43xx.o
 .debug_line    0x000000000000ae52       0x47 examples/c/sapi/bare_metal/gpio/gpio_01_switches_leds/out/libs/vendor_libs/lpc_startup/src/crp.o
 .debug_line    0x000000000000ae99      0x844 examples/c/sapi/bare_metal/gpio/gpio_01_switches_leds/out/libs/vendor_libs/lpc_startup/src/cr_startup_lpc43xx.o

.debug_str      0x0000000000000000    0x1f575
 .debug_str     0x0000000000000000    0x1ad8d examples/c/sapi/bare_metal/gpio/gpio_01_switches_leds/out/examples/c/sapi/bare_metal/gpio/gpio_01_switches_leds/src/switches_leds.o
                                      0x1b096 (size before relaxing)
 .debug_str     0x000000000001ad8d      0xae5 examples/c/sapi/bare_metal/gpio/gpio_01_switches_leds/out/libs/sapi/sapi_v0.5.1/src/sapi_cyclesCounter.o
                                      0x19955 (size before relaxing)
 .debug_str     0x000000000001b872      0x97b examples/c/sapi/bare_metal/gpio/gpio_01_switches_leds/out/libs/sapi/sapi_v0.5.1/src/sapi_ultrasonic_hcsr04.o
                                      0x1a46b (size before relaxing)
 .debug_str     0x000000000001c1ed      0x177 examples/c/sapi/bare_metal/gpio/gpio_01_switches_leds/out/libs/sapi/sapi_v0.5.1/src/sapi_gpio.o
                                      0x19c64 (size before relaxing)
 .debug_str     0x000000000001c364      0x1b2 examples/c/sapi/bare_metal/gpio/gpio_01_switches_leds/out/libs/sapi/sapi_v0.5.1/src/sapi_tick.o
                                      0x19dac (size before relaxing)
 .debug_str     0x000000000001c516      0x622 examples/c/sapi/bare_metal/gpio/gpio_01_switches_leds/out/libs/sapi/sapi_v0.5.1/src/sapi_uart.o
                                      0x1a569 (size before relaxing)
 .debug_str     0x000000000001cb38      0x310 examples/c/sapi/bare_metal/gpio/gpio_01_switches_leds/out/libs/sapi/sapi_v0.5.1/src/sapi_timer.o
                                      0x1a093 (size before relaxing)
 .debug_str     0x000000000001ce48       0x3d examples/c/sapi/bare_metal/gpio/gpio_01_switches_leds/out/libs/sapi/sapi_v0.5.1/src/sapi_board.o
                                      0x19101 (size before relaxing)
 .debug_str     0x000000000001ce85      0xb91 examples/c/sapi/bare_metal/gpio/gpio_01_switches_leds/out/libs/vendor_libs/lpc_board_ciaa_edu_4337/src/board.o
                                      0x1a5d6 (size before relaxing)
 .debug_str     0x000000000001da16       0x67 examples/c/sapi/bare_metal/gpio/gpio_01_switches_leds/out/libs/vendor_libs/lpc_board_ciaa_edu_4337/src/sysinit.o
                                      0x18e23 (size before relaxing)
 .debug_str     0x000000000001da7d      0x261 examples/c/sapi/bare_metal/gpio/gpio_01_switches_leds/out/libs/vendor_libs/lpc_board_ciaa_edu_4337/src/board_sysinit.o
                                      0x19bef (size before relaxing)
 .debug_str     0x000000000001dcde      0x375 examples/c/sapi/bare_metal/gpio/gpio_01_switches_leds/out/libs/vendor_libs/lpc_chip_43xx/src/uart_18xx_43xx.o
                                      0x16154 (size before relaxing)
 .debug_str     0x000000000001e053      0x14d examples/c/sapi/bare_metal/gpio/gpio_01_switches_leds/out/libs/vendor_libs/lpc_chip_43xx/src/adc_18xx_43xx.o
                                      0x15aef (size before relaxing)
 .debug_str     0x000000000001e1a0      0x12f examples/c/sapi/bare_metal/gpio/gpio_01_switches_leds/out/libs/vendor_libs/lpc_chip_43xx/src/chip_18xx_43xx.o
                                      0x16044 (size before relaxing)
 .debug_str     0x000000000001e2cf      0x511 examples/c/sapi/bare_metal/gpio/gpio_01_switches_leds/out/libs/vendor_libs/lpc_chip_43xx/src/clock_18xx_43xx.o
                                      0x16517 (size before relaxing)
 .debug_str     0x000000000001e7e0       0xbf examples/c/sapi/bare_metal/gpio/gpio_01_switches_leds/out/libs/vendor_libs/lpc_chip_43xx/src/sysinit_18xx_43xx.o
                                      0x15fa5 (size before relaxing)
 .debug_str     0x000000000001e89f       0xc9 examples/c/sapi/bare_metal/gpio/gpio_01_switches_leds/out/libs/vendor_libs/lpc_chip_43xx/src/fpu_init.o
                                       0x97eb (size before relaxing)
 .debug_str     0x000000000001e968       0x45 examples/c/sapi/bare_metal/gpio/gpio_01_switches_leds/out/libs/vendor_libs/lpc_chip_43xx/src/gpio_18xx_43xx.o
                                      0x152a6 (size before relaxing)
 .debug_str     0x000000000001e9ad      0x596 examples/c/sapi/bare_metal/gpio/gpio_01_switches_leds/out/libs/vendor_libs/lpc_chip_43xx/src/i2c_18xx_43xx.o
                                      0x16286 (size before relaxing)
 .debug_str     0x000000000001ef43      0x3eb examples/c/sapi/bare_metal/gpio/gpio_01_switches_leds/out/libs/vendor_libs/lpc_chip_43xx/src/ssp_18xx_43xx.o
                                      0x15ce5 (size before relaxing)
 .debug_str     0x000000000001f32e       0x46 examples/c/sapi/bare_metal/gpio/gpio_01_switches_leds/out/libs/vendor_libs/lpc_startup/src/crp.o
                                       0x2d0f (size before relaxing)
 .debug_str     0x000000000001f374      0x201 examples/c/sapi/bare_metal/gpio/gpio_01_switches_leds/out/libs/vendor_libs/lpc_startup/src/cr_startup_lpc43xx.o
                                      0x19a0f (size before relaxing)

.comment        0x0000000000000000       0x7e
 .comment       0x0000000000000000       0x7e examples/c/sapi/bare_metal/gpio/gpio_01_switches_leds/out/examples/c/sapi/bare_metal/gpio/gpio_01_switches_leds/src/switches_leds.o
                                         0x7f (size before relaxing)
 .comment       0x000000000000007e       0x7f examples/c/sapi/bare_metal/gpio/gpio_01_switches_leds/out/libs/sapi/sapi_v0.5.1/src/sapi_cyclesCounter.o
 .comment       0x000000000000007e       0x7f examples/c/sapi/bare_metal/gpio/gpio_01_switches_leds/out/libs/sapi/sapi_v0.5.1/src/sapi_ultrasonic_hcsr04.o
 .comment       0x000000000000007e       0x7f examples/c/sapi/bare_metal/gpio/gpio_01_switches_leds/out/libs/sapi/sapi_v0.5.1/src/sapi_gpio.o
 .comment       0x000000000000007e       0x7f examples/c/sapi/bare_metal/gpio/gpio_01_switches_leds/out/libs/sapi/sapi_v0.5.1/src/sapi_tick.o
 .comment       0x000000000000007e       0x7f examples/c/sapi/bare_metal/gpio/gpio_01_switches_leds/out/libs/sapi/sapi_v0.5.1/src/sapi_uart.o
 .comment       0x000000000000007e       0x7f examples/c/sapi/bare_metal/gpio/gpio_01_switches_leds/out/libs/sapi/sapi_v0.5.1/src/sapi_timer.o
 .comment       0x000000000000007e       0x7f examples/c/sapi/bare_metal/gpio/gpio_01_switches_leds/out/libs/sapi/sapi_v0.5.1/src/sapi_board.o
 .comment       0x000000000000007e       0x7f examples/c/sapi/bare_metal/gpio/gpio_01_switches_leds/out/libs/vendor_libs/lpc_board_ciaa_edu_4337/src/board.o
 .comment       0x000000000000007e       0x7f examples/c/sapi/bare_metal/gpio/gpio_01_switches_leds/out/libs/vendor_libs/lpc_board_ciaa_edu_4337/src/sysinit.o
 .comment       0x000000000000007e       0x7f examples/c/sapi/bare_metal/gpio/gpio_01_switches_leds/out/libs/vendor_libs/lpc_board_ciaa_edu_4337/src/board_sysinit.o
 .comment       0x000000000000007e       0x7f examples/c/sapi/bare_metal/gpio/gpio_01_switches_leds/out/libs/vendor_libs/lpc_chip_43xx/src/uart_18xx_43xx.o
 .comment       0x000000000000007e       0x7f examples/c/sapi/bare_metal/gpio/gpio_01_switches_leds/out/libs/vendor_libs/lpc_chip_43xx/src/adc_18xx_43xx.o
 .comment       0x000000000000007e       0x7f examples/c/sapi/bare_metal/gpio/gpio_01_switches_leds/out/libs/vendor_libs/lpc_chip_43xx/src/chip_18xx_43xx.o
 .comment       0x000000000000007e       0x7f examples/c/sapi/bare_metal/gpio/gpio_01_switches_leds/out/libs/vendor_libs/lpc_chip_43xx/src/clock_18xx_43xx.o
 .comment       0x000000000000007e       0x7f examples/c/sapi/bare_metal/gpio/gpio_01_switches_leds/out/libs/vendor_libs/lpc_chip_43xx/src/sysinit_18xx_43xx.o
 .comment       0x000000000000007e       0x7f examples/c/sapi/bare_metal/gpio/gpio_01_switches_leds/out/libs/vendor_libs/lpc_chip_43xx/src/fpu_init.o
 .comment       0x000000000000007e       0x7f examples/c/sapi/bare_metal/gpio/gpio_01_switches_leds/out/libs/vendor_libs/lpc_chip_43xx/src/gpio_18xx_43xx.o
 .comment       0x000000000000007e       0x7f examples/c/sapi/bare_metal/gpio/gpio_01_switches_leds/out/libs/vendor_libs/lpc_chip_43xx/src/i2c_18xx_43xx.o
 .comment       0x000000000000007e       0x7f examples/c/sapi/bare_metal/gpio/gpio_01_switches_leds/out/libs/vendor_libs/lpc_chip_43xx/src/ssp_18xx_43xx.o
 .comment       0x000000000000007e       0x7f examples/c/sapi/bare_metal/gpio/gpio_01_switches_leds/out/libs/vendor_libs/lpc_startup/src/crp.o
 .comment       0x000000000000007e       0x7f examples/c/sapi/bare_metal/gpio/gpio_01_switches_leds/out/libs/vendor_libs/lpc_startup/src/cr_startup_lpc43xx.o

.ARM.attributes
                0x0000000000000000       0x37
 .ARM.attributes
                0x0000000000000000       0x39 examples/c/sapi/bare_metal/gpio/gpio_01_switches_leds/out/examples/c/sapi/bare_metal/gpio/gpio_01_switches_leds/src/switches_leds.o
 .ARM.attributes
                0x0000000000000039       0x39 examples/c/sapi/bare_metal/gpio/gpio_01_switches_leds/out/libs/sapi/sapi_v0.5.1/src/sapi_cyclesCounter.o
 .ARM.attributes
                0x0000000000000072       0x39 examples/c/sapi/bare_metal/gpio/gpio_01_switches_leds/out/libs/sapi/sapi_v0.5.1/src/sapi_ultrasonic_hcsr04.o
 .ARM.attributes
                0x00000000000000ab       0x39 examples/c/sapi/bare_metal/gpio/gpio_01_switches_leds/out/libs/sapi/sapi_v0.5.1/src/sapi_gpio.o
 .ARM.attributes
                0x00000000000000e4       0x39 examples/c/sapi/bare_metal/gpio/gpio_01_switches_leds/out/libs/sapi/sapi_v0.5.1/src/sapi_tick.o
 .ARM.attributes
                0x000000000000011d       0x39 examples/c/sapi/bare_metal/gpio/gpio_01_switches_leds/out/libs/sapi/sapi_v0.5.1/src/sapi_uart.o
 .ARM.attributes
                0x0000000000000156       0x39 examples/c/sapi/bare_metal/gpio/gpio_01_switches_leds/out/libs/sapi/sapi_v0.5.1/src/sapi_timer.o
 .ARM.attributes
                0x000000000000018f       0x39 examples/c/sapi/bare_metal/gpio/gpio_01_switches_leds/out/libs/sapi/sapi_v0.5.1/src/sapi_board.o
 .ARM.attributes
                0x00000000000001c8       0x39 examples/c/sapi/bare_metal/gpio/gpio_01_switches_leds/out/libs/vendor_libs/lpc_board_ciaa_edu_4337/src/board.o
 .ARM.attributes
                0x0000000000000201       0x39 examples/c/sapi/bare_metal/gpio/gpio_01_switches_leds/out/libs/vendor_libs/lpc_board_ciaa_edu_4337/src/sysinit.o
 .ARM.attributes
                0x000000000000023a       0x39 examples/c/sapi/bare_metal/gpio/gpio_01_switches_leds/out/libs/vendor_libs/lpc_board_ciaa_edu_4337/src/board_sysinit.o
 .ARM.attributes
                0x0000000000000273       0x39 examples/c/sapi/bare_metal/gpio/gpio_01_switches_leds/out/libs/vendor_libs/lpc_chip_43xx/src/uart_18xx_43xx.o
 .ARM.attributes
                0x00000000000002ac       0x39 examples/c/sapi/bare_metal/gpio/gpio_01_switches_leds/out/libs/vendor_libs/lpc_chip_43xx/src/adc_18xx_43xx.o
 .ARM.attributes
                0x00000000000002e5       0x39 examples/c/sapi/bare_metal/gpio/gpio_01_switches_leds/out/libs/vendor_libs/lpc_chip_43xx/src/chip_18xx_43xx.o
 .ARM.attributes
                0x000000000000031e       0x39 examples/c/sapi/bare_metal/gpio/gpio_01_switches_leds/out/libs/vendor_libs/lpc_chip_43xx/src/clock_18xx_43xx.o
 .ARM.attributes
                0x0000000000000357       0x39 examples/c/sapi/bare_metal/gpio/gpio_01_switches_leds/out/libs/vendor_libs/lpc_chip_43xx/src/sysinit_18xx_43xx.o
 .ARM.attributes
                0x0000000000000390       0x39 examples/c/sapi/bare_metal/gpio/gpio_01_switches_leds/out/libs/vendor_libs/lpc_chip_43xx/src/fpu_init.o
 .ARM.attributes
                0x00000000000003c9       0x39 examples/c/sapi/bare_metal/gpio/gpio_01_switches_leds/out/libs/vendor_libs/lpc_chip_43xx/src/gpio_18xx_43xx.o
 .ARM.attributes
                0x0000000000000402       0x39 examples/c/sapi/bare_metal/gpio/gpio_01_switches_leds/out/libs/vendor_libs/lpc_chip_43xx/src/i2c_18xx_43xx.o
 .ARM.attributes
                0x000000000000043b       0x39 examples/c/sapi/bare_metal/gpio/gpio_01_switches_leds/out/libs/vendor_libs/lpc_chip_43xx/src/ssp_18xx_43xx.o
 .ARM.attributes
                0x0000000000000474       0x39 examples/c/sapi/bare_metal/gpio/gpio_01_switches_leds/out/libs/vendor_libs/lpc_startup/src/crp.o
 .ARM.attributes
                0x00000000000004ad       0x39 examples/c/sapi/bare_metal/gpio/gpio_01_switches_leds/out/libs/vendor_libs/lpc_startup/src/cr_startup_lpc43xx.o
 .ARM.attributes
                0x00000000000004e6       0x22 /tmp/.mount_CIAA_S7Q9Wj6/usr/bin/../lib/gcc/arm-none-eabi/7.2.1/thumb/v7e-m/fpv4-sp/hard/libgcc.a(_aeabi_uldivmod.o)
 .ARM.attributes
                0x0000000000000508       0x34 /tmp/.mount_CIAA_S7Q9Wj6/usr/bin/../lib/gcc/arm-none-eabi/7.2.1/thumb/v7e-m/fpv4-sp/hard/libgcc.a(_udivmoddi4.o)
 .ARM.attributes
                0x000000000000053c       0x22 /tmp/.mount_CIAA_S7Q9Wj6/usr/bin/../lib/gcc/arm-none-eabi/7.2.1/thumb/v7e-m/fpv4-sp/hard/libgcc.a(_dvmd_tls.o)
 .ARM.attributes
                0x000000000000055e       0x34 /tmp/.mount_CIAA_S7Q9Wj6/usr/bin/../lib/gcc/arm-none-eabi/7.2.1/../../../../arm-none-eabi/lib/thumb/v7e-m/fpv4-sp/hard/libc_nano.a(lib_a-init.o)
 .ARM.attributes
                0x0000000000000592       0x34 /tmp/.mount_CIAA_S7Q9Wj6/usr/bin/../lib/gcc/arm-none-eabi/7.2.1/../../../../arm-none-eabi/lib/thumb/v7e-m/fpv4-sp/hard/libc_nano.a(lib_a-memset.o)

.debug_frame    0x0000000000000000     0x1604
 .debug_frame   0x0000000000000000       0x28 examples/c/sapi/bare_metal/gpio/gpio_01_switches_leds/out/examples/c/sapi/bare_metal/gpio/gpio_01_switches_leds/src/switches_leds.o
 .debug_frame   0x0000000000000028       0x60 examples/c/sapi/bare_metal/gpio/gpio_01_switches_leds/out/libs/sapi/sapi_v0.5.1/src/sapi_cyclesCounter.o
 .debug_frame   0x0000000000000088      0x120 examples/c/sapi/bare_metal/gpio/gpio_01_switches_leds/out/libs/sapi/sapi_v0.5.1/src/sapi_ultrasonic_hcsr04.o
 .debug_frame   0x00000000000001a8       0xa4 examples/c/sapi/bare_metal/gpio/gpio_01_switches_leds/out/libs/sapi/sapi_v0.5.1/src/sapi_gpio.o
 .debug_frame   0x000000000000024c       0x84 examples/c/sapi/bare_metal/gpio/gpio_01_switches_leds/out/libs/sapi/sapi_v0.5.1/src/sapi_tick.o
 .debug_frame   0x00000000000002d0      0x22c examples/c/sapi/bare_metal/gpio/gpio_01_switches_leds/out/libs/sapi/sapi_v0.5.1/src/sapi_uart.o
 .debug_frame   0x00000000000004fc      0x134 examples/c/sapi/bare_metal/gpio/gpio_01_switches_leds/out/libs/sapi/sapi_v0.5.1/src/sapi_timer.o
 .debug_frame   0x0000000000000630       0x28 examples/c/sapi/bare_metal/gpio/gpio_01_switches_leds/out/libs/sapi/sapi_v0.5.1/src/sapi_board.o
 .debug_frame   0x0000000000000658      0x1bc examples/c/sapi/bare_metal/gpio/gpio_01_switches_leds/out/libs/vendor_libs/lpc_board_ciaa_edu_4337/src/board.o
 .debug_frame   0x0000000000000814       0x28 examples/c/sapi/bare_metal/gpio/gpio_01_switches_leds/out/libs/vendor_libs/lpc_board_ciaa_edu_4337/src/sysinit.o
 .debug_frame   0x000000000000083c       0x5c examples/c/sapi/bare_metal/gpio/gpio_01_switches_leds/out/libs/vendor_libs/lpc_board_ciaa_edu_4337/src/board_sysinit.o
 .debug_frame   0x0000000000000898      0x1f4 examples/c/sapi/bare_metal/gpio/gpio_01_switches_leds/out/libs/vendor_libs/lpc_chip_43xx/src/uart_18xx_43xx.o
 .debug_frame   0x0000000000000a8c      0x160 examples/c/sapi/bare_metal/gpio/gpio_01_switches_leds/out/libs/vendor_libs/lpc_chip_43xx/src/adc_18xx_43xx.o
 .debug_frame   0x0000000000000bec       0x70 examples/c/sapi/bare_metal/gpio/gpio_01_switches_leds/out/libs/vendor_libs/lpc_chip_43xx/src/chip_18xx_43xx.o
 .debug_frame   0x0000000000000c5c      0x318 examples/c/sapi/bare_metal/gpio/gpio_01_switches_leds/out/libs/vendor_libs/lpc_chip_43xx/src/clock_18xx_43xx.o
 .debug_frame   0x0000000000000f74       0x7c examples/c/sapi/bare_metal/gpio/gpio_01_switches_leds/out/libs/vendor_libs/lpc_chip_43xx/src/sysinit_18xx_43xx.o
 .debug_frame   0x0000000000000ff0       0x2c examples/c/sapi/bare_metal/gpio/gpio_01_switches_leds/out/libs/vendor_libs/lpc_chip_43xx/src/fpu_init.o
 .debug_frame   0x000000000000101c       0x30 examples/c/sapi/bare_metal/gpio/gpio_01_switches_leds/out/libs/vendor_libs/lpc_chip_43xx/src/gpio_18xx_43xx.o
 .debug_frame   0x000000000000104c      0x270 examples/c/sapi/bare_metal/gpio/gpio_01_switches_leds/out/libs/vendor_libs/lpc_chip_43xx/src/i2c_18xx_43xx.o
 .debug_frame   0x00000000000012bc      0x198 examples/c/sapi/bare_metal/gpio/gpio_01_switches_leds/out/libs/vendor_libs/lpc_chip_43xx/src/ssp_18xx_43xx.o
 .debug_frame   0x0000000000001454      0x104 examples/c/sapi/bare_metal/gpio/gpio_01_switches_leds/out/libs/vendor_libs/lpc_startup/src/cr_startup_lpc43xx.o
 .debug_frame   0x0000000000001558       0x2c /tmp/.mount_CIAA_S7Q9Wj6/usr/bin/../lib/gcc/arm-none-eabi/7.2.1/thumb/v7e-m/fpv4-sp/hard/libgcc.a(_aeabi_uldivmod.o)
 .debug_frame   0x0000000000001584       0x34 /tmp/.mount_CIAA_S7Q9Wj6/usr/bin/../lib/gcc/arm-none-eabi/7.2.1/thumb/v7e-m/fpv4-sp/hard/libgcc.a(_udivmoddi4.o)
 .debug_frame   0x00000000000015b8       0x2c /tmp/.mount_CIAA_S7Q9Wj6/usr/bin/../lib/gcc/arm-none-eabi/7.2.1/../../../../arm-none-eabi/lib/thumb/v7e-m/fpv4-sp/hard/libc_nano.a(lib_a-init.o)
 .debug_frame   0x00000000000015e4       0x20 /tmp/.mount_CIAA_S7Q9Wj6/usr/bin/../lib/gcc/arm-none-eabi/7.2.1/../../../../arm-none-eabi/lib/thumb/v7e-m/fpv4-sp/hard/libc_nano.a(lib_a-memset.o)

Cross Reference Table

Symbol                                            File
ADC0_IRQHandler                                   examples/c/sapi/bare_metal/gpio/gpio_01_switches_leds/out/libs/vendor_libs/lpc_startup/src/cr_startup_lpc43xx.o
ADC1_IRQHandler                                   examples/c/sapi/bare_metal/gpio/gpio_01_switches_leds/out/libs/vendor_libs/lpc_startup/src/cr_startup_lpc43xx.o
ADCHS_IRQHandler                                  examples/c/sapi/bare_metal/gpio/gpio_01_switches_leds/out/libs/vendor_libs/lpc_startup/src/cr_startup_lpc43xx.o
ATIMER_IRQHandler                                 examples/c/sapi/bare_metal/gpio/gpio_01_switches_leds/out/libs/vendor_libs/lpc_startup/src/cr_startup_lpc43xx.o
Board_ADC_ReadBegin                               examples/c/sapi/bare_metal/gpio/gpio_01_switches_leds/out/libs/vendor_libs/lpc_board_ciaa_edu_4337/src/board.o
Board_ADC_ReadEnd                                 examples/c/sapi/bare_metal/gpio/gpio_01_switches_leds/out/libs/vendor_libs/lpc_board_ciaa_edu_4337/src/board.o
Board_ADC_ReadWait                                examples/c/sapi/bare_metal/gpio/gpio_01_switches_leds/out/libs/vendor_libs/lpc_board_ciaa_edu_4337/src/board.o
Board_Debug_Init                                  examples/c/sapi/bare_metal/gpio/gpio_01_switches_leds/out/libs/vendor_libs/lpc_board_ciaa_edu_4337/src/board.o
Board_Init                                        examples/c/sapi/bare_metal/gpio/gpio_01_switches_leds/out/libs/vendor_libs/lpc_board_ciaa_edu_4337/src/board.o
                                                  examples/c/sapi/bare_metal/gpio/gpio_01_switches_leds/out/libs/vendor_libs/lpc_startup/src/cr_startup_lpc43xx.o
Board_LED_Set                                     examples/c/sapi/bare_metal/gpio/gpio_01_switches_leds/out/libs/vendor_libs/lpc_board_ciaa_edu_4337/src/board.o
Board_LED_Test                                    examples/c/sapi/bare_metal/gpio/gpio_01_switches_leds/out/libs/vendor_libs/lpc_board_ciaa_edu_4337/src/board.o
Board_LED_Toggle                                  examples/c/sapi/bare_metal/gpio/gpio_01_switches_leds/out/libs/vendor_libs/lpc_board_ciaa_edu_4337/src/board.o
Board_SetupClocking                               examples/c/sapi/bare_metal/gpio/gpio_01_switches_leds/out/libs/vendor_libs/lpc_board_ciaa_edu_4337/src/board_sysinit.o
Board_SetupMuxing                                 examples/c/sapi/bare_metal/gpio/gpio_01_switches_leds/out/libs/vendor_libs/lpc_board_ciaa_edu_4337/src/board_sysinit.o
Board_SystemInit                                  examples/c/sapi/bare_metal/gpio/gpio_01_switches_leds/out/libs/vendor_libs/lpc_board_ciaa_edu_4337/src/board_sysinit.o
                                                  examples/c/sapi/bare_metal/gpio/gpio_01_switches_leds/out/libs/vendor_libs/lpc_board_ciaa_edu_4337/src/sysinit.o
Board_TEC_GetStatus                               examples/c/sapi/bare_metal/gpio/gpio_01_switches_leds/out/libs/vendor_libs/lpc_board_ciaa_edu_4337/src/board.o
Board_UARTGetChar                                 examples/c/sapi/bare_metal/gpio/gpio_01_switches_leds/out/libs/vendor_libs/lpc_board_ciaa_edu_4337/src/board.o
                                                  examples/c/sapi/bare_metal/gpio/gpio_01_switches_leds/out/libs/vendor_libs/lpc_board_ciaa_edu_4337/src/system.o
Board_UARTPutChar                                 examples/c/sapi/bare_metal/gpio/gpio_01_switches_leds/out/libs/vendor_libs/lpc_board_ciaa_edu_4337/src/board.o
                                                  examples/c/sapi/bare_metal/gpio/gpio_01_switches_leds/out/libs/vendor_libs/lpc_board_ciaa_edu_4337/src/system.o
Board_UARTPutSTR                                  examples/c/sapi/bare_metal/gpio/gpio_01_switches_leds/out/libs/vendor_libs/lpc_board_ciaa_edu_4337/src/board.o
BusFault_Handler                                  examples/c/sapi/bare_metal/gpio/gpio_01_switches_leds/out/libs/vendor_libs/lpc_startup/src/cr_startup_lpc43xx.o
CAN0_IRQHandler                                   examples/c/sapi/bare_metal/gpio/gpio_01_switches_leds/out/libs/vendor_libs/lpc_startup/src/cr_startup_lpc43xx.o
CAN1_IRQHandler                                   examples/c/sapi/bare_metal/gpio/gpio_01_switches_leds/out/libs/vendor_libs/lpc_startup/src/cr_startup_lpc43xx.o
CRP_WORD                                          examples/c/sapi/bare_metal/gpio/gpio_01_switches_leds/out/libs/vendor_libs/lpc_startup/src/crp.o
Chip_ADC_DeInit                                   examples/c/sapi/bare_metal/gpio/gpio_01_switches_leds/out/libs/vendor_libs/lpc_chip_43xx/src/adc_18xx_43xx.o
                                                  examples/c/sapi/bare_metal/gpio/gpio_01_switches_leds/out/libs/sapi/sapi_v0.5.1/src/sapi_adc.o
Chip_ADC_EnableChannel                            examples/c/sapi/bare_metal/gpio/gpio_01_switches_leds/out/libs/vendor_libs/lpc_chip_43xx/src/adc_18xx_43xx.o
                                                  examples/c/sapi/bare_metal/gpio/gpio_01_switches_leds/out/libs/vendor_libs/lpc_board_ciaa_edu_4337/src/board.o
                                                  examples/c/sapi/bare_metal/gpio/gpio_01_switches_leds/out/libs/sapi/sapi_v0.5.1/src/sapi_adc.o
Chip_ADC_Init                                     examples/c/sapi/bare_metal/gpio/gpio_01_switches_leds/out/libs/vendor_libs/lpc_chip_43xx/src/adc_18xx_43xx.o
                                                  examples/c/sapi/bare_metal/gpio/gpio_01_switches_leds/out/libs/vendor_libs/lpc_board_ciaa_edu_4337/src/board.o
                                                  examples/c/sapi/bare_metal/gpio/gpio_01_switches_leds/out/libs/sapi/sapi_v0.5.1/src/sapi_adc.o
Chip_ADC_Int_SetChannelCmd                        examples/c/sapi/bare_metal/gpio/gpio_01_switches_leds/out/libs/vendor_libs/lpc_chip_43xx/src/adc_18xx_43xx.o
                                                  examples/c/sapi/bare_metal/gpio/gpio_01_switches_leds/out/libs/sapi/sapi_v0.5.1/src/sapi_adc.o
Chip_ADC_ReadByte                                 examples/c/sapi/bare_metal/gpio/gpio_01_switches_leds/out/libs/vendor_libs/lpc_chip_43xx/src/adc_18xx_43xx.o
Chip_ADC_ReadStatus                               examples/c/sapi/bare_metal/gpio/gpio_01_switches_leds/out/libs/vendor_libs/lpc_chip_43xx/src/adc_18xx_43xx.o
                                                  examples/c/sapi/bare_metal/gpio/gpio_01_switches_leds/out/libs/vendor_libs/lpc_board_ciaa_edu_4337/src/board.o
                                                  examples/c/sapi/bare_metal/gpio/gpio_01_switches_leds/out/libs/sapi/sapi_v0.5.1/src/sapi_adc.o
Chip_ADC_ReadValue                                examples/c/sapi/bare_metal/gpio/gpio_01_switches_leds/out/libs/vendor_libs/lpc_chip_43xx/src/adc_18xx_43xx.o
                                                  examples/c/sapi/bare_metal/gpio/gpio_01_switches_leds/out/libs/vendor_libs/lpc_board_ciaa_edu_4337/src/board.o
                                                  examples/c/sapi/bare_metal/gpio/gpio_01_switches_leds/out/libs/sapi/sapi_v0.5.1/src/sapi_adc.o
Chip_ADC_SetBurstCmd                              examples/c/sapi/bare_metal/gpio/gpio_01_switches_leds/out/libs/vendor_libs/lpc_chip_43xx/src/adc_18xx_43xx.o
                                                  examples/c/sapi/bare_metal/gpio/gpio_01_switches_leds/out/libs/vendor_libs/lpc_board_ciaa_edu_4337/src/board.o
                                                  examples/c/sapi/bare_metal/gpio/gpio_01_switches_leds/out/libs/sapi/sapi_v0.5.1/src/sapi_adc.o
Chip_ADC_SetResolution                            examples/c/sapi/bare_metal/gpio/gpio_01_switches_leds/out/libs/vendor_libs/lpc_chip_43xx/src/adc_18xx_43xx.o
                                                  examples/c/sapi/bare_metal/gpio/gpio_01_switches_leds/out/libs/vendor_libs/lpc_board_ciaa_edu_4337/src/board.o
Chip_ADC_SetSampleRate                            examples/c/sapi/bare_metal/gpio/gpio_01_switches_leds/out/libs/vendor_libs/lpc_chip_43xx/src/adc_18xx_43xx.o
                                                  examples/c/sapi/bare_metal/gpio/gpio_01_switches_leds/out/libs/vendor_libs/lpc_board_ciaa_edu_4337/src/board.o
                                                  examples/c/sapi/bare_metal/gpio/gpio_01_switches_leds/out/libs/sapi/sapi_v0.5.1/src/sapi_adc.o
Chip_ADC_SetStartMode                             examples/c/sapi/bare_metal/gpio/gpio_01_switches_leds/out/libs/vendor_libs/lpc_chip_43xx/src/adc_18xx_43xx.o
                                                  examples/c/sapi/bare_metal/gpio/gpio_01_switches_leds/out/libs/vendor_libs/lpc_board_ciaa_edu_4337/src/board.o
                                                  examples/c/sapi/bare_metal/gpio/gpio_01_switches_leds/out/libs/sapi/sapi_v0.5.1/src/sapi_adc.o
Chip_AES_Config_DMA                               examples/c/sapi/bare_metal/gpio/gpio_01_switches_leds/out/libs/vendor_libs/lpc_chip_43xx/src/aes_18xx_43xx.o
Chip_AES_GetStatusDMA                             examples/c/sapi/bare_metal/gpio/gpio_01_switches_leds/out/libs/vendor_libs/lpc_chip_43xx/src/aes_18xx_43xx.o
Chip_AES_Init                                     examples/c/sapi/bare_metal/gpio/gpio_01_switches_leds/out/libs/vendor_libs/lpc_chip_43xx/src/aes_18xx_43xx.o
Chip_AES_LoadIV_IC                                examples/c/sapi/bare_metal/gpio/gpio_01_switches_leds/out/libs/vendor_libs/lpc_chip_43xx/src/aes_18xx_43xx.o
Chip_AES_LoadIV_SW                                examples/c/sapi/bare_metal/gpio/gpio_01_switches_leds/out/libs/vendor_libs/lpc_chip_43xx/src/aes_18xx_43xx.o
Chip_AES_LoadKey                                  examples/c/sapi/bare_metal/gpio/gpio_01_switches_leds/out/libs/vendor_libs/lpc_chip_43xx/src/aes_18xx_43xx.o
Chip_AES_LoadKeyRNG                               examples/c/sapi/bare_metal/gpio/gpio_01_switches_leds/out/libs/vendor_libs/lpc_chip_43xx/src/aes_18xx_43xx.o
Chip_AES_LoadKeySW                                examples/c/sapi/bare_metal/gpio/gpio_01_switches_leds/out/libs/vendor_libs/lpc_chip_43xx/src/aes_18xx_43xx.o
Chip_AES_Operate                                  examples/c/sapi/bare_metal/gpio/gpio_01_switches_leds/out/libs/vendor_libs/lpc_chip_43xx/src/aes_18xx_43xx.o
Chip_AES_OperateDMA                               examples/c/sapi/bare_metal/gpio/gpio_01_switches_leds/out/libs/vendor_libs/lpc_chip_43xx/src/aes_18xx_43xx.o
Chip_AES_ProgramKey                               examples/c/sapi/bare_metal/gpio/gpio_01_switches_leds/out/libs/vendor_libs/lpc_chip_43xx/src/aes_18xx_43xx.o
Chip_AES_SetMode                                  examples/c/sapi/bare_metal/gpio/gpio_01_switches_leds/out/libs/vendor_libs/lpc_chip_43xx/src/aes_18xx_43xx.o
Chip_ATIMER_DeInit                                examples/c/sapi/bare_metal/gpio/gpio_01_switches_leds/out/libs/vendor_libs/lpc_chip_43xx/src/atimer_18xx_43xx.o
Chip_ATIMER_Init                                  examples/c/sapi/bare_metal/gpio/gpio_01_switches_leds/out/libs/vendor_libs/lpc_chip_43xx/src/atimer_18xx_43xx.o
Chip_CCAN_AddReceiveID                            examples/c/sapi/bare_metal/gpio/gpio_01_switches_leds/out/libs/vendor_libs/lpc_chip_43xx/src/ccan_18xx_43xx.o
Chip_CCAN_ClearStatus                             examples/c/sapi/bare_metal/gpio/gpio_01_switches_leds/out/libs/vendor_libs/lpc_chip_43xx/src/ccan_18xx_43xx.o
Chip_CCAN_DeInit                                  examples/c/sapi/bare_metal/gpio/gpio_01_switches_leds/out/libs/vendor_libs/lpc_chip_43xx/src/ccan_18xx_43xx.o
Chip_CCAN_DeleteReceiveID                         examples/c/sapi/bare_metal/gpio/gpio_01_switches_leds/out/libs/vendor_libs/lpc_chip_43xx/src/ccan_18xx_43xx.o
Chip_CCAN_GetMsgObject                            examples/c/sapi/bare_metal/gpio/gpio_01_switches_leds/out/libs/vendor_libs/lpc_chip_43xx/src/ccan_18xx_43xx.o
Chip_CCAN_Init                                    examples/c/sapi/bare_metal/gpio/gpio_01_switches_leds/out/libs/vendor_libs/lpc_chip_43xx/src/ccan_18xx_43xx.o
Chip_CCAN_Send                                    examples/c/sapi/bare_metal/gpio/gpio_01_switches_leds/out/libs/vendor_libs/lpc_chip_43xx/src/ccan_18xx_43xx.o
Chip_CCAN_SetBitRate                              examples/c/sapi/bare_metal/gpio/gpio_01_switches_leds/out/libs/vendor_libs/lpc_chip_43xx/src/ccan_18xx_43xx.o
Chip_CCAN_SetMsgObject                            examples/c/sapi/bare_metal/gpio/gpio_01_switches_leds/out/libs/vendor_libs/lpc_chip_43xx/src/ccan_18xx_43xx.o
Chip_CCAN_SetValidMsg                             examples/c/sapi/bare_metal/gpio/gpio_01_switches_leds/out/libs/vendor_libs/lpc_chip_43xx/src/ccan_18xx_43xx.o
Chip_CCAN_TransferMsgObject                       examples/c/sapi/bare_metal/gpio/gpio_01_switches_leds/out/libs/vendor_libs/lpc_chip_43xx/src/ccan_18xx_43xx.o
Chip_Clock_CalcMainPLLValue                       examples/c/sapi/bare_metal/gpio/gpio_01_switches_leds/out/libs/vendor_libs/lpc_chip_43xx/src/clock_18xx_43xx.o
                                                  examples/c/sapi/bare_metal/gpio/gpio_01_switches_leds/out/libs/vendor_libs/lpc_chip_43xx/src/sysinit_18xx_43xx.o
Chip_Clock_ClearPowerDown                         examples/c/sapi/bare_metal/gpio/gpio_01_switches_leds/out/libs/vendor_libs/lpc_chip_43xx/src/clock_18xx_43xx.o
Chip_Clock_Disable                                examples/c/sapi/bare_metal/gpio/gpio_01_switches_leds/out/libs/vendor_libs/lpc_chip_43xx/src/clock_18xx_43xx.o
                                                  examples/c/sapi/bare_metal/gpio/gpio_01_switches_leds/out/libs/vendor_libs/lpc_chip_43xx/src/ssp_18xx_43xx.o
                                                  examples/c/sapi/bare_metal/gpio/gpio_01_switches_leds/out/libs/vendor_libs/lpc_chip_43xx/src/enet_18xx_43xx.o
                                                  examples/c/sapi/bare_metal/gpio/gpio_01_switches_leds/out/libs/vendor_libs/lpc_chip_43xx/src/gpdma_18xx_43xx.o
                                                  examples/c/sapi/bare_metal/gpio/gpio_01_switches_leds/out/libs/vendor_libs/lpc_chip_43xx/src/i2c_18xx_43xx.o
                                                  examples/c/sapi/bare_metal/gpio/gpio_01_switches_leds/out/libs/vendor_libs/lpc_chip_43xx/src/spi_18xx_43xx.o
                                                  examples/c/sapi/bare_metal/gpio/gpio_01_switches_leds/out/libs/vendor_libs/lpc_chip_43xx/src/sct_18xx_43xx.o
                                                  examples/c/sapi/bare_metal/gpio/gpio_01_switches_leds/out/libs/vendor_libs/lpc_chip_43xx/src/dac_18xx_43xx.o
                                                  examples/c/sapi/bare_metal/gpio/gpio_01_switches_leds/out/libs/vendor_libs/lpc_chip_43xx/src/i2cm_18xx_43xx.o
                                                  examples/c/sapi/bare_metal/gpio/gpio_01_switches_leds/out/libs/vendor_libs/lpc_chip_43xx/src/timer_18xx_43xx.o
                                                  examples/c/sapi/bare_metal/gpio/gpio_01_switches_leds/out/libs/vendor_libs/lpc_chip_43xx/src/sdif_18xx_43xx.o
                                                  examples/c/sapi/bare_metal/gpio/gpio_01_switches_leds/out/libs/vendor_libs/lpc_chip_43xx/src/adc_18xx_43xx.o
                                                  examples/c/sapi/bare_metal/gpio/gpio_01_switches_leds/out/libs/vendor_libs/lpc_chip_43xx/src/uart_18xx_43xx.o
                                                  examples/c/sapi/bare_metal/gpio/gpio_01_switches_leds/out/libs/vendor_libs/lpc_chip_43xx/src/lcd_18xx_43xx.o
                                                  examples/c/sapi/bare_metal/gpio/gpio_01_switches_leds/out/libs/vendor_libs/lpc_chip_43xx/src/i2s_18xx_43xx.o
                                                  examples/c/sapi/bare_metal/gpio/gpio_01_switches_leds/out/libs/vendor_libs/lpc_chip_43xx/src/ritimer_18xx_43xx.o
                                                  examples/c/sapi/bare_metal/gpio/gpio_01_switches_leds/out/libs/vendor_libs/lpc_chip_43xx/src/ccan_18xx_43xx.o
Chip_Clock_DisableBaseClock                       examples/c/sapi/bare_metal/gpio/gpio_01_switches_leds/out/libs/vendor_libs/lpc_chip_43xx/src/clock_18xx_43xx.o
Chip_Clock_DisableCrystal                         examples/c/sapi/bare_metal/gpio/gpio_01_switches_leds/out/libs/vendor_libs/lpc_chip_43xx/src/clock_18xx_43xx.o
Chip_Clock_DisablePLL                             examples/c/sapi/bare_metal/gpio/gpio_01_switches_leds/out/libs/vendor_libs/lpc_chip_43xx/src/clock_18xx_43xx.o
Chip_Clock_Enable                                 examples/c/sapi/bare_metal/gpio/gpio_01_switches_leds/out/libs/vendor_libs/lpc_chip_43xx/src/clock_18xx_43xx.o
                                                  examples/c/sapi/bare_metal/gpio/gpio_01_switches_leds/out/libs/vendor_libs/lpc_chip_43xx/src/ssp_18xx_43xx.o
                                                  examples/c/sapi/bare_metal/gpio/gpio_01_switches_leds/out/libs/vendor_libs/lpc_chip_43xx/src/i2c_18xx_43xx.o
                                                  examples/c/sapi/bare_metal/gpio/gpio_01_switches_leds/out/libs/vendor_libs/lpc_chip_43xx/src/spi_18xx_43xx.o
                                                  examples/c/sapi/bare_metal/gpio/gpio_01_switches_leds/out/libs/vendor_libs/lpc_chip_43xx/src/i2cm_18xx_43xx.o
                                                  examples/c/sapi/bare_metal/gpio/gpio_01_switches_leds/out/libs/vendor_libs/lpc_chip_43xx/src/timer_18xx_43xx.o
                                                  examples/c/sapi/bare_metal/gpio/gpio_01_switches_leds/out/libs/vendor_libs/lpc_chip_43xx/src/i2s_18xx_43xx.o
Chip_Clock_EnableBaseClock                        examples/c/sapi/bare_metal/gpio/gpio_01_switches_leds/out/libs/vendor_libs/lpc_chip_43xx/src/clock_18xx_43xx.o
                                                  examples/c/sapi/bare_metal/gpio/gpio_01_switches_leds/out/libs/vendor_libs/lpc_chip_43xx/src/chip_18xx_43xx.o
Chip_Clock_EnableCrystal                          examples/c/sapi/bare_metal/gpio/gpio_01_switches_leds/out/libs/vendor_libs/lpc_chip_43xx/src/clock_18xx_43xx.o
                                                  examples/c/sapi/bare_metal/gpio/gpio_01_switches_leds/out/libs/vendor_libs/lpc_chip_43xx/src/sysinit_18xx_43xx.o
Chip_Clock_EnableOpts                             examples/c/sapi/bare_metal/gpio/gpio_01_switches_leds/out/libs/vendor_libs/lpc_chip_43xx/src/clock_18xx_43xx.o
                                                  examples/c/sapi/bare_metal/gpio/gpio_01_switches_leds/out/libs/vendor_libs/lpc_chip_43xx/src/enet_18xx_43xx.o
                                                  examples/c/sapi/bare_metal/gpio/gpio_01_switches_leds/out/libs/vendor_libs/lpc_chip_43xx/src/gpdma_18xx_43xx.o
                                                  examples/c/sapi/bare_metal/gpio/gpio_01_switches_leds/out/libs/vendor_libs/lpc_chip_43xx/src/sct_18xx_43xx.o
                                                  examples/c/sapi/bare_metal/gpio/gpio_01_switches_leds/out/libs/vendor_libs/lpc_chip_43xx/src/dac_18xx_43xx.o
                                                  examples/c/sapi/bare_metal/gpio/gpio_01_switches_leds/out/libs/vendor_libs/lpc_chip_43xx/src/sdif_18xx_43xx.o
                                                  examples/c/sapi/bare_metal/gpio/gpio_01_switches_leds/out/libs/vendor_libs/lpc_chip_43xx/src/chip_18xx_43xx.o
                                                  examples/c/sapi/bare_metal/gpio/gpio_01_switches_leds/out/libs/vendor_libs/lpc_chip_43xx/src/adc_18xx_43xx.o
                                                  examples/c/sapi/bare_metal/gpio/gpio_01_switches_leds/out/libs/vendor_libs/lpc_chip_43xx/src/uart_18xx_43xx.o
                                                  examples/c/sapi/bare_metal/gpio/gpio_01_switches_leds/out/libs/vendor_libs/lpc_chip_43xx/src/lcd_18xx_43xx.o
                                                  examples/c/sapi/bare_metal/gpio/gpio_01_switches_leds/out/libs/vendor_libs/lpc_chip_43xx/src/ritimer_18xx_43xx.o
                                                  examples/c/sapi/bare_metal/gpio/gpio_01_switches_leds/out/libs/vendor_libs/lpc_chip_43xx/src/ccan_18xx_43xx.o
Chip_Clock_EnablePLL                              examples/c/sapi/bare_metal/gpio/gpio_01_switches_leds/out/libs/vendor_libs/lpc_chip_43xx/src/clock_18xx_43xx.o
                                                  examples/c/sapi/bare_metal/gpio/gpio_01_switches_leds/out/libs/vendor_libs/lpc_chip_43xx/src/chip_18xx_43xx.o
Chip_Clock_GetBaseClock                           examples/c/sapi/bare_metal/gpio/gpio_01_switches_leds/out/libs/vendor_libs/lpc_chip_43xx/src/clock_18xx_43xx.o
Chip_Clock_GetBaseClockOpts                       examples/c/sapi/bare_metal/gpio/gpio_01_switches_leds/out/libs/vendor_libs/lpc_chip_43xx/src/clock_18xx_43xx.o
Chip_Clock_GetBaseClocktHz                        examples/c/sapi/bare_metal/gpio/gpio_01_switches_leds/out/libs/vendor_libs/lpc_chip_43xx/src/clock_18xx_43xx.o
                                                  examples/c/sapi/bare_metal/gpio/gpio_01_switches_leds/out/libs/vendor_libs/lpc_chip_43xx/src/sdio_18xx_43xx.o
                                                  examples/c/sapi/bare_metal/gpio/gpio_01_switches_leds/out/libs/vendor_libs/lpc_chip_43xx/src/sdmmc_18xx_43xx.o
Chip_Clock_GetClockInputHz                        examples/c/sapi/bare_metal/gpio/gpio_01_switches_leds/out/libs/vendor_libs/lpc_chip_43xx/src/clock_18xx_43xx.o
                                                  examples/c/sapi/bare_metal/gpio/gpio_01_switches_leds/out/libs/vendor_libs/lpc_chip_43xx/src/chip_18xx_43xx.o
Chip_Clock_GetDividerDivisor                      examples/c/sapi/bare_metal/gpio/gpio_01_switches_leds/out/libs/vendor_libs/lpc_chip_43xx/src/clock_18xx_43xx.o
Chip_Clock_GetDividerSource                       examples/c/sapi/bare_metal/gpio/gpio_01_switches_leds/out/libs/vendor_libs/lpc_chip_43xx/src/clock_18xx_43xx.o
Chip_Clock_GetEMCRate                             examples/c/sapi/bare_metal/gpio/gpio_01_switches_leds/out/libs/vendor_libs/lpc_chip_43xx/src/clock_18xx_43xx.o
                                                  examples/c/sapi/bare_metal/gpio/gpio_01_switches_leds/out/libs/vendor_libs/lpc_chip_43xx/src/emc_18xx_43xx.o
Chip_Clock_GetMainPLLHz                           examples/c/sapi/bare_metal/gpio/gpio_01_switches_leds/out/libs/vendor_libs/lpc_chip_43xx/src/clock_18xx_43xx.o
Chip_Clock_GetPLLStatus                           examples/c/sapi/bare_metal/gpio/gpio_01_switches_leds/out/libs/vendor_libs/lpc_chip_43xx/src/clock_18xx_43xx.o
                                                  examples/c/sapi/bare_metal/gpio/gpio_01_switches_leds/out/libs/vendor_libs/lpc_chip_43xx/src/chip_18xx_43xx.o
Chip_Clock_GetRate                                examples/c/sapi/bare_metal/gpio/gpio_01_switches_leds/out/libs/vendor_libs/lpc_chip_43xx/src/clock_18xx_43xx.o
                                                  examples/c/sapi/bare_metal/gpio/gpio_01_switches_leds/out/libs/vendor_libs/lpc_chip_43xx/src/ssp_18xx_43xx.o
                                                  examples/c/sapi/bare_metal/gpio/gpio_01_switches_leds/out/libs/vendor_libs/lpc_chip_43xx/src/sct_pwm_18xx_43xx.o
                                                  examples/c/sapi/bare_metal/gpio/gpio_01_switches_leds/out/libs/vendor_libs/lpc_chip_43xx/src/i2c_18xx_43xx.o
                                                  examples/c/sapi/bare_metal/gpio/gpio_01_switches_leds/out/libs/vendor_libs/lpc_chip_43xx/src/spi_18xx_43xx.o
                                                  examples/c/sapi/bare_metal/gpio/gpio_01_switches_leds/out/libs/vendor_libs/lpc_chip_43xx/src/eeprom_18xx_43xx.o
                                                  examples/c/sapi/bare_metal/gpio/gpio_01_switches_leds/out/libs/vendor_libs/lpc_chip_43xx/src/i2cm_18xx_43xx.o
                                                  examples/c/sapi/bare_metal/gpio/gpio_01_switches_leds/out/libs/vendor_libs/lpc_chip_43xx/src/stopwatch_18xx_43xx.o
                                                  examples/c/sapi/bare_metal/gpio/gpio_01_switches_leds/out/libs/vendor_libs/lpc_chip_43xx/src/chip_18xx_43xx.o
                                                  examples/c/sapi/bare_metal/gpio/gpio_01_switches_leds/out/libs/vendor_libs/lpc_chip_43xx/src/adc_18xx_43xx.o
                                                  examples/c/sapi/bare_metal/gpio/gpio_01_switches_leds/out/libs/vendor_libs/lpc_chip_43xx/src/uart_18xx_43xx.o
                                                  examples/c/sapi/bare_metal/gpio/gpio_01_switches_leds/out/libs/vendor_libs/lpc_chip_43xx/src/i2s_18xx_43xx.o
                                                  examples/c/sapi/bare_metal/gpio/gpio_01_switches_leds/out/libs/vendor_libs/lpc_chip_43xx/src/ritimer_18xx_43xx.o
                                                  examples/c/sapi/bare_metal/gpio/gpio_01_switches_leds/out/libs/vendor_libs/lpc_chip_43xx/src/ccan_18xx_43xx.o
Chip_Clock_IsBaseClockEnabled                     examples/c/sapi/bare_metal/gpio/gpio_01_switches_leds/out/libs/vendor_libs/lpc_chip_43xx/src/clock_18xx_43xx.o
Chip_Clock_RTCEnable                              examples/c/sapi/bare_metal/gpio/gpio_01_switches_leds/out/libs/vendor_libs/lpc_chip_43xx/src/clock_18xx_43xx.o
                                                  examples/c/sapi/bare_metal/gpio/gpio_01_switches_leds/out/libs/vendor_libs/lpc_chip_43xx/src/rtc_18xx_43xx.o
Chip_Clock_SetBaseClock                           examples/c/sapi/bare_metal/gpio/gpio_01_switches_leds/out/libs/vendor_libs/lpc_chip_43xx/src/clock_18xx_43xx.o
                                                  examples/c/sapi/bare_metal/gpio/gpio_01_switches_leds/out/libs/vendor_libs/lpc_chip_43xx/src/sysinit_18xx_43xx.o
                                                  examples/c/sapi/bare_metal/gpio/gpio_01_switches_leds/out/libs/vendor_libs/lpc_chip_43xx/src/chip_18xx_43xx.o
                                                  examples/c/sapi/bare_metal/gpio/gpio_01_switches_leds/out/libs/vendor_libs/lpc_board_ciaa_edu_4337/src/board_sysinit.o
Chip_Clock_SetDivider                             examples/c/sapi/bare_metal/gpio/gpio_01_switches_leds/out/libs/vendor_libs/lpc_chip_43xx/src/clock_18xx_43xx.o
                                                  examples/c/sapi/bare_metal/gpio/gpio_01_switches_leds/out/libs/vendor_libs/lpc_chip_43xx/src/chip_18xx_43xx.o
Chip_Clock_SetupMainPLLHz                         examples/c/sapi/bare_metal/gpio/gpio_01_switches_leds/out/libs/vendor_libs/lpc_chip_43xx/src/clock_18xx_43xx.o
Chip_Clock_SetupMainPLLMult                       examples/c/sapi/bare_metal/gpio/gpio_01_switches_leds/out/libs/vendor_libs/lpc_chip_43xx/src/clock_18xx_43xx.o
Chip_Clock_SetupPLL                               examples/c/sapi/bare_metal/gpio/gpio_01_switches_leds/out/libs/vendor_libs/lpc_chip_43xx/src/clock_18xx_43xx.o
                                                  examples/c/sapi/bare_metal/gpio/gpio_01_switches_leds/out/libs/vendor_libs/lpc_chip_43xx/src/chip_18xx_43xx.o
Chip_Clock_StartPowerDown                         examples/c/sapi/bare_metal/gpio/gpio_01_switches_leds/out/libs/vendor_libs/lpc_chip_43xx/src/clock_18xx_43xx.o
Chip_DAC_DeInit                                   examples/c/sapi/bare_metal/gpio/gpio_01_switches_leds/out/libs/vendor_libs/lpc_chip_43xx/src/dac_18xx_43xx.o
                                                  examples/c/sapi/bare_metal/gpio/gpio_01_switches_leds/out/libs/sapi/sapi_v0.5.1/src/sapi_dac.o
Chip_DAC_Init                                     examples/c/sapi/bare_metal/gpio/gpio_01_switches_leds/out/libs/vendor_libs/lpc_chip_43xx/src/dac_18xx_43xx.o
                                                  examples/c/sapi/bare_metal/gpio/gpio_01_switches_leds/out/libs/sapi/sapi_v0.5.1/src/sapi_dac.o
Chip_DAC_SetBias                                  examples/c/sapi/bare_metal/gpio/gpio_01_switches_leds/out/libs/vendor_libs/lpc_chip_43xx/src/dac_18xx_43xx.o
Chip_DAC_UpdateValue                              examples/c/sapi/bare_metal/gpio/gpio_01_switches_leds/out/libs/vendor_libs/lpc_chip_43xx/src/dac_18xx_43xx.o
                                                  examples/c/sapi/bare_metal/gpio/gpio_01_switches_leds/out/libs/sapi/sapi_v0.5.1/src/sapi_dac.o
Chip_EEPROM_EraseProgramPage                      examples/c/sapi/bare_metal/gpio/gpio_01_switches_leds/out/libs/vendor_libs/lpc_chip_43xx/src/eeprom_18xx_43xx.o
Chip_EEPROM_Init                                  examples/c/sapi/bare_metal/gpio/gpio_01_switches_leds/out/libs/vendor_libs/lpc_chip_43xx/src/eeprom_18xx_43xx.o
Chip_EEPROM_WaitForIntStatus                      examples/c/sapi/bare_metal/gpio/gpio_01_switches_leds/out/libs/vendor_libs/lpc_chip_43xx/src/eeprom_18xx_43xx.o
Chip_EMC_Dynamic_Enable                           examples/c/sapi/bare_metal/gpio/gpio_01_switches_leds/out/libs/vendor_libs/lpc_chip_43xx/src/emc_18xx_43xx.o
Chip_EMC_Dynamic_Init                             examples/c/sapi/bare_metal/gpio/gpio_01_switches_leds/out/libs/vendor_libs/lpc_chip_43xx/src/emc_18xx_43xx.o
Chip_EMC_Enable                                   examples/c/sapi/bare_metal/gpio/gpio_01_switches_leds/out/libs/vendor_libs/lpc_chip_43xx/src/emc_18xx_43xx.o
Chip_EMC_Init                                     examples/c/sapi/bare_metal/gpio/gpio_01_switches_leds/out/libs/vendor_libs/lpc_chip_43xx/src/emc_18xx_43xx.o
Chip_EMC_LowPowerMode                             examples/c/sapi/bare_metal/gpio/gpio_01_switches_leds/out/libs/vendor_libs/lpc_chip_43xx/src/emc_18xx_43xx.o
Chip_EMC_Mirror                                   examples/c/sapi/bare_metal/gpio/gpio_01_switches_leds/out/libs/vendor_libs/lpc_chip_43xx/src/emc_18xx_43xx.o
Chip_EMC_Static_Init                              examples/c/sapi/bare_metal/gpio/gpio_01_switches_leds/out/libs/vendor_libs/lpc_chip_43xx/src/emc_18xx_43xx.o
Chip_ENET_DeInit                                  examples/c/sapi/bare_metal/gpio/gpio_01_switches_leds/out/libs/vendor_libs/lpc_chip_43xx/src/enet_18xx_43xx.o
Chip_ENET_Init                                    examples/c/sapi/bare_metal/gpio/gpio_01_switches_leds/out/libs/vendor_libs/lpc_chip_43xx/src/enet_18xx_43xx.o
Chip_ENET_SetDuplex                               examples/c/sapi/bare_metal/gpio/gpio_01_switches_leds/out/libs/vendor_libs/lpc_chip_43xx/src/enet_18xx_43xx.o
Chip_ENET_SetSpeed                                examples/c/sapi/bare_metal/gpio/gpio_01_switches_leds/out/libs/vendor_libs/lpc_chip_43xx/src/enet_18xx_43xx.o
Chip_ENET_SetupMII                                examples/c/sapi/bare_metal/gpio/gpio_01_switches_leds/out/libs/vendor_libs/lpc_chip_43xx/src/enet_18xx_43xx.o
Chip_ENET_StartMIIRead                            examples/c/sapi/bare_metal/gpio/gpio_01_switches_leds/out/libs/vendor_libs/lpc_chip_43xx/src/enet_18xx_43xx.o
Chip_ENET_StartMIIWrite                           examples/c/sapi/bare_metal/gpio/gpio_01_switches_leds/out/libs/vendor_libs/lpc_chip_43xx/src/enet_18xx_43xx.o
Chip_EVRT_ConfigIntSrcActiveType                  examples/c/sapi/bare_metal/gpio/gpio_01_switches_leds/out/libs/vendor_libs/lpc_chip_43xx/src/evrt_18xx_43xx.o
Chip_EVRT_Init                                    examples/c/sapi/bare_metal/gpio/gpio_01_switches_leds/out/libs/vendor_libs/lpc_chip_43xx/src/evrt_18xx_43xx.o
Chip_EVRT_IsSourceInterrupting                    examples/c/sapi/bare_metal/gpio/gpio_01_switches_leds/out/libs/vendor_libs/lpc_chip_43xx/src/evrt_18xx_43xx.o
Chip_EVRT_SetUpIntSrc                             examples/c/sapi/bare_metal/gpio/gpio_01_switches_leds/out/libs/vendor_libs/lpc_chip_43xx/src/evrt_18xx_43xx.o
Chip_GPDMA_ChannelCmd                             examples/c/sapi/bare_metal/gpio/gpio_01_switches_leds/out/libs/vendor_libs/lpc_chip_43xx/src/gpdma_18xx_43xx.o
Chip_GPDMA_ClearIntPending                        examples/c/sapi/bare_metal/gpio/gpio_01_switches_leds/out/libs/vendor_libs/lpc_chip_43xx/src/gpdma_18xx_43xx.o
Chip_GPDMA_DeInit                                 examples/c/sapi/bare_metal/gpio/gpio_01_switches_leds/out/libs/vendor_libs/lpc_chip_43xx/src/gpdma_18xx_43xx.o
Chip_GPDMA_GetFreeChannel                         examples/c/sapi/bare_metal/gpio/gpio_01_switches_leds/out/libs/vendor_libs/lpc_chip_43xx/src/gpdma_18xx_43xx.o
Chip_GPDMA_Init                                   examples/c/sapi/bare_metal/gpio/gpio_01_switches_leds/out/libs/vendor_libs/lpc_chip_43xx/src/gpdma_18xx_43xx.o
Chip_GPDMA_InitChannelCfg                         examples/c/sapi/bare_metal/gpio/gpio_01_switches_leds/out/libs/vendor_libs/lpc_chip_43xx/src/gpdma_18xx_43xx.o
Chip_GPDMA_IntGetStatus                           examples/c/sapi/bare_metal/gpio/gpio_01_switches_leds/out/libs/vendor_libs/lpc_chip_43xx/src/gpdma_18xx_43xx.o
Chip_GPDMA_Interrupt                              examples/c/sapi/bare_metal/gpio/gpio_01_switches_leds/out/libs/vendor_libs/lpc_chip_43xx/src/gpdma_18xx_43xx.o
Chip_GPDMA_PrepareDescriptor                      examples/c/sapi/bare_metal/gpio/gpio_01_switches_leds/out/libs/vendor_libs/lpc_chip_43xx/src/gpdma_18xx_43xx.o
Chip_GPDMA_SGTransfer                             examples/c/sapi/bare_metal/gpio/gpio_01_switches_leds/out/libs/vendor_libs/lpc_chip_43xx/src/gpdma_18xx_43xx.o
Chip_GPDMA_Stop                                   examples/c/sapi/bare_metal/gpio/gpio_01_switches_leds/out/libs/vendor_libs/lpc_chip_43xx/src/gpdma_18xx_43xx.o
Chip_GPDMA_Transfer                               examples/c/sapi/bare_metal/gpio/gpio_01_switches_leds/out/libs/vendor_libs/lpc_chip_43xx/src/gpdma_18xx_43xx.o
Chip_GPIO_DeInit                                  examples/c/sapi/bare_metal/gpio/gpio_01_switches_leds/out/libs/vendor_libs/lpc_chip_43xx/src/gpio_18xx_43xx.o
Chip_GPIO_Init                                    examples/c/sapi/bare_metal/gpio/gpio_01_switches_leds/out/libs/vendor_libs/lpc_chip_43xx/src/gpio_18xx_43xx.o
                                                  examples/c/sapi/bare_metal/gpio/gpio_01_switches_leds/out/libs/vendor_libs/lpc_board_ciaa_edu_4337/src/board.o
                                                  examples/c/sapi/bare_metal/gpio/gpio_01_switches_leds/out/libs/sapi/sapi_v0.5.1/src/sapi_gpio.o
Chip_I2CM_DeInit                                  examples/c/sapi/bare_metal/gpio/gpio_01_switches_leds/out/libs/vendor_libs/lpc_chip_43xx/src/i2cm_18xx_43xx.o
Chip_I2CM_Init                                    examples/c/sapi/bare_metal/gpio/gpio_01_switches_leds/out/libs/vendor_libs/lpc_chip_43xx/src/i2cm_18xx_43xx.o
Chip_I2CM_Read                                    examples/c/sapi/bare_metal/gpio/gpio_01_switches_leds/out/libs/vendor_libs/lpc_chip_43xx/src/i2cm_18xx_43xx.o
Chip_I2CM_SetBusSpeed                             examples/c/sapi/bare_metal/gpio/gpio_01_switches_leds/out/libs/vendor_libs/lpc_chip_43xx/src/i2cm_18xx_43xx.o
Chip_I2CM_Write                                   examples/c/sapi/bare_metal/gpio/gpio_01_switches_leds/out/libs/vendor_libs/lpc_chip_43xx/src/i2cm_18xx_43xx.o
Chip_I2CM_Xfer                                    examples/c/sapi/bare_metal/gpio/gpio_01_switches_leds/out/libs/vendor_libs/lpc_chip_43xx/src/i2cm_18xx_43xx.o
Chip_I2CM_XferBlocking                            examples/c/sapi/bare_metal/gpio/gpio_01_switches_leds/out/libs/vendor_libs/lpc_chip_43xx/src/i2cm_18xx_43xx.o
                                                  examples/c/sapi/bare_metal/gpio/gpio_01_switches_leds/out/libs/sapi/sapi_v0.5.1/src/sapi_i2c.o
Chip_I2CM_XferHandler                             examples/c/sapi/bare_metal/gpio/gpio_01_switches_leds/out/libs/vendor_libs/lpc_chip_43xx/src/i2cm_18xx_43xx.o
Chip_I2C_DeInit                                   examples/c/sapi/bare_metal/gpio/gpio_01_switches_leds/out/libs/vendor_libs/lpc_chip_43xx/src/i2c_18xx_43xx.o
Chip_I2C_Disable                                  examples/c/sapi/bare_metal/gpio/gpio_01_switches_leds/out/libs/vendor_libs/lpc_chip_43xx/src/i2c_18xx_43xx.o
Chip_I2C_EventHandler                             examples/c/sapi/bare_metal/gpio/gpio_01_switches_leds/out/libs/vendor_libs/lpc_chip_43xx/src/i2c_18xx_43xx.o
Chip_I2C_EventHandlerPolling                      examples/c/sapi/bare_metal/gpio/gpio_01_switches_leds/out/libs/vendor_libs/lpc_chip_43xx/src/i2c_18xx_43xx.o
                                                  examples/c/sapi/bare_metal/gpio/gpio_01_switches_leds/out/libs/sapi/sapi_v0.5.1/src/sapi_i2c.o
Chip_I2C_GetClockRate                             examples/c/sapi/bare_metal/gpio/gpio_01_switches_leds/out/libs/vendor_libs/lpc_chip_43xx/src/i2c_18xx_43xx.o
Chip_I2C_GetMasterEventHandler                    examples/c/sapi/bare_metal/gpio/gpio_01_switches_leds/out/libs/vendor_libs/lpc_chip_43xx/src/i2c_18xx_43xx.o
Chip_I2C_Init                                     examples/c/sapi/bare_metal/gpio/gpio_01_switches_leds/out/libs/vendor_libs/lpc_chip_43xx/src/i2c_18xx_43xx.o
                                                  examples/c/sapi/bare_metal/gpio/gpio_01_switches_leds/out/libs/vendor_libs/lpc_board_ciaa_edu_4337/src/board.o
                                                  examples/c/sapi/bare_metal/gpio/gpio_01_switches_leds/out/libs/sapi/sapi_v0.5.1/src/sapi_i2c.o
Chip_I2C_IsMasterActive                           examples/c/sapi/bare_metal/gpio/gpio_01_switches_leds/out/libs/vendor_libs/lpc_chip_43xx/src/i2c_18xx_43xx.o
Chip_I2C_IsStateChanged                           examples/c/sapi/bare_metal/gpio/gpio_01_switches_leds/out/libs/vendor_libs/lpc_chip_43xx/src/i2c_18xx_43xx.o
Chip_I2C_MasterCmdRead                            examples/c/sapi/bare_metal/gpio/gpio_01_switches_leds/out/libs/vendor_libs/lpc_chip_43xx/src/i2c_18xx_43xx.o
Chip_I2C_MasterRead                               examples/c/sapi/bare_metal/gpio/gpio_01_switches_leds/out/libs/vendor_libs/lpc_chip_43xx/src/i2c_18xx_43xx.o
Chip_I2C_MasterSend                               examples/c/sapi/bare_metal/gpio/gpio_01_switches_leds/out/libs/vendor_libs/lpc_chip_43xx/src/i2c_18xx_43xx.o
Chip_I2C_MasterStateHandler                       examples/c/sapi/bare_metal/gpio/gpio_01_switches_leds/out/libs/vendor_libs/lpc_chip_43xx/src/i2c_18xx_43xx.o
Chip_I2C_MasterTransfer                           examples/c/sapi/bare_metal/gpio/gpio_01_switches_leds/out/libs/vendor_libs/lpc_chip_43xx/src/i2c_18xx_43xx.o
Chip_I2C_SetClockRate                             examples/c/sapi/bare_metal/gpio/gpio_01_switches_leds/out/libs/vendor_libs/lpc_chip_43xx/src/i2c_18xx_43xx.o
                                                  examples/c/sapi/bare_metal/gpio/gpio_01_switches_leds/out/libs/vendor_libs/lpc_board_ciaa_edu_4337/src/board.o
                                                  examples/c/sapi/bare_metal/gpio/gpio_01_switches_leds/out/libs/sapi/sapi_v0.5.1/src/sapi_i2c.o
Chip_I2C_SetMasterEventHandler                    examples/c/sapi/bare_metal/gpio/gpio_01_switches_leds/out/libs/vendor_libs/lpc_chip_43xx/src/i2c_18xx_43xx.o
                                                  examples/c/sapi/bare_metal/gpio/gpio_01_switches_leds/out/libs/sapi/sapi_v0.5.1/src/sapi_i2c.o
Chip_I2C_SlaveSetup                               examples/c/sapi/bare_metal/gpio/gpio_01_switches_leds/out/libs/vendor_libs/lpc_chip_43xx/src/i2c_18xx_43xx.o
Chip_I2C_SlaveStateHandler                        examples/c/sapi/bare_metal/gpio/gpio_01_switches_leds/out/libs/vendor_libs/lpc_chip_43xx/src/i2c_18xx_43xx.o
Chip_I2S_DMA_RxCmd                                examples/c/sapi/bare_metal/gpio/gpio_01_switches_leds/out/libs/vendor_libs/lpc_chip_43xx/src/i2s_18xx_43xx.o
Chip_I2S_DMA_TxCmd                                examples/c/sapi/bare_metal/gpio/gpio_01_switches_leds/out/libs/vendor_libs/lpc_chip_43xx/src/i2s_18xx_43xx.o
Chip_I2S_DeInit                                   examples/c/sapi/bare_metal/gpio/gpio_01_switches_leds/out/libs/vendor_libs/lpc_chip_43xx/src/i2s_18xx_43xx.o
Chip_I2S_Init                                     examples/c/sapi/bare_metal/gpio/gpio_01_switches_leds/out/libs/vendor_libs/lpc_chip_43xx/src/i2s_18xx_43xx.o
Chip_I2S_Int_RxCmd                                examples/c/sapi/bare_metal/gpio/gpio_01_switches_leds/out/libs/vendor_libs/lpc_chip_43xx/src/i2s_18xx_43xx.o
Chip_I2S_Int_TxCmd                                examples/c/sapi/bare_metal/gpio/gpio_01_switches_leds/out/libs/vendor_libs/lpc_chip_43xx/src/i2s_18xx_43xx.o
Chip_I2S_RxConfig                                 examples/c/sapi/bare_metal/gpio/gpio_01_switches_leds/out/libs/vendor_libs/lpc_chip_43xx/src/i2s_18xx_43xx.o
Chip_I2S_TxConfig                                 examples/c/sapi/bare_metal/gpio/gpio_01_switches_leds/out/libs/vendor_libs/lpc_chip_43xx/src/i2s_18xx_43xx.o
Chip_IAP_BlankCheckSector                         examples/c/sapi/bare_metal/gpio/gpio_01_switches_leds/out/libs/vendor_libs/lpc_chip_43xx/src/iap_18xx_43xx.o
Chip_IAP_Compare                                  examples/c/sapi/bare_metal/gpio/gpio_01_switches_leds/out/libs/vendor_libs/lpc_chip_43xx/src/iap_18xx_43xx.o
Chip_IAP_CopyRamToFlash                           examples/c/sapi/bare_metal/gpio/gpio_01_switches_leds/out/libs/vendor_libs/lpc_chip_43xx/src/iap_18xx_43xx.o
Chip_IAP_ErasePage                                examples/c/sapi/bare_metal/gpio/gpio_01_switches_leds/out/libs/vendor_libs/lpc_chip_43xx/src/iap_18xx_43xx.o
Chip_IAP_EraseSector                              examples/c/sapi/bare_metal/gpio/gpio_01_switches_leds/out/libs/vendor_libs/lpc_chip_43xx/src/iap_18xx_43xx.o
Chip_IAP_Init                                     examples/c/sapi/bare_metal/gpio/gpio_01_switches_leds/out/libs/vendor_libs/lpc_chip_43xx/src/iap_18xx_43xx.o
Chip_IAP_PreSectorForReadWrite                    examples/c/sapi/bare_metal/gpio/gpio_01_switches_leds/out/libs/vendor_libs/lpc_chip_43xx/src/iap_18xx_43xx.o
Chip_IAP_ReadBootCode                             examples/c/sapi/bare_metal/gpio/gpio_01_switches_leds/out/libs/vendor_libs/lpc_chip_43xx/src/iap_18xx_43xx.o
Chip_IAP_ReadPID                                  examples/c/sapi/bare_metal/gpio/gpio_01_switches_leds/out/libs/vendor_libs/lpc_chip_43xx/src/iap_18xx_43xx.o
Chip_IAP_ReadUID                                  examples/c/sapi/bare_metal/gpio/gpio_01_switches_leds/out/libs/vendor_libs/lpc_chip_43xx/src/iap_18xx_43xx.o
Chip_IAP_ReinvokeISP                              examples/c/sapi/bare_metal/gpio/gpio_01_switches_leds/out/libs/vendor_libs/lpc_chip_43xx/src/iap_18xx_43xx.o
Chip_IAP_SetBootFlashBank                         examples/c/sapi/bare_metal/gpio/gpio_01_switches_leds/out/libs/vendor_libs/lpc_chip_43xx/src/iap_18xx_43xx.o
Chip_LCD_Cursor_Config                            examples/c/sapi/bare_metal/gpio/gpio_01_switches_leds/out/libs/vendor_libs/lpc_chip_43xx/src/lcd_18xx_43xx.o
Chip_LCD_Cursor_WriteImage                        examples/c/sapi/bare_metal/gpio/gpio_01_switches_leds/out/libs/vendor_libs/lpc_chip_43xx/src/lcd_18xx_43xx.o
Chip_LCD_DeInit                                   examples/c/sapi/bare_metal/gpio/gpio_01_switches_leds/out/libs/vendor_libs/lpc_chip_43xx/src/lcd_18xx_43xx.o
Chip_LCD_Init                                     examples/c/sapi/bare_metal/gpio/gpio_01_switches_leds/out/libs/vendor_libs/lpc_chip_43xx/src/lcd_18xx_43xx.o
Chip_LCD_LoadPalette                              examples/c/sapi/bare_metal/gpio/gpio_01_switches_leds/out/libs/vendor_libs/lpc_chip_43xx/src/lcd_18xx_43xx.o
Chip_OTP_GenRand                                  examples/c/sapi/bare_metal/gpio/gpio_01_switches_leds/out/libs/vendor_libs/lpc_chip_43xx/src/otp_18xx_43xx.o
Chip_OTP_Init                                     examples/c/sapi/bare_metal/gpio/gpio_01_switches_leds/out/libs/vendor_libs/lpc_chip_43xx/src/otp_18xx_43xx.o
Chip_OTP_ProgBootSrc                              examples/c/sapi/bare_metal/gpio/gpio_01_switches_leds/out/libs/vendor_libs/lpc_chip_43xx/src/otp_18xx_43xx.o
Chip_OTP_ProgGPWord                               examples/c/sapi/bare_metal/gpio/gpio_01_switches_leds/out/libs/vendor_libs/lpc_chip_43xx/src/otp_18xx_43xx.o
Chip_OTP_ProgJTAGDis                              examples/c/sapi/bare_metal/gpio/gpio_01_switches_leds/out/libs/vendor_libs/lpc_chip_43xx/src/otp_18xx_43xx.o
Chip_OTP_ProgKey                                  examples/c/sapi/bare_metal/gpio/gpio_01_switches_leds/out/libs/vendor_libs/lpc_chip_43xx/src/otp_18xx_43xx.o
Chip_OTP_ProgUSBID                                examples/c/sapi/bare_metal/gpio/gpio_01_switches_leds/out/libs/vendor_libs/lpc_chip_43xx/src/otp_18xx_43xx.o
Chip_PMC_Set_PwrState                             examples/c/sapi/bare_metal/gpio/gpio_01_switches_leds/out/libs/vendor_libs/lpc_chip_43xx/src/pmc_18xx_43xx.o
Chip_PMC_Sleep                                    examples/c/sapi/bare_metal/gpio/gpio_01_switches_leds/out/libs/vendor_libs/lpc_chip_43xx/src/pmc_18xx_43xx.o
Chip_RIT_DeInit                                   examples/c/sapi/bare_metal/gpio/gpio_01_switches_leds/out/libs/vendor_libs/lpc_chip_43xx/src/ritimer_18xx_43xx.o
Chip_RIT_GetIntStatus                             examples/c/sapi/bare_metal/gpio/gpio_01_switches_leds/out/libs/vendor_libs/lpc_chip_43xx/src/ritimer_18xx_43xx.o
Chip_RIT_Init                                     examples/c/sapi/bare_metal/gpio/gpio_01_switches_leds/out/libs/vendor_libs/lpc_chip_43xx/src/ritimer_18xx_43xx.o
Chip_RIT_SetTimerInterval                         examples/c/sapi/bare_metal/gpio/gpio_01_switches_leds/out/libs/vendor_libs/lpc_chip_43xx/src/ritimer_18xx_43xx.o
Chip_RTC_AlarmIntConfig                           examples/c/sapi/bare_metal/gpio/gpio_01_switches_leds/out/libs/vendor_libs/lpc_chip_43xx/src/rtc_18xx_43xx.o
Chip_RTC_CalibCounterCmd                          examples/c/sapi/bare_metal/gpio/gpio_01_switches_leds/out/libs/vendor_libs/lpc_chip_43xx/src/rtc_18xx_43xx.o
Chip_RTC_CntIncrIntConfig                         examples/c/sapi/bare_metal/gpio/gpio_01_switches_leds/out/libs/vendor_libs/lpc_chip_43xx/src/rtc_18xx_43xx.o
Chip_RTC_DeInit                                   examples/c/sapi/bare_metal/gpio/gpio_01_switches_leds/out/libs/vendor_libs/lpc_chip_43xx/src/rtc_18xx_43xx.o
Chip_RTC_EV_GetFirstTimeStamp                     examples/c/sapi/bare_metal/gpio/gpio_01_switches_leds/out/libs/vendor_libs/lpc_chip_43xx/src/rtc_18xx_43xx.o
Chip_RTC_EV_GetLastTimeStamp                      examples/c/sapi/bare_metal/gpio/gpio_01_switches_leds/out/libs/vendor_libs/lpc_chip_43xx/src/rtc_18xx_43xx.o
Chip_RTC_Enable                                   examples/c/sapi/bare_metal/gpio/gpio_01_switches_leds/out/libs/vendor_libs/lpc_chip_43xx/src/rtc_18xx_43xx.o
                                                  examples/c/sapi/bare_metal/gpio/gpio_01_switches_leds/out/libs/sapi/sapi_v0.5.1/src/sapi_rtc.o
Chip_RTC_GetFullAlarmTime                         examples/c/sapi/bare_metal/gpio/gpio_01_switches_leds/out/libs/vendor_libs/lpc_chip_43xx/src/rtc_18xx_43xx.o
Chip_RTC_GetFullTime                              examples/c/sapi/bare_metal/gpio/gpio_01_switches_leds/out/libs/vendor_libs/lpc_chip_43xx/src/rtc_18xx_43xx.o
                                                  examples/c/sapi/bare_metal/gpio/gpio_01_switches_leds/out/libs/sapi/sapi_v0.5.1/src/sapi_rtc.o
Chip_RTC_Init                                     examples/c/sapi/bare_metal/gpio/gpio_01_switches_leds/out/libs/vendor_libs/lpc_chip_43xx/src/rtc_18xx_43xx.o
                                                  examples/c/sapi/bare_metal/gpio/gpio_01_switches_leds/out/libs/sapi/sapi_v0.5.1/src/sapi_rtc.o
Chip_RTC_ResetClockTickCounter                    examples/c/sapi/bare_metal/gpio/gpio_01_switches_leds/out/libs/vendor_libs/lpc_chip_43xx/src/rtc_18xx_43xx.o
Chip_RTC_SetFullAlarmTime                         examples/c/sapi/bare_metal/gpio/gpio_01_switches_leds/out/libs/vendor_libs/lpc_chip_43xx/src/rtc_18xx_43xx.o
Chip_RTC_SetFullTime                              examples/c/sapi/bare_metal/gpio/gpio_01_switches_leds/out/libs/vendor_libs/lpc_chip_43xx/src/rtc_18xx_43xx.o
                                                  examples/c/sapi/bare_metal/gpio/gpio_01_switches_leds/out/libs/sapi/sapi_v0.5.1/src/sapi_rtc.o
Chip_SCTPWM_SetOutPin                             examples/c/sapi/bare_metal/gpio/gpio_01_switches_leds/out/libs/vendor_libs/lpc_chip_43xx/src/sct_pwm_18xx_43xx.o
                                                  examples/c/sapi/bare_metal/gpio/gpio_01_switches_leds/out/libs/sapi/sapi_v0.5.1/src/sapi_sct.o
Chip_SCTPWM_SetRate                               examples/c/sapi/bare_metal/gpio/gpio_01_switches_leds/out/libs/vendor_libs/lpc_chip_43xx/src/sct_pwm_18xx_43xx.o
                                                  examples/c/sapi/bare_metal/gpio/gpio_01_switches_leds/out/libs/sapi/sapi_v0.5.1/src/sapi_sct.o
Chip_SCT_DeInit                                   examples/c/sapi/bare_metal/gpio/gpio_01_switches_leds/out/libs/vendor_libs/lpc_chip_43xx/src/sct_18xx_43xx.o
Chip_SCT_Init                                     examples/c/sapi/bare_metal/gpio/gpio_01_switches_leds/out/libs/vendor_libs/lpc_chip_43xx/src/sct_18xx_43xx.o
                                                  examples/c/sapi/bare_metal/gpio/gpio_01_switches_leds/out/libs/sapi/sapi_v0.5.1/src/sapi_sct.o
Chip_SCT_SetClrControl                            examples/c/sapi/bare_metal/gpio/gpio_01_switches_leds/out/libs/vendor_libs/lpc_chip_43xx/src/sct_18xx_43xx.o
Chip_SCT_SetConflictResolution                    examples/c/sapi/bare_metal/gpio/gpio_01_switches_leds/out/libs/vendor_libs/lpc_chip_43xx/src/sct_18xx_43xx.o
Chip_SDIF_DeInit                                  examples/c/sapi/bare_metal/gpio/gpio_01_switches_leds/out/libs/vendor_libs/lpc_chip_43xx/src/sdif_18xx_43xx.o
Chip_SDIF_DmaSetup                                examples/c/sapi/bare_metal/gpio/gpio_01_switches_leds/out/libs/vendor_libs/lpc_chip_43xx/src/sdif_18xx_43xx.o
                                                  examples/c/sapi/bare_metal/gpio/gpio_01_switches_leds/out/libs/vendor_libs/lpc_chip_43xx/src/sdio_18xx_43xx.o
                                                  examples/c/sapi/bare_metal/gpio/gpio_01_switches_leds/out/libs/vendor_libs/lpc_chip_43xx/src/sdmmc_18xx_43xx.o
Chip_SDIF_GetResponse                             examples/c/sapi/bare_metal/gpio/gpio_01_switches_leds/out/libs/vendor_libs/lpc_chip_43xx/src/sdif_18xx_43xx.o
                                                  examples/c/sapi/bare_metal/gpio/gpio_01_switches_leds/out/libs/vendor_libs/lpc_chip_43xx/src/sdio_18xx_43xx.o
                                                  examples/c/sapi/bare_metal/gpio/gpio_01_switches_leds/out/libs/vendor_libs/lpc_chip_43xx/src/sdmmc_18xx_43xx.o
Chip_SDIF_Init                                    examples/c/sapi/bare_metal/gpio/gpio_01_switches_leds/out/libs/vendor_libs/lpc_chip_43xx/src/sdif_18xx_43xx.o
Chip_SDIF_SendCmd                                 examples/c/sapi/bare_metal/gpio/gpio_01_switches_leds/out/libs/vendor_libs/lpc_chip_43xx/src/sdif_18xx_43xx.o
                                                  examples/c/sapi/bare_metal/gpio/gpio_01_switches_leds/out/libs/vendor_libs/lpc_chip_43xx/src/sdio_18xx_43xx.o
                                                  examples/c/sapi/bare_metal/gpio/gpio_01_switches_leds/out/libs/vendor_libs/lpc_chip_43xx/src/sdmmc_18xx_43xx.o
Chip_SDIF_SetClearIntFifo                         examples/c/sapi/bare_metal/gpio/gpio_01_switches_leds/out/libs/vendor_libs/lpc_chip_43xx/src/sdif_18xx_43xx.o
                                                  examples/c/sapi/bare_metal/gpio/gpio_01_switches_leds/out/libs/vendor_libs/lpc_chip_43xx/src/sdmmc_18xx_43xx.o
Chip_SDIF_SetClock                                examples/c/sapi/bare_metal/gpio/gpio_01_switches_leds/out/libs/vendor_libs/lpc_chip_43xx/src/sdif_18xx_43xx.o
                                                  examples/c/sapi/bare_metal/gpio/gpio_01_switches_leds/out/libs/vendor_libs/lpc_chip_43xx/src/sdio_18xx_43xx.o
                                                  examples/c/sapi/bare_metal/gpio/gpio_01_switches_leds/out/libs/vendor_libs/lpc_chip_43xx/src/sdmmc_18xx_43xx.o
Chip_SDMMC_Acquire                                examples/c/sapi/bare_metal/gpio/gpio_01_switches_leds/out/libs/vendor_libs/lpc_chip_43xx/src/sdmmc_18xx_43xx.o
Chip_SDMMC_GetDeviceBlocks                        examples/c/sapi/bare_metal/gpio/gpio_01_switches_leds/out/libs/vendor_libs/lpc_chip_43xx/src/sdmmc_18xx_43xx.o
Chip_SDMMC_GetDeviceSize                          examples/c/sapi/bare_metal/gpio/gpio_01_switches_leds/out/libs/vendor_libs/lpc_chip_43xx/src/sdmmc_18xx_43xx.o
Chip_SDMMC_GetState                               examples/c/sapi/bare_metal/gpio/gpio_01_switches_leds/out/libs/vendor_libs/lpc_chip_43xx/src/sdmmc_18xx_43xx.o
Chip_SDMMC_ReadBlocks                             examples/c/sapi/bare_metal/gpio/gpio_01_switches_leds/out/libs/vendor_libs/lpc_chip_43xx/src/sdmmc_18xx_43xx.o
Chip_SDMMC_WriteBlocks                            examples/c/sapi/bare_metal/gpio/gpio_01_switches_leds/out/libs/vendor_libs/lpc_chip_43xx/src/sdmmc_18xx_43xx.o
Chip_SPI_DeInit                                   examples/c/sapi/bare_metal/gpio/gpio_01_switches_leds/out/libs/vendor_libs/lpc_chip_43xx/src/spi_18xx_43xx.o
Chip_SPI_Init                                     examples/c/sapi/bare_metal/gpio/gpio_01_switches_leds/out/libs/vendor_libs/lpc_chip_43xx/src/spi_18xx_43xx.o
Chip_SPI_Int_FlushData                            examples/c/sapi/bare_metal/gpio/gpio_01_switches_leds/out/libs/vendor_libs/lpc_chip_43xx/src/spi_18xx_43xx.o
Chip_SPI_Int_RWFrames                             examples/c/sapi/bare_metal/gpio/gpio_01_switches_leds/out/libs/vendor_libs/lpc_chip_43xx/src/spi_18xx_43xx.o
Chip_SPI_Int_RWFrames16Bits                       examples/c/sapi/bare_metal/gpio/gpio_01_switches_leds/out/libs/vendor_libs/lpc_chip_43xx/src/spi_18xx_43xx.o
Chip_SPI_Int_RWFrames8Bits                        examples/c/sapi/bare_metal/gpio/gpio_01_switches_leds/out/libs/vendor_libs/lpc_chip_43xx/src/spi_18xx_43xx.o
Chip_SPI_RWFrames_Blocking                        examples/c/sapi/bare_metal/gpio/gpio_01_switches_leds/out/libs/vendor_libs/lpc_chip_43xx/src/spi_18xx_43xx.o
Chip_SPI_SetBitRate                               examples/c/sapi/bare_metal/gpio/gpio_01_switches_leds/out/libs/vendor_libs/lpc_chip_43xx/src/spi_18xx_43xx.o
Chip_SSP_DeInit                                   examples/c/sapi/bare_metal/gpio/gpio_01_switches_leds/out/libs/vendor_libs/lpc_chip_43xx/src/ssp_18xx_43xx.o
Chip_SSP_Init                                     examples/c/sapi/bare_metal/gpio/gpio_01_switches_leds/out/libs/vendor_libs/lpc_chip_43xx/src/ssp_18xx_43xx.o
                                                  examples/c/sapi/bare_metal/gpio/gpio_01_switches_leds/out/libs/vendor_libs/lpc_board_ciaa_edu_4337/src/board.o
                                                  examples/c/sapi/bare_metal/gpio/gpio_01_switches_leds/out/libs/sapi/sapi_v0.5.1/src/sapi_spi.o
Chip_SSP_Int_FlushData                            examples/c/sapi/bare_metal/gpio/gpio_01_switches_leds/out/libs/vendor_libs/lpc_chip_43xx/src/ssp_18xx_43xx.o
Chip_SSP_Int_RWFrames16Bits                       examples/c/sapi/bare_metal/gpio/gpio_01_switches_leds/out/libs/vendor_libs/lpc_chip_43xx/src/ssp_18xx_43xx.o
Chip_SSP_Int_RWFrames8Bits                        examples/c/sapi/bare_metal/gpio/gpio_01_switches_leds/out/libs/vendor_libs/lpc_chip_43xx/src/ssp_18xx_43xx.o
Chip_SSP_RWFrames_Blocking                        examples/c/sapi/bare_metal/gpio/gpio_01_switches_leds/out/libs/vendor_libs/lpc_chip_43xx/src/ssp_18xx_43xx.o
                                                  examples/c/sapi/bare_metal/gpio/gpio_01_switches_leds/out/libs/sapi/sapi_v0.5.1/src/sapi_spi.o
Chip_SSP_ReadFrames_Blocking                      examples/c/sapi/bare_metal/gpio/gpio_01_switches_leds/out/libs/vendor_libs/lpc_chip_43xx/src/ssp_18xx_43xx.o
Chip_SSP_SetBitRate                               examples/c/sapi/bare_metal/gpio/gpio_01_switches_leds/out/libs/vendor_libs/lpc_chip_43xx/src/ssp_18xx_43xx.o
                                                  examples/c/sapi/bare_metal/gpio/gpio_01_switches_leds/out/libs/vendor_libs/lpc_board_ciaa_edu_4337/src/board.o
Chip_SSP_SetClockRate                             examples/c/sapi/bare_metal/gpio/gpio_01_switches_leds/out/libs/vendor_libs/lpc_chip_43xx/src/ssp_18xx_43xx.o
Chip_SSP_SetMaster                                examples/c/sapi/bare_metal/gpio/gpio_01_switches_leds/out/libs/vendor_libs/lpc_chip_43xx/src/ssp_18xx_43xx.o
Chip_SSP_WriteFrames_Blocking                     examples/c/sapi/bare_metal/gpio/gpio_01_switches_leds/out/libs/vendor_libs/lpc_chip_43xx/src/ssp_18xx_43xx.o
Chip_SetupCoreClock                               examples/c/sapi/bare_metal/gpio/gpio_01_switches_leds/out/libs/vendor_libs/lpc_chip_43xx/src/sysinit_18xx_43xx.o
                                                  examples/c/sapi/bare_metal/gpio/gpio_01_switches_leds/out/libs/vendor_libs/lpc_board_ciaa_edu_4337/src/board_sysinit.o
Chip_SetupIrcClocking                             examples/c/sapi/bare_metal/gpio/gpio_01_switches_leds/out/libs/vendor_libs/lpc_chip_43xx/src/sysinit_18xx_43xx.o
Chip_SetupXtalClocking                            examples/c/sapi/bare_metal/gpio/gpio_01_switches_leds/out/libs/vendor_libs/lpc_chip_43xx/src/sysinit_18xx_43xx.o
Chip_SystemInit                                   examples/c/sapi/bare_metal/gpio/gpio_01_switches_leds/out/libs/vendor_libs/lpc_chip_43xx/src/sysinit_18xx_43xx.o
Chip_TIMER_DeInit                                 examples/c/sapi/bare_metal/gpio/gpio_01_switches_leds/out/libs/vendor_libs/lpc_chip_43xx/src/timer_18xx_43xx.o
                                                  examples/c/sapi/bare_metal/gpio/gpio_01_switches_leds/out/libs/sapi/sapi_v0.5.1/src/sapi_timer.o
Chip_TIMER_ExtMatchControlSet                     examples/c/sapi/bare_metal/gpio/gpio_01_switches_leds/out/libs/vendor_libs/lpc_chip_43xx/src/timer_18xx_43xx.o
Chip_TIMER_Init                                   examples/c/sapi/bare_metal/gpio/gpio_01_switches_leds/out/libs/vendor_libs/lpc_chip_43xx/src/timer_18xx_43xx.o
                                                  examples/c/sapi/bare_metal/gpio/gpio_01_switches_leds/out/libs/vendor_libs/lpc_chip_43xx/src/stopwatch_18xx_43xx.o
                                                  examples/c/sapi/bare_metal/gpio/gpio_01_switches_leds/out/libs/sapi/sapi_v0.5.1/src/sapi_timer.o
Chip_TIMER_Reset                                  examples/c/sapi/bare_metal/gpio/gpio_01_switches_leds/out/libs/vendor_libs/lpc_chip_43xx/src/timer_18xx_43xx.o
                                                  examples/c/sapi/bare_metal/gpio/gpio_01_switches_leds/out/libs/sapi/sapi_v0.5.1/src/sapi_timer.o
Chip_UART_ABCmd                                   examples/c/sapi/bare_metal/gpio/gpio_01_switches_leds/out/libs/vendor_libs/lpc_chip_43xx/src/uart_18xx_43xx.o
Chip_UART_CheckBusy                               examples/c/sapi/bare_metal/gpio/gpio_01_switches_leds/out/libs/vendor_libs/lpc_chip_43xx/src/uart_18xx_43xx.o
Chip_UART_DeInit                                  examples/c/sapi/bare_metal/gpio/gpio_01_switches_leds/out/libs/vendor_libs/lpc_chip_43xx/src/uart_18xx_43xx.o
Chip_UART_GetABEOStatus                           examples/c/sapi/bare_metal/gpio/gpio_01_switches_leds/out/libs/vendor_libs/lpc_chip_43xx/src/uart_18xx_43xx.o
Chip_UART_IRQRBHandler                            examples/c/sapi/bare_metal/gpio/gpio_01_switches_leds/out/libs/vendor_libs/lpc_chip_43xx/src/uart_18xx_43xx.o
Chip_UART_Init                                    examples/c/sapi/bare_metal/gpio/gpio_01_switches_leds/out/libs/vendor_libs/lpc_chip_43xx/src/uart_18xx_43xx.o
                                                  examples/c/sapi/bare_metal/gpio/gpio_01_switches_leds/out/libs/vendor_libs/lpc_board_ciaa_edu_4337/src/board.o
                                                  examples/c/sapi/bare_metal/gpio/gpio_01_switches_leds/out/libs/sapi/sapi_v0.5.1/src/sapi_uart.o
Chip_UART_RXIntHandlerRB                          examples/c/sapi/bare_metal/gpio/gpio_01_switches_leds/out/libs/vendor_libs/lpc_chip_43xx/src/uart_18xx_43xx.o
Chip_UART_Read                                    examples/c/sapi/bare_metal/gpio/gpio_01_switches_leds/out/libs/vendor_libs/lpc_chip_43xx/src/uart_18xx_43xx.o
Chip_UART_ReadBlocking                            examples/c/sapi/bare_metal/gpio/gpio_01_switches_leds/out/libs/vendor_libs/lpc_chip_43xx/src/uart_18xx_43xx.o
Chip_UART_ReadRB                                  examples/c/sapi/bare_metal/gpio/gpio_01_switches_leds/out/libs/vendor_libs/lpc_chip_43xx/src/uart_18xx_43xx.o
Chip_UART_Send                                    examples/c/sapi/bare_metal/gpio/gpio_01_switches_leds/out/libs/vendor_libs/lpc_chip_43xx/src/uart_18xx_43xx.o
Chip_UART_SendBlocking                            examples/c/sapi/bare_metal/gpio/gpio_01_switches_leds/out/libs/vendor_libs/lpc_chip_43xx/src/uart_18xx_43xx.o
Chip_UART_SendRB                                  examples/c/sapi/bare_metal/gpio/gpio_01_switches_leds/out/libs/vendor_libs/lpc_chip_43xx/src/uart_18xx_43xx.o
Chip_UART_SetBaud                                 examples/c/sapi/bare_metal/gpio/gpio_01_switches_leds/out/libs/vendor_libs/lpc_chip_43xx/src/uart_18xx_43xx.o
                                                  examples/c/sapi/bare_metal/gpio/gpio_01_switches_leds/out/libs/sapi/sapi_v0.5.1/src/sapi_uart.o
Chip_UART_SetBaudFDR                              examples/c/sapi/bare_metal/gpio/gpio_01_switches_leds/out/libs/vendor_libs/lpc_chip_43xx/src/uart_18xx_43xx.o
                                                  examples/c/sapi/bare_metal/gpio/gpio_01_switches_leds/out/libs/vendor_libs/lpc_board_ciaa_edu_4337/src/board.o
Chip_UART_TXIntHandlerRB                          examples/c/sapi/bare_metal/gpio/gpio_01_switches_leds/out/libs/vendor_libs/lpc_chip_43xx/src/uart_18xx_43xx.o
Chip_USB0_Init                                    examples/c/sapi/bare_metal/gpio/gpio_01_switches_leds/out/libs/vendor_libs/lpc_chip_43xx/src/chip_18xx_43xx.o
Chip_USB1_Init                                    examples/c/sapi/bare_metal/gpio/gpio_01_switches_leds/out/libs/vendor_libs/lpc_chip_43xx/src/chip_18xx_43xx.o
Chip_WWDT_ClearStatusFlag                         examples/c/sapi/bare_metal/gpio/gpio_01_switches_leds/out/libs/vendor_libs/lpc_chip_43xx/src/wwdt_18xx_43xx.o
Chip_WWDT_DeInit                                  examples/c/sapi/bare_metal/gpio/gpio_01_switches_leds/out/libs/vendor_libs/lpc_chip_43xx/src/wwdt_18xx_43xx.o
Chip_WWDT_Init                                    examples/c/sapi/bare_metal/gpio/gpio_01_switches_leds/out/libs/vendor_libs/lpc_chip_43xx/src/wwdt_18xx_43xx.o
DAC_IRQHandler                                    examples/c/sapi/bare_metal/gpio/gpio_01_switches_leds/out/libs/vendor_libs/lpc_startup/src/cr_startup_lpc43xx.o
DMA_IRQHandler                                    examples/c/sapi/bare_metal/gpio/gpio_01_switches_leds/out/libs/vendor_libs/lpc_startup/src/cr_startup_lpc43xx.o
DWT_CTRL                                          examples/c/sapi/bare_metal/gpio/gpio_01_switches_leds/out/libs/sapi/sapi_v0.5.1/src/sapi_cyclesCounter.o
DWT_CYCCNT                                        examples/c/sapi/bare_metal/gpio/gpio_01_switches_leds/out/libs/sapi/sapi_v0.5.1/src/sapi_cyclesCounter.o
DebugMon_Handler                                  examples/c/sapi/bare_metal/gpio/gpio_01_switches_leds/out/libs/vendor_libs/lpc_startup/src/cr_startup_lpc43xx.o
ETH_IRQHandler                                    examples/c/sapi/bare_metal/gpio/gpio_01_switches_leds/out/libs/vendor_libs/lpc_startup/src/cr_startup_lpc43xx.o
EVRT_IRQHandler                                   examples/c/sapi/bare_metal/gpio/gpio_01_switches_leds/out/libs/vendor_libs/lpc_startup/src/cr_startup_lpc43xx.o
ExtRateIn                                         examples/c/sapi/bare_metal/gpio/gpio_01_switches_leds/out/libs/vendor_libs/lpc_board_ciaa_edu_4337/src/board.o
                                                  examples/c/sapi/bare_metal/gpio/gpio_01_switches_leds/out/libs/vendor_libs/lpc_chip_43xx/src/clock_18xx_43xx.o
FLASH_EEPROM_IRQHandler                           examples/c/sapi/bare_metal/gpio/gpio_01_switches_leds/out/libs/vendor_libs/lpc_startup/src/cr_startup_lpc43xx.o
GINT0_IRQHandler                                  examples/c/sapi/bare_metal/gpio/gpio_01_switches_leds/out/libs/vendor_libs/lpc_startup/src/cr_startup_lpc43xx.o
GINT1_IRQHandler                                  examples/c/sapi/bare_metal/gpio/gpio_01_switches_leds/out/libs/vendor_libs/lpc_startup/src/cr_startup_lpc43xx.o
GPIO0_IRQHandler                                  examples/c/sapi/bare_metal/gpio/gpio_01_switches_leds/out/libs/sapi/sapi_v0.5.1/src/sapi_ultrasonic_hcsr04.o
GPIO1_IRQHandler                                  examples/c/sapi/bare_metal/gpio/gpio_01_switches_leds/out/libs/sapi/sapi_v0.5.1/src/sapi_ultrasonic_hcsr04.o
GPIO2_IRQHandler                                  examples/c/sapi/bare_metal/gpio/gpio_01_switches_leds/out/libs/sapi/sapi_v0.5.1/src/sapi_ultrasonic_hcsr04.o
GPIO3_IRQHandler                                  examples/c/sapi/bare_metal/gpio/gpio_01_switches_leds/out/libs/vendor_libs/lpc_startup/src/cr_startup_lpc43xx.o
GPIO4_IRQHandler                                  examples/c/sapi/bare_metal/gpio/gpio_01_switches_leds/out/libs/vendor_libs/lpc_startup/src/cr_startup_lpc43xx.o
GPIO5_IRQHandler                                  examples/c/sapi/bare_metal/gpio/gpio_01_switches_leds/out/libs/vendor_libs/lpc_startup/src/cr_startup_lpc43xx.o
GPIO6_IRQHandler                                  examples/c/sapi/bare_metal/gpio/gpio_01_switches_leds/out/libs/vendor_libs/lpc_startup/src/cr_startup_lpc43xx.o
GPIO7_IRQHandler                                  examples/c/sapi/bare_metal/gpio/gpio_01_switches_leds/out/libs/vendor_libs/lpc_startup/src/cr_startup_lpc43xx.o
HardFault_Handler                                 examples/c/sapi/bare_metal/gpio/gpio_01_switches_leds/out/libs/vendor_libs/lpc_startup/src/cr_startup_lpc43xx.o
I2C0_IRQHandler                                   examples/c/sapi/bare_metal/gpio/gpio_01_switches_leds/out/libs/vendor_libs/lpc_startup/src/cr_startup_lpc43xx.o
I2C1_IRQHandler                                   examples/c/sapi/bare_metal/gpio/gpio_01_switches_leds/out/libs/vendor_libs/lpc_startup/src/cr_startup_lpc43xx.o
I2S0_IRQHandler                                   examples/c/sapi/bare_metal/gpio/gpio_01_switches_leds/out/libs/vendor_libs/lpc_startup/src/cr_startup_lpc43xx.o
I2S1_IRQHandler                                   examples/c/sapi/bare_metal/gpio/gpio_01_switches_leds/out/libs/vendor_libs/lpc_startup/src/cr_startup_lpc43xx.o
IntDefaultHandler                                 examples/c/sapi/bare_metal/gpio/gpio_01_switches_leds/out/libs/vendor_libs/lpc_startup/src/cr_startup_lpc43xx.o
LCD_IRQHandler                                    examples/c/sapi/bare_metal/gpio/gpio_01_switches_leds/out/libs/vendor_libs/lpc_startup/src/cr_startup_lpc43xx.o
M0APP_IRQHandler                                  examples/c/sapi/bare_metal/gpio/gpio_01_switches_leds/out/libs/vendor_libs/lpc_startup/src/cr_startup_lpc43xx.o
M0SUB_IRQHandler                                  examples/c/sapi/bare_metal/gpio/gpio_01_switches_leds/out/libs/vendor_libs/lpc_startup/src/cr_startup_lpc43xx.o
MCPWM_IRQHandler                                  examples/c/sapi/bare_metal/gpio/gpio_01_switches_leds/out/libs/vendor_libs/lpc_startup/src/cr_startup_lpc43xx.o
MemManage_Handler                                 examples/c/sapi/bare_metal/gpio/gpio_01_switches_leds/out/libs/vendor_libs/lpc_startup/src/cr_startup_lpc43xx.o
NMI_Handler                                       examples/c/sapi/bare_metal/gpio/gpio_01_switches_leds/out/libs/vendor_libs/lpc_startup/src/cr_startup_lpc43xx.o
OscRateIn                                         examples/c/sapi/bare_metal/gpio/gpio_01_switches_leds/out/libs/vendor_libs/lpc_board_ciaa_edu_4337/src/board.o
                                                  examples/c/sapi/bare_metal/gpio/gpio_01_switches_leds/out/libs/vendor_libs/lpc_chip_43xx/src/clock_18xx_43xx.o
PendSV_Handler                                    examples/c/sapi/bare_metal/gpio/gpio_01_switches_leds/out/libs/vendor_libs/lpc_startup/src/cr_startup_lpc43xx.o
QEI_IRQHandler                                    examples/c/sapi/bare_metal/gpio/gpio_01_switches_leds/out/libs/vendor_libs/lpc_startup/src/cr_startup_lpc43xx.o
RIT_IRQHandler                                    examples/c/sapi/bare_metal/gpio/gpio_01_switches_leds/out/libs/vendor_libs/lpc_startup/src/cr_startup_lpc43xx.o
RTC_IRQHandler                                    examples/c/sapi/bare_metal/gpio/gpio_01_switches_leds/out/libs/vendor_libs/lpc_startup/src/cr_startup_lpc43xx.o
ResetISR                                          examples/c/sapi/bare_metal/gpio/gpio_01_switches_leds/out/libs/vendor_libs/lpc_startup/src/cr_startup_lpc43xx.o
RingBuffer_Init                                   examples/c/sapi/bare_metal/gpio/gpio_01_switches_leds/out/libs/vendor_libs/lpc_chip_43xx/src/ring_buffer.o
RingBuffer_Insert                                 examples/c/sapi/bare_metal/gpio/gpio_01_switches_leds/out/libs/vendor_libs/lpc_chip_43xx/src/ring_buffer.o
                                                  examples/c/sapi/bare_metal/gpio/gpio_01_switches_leds/out/libs/vendor_libs/lpc_chip_43xx/src/uart_18xx_43xx.o
RingBuffer_InsertMult                             examples/c/sapi/bare_metal/gpio/gpio_01_switches_leds/out/libs/vendor_libs/lpc_chip_43xx/src/ring_buffer.o
                                                  examples/c/sapi/bare_metal/gpio/gpio_01_switches_leds/out/libs/vendor_libs/lpc_chip_43xx/src/uart_18xx_43xx.o
RingBuffer_Pop                                    examples/c/sapi/bare_metal/gpio/gpio_01_switches_leds/out/libs/vendor_libs/lpc_chip_43xx/src/ring_buffer.o
                                                  examples/c/sapi/bare_metal/gpio/gpio_01_switches_leds/out/libs/vendor_libs/lpc_chip_43xx/src/uart_18xx_43xx.o
RingBuffer_PopMult                                examples/c/sapi/bare_metal/gpio/gpio_01_switches_leds/out/libs/vendor_libs/lpc_chip_43xx/src/ring_buffer.o
                                                  examples/c/sapi/bare_metal/gpio/gpio_01_switches_leds/out/libs/vendor_libs/lpc_chip_43xx/src/uart_18xx_43xx.o
SCT_IRQHandler                                    examples/c/sapi/bare_metal/gpio/gpio_01_switches_leds/out/libs/vendor_libs/lpc_startup/src/cr_startup_lpc43xx.o
SDIO_Card_DisableInt                              examples/c/sapi/bare_metal/gpio/gpio_01_switches_leds/out/libs/vendor_libs/lpc_chip_43xx/src/sdio_18xx_43xx.o
SDIO_Card_EnableInt                               examples/c/sapi/bare_metal/gpio/gpio_01_switches_leds/out/libs/vendor_libs/lpc_chip_43xx/src/sdio_18xx_43xx.o
SDIO_Card_GetBlockSize                            examples/c/sapi/bare_metal/gpio/gpio_01_switches_leds/out/libs/vendor_libs/lpc_chip_43xx/src/sdio_18xx_43xx.o
SDIO_Card_Init                                    examples/c/sapi/bare_metal/gpio/gpio_01_switches_leds/out/libs/vendor_libs/lpc_chip_43xx/src/sdio_18xx_43xx.o
SDIO_Card_ReadData                                examples/c/sapi/bare_metal/gpio/gpio_01_switches_leds/out/libs/vendor_libs/lpc_chip_43xx/src/sdio_18xx_43xx.o
SDIO_Card_SetBlockSize                            examples/c/sapi/bare_metal/gpio/gpio_01_switches_leds/out/libs/vendor_libs/lpc_chip_43xx/src/sdio_18xx_43xx.o
SDIO_Card_WriteData                               examples/c/sapi/bare_metal/gpio/gpio_01_switches_leds/out/libs/vendor_libs/lpc_chip_43xx/src/sdio_18xx_43xx.o
SDIO_Handler                                      examples/c/sapi/bare_metal/gpio/gpio_01_switches_leds/out/libs/vendor_libs/lpc_chip_43xx/src/sdio_18xx_43xx.o
SDIO_IRQHandler                                   examples/c/sapi/bare_metal/gpio/gpio_01_switches_leds/out/libs/vendor_libs/lpc_startup/src/cr_startup_lpc43xx.o
SDIO_Read_Direct                                  examples/c/sapi/bare_metal/gpio/gpio_01_switches_leds/out/libs/vendor_libs/lpc_chip_43xx/src/sdio_18xx_43xx.o
SDIO_Send_Command                                 examples/c/sapi/bare_metal/gpio/gpio_01_switches_leds/out/libs/vendor_libs/lpc_chip_43xx/src/sdio_18xx_43xx.o
SDIO_Setup_Callback                               examples/c/sapi/bare_metal/gpio/gpio_01_switches_leds/out/libs/vendor_libs/lpc_chip_43xx/src/sdio_18xx_43xx.o
SDIO_WriteRead_Direct                             examples/c/sapi/bare_metal/gpio/gpio_01_switches_leds/out/libs/vendor_libs/lpc_chip_43xx/src/sdio_18xx_43xx.o
SDIO_Write_Direct                                 examples/c/sapi/bare_metal/gpio/gpio_01_switches_leds/out/libs/vendor_libs/lpc_chip_43xx/src/sdio_18xx_43xx.o
SGPIO_IRQHandler                                  examples/c/sapi/bare_metal/gpio/gpio_01_switches_leds/out/libs/vendor_libs/lpc_startup/src/cr_startup_lpc43xx.o
SPIFI_IRQHandler                                  examples/c/sapi/bare_metal/gpio/gpio_01_switches_leds/out/libs/vendor_libs/lpc_startup/src/cr_startup_lpc43xx.o
SPI_IRQHandler                                    examples/c/sapi/bare_metal/gpio/gpio_01_switches_leds/out/libs/vendor_libs/lpc_startup/src/cr_startup_lpc43xx.o
SSP0_IRQHandler                                   examples/c/sapi/bare_metal/gpio/gpio_01_switches_leds/out/libs/vendor_libs/lpc_startup/src/cr_startup_lpc43xx.o
SSP1_IRQHandler                                   examples/c/sapi/bare_metal/gpio/gpio_01_switches_leds/out/libs/vendor_libs/lpc_startup/src/cr_startup_lpc43xx.o
SVC_Handler                                       examples/c/sapi/bare_metal/gpio/gpio_01_switches_leds/out/libs/vendor_libs/lpc_startup/src/cr_startup_lpc43xx.o
Sct_EnablePwmFor                                  examples/c/sapi/bare_metal/gpio/gpio_01_switches_leds/out/libs/sapi/sapi_v0.5.1/src/sapi_sct.o
                                                  examples/c/sapi/bare_metal/gpio/gpio_01_switches_leds/out/libs/sapi/sapi_v0.5.1/src/sapi_pwm.o
Sct_GetDutyCycle                                  examples/c/sapi/bare_metal/gpio/gpio_01_switches_leds/out/libs/sapi/sapi_v0.5.1/src/sapi_sct.o
                                                  examples/c/sapi/bare_metal/gpio/gpio_01_switches_leds/out/libs/sapi/sapi_v0.5.1/src/sapi_pwm.o
Sct_Init                                          examples/c/sapi/bare_metal/gpio/gpio_01_switches_leds/out/libs/sapi/sapi_v0.5.1/src/sapi_sct.o
                                                  examples/c/sapi/bare_metal/gpio/gpio_01_switches_leds/out/libs/sapi/sapi_v0.5.1/src/sapi_pwm.o
Sct_SetDutyCycle                                  examples/c/sapi/bare_metal/gpio/gpio_01_switches_leds/out/libs/sapi/sapi_v0.5.1/src/sapi_sct.o
                                                  examples/c/sapi/bare_metal/gpio/gpio_01_switches_leds/out/libs/sapi/sapi_v0.5.1/src/sapi_pwm.o
Sct_Uint8ToTicks                                  examples/c/sapi/bare_metal/gpio/gpio_01_switches_leds/out/libs/sapi/sapi_v0.5.1/src/sapi_sct.o
StopWatch_Init                                    examples/c/sapi/bare_metal/gpio/gpio_01_switches_leds/out/libs/vendor_libs/lpc_chip_43xx/src/stopwatch_18xx_43xx.o
